{
	"data": {
		"bytecode": {
			"linkReferences": {},
			"object": "60a06040526001600b55600c805460ff1916905534801561001e575f80fd5b50604051612bbf380380612bbf83398101604081905261003d916101e7565b3360405180604001604052806008815260200167486173684a696e6760c01b81525060405180604001604052806002815260200161242560f11b815250815f908161008891906102ac565b50600161009582826102ac565b5050506001600160a01b0381166100c657604051631e4fbdf760e01b81525f60048201526024015b60405180910390fd5b6100cf816100f4565b5060016009556001600160a01b0381166080526100ee336102ee610145565b50610366565b600880546001600160a01b038381166001600160a01b0319831681179093556040519116919082907f8be0079c531659141344cd1fd0a4f28419497f9722a3daafe3b4186f6b6457e0905f90a35050565b6127106001600160601b03821681101561018457604051636f483d0960e01b81526001600160601b0383166004820152602481018290526044016100bd565b6001600160a01b0383166101ad57604051635b6cc80560e11b81525f60048201526024016100bd565b50604080518082019091526001600160a01b039092168083526001600160601b039091166020909201829052600160a01b90910217600655565b5f602082840312156101f7575f80fd5b81516001600160a01b038116811461020d575f80fd5b9392505050565b634e487b7160e01b5f52604160045260245ffd5b600181811c9082168061023c57607f821691505b60208210810361025a57634e487b7160e01b5f52602260045260245ffd5b50919050565b601f8211156102a757805f5260205f20601f840160051c810160208510156102855750805b601f840160051c820191505b818110156102a4575f8155600101610291565b50505b505050565b81516001600160401b038111156102c5576102c5610214565b6102d9816102d38454610228565b84610260565b6020601f82116001811461030b575f83156102f45750848201515b5f19600385901b1c1916600184901b1784556102a4565b5f84815260208120601f198516915b8281101561033a578785015182556020948501946001909201910161031a565b508482101561035757868401515f19600387901b60f8161c191681555b50505050600190811b01905550565b60805161283a6103855f395f818161039001526109cc015261283a5ff3fe608060405260043610610195575f3560e01c8063715018a6116100e7578063a22cb46511610087578063c87b56dd11610062578063c87b56dd14610488578063e797ec1b146104a7578063e985e9c5146104bb578063f2fde38b146104da575f80fd5b8063a22cb46514610430578063b85f3fb81461044f578063b88d4fde14610469575f80fd5b80638f2fc60b116100c25780638f2fc60b146103cf57806395d89b41146103ee57806399ec6765146104025780639fd6db1214610417575f80fd5b8063715018a61461036b5780638ada6b0f1461037f5780638da5cb5b146103b2575f80fd5b806323b872dd116101525780633dca40e61161012d5780633dca40e6146102e157806342842e0e1461030e5780636352211e1461032d57806370a082311461034c575f80fd5b806323b872dd146102705780632a55205a1461028f5780633ccfd60b146102cd575f80fd5b806301ffc9a71461019957806306fdde03146101cd578063081812fc146101ee578063095ea7b3146102255780631249c58b1461024657806318160ddd1461024e575b5f80fd5b3480156101a4575f80fd5b506101b86101b3366004611f79565b6104f9565b60405190151581526020015b60405180910390f35b3480156101d8575f80fd5b506101e1610509565b6040516101c49190611fc2565b3480156101f9575f80fd5b5061020d610208366004611fd4565b610598565b6040516001600160a01b0390911681526020016101c4565b348015610230575f80fd5b5061024461023f366004612001565b6105bf565b005b6102446105ce565b348015610259575f80fd5b50610262610682565b6040519081526020016101c4565b34801561027b575f80fd5b5061024461028a366004612029565b610697565b34801561029a575f80fd5b506102ae6102a9366004612063565b610725565b604080516001600160a01b0390931683526020830191909152016101c4565b3480156102d8575f80fd5b506102446107a8565b3480156102ec575f80fd5b506102f66103e881565b6040516001600160601b0390911681526020016101c4565b348015610319575f80fd5b50610244610328366004612029565b61083a565b348015610338575f80fd5b5061020d610347366004611fd4565b610859565b348015610357575f80fd5b50610262610366366004612083565b610863565b348015610376575f80fd5b506102446108a8565b34801561038a575f80fd5b5061020d7f000000000000000000000000000000000000000000000000000000000000000081565b3480156103bd575f80fd5b506008546001600160a01b031661020d565b3480156103da575f80fd5b506102446103e936600461209c565b6108f0565b3480156103f9575f80fd5b506101e1610947565b34801561040d575f80fd5b5061026261200081565b348015610422575f80fd5b50600c546101b89060ff1681565b34801561043b575f80fd5b5061024461044a3660046120dc565b610956565b34801561045a575f80fd5b5061026266071afd498d000081565b348015610474575f80fd5b50610244610483366004612176565b610961565b348015610493575f80fd5b506101e16104a2366004611fd4565b610979565b3480156104b2575f80fd5b50610244610b43565b3480156104c6575f80fd5b506101b86104d536600461221a565b610ba6565b3480156104e5575f80fd5b506102446104f4366004612083565b610bd3565b5f61050382610c0d565b92915050565b60605f80546105179061224b565b80601f01602080910402602001604051908101604052809291908181526020018280546105439061224b565b801561058e5780601f106105655761010080835404028352916020019161058e565b820191905f5260205f20905b81548152906001019060200180831161057157829003601f168201915b5050505050905090565b5f6105a282610c31565b505f828152600460205260409020546001600160a01b0316610503565b6105ca828233610c69565b5050565b6105d6610c76565b600c5460ff166105f9576040516317efbd6b60e01b815260040160405180910390fd5b600b5461200081111561061f576040516352df9fe560e01b815260040160405180910390fd5b66071afd498d00003414610646576040516339c5f2df60e01b815260040160405180910390fd5b610651816001612291565b600b5561065d81610ca0565b5f828152600a60205260409020556106753382610d06565b506106806001600955565b565b5f6001600b5461069291906122a4565b905090565b6001600160a01b0382166106c557604051633250574960e11b81525f60048201526024015b60405180910390fd5b5f6106d1838333610d1f565b9050836001600160a01b0316816001600160a01b03161461071f576040516364283d7b60e01b81526001600160a01b03808616600483015260248201849052821660448201526064016106bc565b50505050565b5f82815260076020526040812080548291906001600160a01b03811690600160a01b90046001600160601b0316816107785750506006546001600160a01b03811690600160a01b90046001600160601b03165b5f61271061078f6001600160601b038416896122b7565b61079991906122e2565b92989297509195505050505050565b6107b0610e13565b6040515f90339047908381818185875af1925050503d805f81146107ef576040519150601f19603f3d011682016040523d82523d5f602084013e6107f4565b606091505b50509050806108375760405162461bcd60e51b815260206004820152600f60248201526e15da5d1a191c985dc819985a5b1959608a1b60448201526064016106bc565b50565b61085483838360405180602001604052805f815250610961565b505050565b5f61050382610c31565b5f6001600160a01b03821661088d576040516322718ad960e21b81525f60048201526024016106bc565b506001600160a01b03165f9081526003602052604090205490565b60405162461bcd60e51b815260206004820152601d60248201527f72656e6f756e63654f776e6572736869702069732064697361626c656400000060448201526064016106bc565b6108f8610e13565b6103e86001600160601b038216111561093d5760405162461bcd60e51b81526020600482015260076024820152664d61782031302560c81b60448201526064016106bc565b6105ca8282610e40565b6060600180546105179061224b565b6105ca338383610ee2565b61096c848484610697565b61071f3385858585610f80565b6060610984826110a8565b6109a15760405163163a09e160e31b815260040160405180910390fd5b5f828152600a60205260408082205490516302158aa560e11b815260048101829052909190610a44907f00000000000000000000000000000000000000000000000000000000000000006001600160a01b03169063042b154a906024015f60405180830381865afa158015610a18573d5f803e3d5ffd5b505050506040513d5f823e601f3d908101601f19168201604052610a3f91908101906122f5565b6110dd565b90505f610a5083611103565b90505f610a5c8461114c565b90505f82610a87576040518060400160405280600581526020016466616c736560d81b815250610aa5565b604051806040016040528060048152602001637472756560e01b8152505b610ab18360ff16611291565b610abc876020611321565b604051602001610ace93929190612381565b60405160208183030381529060405290505f610b14610aec89611291565b8684604051602001610b009392919061246e565b6040516020818303038152906040526110dd565b905080604051602001610b279190612654565b6040516020818303038152906040529650505050505050919050565b610b4b610e13565b600c5460ff1615610b6f576040516339f3829b60e01b815260040160405180910390fd5b600c805460ff191660011790556040517f38cb976174a5c48b8f7b2f07f69b47c271ba7f019948915dc12efb770c2a542c905f90a1565b6001600160a01b039182165f90815260056020908152604080832093909416825291909152205460ff1690565b610bdb610e13565b6001600160a01b038116610c0457604051631e4fbdf760e01b81525f60048201526024016106bc565b6108378161149b565b5f6001600160e01b0319821663152a902d60e11b14806105035750610503826114ec565b5f818152600260205260408120546001600160a01b03168061050357604051637e27328960e01b8152600481018490526024016106bc565b610854838383600161153b565b600260095403610c9957604051633ee5aeb560e01b815260040160405180910390fd5b6002600955565b5f610cac6001436122a4565b604080519140602083015244908201526bffffffffffffffffffffffff1930606090811b8216818401526074830185905233901b16609482015260a801604051602081830303815290604052805190602001209050919050565b6105ca828260405180602001604052805f81525061163f565b5f828152600260205260408120546001600160a01b0390811690831615610d4b57610d4b818486611656565b6001600160a01b03811615610d8557610d665f855f8061153b565b6001600160a01b0381165f90815260036020526040902080545f190190555b6001600160a01b03851615610db3576001600160a01b0385165f908152600360205260409020805460010190555b5f8481526002602052604080822080546001600160a01b0319166001600160a01b0389811691821790925591518793918516917fddf252ad1be2c89b69c2b068fc378daa952ba7f163c4a11628f55a4df523b3ef91a490505b9392505050565b6008546001600160a01b031633146106805760405163118cdaa760e01b81523360048201526024016106bc565b6127106001600160601b038216811015610e7f57604051636f483d0960e01b81526001600160601b0383166004820152602481018290526044016106bc565b6001600160a01b038316610ea857604051635b6cc80560e11b81525f60048201526024016106bc565b50604080518082019091526001600160a01b039092168083526001600160601b039091166020909201829052600160a01b90910217600655565b6001600160a01b038216610f1457604051630b61174360e31b81526001600160a01b03831660048201526024016106bc565b6001600160a01b038381165f81815260056020908152604080832094871680845294825291829020805460ff191686151590811790915591519182527f17307eab39ab6107e8899845ad3d59bd9653f200f220920489ca2b5937696c31910160405180910390a3505050565b6001600160a01b0383163b156110a157604051630a85bd0160e11b81526001600160a01b0384169063150b7a0290610fc2908890889087908790600401612685565b6020604051808303815f875af1925050508015610ffc575060408051601f3d908101601f19168201909252610ff9918101906126c1565b60015b611063573d808015611029576040519150601f19603f3d011682016040523d82523d5f602084013e61102e565b606091505b5080515f0361105b57604051633250574960e11b81526001600160a01b03851660048201526024016106bc565b805181602001fd5b6001600160e01b03198116630a85bd0160e11b1461109f57604051633250574960e11b81526001600160a01b03851660048201526024016106bc565b505b5050505050565b5f81158015906110b95750600b5482105b80156105035750505f908152600260205260409020546001600160a01b0316151590565b6060610503826040518060600160405280604081526020016127c56040913960016116ba565b5f805f5b60208110156111425761112b848260208110611125576111256126dc565b1a611835565b6111389060ff1683612291565b9150600101611107565b5060801492915050565b5f8061115783611863565b9050611161611ecb565b5f805b60408160ff16101561128857835160ff821660408110611186576111866126dc565b602002015160ff161515806111b25750825160ff8216604081106111ac576111ac6126dc565b60200201515b611280576111be611ecb565b6111ca85858385611990565b1561127e57826111d9816126f0565b9350505f5b60048160ff16101561127c575f5b60408160ff16101561127357828260ff166004811061120d5761120d6126dc565b60200201518160ff1660408110611226576112266126dc565b60200201511561126b576001868360ff1660048110611247576112476126dc565b60200201518260ff1660408110611260576112606126dc565b911515602090920201525b6001016111ec565b506001016111de565b505b505b600101611164565b50949350505050565b60605f61129d83611bf0565b60010190505f8167ffffffffffffffff8111156112bc576112bc61210a565b6040519080825280601f01601f1916602001820160405280156112e6576020820181803683370190505b5090508181016020015b5f19016f181899199a1a9b1b9c1cb0b131b232b360811b600a86061a8153600a85049450846112f057509392505050565b6060825f6113308460026122b7565b61133b906002612291565b67ffffffffffffffff8111156113535761135361210a565b6040519080825280601f01601f19166020018201604052801561137d576020820181803683370190505b509050600360fc1b815f81518110611397576113976126dc565b60200101906001600160f81b03191690815f1a905350600f60fb1b816001815181106113c5576113c56126dc565b60200101906001600160f81b03191690815f1a9053505f6113e78560026122b7565b6113f2906001612291565b90505b6001811115611469576f181899199a1a9b1b9c1cb0b131b232b360811b83600f1660108110611426576114266126dc565b1a60f81b82828151811061143c5761143c6126dc565b60200101906001600160f81b03191690815f1a90535060049290921c916114628161270e565b90506113f5565b5081156114935760405163e22e27eb60e01b815260048101869052602481018590526044016106bc565b949350505050565b600880546001600160a01b038381166001600160a01b0319831681179093556040519116919082907f8be0079c531659141344cd1fd0a4f28419497f9722a3daafe3b4186f6b6457e0905f90a35050565b5f6001600160e01b031982166380ac58cd60e01b148061151c57506001600160e01b03198216635b5e139f60e01b145b8061050357506301ffc9a760e01b6001600160e01b0319831614610503565b808061154f57506001600160a01b03821615155b15611610575f61155e84610c31565b90506001600160a01b0383161580159061158a5750826001600160a01b0316816001600160a01b031614155b801561159d575061159b8184610ba6565b155b156115c65760405163a9fbf51f60e01b81526001600160a01b03841660048201526024016106bc565b811561160e5783856001600160a01b0316826001600160a01b03167f8c5be1e5ebec7d5bd14f71427d1e84f3dd0314c0f7b2291e5b200ac8c7c3b92560405160405180910390a45b505b50505f90815260046020526040902080546001600160a01b0319166001600160a01b0392909216919091179055565b6116498383611cc7565b610854335f858585610f80565b611661838383611d28565b610854576001600160a01b03831661168f57604051637e27328960e01b8152600481018290526024016106bc565b60405163177e802f60e01b81526001600160a01b0383166004820152602481018290526044016106bc565b606083515f036116d8575060408051602081019091525f8152610e0c565b5f82611708576003855160046116ee91906122b7565b6116f9906002612291565b61170391906122e2565b61172d565b6003855160026117189190612291565b61172291906122e2565b61172d9060046122b7565b90505f8167ffffffffffffffff8111156117495761174961210a565b6040519080825280601f01601f191660200182016040528015611773576020820181803683370190505b509050600185016020820187885189016020810180515f82525b828410156117e8576003840193508351603f8160121c168701518653600186019550603f81600c1c168701518653600186019550603f8160061c168701518653600186019550603f811687015186535060018501945061178d565b9052505085156118295760038851066001811461180c576002811461181f57611827565b603d6001830353603d6002830353611827565b603d60018303535b505b50909695505050505050565b5f5b60ff82161561185e5761184d6001831682612723565b905060018260ff16901c9150611837565b919050565b61186b611ef8565b5f5b602081101561198a575f600484836020811061188b5761188b6126dc565b1a901c90505f8483602081106118a3576118a36126dc565b1a600f1690505f5b60048160ff16101561197c576118c281600361273c565b60ff168360ff16901c600116858260ff16600481106118e3576118e36126dc565b60200201516118f38660026122b7565b60408110611903576119036126dc565b60ff909216602092909202015261191b81600361273c565b60ff168260ff16901c600116858260ff166004811061193c5761193c6126dc565b602002015161194c8660026122b7565b611957906001612291565b60408110611967576119676126dc565b60ff90921660209290920201526001016118ab565b50505080600101905061186d565b50919050565b5f611999611f25565b6119a1611f25565b5f80835260ff8516825260015b80821015611be4575f848361010081106119ca576119ca6126dc565b602002015190505f848461010081106119e5576119e56126dc565b60200201519050836119f681612755565b945050888261ffff1660048110611a0f57611a0f6126dc565b60200201518161ffff1660408110611a2957611a296126dc565b602002015180611a6f57508a8261ffff1660048110611a4a57611a4a6126dc565b60200201518161ffff1660408110611a6457611a646126dc565b602002015160ff1615155b15611a7b5750506119ae565b6001898361ffff1660048110611a9357611a936126dc565b60200201518261ffff1660408110611aad57611aad6126dc565b9115156020909202015261ffff8216600303611ac857600196505b5f6040518060800160405280846001611ae1919061276d565b61ffff1661ffff1681526020018461ffff165f14611b0957611b04600186612787565b611b0b565b5f5b61ffff908116825285811660208084018290526040938401919091528251608081018452918616808352908201529192505f919081810190611b4e86600161276d565b611b5891906127a1565b61ffff1681526020016040611b6e86603f61276d565b611b7891906127a1565b61ffff16905290505f5b60048160ff161015611bda57611bd08e8e8e8c8c888760ff1660048110611bab57611bab6126dc565b6020020151888860ff1660048110611bc557611bc56126dc565b60200201518d611d89565b9550600101611b82565b50505050506119ae565b50505050949350505050565b5f8072184f03e93ff9f4daa797ed6e38ed64bf6a1f0160401b8310611c2e5772184f03e93ff9f4daa797ed6e38ed64bf6a1f0160401b830492506040015b6d04ee2d6d415b85acef81000000008310611c5a576d04ee2d6d415b85acef8100000000830492506020015b662386f26fc100008310611c7857662386f26fc10000830492506010015b6305f5e1008310611c90576305f5e100830492506008015b6127108310611ca457612710830492506004015b60648310611cb6576064830492506002015b600a83106105035760010192915050565b6001600160a01b038216611cf057604051633250574960e11b81525f60048201526024016106bc565b5f611cfc83835f610d1f565b90506001600160a01b03811615610854576040516339e3563760e11b81525f60048201526024016106bc565b5f6001600160a01b038316158015906114935750826001600160a01b0316846001600160a01b03161480611d615750611d618484610ba6565b806114935750505f908152600460205260409020546001600160a01b03908116911614919050565b5f60048461ffff16101580611da3575060408361ffff1610155b15611daf575080611ebf565b868461ffff1660048110611dc557611dc56126dc565b60200201518361ffff1660408110611ddf57611ddf6126dc565b602002015180611e205750878461ffff1660048110611e0057611e006126dc565b60200201518361ffff1660408110611e1a57611e1a6126dc565b60200201515b80611e615750888461ffff1660048110611e3c57611e3c6126dc565b60200201518361ffff1660408110611e5657611e566126dc565b602002015160ff1615155b15611e6d575080611ebf565b8386836101008110611e8157611e816126dc565b61ffff90921660209290920201528285836101008110611ea357611ea36126dc565b61ffff9092166020929092020152611ebc826001612291565b90505b98975050505050505050565b60405180608001604052806004905b611ee2611f45565b815260200190600190039081611eda5790505090565b60405180608001604052806004905b611f0f611f45565b815260200190600190039081611f075790505090565b604051806120000160405280610100906020820280368337509192915050565b6040518061080001604052806040906020820280368337509192915050565b6001600160e01b031981168114610837575f80fd5b5f60208284031215611f89575f80fd5b8135610e0c81611f64565b5f81518084528060208401602086015e5f602082860101526020601f19601f83011685010191505092915050565b602081525f610e0c6020830184611f94565b5f60208284031215611fe4575f80fd5b5035919050565b80356001600160a01b038116811461185e575f80fd5b5f8060408385031215612012575f80fd5b61201b83611feb565b946020939093013593505050565b5f805f6060848603121561203b575f80fd5b61204484611feb565b925061205260208501611feb565b929592945050506040919091013590565b5f8060408385031215612074575f80fd5b50508035926020909101359150565b5f60208284031215612093575f80fd5b610e0c82611feb565b5f80604083850312156120ad575f80fd5b6120b683611feb565b915060208301356001600160601b03811681146120d1575f80fd5b809150509250929050565b5f80604083850312156120ed575f80fd5b6120f683611feb565b9150602083013580151581146120d1575f80fd5b634e487b7160e01b5f52604160045260245ffd5b604051601f8201601f1916810167ffffffffffffffff811182821017156121475761214761210a565b604052919050565b5f67ffffffffffffffff8211156121685761216861210a565b50601f01601f191660200190565b5f805f8060808587031215612189575f80fd5b61219285611feb565b93506121a060208601611feb565b925060408501359150606085013567ffffffffffffffff8111156121c2575f80fd5b8501601f810187136121d2575f80fd5b80356121e56121e08261214f565b61211e565b8181528860208385010111156121f9575f80fd5b816020840160208301375f6020838301015280935050505092959194509250565b5f806040838503121561222b575f80fd5b61223483611feb565b915061224260208401611feb565b90509250929050565b600181811c9082168061225f57607f821691505b60208210810361198a57634e487b7160e01b5f52602260045260245ffd5b634e487b7160e01b5f52601160045260245ffd5b808201808211156105035761050361227d565b818103818111156105035761050361227d565b80820281158282048414176105035761050361227d565b634e487b7160e01b5f52601260045260245ffd5b5f826122f0576122f06122ce565b500490565b5f60208284031215612305575f80fd5b815167ffffffffffffffff81111561231b575f80fd5b8201601f8101841361232b575f80fd5b80516123396121e08261214f565b81815285602083850101111561234d575f80fd5b8160208401602083015e5f91810160200191909152949350505050565b5f81518060208401855e5f93019283525090919050565b7f7b202274726169745f74797065223a2242616c616e636564222c202276616c7581526332911d1160e11b60208201525f6123bf602483018661236a565b6308881f4b60e21b81527f7b202274726169745f74797065223a225061737361676573222c202276616c7560048201526332911d1160e11b6024820152612409602882018661236a565b6308881f4b60e21b81527f7b202274726169745f74797065223a22536f757263652068617368222c20227660048201526630b63ab2911d1160c91b60248201529050612458602b82018561236a565b6222207d60e81b81526003019695505050505050565b727b226e616d65223a22486173684a696e67202360681b81525f612495601383018661236a565b61088b60f21b81527f226465736372697074696f6e223a2246756c6c79206f6e2d636861696e20486160028201527f73684a696e67206d616e64616c61205c753230313420612064657465726d696e60228201527f697374696320676c79706820776865726520656e74726f7079206265636f6d656042820152681cc8199bdc9b4b888b60ba1b60628201527f2263726561746f72223a2244617461536174747661222c000000000000000000606b8201527f2265787465726e616c5f75726c223a2268747470733a2f2f6769746875622e6360828201527f6f6d2f446174615361747476612f686173686a696e67222c000000000000000060a28201527f226c6963656e7365223a2243432042592d4e4320342e30222c0000000000000060ba82019081529060d30161264961263b61263561261b61260d612607867f22696d616765223a22646174613a696d6167652f7376672b786d6c3b626173658152620d8d0b60ea1b602082015260230190565b8b61236a565b61088b60f21b815260020190565b6d2261747472696275746573223a5b60901b8152600e0190565b8761236a565b615d7d60f01b815260020190565b979650505050505050565b7f646174613a6170706c69636174696f6e2f6a736f6e3b6261736536342c00000081525f610e0c601d83018461236a565b6001600160a01b03858116825284166020820152604081018390526080606082018190525f906126b790830184611f94565b9695505050505050565b5f602082840312156126d1575f80fd5b8151610e0c81611f64565b634e487b7160e01b5f52603260045260245ffd5b5f60ff821660ff81036127055761270561227d565b60010192915050565b5f8161271c5761271c61227d565b505f190190565b60ff81811683821601908111156105035761050361227d565b60ff82811682821603908111156105035761050361227d565b5f600182016127665761276661227d565b5060010190565b61ffff81811683821601908111156105035761050361227d565b61ffff82811682821603908111156105035761050361227d565b5f61ffff8316806127b4576127b46122ce565b8061ffff8416069150509291505056fe4142434445464748494a4b4c4d4e4f505152535455565758595a6162636465666768696a6b6c6d6e6f707172737475767778797a303132333435363738392b2fa2646970667358221220a8915ba252521944bcecc249cb209ecfc788db70b5f5d8925bf294ee89d92dda64736f6c634300081a0033",
			"opcodes": "PUSH1 0xA0 PUSH1 0x40 MSTORE PUSH1 0x1 PUSH1 0xB SSTORE PUSH1 0xC DUP1 SLOAD PUSH1 0xFF NOT AND SWAP1 SSTORE CALLVALUE DUP1 ISZERO PUSH2 0x1E JUMPI PUSH0 DUP1 REVERT JUMPDEST POP PUSH1 0x40 MLOAD PUSH2 0x2BBF CODESIZE SUB DUP1 PUSH2 0x2BBF DUP4 CODECOPY DUP2 ADD PUSH1 0x40 DUP2 SWAP1 MSTORE PUSH2 0x3D SWAP2 PUSH2 0x1E7 JUMP JUMPDEST CALLER PUSH1 0x40 MLOAD DUP1 PUSH1 0x40 ADD PUSH1 0x40 MSTORE DUP1 PUSH1 0x8 DUP2 MSTORE PUSH1 0x20 ADD PUSH8 0x486173684A696E67 PUSH1 0xC0 SHL DUP2 MSTORE POP PUSH1 0x40 MLOAD DUP1 PUSH1 0x40 ADD PUSH1 0x40 MSTORE DUP1 PUSH1 0x2 DUP2 MSTORE PUSH1 0x20 ADD PUSH2 0x2425 PUSH1 0xF1 SHL DUP2 MSTORE POP DUP2 PUSH0 SWAP1 DUP2 PUSH2 0x88 SWAP2 SWAP1 PUSH2 0x2AC JUMP JUMPDEST POP PUSH1 0x1 PUSH2 0x95 DUP3 DUP3 PUSH2 0x2AC JUMP JUMPDEST POP POP POP PUSH1 0x1 PUSH1 0x1 PUSH1 0xA0 SHL SUB DUP2 AND PUSH2 0xC6 JUMPI PUSH1 0x40 MLOAD PUSH4 0x1E4FBDF7 PUSH1 0xE0 SHL DUP2 MSTORE PUSH0 PUSH1 0x4 DUP3 ADD MSTORE PUSH1 0x24 ADD JUMPDEST PUSH1 0x40 MLOAD DUP1 SWAP2 SUB SWAP1 REVERT JUMPDEST PUSH2 0xCF DUP2 PUSH2 0xF4 JUMP JUMPDEST POP PUSH1 0x1 PUSH1 0x9 SSTORE PUSH1 0x1 PUSH1 0x1 PUSH1 0xA0 SHL SUB DUP2 AND PUSH1 0x80 MSTORE PUSH2 0xEE CALLER PUSH2 0x2EE PUSH2 0x145 JUMP JUMPDEST POP PUSH2 0x366 JUMP JUMPDEST PUSH1 0x8 DUP1 SLOAD PUSH1 0x1 PUSH1 0x1 PUSH1 0xA0 SHL SUB DUP4 DUP2 AND PUSH1 0x1 PUSH1 0x1 PUSH1 0xA0 SHL SUB NOT DUP4 AND DUP2 OR SWAP1 SWAP4 SSTORE PUSH1 0x40 MLOAD SWAP2 AND SWAP2 SWAP1 DUP3 SWAP1 PUSH32 0x8BE0079C531659141344CD1FD0A4F28419497F9722A3DAAFE3B4186F6B6457E0 SWAP1 PUSH0 SWAP1 LOG3 POP POP JUMP JUMPDEST PUSH2 0x2710 PUSH1 0x1 PUSH1 0x1 PUSH1 0x60 SHL SUB DUP3 AND DUP2 LT ISZERO PUSH2 0x184 JUMPI PUSH1 0x40 MLOAD PUSH4 0x6F483D09 PUSH1 0xE0 SHL DUP2 MSTORE PUSH1 0x1 PUSH1 0x1 PUSH1 0x60 SHL SUB DUP4 AND PUSH1 0x4 DUP3 ADD MSTORE PUSH1 0x24 DUP2 ADD DUP3 SWAP1 MSTORE PUSH1 0x44 ADD PUSH2 0xBD JUMP JUMPDEST PUSH1 0x1 PUSH1 0x1 PUSH1 0xA0 SHL SUB DUP4 AND PUSH2 0x1AD JUMPI PUSH1 0x40 MLOAD PUSH4 0x5B6CC805 PUSH1 0xE1 SHL DUP2 MSTORE PUSH0 PUSH1 0x4 DUP3 ADD MSTORE PUSH1 0x24 ADD PUSH2 0xBD JUMP JUMPDEST POP PUSH1 0x40 DUP1 MLOAD DUP1 DUP3 ADD SWAP1 SWAP2 MSTORE PUSH1 0x1 PUSH1 0x1 PUSH1 0xA0 SHL SUB SWAP1 SWAP3 AND DUP1 DUP4 MSTORE PUSH1 0x1 PUSH1 0x1 PUSH1 0x60 SHL SUB SWAP1 SWAP2 AND PUSH1 0x20 SWAP1 SWAP3 ADD DUP3 SWAP1 MSTORE PUSH1 0x1 PUSH1 0xA0 SHL SWAP1 SWAP2 MUL OR PUSH1 0x6 SSTORE JUMP JUMPDEST PUSH0 PUSH1 0x20 DUP3 DUP5 SUB SLT ISZERO PUSH2 0x1F7 JUMPI PUSH0 DUP1 REVERT JUMPDEST DUP2 MLOAD PUSH1 0x1 PUSH1 0x1 PUSH1 0xA0 SHL SUB DUP2 AND DUP2 EQ PUSH2 0x20D JUMPI PUSH0 DUP1 REVERT JUMPDEST SWAP4 SWAP3 POP POP POP JUMP JUMPDEST PUSH4 0x4E487B71 PUSH1 0xE0 SHL PUSH0 MSTORE PUSH1 0x41 PUSH1 0x4 MSTORE PUSH1 0x24 PUSH0 REVERT JUMPDEST PUSH1 0x1 DUP2 DUP2 SHR SWAP1 DUP3 AND DUP1 PUSH2 0x23C JUMPI PUSH1 0x7F DUP3 AND SWAP2 POP JUMPDEST PUSH1 0x20 DUP3 LT DUP2 SUB PUSH2 0x25A JUMPI PUSH4 0x4E487B71 PUSH1 0xE0 SHL PUSH0 MSTORE PUSH1 0x22 PUSH1 0x4 MSTORE PUSH1 0x24 PUSH0 REVERT JUMPDEST POP SWAP2 SWAP1 POP JUMP JUMPDEST PUSH1 0x1F DUP3 GT ISZERO PUSH2 0x2A7 JUMPI DUP1 PUSH0 MSTORE PUSH1 0x20 PUSH0 KECCAK256 PUSH1 0x1F DUP5 ADD PUSH1 0x5 SHR DUP2 ADD PUSH1 0x20 DUP6 LT ISZERO PUSH2 0x285 JUMPI POP DUP1 JUMPDEST PUSH1 0x1F DUP5 ADD PUSH1 0x5 SHR DUP3 ADD SWAP2 POP JUMPDEST DUP2 DUP2 LT ISZERO PUSH2 0x2A4 JUMPI PUSH0 DUP2 SSTORE PUSH1 0x1 ADD PUSH2 0x291 JUMP JUMPDEST POP POP JUMPDEST POP POP POP JUMP JUMPDEST DUP2 MLOAD PUSH1 0x1 PUSH1 0x1 PUSH1 0x40 SHL SUB DUP2 GT ISZERO PUSH2 0x2C5 JUMPI PUSH2 0x2C5 PUSH2 0x214 JUMP JUMPDEST PUSH2 0x2D9 DUP2 PUSH2 0x2D3 DUP5 SLOAD PUSH2 0x228 JUMP JUMPDEST DUP5 PUSH2 0x260 JUMP JUMPDEST PUSH1 0x20 PUSH1 0x1F DUP3 GT PUSH1 0x1 DUP2 EQ PUSH2 0x30B JUMPI PUSH0 DUP4 ISZERO PUSH2 0x2F4 JUMPI POP DUP5 DUP3 ADD MLOAD JUMPDEST PUSH0 NOT PUSH1 0x3 DUP6 SWAP1 SHL SHR NOT AND PUSH1 0x1 DUP5 SWAP1 SHL OR DUP5 SSTORE PUSH2 0x2A4 JUMP JUMPDEST PUSH0 DUP5 DUP2 MSTORE PUSH1 0x20 DUP2 KECCAK256 PUSH1 0x1F NOT DUP6 AND SWAP2 JUMPDEST DUP3 DUP2 LT ISZERO PUSH2 0x33A JUMPI DUP8 DUP6 ADD MLOAD DUP3 SSTORE PUSH1 0x20 SWAP5 DUP6 ADD SWAP5 PUSH1 0x1 SWAP1 SWAP3 ADD SWAP2 ADD PUSH2 0x31A JUMP JUMPDEST POP DUP5 DUP3 LT ISZERO PUSH2 0x357 JUMPI DUP7 DUP5 ADD MLOAD PUSH0 NOT PUSH1 0x3 DUP8 SWAP1 SHL PUSH1 0xF8 AND SHR NOT AND DUP2 SSTORE JUMPDEST POP POP POP POP PUSH1 0x1 SWAP1 DUP2 SHL ADD SWAP1 SSTORE POP JUMP JUMPDEST PUSH1 0x80 MLOAD PUSH2 0x283A PUSH2 0x385 PUSH0 CODECOPY PUSH0 DUP2 DUP2 PUSH2 0x390 ADD MSTORE PUSH2 0x9CC ADD MSTORE PUSH2 0x283A PUSH0 RETURN INVALID PUSH1 0x80 PUSH1 0x40 MSTORE PUSH1 0x4 CALLDATASIZE LT PUSH2 0x195 JUMPI PUSH0 CALLDATALOAD PUSH1 0xE0 SHR DUP1 PUSH4 0x715018A6 GT PUSH2 0xE7 JUMPI DUP1 PUSH4 0xA22CB465 GT PUSH2 0x87 JUMPI DUP1 PUSH4 0xC87B56DD GT PUSH2 0x62 JUMPI DUP1 PUSH4 0xC87B56DD EQ PUSH2 0x488 JUMPI DUP1 PUSH4 0xE797EC1B EQ PUSH2 0x4A7 JUMPI DUP1 PUSH4 0xE985E9C5 EQ PUSH2 0x4BB JUMPI DUP1 PUSH4 0xF2FDE38B EQ PUSH2 0x4DA JUMPI PUSH0 DUP1 REVERT JUMPDEST DUP1 PUSH4 0xA22CB465 EQ PUSH2 0x430 JUMPI DUP1 PUSH4 0xB85F3FB8 EQ PUSH2 0x44F JUMPI DUP1 PUSH4 0xB88D4FDE EQ PUSH2 0x469 JUMPI PUSH0 DUP1 REVERT JUMPDEST DUP1 PUSH4 0x8F2FC60B GT PUSH2 0xC2 JUMPI DUP1 PUSH4 0x8F2FC60B EQ PUSH2 0x3CF JUMPI DUP1 PUSH4 0x95D89B41 EQ PUSH2 0x3EE JUMPI DUP1 PUSH4 0x99EC6765 EQ PUSH2 0x402 JUMPI DUP1 PUSH4 0x9FD6DB12 EQ PUSH2 0x417 JUMPI PUSH0 DUP1 REVERT JUMPDEST DUP1 PUSH4 0x715018A6 EQ PUSH2 0x36B JUMPI DUP1 PUSH4 0x8ADA6B0F EQ PUSH2 0x37F JUMPI DUP1 PUSH4 0x8DA5CB5B EQ PUSH2 0x3B2 JUMPI PUSH0 DUP1 REVERT JUMPDEST DUP1 PUSH4 0x23B872DD GT PUSH2 0x152 JUMPI DUP1 PUSH4 0x3DCA40E6 GT PUSH2 0x12D JUMPI DUP1 PUSH4 0x3DCA40E6 EQ PUSH2 0x2E1 JUMPI DUP1 PUSH4 0x42842E0E EQ PUSH2 0x30E JUMPI DUP1 PUSH4 0x6352211E EQ PUSH2 0x32D JUMPI DUP1 PUSH4 0x70A08231 EQ PUSH2 0x34C JUMPI PUSH0 DUP1 REVERT JUMPDEST DUP1 PUSH4 0x23B872DD EQ PUSH2 0x270 JUMPI DUP1 PUSH4 0x2A55205A EQ PUSH2 0x28F JUMPI DUP1 PUSH4 0x3CCFD60B EQ PUSH2 0x2CD JUMPI PUSH0 DUP1 REVERT JUMPDEST DUP1 PUSH4 0x1FFC9A7 EQ PUSH2 0x199 JUMPI DUP1 PUSH4 0x6FDDE03 EQ PUSH2 0x1CD JUMPI DUP1 PUSH4 0x81812FC EQ PUSH2 0x1EE JUMPI DUP1 PUSH4 0x95EA7B3 EQ PUSH2 0x225 JUMPI DUP1 PUSH4 0x1249C58B EQ PUSH2 0x246 JUMPI DUP1 PUSH4 0x18160DDD EQ PUSH2 0x24E JUMPI JUMPDEST PUSH0 DUP1 REVERT JUMPDEST CALLVALUE DUP1 ISZERO PUSH2 0x1A4 JUMPI PUSH0 DUP1 REVERT JUMPDEST POP PUSH2 0x1B8 PUSH2 0x1B3 CALLDATASIZE PUSH1 0x4 PUSH2 0x1F79 JUMP JUMPDEST PUSH2 0x4F9 JUMP JUMPDEST PUSH1 0x40 MLOAD SWAP1 ISZERO ISZERO DUP2 MSTORE PUSH1 0x20 ADD JUMPDEST PUSH1 0x40 MLOAD DUP1 SWAP2 SUB SWAP1 RETURN JUMPDEST CALLVALUE DUP1 ISZERO PUSH2 0x1D8 JUMPI PUSH0 DUP1 REVERT JUMPDEST POP PUSH2 0x1E1 PUSH2 0x509 JUMP JUMPDEST PUSH1 0x40 MLOAD PUSH2 0x1C4 SWAP2 SWAP1 PUSH2 0x1FC2 JUMP JUMPDEST CALLVALUE DUP1 ISZERO PUSH2 0x1F9 JUMPI PUSH0 DUP1 REVERT JUMPDEST POP PUSH2 0x20D PUSH2 0x208 CALLDATASIZE PUSH1 0x4 PUSH2 0x1FD4 JUMP JUMPDEST PUSH2 0x598 JUMP JUMPDEST PUSH1 0x40 MLOAD PUSH1 0x1 PUSH1 0x1 PUSH1 0xA0 SHL SUB SWAP1 SWAP2 AND DUP2 MSTORE PUSH1 0x20 ADD PUSH2 0x1C4 JUMP JUMPDEST CALLVALUE DUP1 ISZERO PUSH2 0x230 JUMPI PUSH0 DUP1 REVERT JUMPDEST POP PUSH2 0x244 PUSH2 0x23F CALLDATASIZE PUSH1 0x4 PUSH2 0x2001 JUMP JUMPDEST PUSH2 0x5BF JUMP JUMPDEST STOP JUMPDEST PUSH2 0x244 PUSH2 0x5CE JUMP JUMPDEST CALLVALUE DUP1 ISZERO PUSH2 0x259 JUMPI PUSH0 DUP1 REVERT JUMPDEST POP PUSH2 0x262 PUSH2 0x682 JUMP JUMPDEST PUSH1 0x40 MLOAD SWAP1 DUP2 MSTORE PUSH1 0x20 ADD PUSH2 0x1C4 JUMP JUMPDEST CALLVALUE DUP1 ISZERO PUSH2 0x27B JUMPI PUSH0 DUP1 REVERT JUMPDEST POP PUSH2 0x244 PUSH2 0x28A CALLDATASIZE PUSH1 0x4 PUSH2 0x2029 JUMP JUMPDEST PUSH2 0x697 JUMP JUMPDEST CALLVALUE DUP1 ISZERO PUSH2 0x29A JUMPI PUSH0 DUP1 REVERT JUMPDEST POP PUSH2 0x2AE PUSH2 0x2A9 CALLDATASIZE PUSH1 0x4 PUSH2 0x2063 JUMP JUMPDEST PUSH2 0x725 JUMP JUMPDEST PUSH1 0x40 DUP1 MLOAD PUSH1 0x1 PUSH1 0x1 PUSH1 0xA0 SHL SUB SWAP1 SWAP4 AND DUP4 MSTORE PUSH1 0x20 DUP4 ADD SWAP2 SWAP1 SWAP2 MSTORE ADD PUSH2 0x1C4 JUMP JUMPDEST CALLVALUE DUP1 ISZERO PUSH2 0x2D8 JUMPI PUSH0 DUP1 REVERT JUMPDEST POP PUSH2 0x244 PUSH2 0x7A8 JUMP JUMPDEST CALLVALUE DUP1 ISZERO PUSH2 0x2EC JUMPI PUSH0 DUP1 REVERT JUMPDEST POP PUSH2 0x2F6 PUSH2 0x3E8 DUP2 JUMP JUMPDEST PUSH1 0x40 MLOAD PUSH1 0x1 PUSH1 0x1 PUSH1 0x60 SHL SUB SWAP1 SWAP2 AND DUP2 MSTORE PUSH1 0x20 ADD PUSH2 0x1C4 JUMP JUMPDEST CALLVALUE DUP1 ISZERO PUSH2 0x319 JUMPI PUSH0 DUP1 REVERT JUMPDEST POP PUSH2 0x244 PUSH2 0x328 CALLDATASIZE PUSH1 0x4 PUSH2 0x2029 JUMP JUMPDEST PUSH2 0x83A JUMP JUMPDEST CALLVALUE DUP1 ISZERO PUSH2 0x338 JUMPI PUSH0 DUP1 REVERT JUMPDEST POP PUSH2 0x20D PUSH2 0x347 CALLDATASIZE PUSH1 0x4 PUSH2 0x1FD4 JUMP JUMPDEST PUSH2 0x859 JUMP JUMPDEST CALLVALUE DUP1 ISZERO PUSH2 0x357 JUMPI PUSH0 DUP1 REVERT JUMPDEST POP PUSH2 0x262 PUSH2 0x366 CALLDATASIZE PUSH1 0x4 PUSH2 0x2083 JUMP JUMPDEST PUSH2 0x863 JUMP JUMPDEST CALLVALUE DUP1 ISZERO PUSH2 0x376 JUMPI PUSH0 DUP1 REVERT JUMPDEST POP PUSH2 0x244 PUSH2 0x8A8 JUMP JUMPDEST CALLVALUE DUP1 ISZERO PUSH2 0x38A JUMPI PUSH0 DUP1 REVERT JUMPDEST POP PUSH2 0x20D PUSH32 0x0 DUP2 JUMP JUMPDEST CALLVALUE DUP1 ISZERO PUSH2 0x3BD JUMPI PUSH0 DUP1 REVERT JUMPDEST POP PUSH1 0x8 SLOAD PUSH1 0x1 PUSH1 0x1 PUSH1 0xA0 SHL SUB AND PUSH2 0x20D JUMP JUMPDEST CALLVALUE DUP1 ISZERO PUSH2 0x3DA JUMPI PUSH0 DUP1 REVERT JUMPDEST POP PUSH2 0x244 PUSH2 0x3E9 CALLDATASIZE PUSH1 0x4 PUSH2 0x209C JUMP JUMPDEST PUSH2 0x8F0 JUMP JUMPDEST CALLVALUE DUP1 ISZERO PUSH2 0x3F9 JUMPI PUSH0 DUP1 REVERT JUMPDEST POP PUSH2 0x1E1 PUSH2 0x947 JUMP JUMPDEST CALLVALUE DUP1 ISZERO PUSH2 0x40D JUMPI PUSH0 DUP1 REVERT JUMPDEST POP PUSH2 0x262 PUSH2 0x2000 DUP2 JUMP JUMPDEST CALLVALUE DUP1 ISZERO PUSH2 0x422 JUMPI PUSH0 DUP1 REVERT JUMPDEST POP PUSH1 0xC SLOAD PUSH2 0x1B8 SWAP1 PUSH1 0xFF AND DUP2 JUMP JUMPDEST CALLVALUE DUP1 ISZERO PUSH2 0x43B JUMPI PUSH0 DUP1 REVERT JUMPDEST POP PUSH2 0x244 PUSH2 0x44A CALLDATASIZE PUSH1 0x4 PUSH2 0x20DC JUMP JUMPDEST PUSH2 0x956 JUMP JUMPDEST CALLVALUE DUP1 ISZERO PUSH2 0x45A JUMPI PUSH0 DUP1 REVERT JUMPDEST POP PUSH2 0x262 PUSH7 0x71AFD498D0000 DUP2 JUMP JUMPDEST CALLVALUE DUP1 ISZERO PUSH2 0x474 JUMPI PUSH0 DUP1 REVERT JUMPDEST POP PUSH2 0x244 PUSH2 0x483 CALLDATASIZE PUSH1 0x4 PUSH2 0x2176 JUMP JUMPDEST PUSH2 0x961 JUMP JUMPDEST CALLVALUE DUP1 ISZERO PUSH2 0x493 JUMPI PUSH0 DUP1 REVERT JUMPDEST POP PUSH2 0x1E1 PUSH2 0x4A2 CALLDATASIZE PUSH1 0x4 PUSH2 0x1FD4 JUMP JUMPDEST PUSH2 0x979 JUMP JUMPDEST CALLVALUE DUP1 ISZERO PUSH2 0x4B2 JUMPI PUSH0 DUP1 REVERT JUMPDEST POP PUSH2 0x244 PUSH2 0xB43 JUMP JUMPDEST CALLVALUE DUP1 ISZERO PUSH2 0x4C6 JUMPI PUSH0 DUP1 REVERT JUMPDEST POP PUSH2 0x1B8 PUSH2 0x4D5 CALLDATASIZE PUSH1 0x4 PUSH2 0x221A JUMP JUMPDEST PUSH2 0xBA6 JUMP JUMPDEST CALLVALUE DUP1 ISZERO PUSH2 0x4E5 JUMPI PUSH0 DUP1 REVERT JUMPDEST POP PUSH2 0x244 PUSH2 0x4F4 CALLDATASIZE PUSH1 0x4 PUSH2 0x2083 JUMP JUMPDEST PUSH2 0xBD3 JUMP JUMPDEST PUSH0 PUSH2 0x503 DUP3 PUSH2 0xC0D JUMP JUMPDEST SWAP3 SWAP2 POP POP JUMP JUMPDEST PUSH1 0x60 PUSH0 DUP1 SLOAD PUSH2 0x517 SWAP1 PUSH2 0x224B JUMP JUMPDEST DUP1 PUSH1 0x1F ADD PUSH1 0x20 DUP1 SWAP2 DIV MUL PUSH1 0x20 ADD PUSH1 0x40 MLOAD SWAP1 DUP2 ADD PUSH1 0x40 MSTORE DUP1 SWAP3 SWAP2 SWAP1 DUP2 DUP2 MSTORE PUSH1 0x20 ADD DUP3 DUP1 SLOAD PUSH2 0x543 SWAP1 PUSH2 0x224B JUMP JUMPDEST DUP1 ISZERO PUSH2 0x58E JUMPI DUP1 PUSH1 0x1F LT PUSH2 0x565 JUMPI PUSH2 0x100 DUP1 DUP4 SLOAD DIV MUL DUP4 MSTORE SWAP2 PUSH1 0x20 ADD SWAP2 PUSH2 0x58E JUMP JUMPDEST DUP3 ADD SWAP2 SWAP1 PUSH0 MSTORE PUSH1 0x20 PUSH0 KECCAK256 SWAP1 JUMPDEST DUP2 SLOAD DUP2 MSTORE SWAP1 PUSH1 0x1 ADD SWAP1 PUSH1 0x20 ADD DUP1 DUP4 GT PUSH2 0x571 JUMPI DUP3 SWAP1 SUB PUSH1 0x1F AND DUP3 ADD SWAP2 JUMPDEST POP POP POP POP POP SWAP1 POP SWAP1 JUMP JUMPDEST PUSH0 PUSH2 0x5A2 DUP3 PUSH2 0xC31 JUMP JUMPDEST POP PUSH0 DUP3 DUP2 MSTORE PUSH1 0x4 PUSH1 0x20 MSTORE PUSH1 0x40 SWAP1 KECCAK256 SLOAD PUSH1 0x1 PUSH1 0x1 PUSH1 0xA0 SHL SUB AND PUSH2 0x503 JUMP JUMPDEST PUSH2 0x5CA DUP3 DUP3 CALLER PUSH2 0xC69 JUMP JUMPDEST POP POP JUMP JUMPDEST PUSH2 0x5D6 PUSH2 0xC76 JUMP JUMPDEST PUSH1 0xC SLOAD PUSH1 0xFF AND PUSH2 0x5F9 JUMPI PUSH1 0x40 MLOAD PUSH4 0x17EFBD6B PUSH1 0xE0 SHL DUP2 MSTORE PUSH1 0x4 ADD PUSH1 0x40 MLOAD DUP1 SWAP2 SUB SWAP1 REVERT JUMPDEST PUSH1 0xB SLOAD PUSH2 0x2000 DUP2 GT ISZERO PUSH2 0x61F JUMPI PUSH1 0x40 MLOAD PUSH4 0x52DF9FE5 PUSH1 0xE0 SHL DUP2 MSTORE PUSH1 0x4 ADD PUSH1 0x40 MLOAD DUP1 SWAP2 SUB SWAP1 REVERT JUMPDEST PUSH7 0x71AFD498D0000 CALLVALUE EQ PUSH2 0x646 JUMPI PUSH1 0x40 MLOAD PUSH4 0x39C5F2DF PUSH1 0xE0 SHL DUP2 MSTORE PUSH1 0x4 ADD PUSH1 0x40 MLOAD DUP1 SWAP2 SUB SWAP1 REVERT JUMPDEST PUSH2 0x651 DUP2 PUSH1 0x1 PUSH2 0x2291 JUMP JUMPDEST PUSH1 0xB SSTORE PUSH2 0x65D DUP2 PUSH2 0xCA0 JUMP JUMPDEST PUSH0 DUP3 DUP2 MSTORE PUSH1 0xA PUSH1 0x20 MSTORE PUSH1 0x40 SWAP1 KECCAK256 SSTORE PUSH2 0x675 CALLER DUP3 PUSH2 0xD06 JUMP JUMPDEST POP PUSH2 0x680 PUSH1 0x1 PUSH1 0x9 SSTORE JUMP JUMPDEST JUMP JUMPDEST PUSH0 PUSH1 0x1 PUSH1 0xB SLOAD PUSH2 0x692 SWAP2 SWAP1 PUSH2 0x22A4 JUMP JUMPDEST SWAP1 POP SWAP1 JUMP JUMPDEST PUSH1 0x1 PUSH1 0x1 PUSH1 0xA0 SHL SUB DUP3 AND PUSH2 0x6C5 JUMPI PUSH1 0x40 MLOAD PUSH4 0x32505749 PUSH1 0xE1 SHL DUP2 MSTORE PUSH0 PUSH1 0x4 DUP3 ADD MSTORE PUSH1 0x24 ADD JUMPDEST PUSH1 0x40 MLOAD DUP1 SWAP2 SUB SWAP1 REVERT JUMPDEST PUSH0 PUSH2 0x6D1 DUP4 DUP4 CALLER PUSH2 0xD1F JUMP JUMPDEST SWAP1 POP DUP4 PUSH1 0x1 PUSH1 0x1 PUSH1 0xA0 SHL SUB AND DUP2 PUSH1 0x1 PUSH1 0x1 PUSH1 0xA0 SHL SUB AND EQ PUSH2 0x71F JUMPI PUSH1 0x40 MLOAD PUSH4 0x64283D7B PUSH1 0xE0 SHL DUP2 MSTORE PUSH1 0x1 PUSH1 0x1 PUSH1 0xA0 SHL SUB DUP1 DUP7 AND PUSH1 0x4 DUP4 ADD MSTORE PUSH1 0x24 DUP3 ADD DUP5 SWAP1 MSTORE DUP3 AND PUSH1 0x44 DUP3 ADD MSTORE PUSH1 0x64 ADD PUSH2 0x6BC JUMP JUMPDEST POP POP POP POP JUMP JUMPDEST PUSH0 DUP3 DUP2 MSTORE PUSH1 0x7 PUSH1 0x20 MSTORE PUSH1 0x40 DUP2 KECCAK256 DUP1 SLOAD DUP3 SWAP2 SWAP1 PUSH1 0x1 PUSH1 0x1 PUSH1 0xA0 SHL SUB DUP2 AND SWAP1 PUSH1 0x1 PUSH1 0xA0 SHL SWAP1 DIV PUSH1 0x1 PUSH1 0x1 PUSH1 0x60 SHL SUB AND DUP2 PUSH2 0x778 JUMPI POP POP PUSH1 0x6 SLOAD PUSH1 0x1 PUSH1 0x1 PUSH1 0xA0 SHL SUB DUP2 AND SWAP1 PUSH1 0x1 PUSH1 0xA0 SHL SWAP1 DIV PUSH1 0x1 PUSH1 0x1 PUSH1 0x60 SHL SUB AND JUMPDEST PUSH0 PUSH2 0x2710 PUSH2 0x78F PUSH1 0x1 PUSH1 0x1 PUSH1 0x60 SHL SUB DUP5 AND DUP10 PUSH2 0x22B7 JUMP JUMPDEST PUSH2 0x799 SWAP2 SWAP1 PUSH2 0x22E2 JUMP JUMPDEST SWAP3 SWAP9 SWAP3 SWAP8 POP SWAP2 SWAP6 POP POP POP POP POP POP JUMP JUMPDEST PUSH2 0x7B0 PUSH2 0xE13 JUMP JUMPDEST PUSH1 0x40 MLOAD PUSH0 SWAP1 CALLER SWAP1 SELFBALANCE SWAP1 DUP4 DUP2 DUP2 DUP2 DUP6 DUP8 GAS CALL SWAP3 POP POP POP RETURNDATASIZE DUP1 PUSH0 DUP2 EQ PUSH2 0x7EF JUMPI PUSH1 0x40 MLOAD SWAP2 POP PUSH1 0x1F NOT PUSH1 0x3F RETURNDATASIZE ADD AND DUP3 ADD PUSH1 0x40 MSTORE RETURNDATASIZE DUP3 MSTORE RETURNDATASIZE PUSH0 PUSH1 0x20 DUP5 ADD RETURNDATACOPY PUSH2 0x7F4 JUMP JUMPDEST PUSH1 0x60 SWAP2 POP JUMPDEST POP POP SWAP1 POP DUP1 PUSH2 0x837 JUMPI PUSH1 0x40 MLOAD PUSH3 0x461BCD PUSH1 0xE5 SHL DUP2 MSTORE PUSH1 0x20 PUSH1 0x4 DUP3 ADD MSTORE PUSH1 0xF PUSH1 0x24 DUP3 ADD MSTORE PUSH15 0x15DA5D1A191C985DC819985A5B1959 PUSH1 0x8A SHL PUSH1 0x44 DUP3 ADD MSTORE PUSH1 0x64 ADD PUSH2 0x6BC JUMP JUMPDEST POP JUMP JUMPDEST PUSH2 0x854 DUP4 DUP4 DUP4 PUSH1 0x40 MLOAD DUP1 PUSH1 0x20 ADD PUSH1 0x40 MSTORE DUP1 PUSH0 DUP2 MSTORE POP PUSH2 0x961 JUMP JUMPDEST POP POP POP JUMP JUMPDEST PUSH0 PUSH2 0x503 DUP3 PUSH2 0xC31 JUMP JUMPDEST PUSH0 PUSH1 0x1 PUSH1 0x1 PUSH1 0xA0 SHL SUB DUP3 AND PUSH2 0x88D JUMPI PUSH1 0x40 MLOAD PUSH4 0x22718AD9 PUSH1 0xE2 SHL DUP2 MSTORE PUSH0 PUSH1 0x4 DUP3 ADD MSTORE PUSH1 0x24 ADD PUSH2 0x6BC JUMP JUMPDEST POP PUSH1 0x1 PUSH1 0x1 PUSH1 0xA0 SHL SUB AND PUSH0 SWAP1 DUP2 MSTORE PUSH1 0x3 PUSH1 0x20 MSTORE PUSH1 0x40 SWAP1 KECCAK256 SLOAD SWAP1 JUMP JUMPDEST PUSH1 0x40 MLOAD PUSH3 0x461BCD PUSH1 0xE5 SHL DUP2 MSTORE PUSH1 0x20 PUSH1 0x4 DUP3 ADD MSTORE PUSH1 0x1D PUSH1 0x24 DUP3 ADD MSTORE PUSH32 0x72656E6F756E63654F776E6572736869702069732064697361626C6564000000 PUSH1 0x44 DUP3 ADD MSTORE PUSH1 0x64 ADD PUSH2 0x6BC JUMP JUMPDEST PUSH2 0x8F8 PUSH2 0xE13 JUMP JUMPDEST PUSH2 0x3E8 PUSH1 0x1 PUSH1 0x1 PUSH1 0x60 SHL SUB DUP3 AND GT ISZERO PUSH2 0x93D JUMPI PUSH1 0x40 MLOAD PUSH3 0x461BCD PUSH1 0xE5 SHL DUP2 MSTORE PUSH1 0x20 PUSH1 0x4 DUP3 ADD MSTORE PUSH1 0x7 PUSH1 0x24 DUP3 ADD MSTORE PUSH7 0x4D617820313025 PUSH1 0xC8 SHL PUSH1 0x44 DUP3 ADD MSTORE PUSH1 0x64 ADD PUSH2 0x6BC JUMP JUMPDEST PUSH2 0x5CA DUP3 DUP3 PUSH2 0xE40 JUMP JUMPDEST PUSH1 0x60 PUSH1 0x1 DUP1 SLOAD PUSH2 0x517 SWAP1 PUSH2 0x224B JUMP JUMPDEST PUSH2 0x5CA CALLER DUP4 DUP4 PUSH2 0xEE2 JUMP JUMPDEST PUSH2 0x96C DUP5 DUP5 DUP5 PUSH2 0x697 JUMP JUMPDEST PUSH2 0x71F CALLER DUP6 DUP6 DUP6 DUP6 PUSH2 0xF80 JUMP JUMPDEST PUSH1 0x60 PUSH2 0x984 DUP3 PUSH2 0x10A8 JUMP JUMPDEST PUSH2 0x9A1 JUMPI PUSH1 0x40 MLOAD PUSH4 0x163A09E1 PUSH1 0xE3 SHL DUP2 MSTORE PUSH1 0x4 ADD PUSH1 0x40 MLOAD DUP1 SWAP2 SUB SWAP1 REVERT JUMPDEST PUSH0 DUP3 DUP2 MSTORE PUSH1 0xA PUSH1 0x20 MSTORE PUSH1 0x40 DUP1 DUP3 KECCAK256 SLOAD SWAP1 MLOAD PUSH4 0x2158AA5 PUSH1 0xE1 SHL DUP2 MSTORE PUSH1 0x4 DUP2 ADD DUP3 SWAP1 MSTORE SWAP1 SWAP2 SWAP1 PUSH2 0xA44 SWAP1 PUSH32 0x0 PUSH1 0x1 PUSH1 0x1 PUSH1 0xA0 SHL SUB AND SWAP1 PUSH4 0x42B154A SWAP1 PUSH1 0x24 ADD PUSH0 PUSH1 0x40 MLOAD DUP1 DUP4 SUB DUP2 DUP7 GAS STATICCALL ISZERO DUP1 ISZERO PUSH2 0xA18 JUMPI RETURNDATASIZE PUSH0 DUP1 RETURNDATACOPY RETURNDATASIZE PUSH0 REVERT JUMPDEST POP POP POP POP PUSH1 0x40 MLOAD RETURNDATASIZE PUSH0 DUP3 RETURNDATACOPY PUSH1 0x1F RETURNDATASIZE SWAP1 DUP2 ADD PUSH1 0x1F NOT AND DUP3 ADD PUSH1 0x40 MSTORE PUSH2 0xA3F SWAP2 SWAP1 DUP2 ADD SWAP1 PUSH2 0x22F5 JUMP JUMPDEST PUSH2 0x10DD JUMP JUMPDEST SWAP1 POP PUSH0 PUSH2 0xA50 DUP4 PUSH2 0x1103 JUMP JUMPDEST SWAP1 POP PUSH0 PUSH2 0xA5C DUP5 PUSH2 0x114C JUMP JUMPDEST SWAP1 POP PUSH0 DUP3 PUSH2 0xA87 JUMPI PUSH1 0x40 MLOAD DUP1 PUSH1 0x40 ADD PUSH1 0x40 MSTORE DUP1 PUSH1 0x5 DUP2 MSTORE PUSH1 0x20 ADD PUSH5 0x66616C7365 PUSH1 0xD8 SHL DUP2 MSTORE POP PUSH2 0xAA5 JUMP JUMPDEST PUSH1 0x40 MLOAD DUP1 PUSH1 0x40 ADD PUSH1 0x40 MSTORE DUP1 PUSH1 0x4 DUP2 MSTORE PUSH1 0x20 ADD PUSH4 0x74727565 PUSH1 0xE0 SHL DUP2 MSTORE POP JUMPDEST PUSH2 0xAB1 DUP4 PUSH1 0xFF AND PUSH2 0x1291 JUMP JUMPDEST PUSH2 0xABC DUP8 PUSH1 0x20 PUSH2 0x1321 JUMP JUMPDEST PUSH1 0x40 MLOAD PUSH1 0x20 ADD PUSH2 0xACE SWAP4 SWAP3 SWAP2 SWAP1 PUSH2 0x2381 JUMP JUMPDEST PUSH1 0x40 MLOAD PUSH1 0x20 DUP2 DUP4 SUB SUB DUP2 MSTORE SWAP1 PUSH1 0x40 MSTORE SWAP1 POP PUSH0 PUSH2 0xB14 PUSH2 0xAEC DUP10 PUSH2 0x1291 JUMP JUMPDEST DUP7 DUP5 PUSH1 0x40 MLOAD PUSH1 0x20 ADD PUSH2 0xB00 SWAP4 SWAP3 SWAP2 SWAP1 PUSH2 0x246E JUMP JUMPDEST PUSH1 0x40 MLOAD PUSH1 0x20 DUP2 DUP4 SUB SUB DUP2 MSTORE SWAP1 PUSH1 0x40 MSTORE PUSH2 0x10DD JUMP JUMPDEST SWAP1 POP DUP1 PUSH1 0x40 MLOAD PUSH1 0x20 ADD PUSH2 0xB27 SWAP2 SWAP1 PUSH2 0x2654 JUMP JUMPDEST PUSH1 0x40 MLOAD PUSH1 0x20 DUP2 DUP4 SUB SUB DUP2 MSTORE SWAP1 PUSH1 0x40 MSTORE SWAP7 POP POP POP POP POP POP POP SWAP2 SWAP1 POP JUMP JUMPDEST PUSH2 0xB4B PUSH2 0xE13 JUMP JUMPDEST PUSH1 0xC SLOAD PUSH1 0xFF AND ISZERO PUSH2 0xB6F JUMPI PUSH1 0x40 MLOAD PUSH4 0x39F3829B PUSH1 0xE0 SHL DUP2 MSTORE PUSH1 0x4 ADD PUSH1 0x40 MLOAD DUP1 SWAP2 SUB SWAP1 REVERT JUMPDEST PUSH1 0xC DUP1 SLOAD PUSH1 0xFF NOT AND PUSH1 0x1 OR SWAP1 SSTORE PUSH1 0x40 MLOAD PUSH32 0x38CB976174A5C48B8F7B2F07F69B47C271BA7F019948915DC12EFB770C2A542C SWAP1 PUSH0 SWAP1 LOG1 JUMP JUMPDEST PUSH1 0x1 PUSH1 0x1 PUSH1 0xA0 SHL SUB SWAP2 DUP3 AND PUSH0 SWAP1 DUP2 MSTORE PUSH1 0x5 PUSH1 0x20 SWAP1 DUP2 MSTORE PUSH1 0x40 DUP1 DUP4 KECCAK256 SWAP4 SWAP1 SWAP5 AND DUP3 MSTORE SWAP2 SWAP1 SWAP2 MSTORE KECCAK256 SLOAD PUSH1 0xFF AND SWAP1 JUMP JUMPDEST PUSH2 0xBDB PUSH2 0xE13 JUMP JUMPDEST PUSH1 0x1 PUSH1 0x1 PUSH1 0xA0 SHL SUB DUP2 AND PUSH2 0xC04 JUMPI PUSH1 0x40 MLOAD PUSH4 0x1E4FBDF7 PUSH1 0xE0 SHL DUP2 MSTORE PUSH0 PUSH1 0x4 DUP3 ADD MSTORE PUSH1 0x24 ADD PUSH2 0x6BC JUMP JUMPDEST PUSH2 0x837 DUP2 PUSH2 0x149B JUMP JUMPDEST PUSH0 PUSH1 0x1 PUSH1 0x1 PUSH1 0xE0 SHL SUB NOT DUP3 AND PUSH4 0x152A902D PUSH1 0xE1 SHL EQ DUP1 PUSH2 0x503 JUMPI POP PUSH2 0x503 DUP3 PUSH2 0x14EC JUMP JUMPDEST PUSH0 DUP2 DUP2 MSTORE PUSH1 0x2 PUSH1 0x20 MSTORE PUSH1 0x40 DUP2 KECCAK256 SLOAD PUSH1 0x1 PUSH1 0x1 PUSH1 0xA0 SHL SUB AND DUP1 PUSH2 0x503 JUMPI PUSH1 0x40 MLOAD PUSH4 0x7E273289 PUSH1 0xE0 SHL DUP2 MSTORE PUSH1 0x4 DUP2 ADD DUP5 SWAP1 MSTORE PUSH1 0x24 ADD PUSH2 0x6BC JUMP JUMPDEST PUSH2 0x854 DUP4 DUP4 DUP4 PUSH1 0x1 PUSH2 0x153B JUMP JUMPDEST PUSH1 0x2 PUSH1 0x9 SLOAD SUB PUSH2 0xC99 JUMPI PUSH1 0x40 MLOAD PUSH4 0x3EE5AEB5 PUSH1 0xE0 SHL DUP2 MSTORE PUSH1 0x4 ADD PUSH1 0x40 MLOAD DUP1 SWAP2 SUB SWAP1 REVERT JUMPDEST PUSH1 0x2 PUSH1 0x9 SSTORE JUMP JUMPDEST PUSH0 PUSH2 0xCAC PUSH1 0x1 NUMBER PUSH2 0x22A4 JUMP JUMPDEST PUSH1 0x40 DUP1 MLOAD SWAP2 BLOCKHASH PUSH1 0x20 DUP4 ADD MSTORE PREVRANDAO SWAP1 DUP3 ADD MSTORE PUSH12 0xFFFFFFFFFFFFFFFFFFFFFFFF NOT ADDRESS PUSH1 0x60 SWAP1 DUP2 SHL DUP3 AND DUP2 DUP5 ADD MSTORE PUSH1 0x74 DUP4 ADD DUP6 SWAP1 MSTORE CALLER SWAP1 SHL AND PUSH1 0x94 DUP3 ADD MSTORE PUSH1 0xA8 ADD PUSH1 0x40 MLOAD PUSH1 0x20 DUP2 DUP4 SUB SUB DUP2 MSTORE SWAP1 PUSH1 0x40 MSTORE DUP1 MLOAD SWAP1 PUSH1 0x20 ADD KECCAK256 SWAP1 POP SWAP2 SWAP1 POP JUMP JUMPDEST PUSH2 0x5CA DUP3 DUP3 PUSH1 0x40 MLOAD DUP1 PUSH1 0x20 ADD PUSH1 0x40 MSTORE DUP1 PUSH0 DUP2 MSTORE POP PUSH2 0x163F JUMP JUMPDEST PUSH0 DUP3 DUP2 MSTORE PUSH1 0x2 PUSH1 0x20 MSTORE PUSH1 0x40 DUP2 KECCAK256 SLOAD PUSH1 0x1 PUSH1 0x1 PUSH1 0xA0 SHL SUB SWAP1 DUP2 AND SWAP1 DUP4 AND ISZERO PUSH2 0xD4B JUMPI PUSH2 0xD4B DUP2 DUP5 DUP7 PUSH2 0x1656 JUMP JUMPDEST PUSH1 0x1 PUSH1 0x1 PUSH1 0xA0 SHL SUB DUP2 AND ISZERO PUSH2 0xD85 JUMPI PUSH2 0xD66 PUSH0 DUP6 PUSH0 DUP1 PUSH2 0x153B JUMP JUMPDEST PUSH1 0x1 PUSH1 0x1 PUSH1 0xA0 SHL SUB DUP2 AND PUSH0 SWAP1 DUP2 MSTORE PUSH1 0x3 PUSH1 0x20 MSTORE PUSH1 0x40 SWAP1 KECCAK256 DUP1 SLOAD PUSH0 NOT ADD SWAP1 SSTORE JUMPDEST PUSH1 0x1 PUSH1 0x1 PUSH1 0xA0 SHL SUB DUP6 AND ISZERO PUSH2 0xDB3 JUMPI PUSH1 0x1 PUSH1 0x1 PUSH1 0xA0 SHL SUB DUP6 AND PUSH0 SWAP1 DUP2 MSTORE PUSH1 0x3 PUSH1 0x20 MSTORE PUSH1 0x40 SWAP1 KECCAK256 DUP1 SLOAD PUSH1 0x1 ADD SWAP1 SSTORE JUMPDEST PUSH0 DUP5 DUP2 MSTORE PUSH1 0x2 PUSH1 0x20 MSTORE PUSH1 0x40 DUP1 DUP3 KECCAK256 DUP1 SLOAD PUSH1 0x1 PUSH1 0x1 PUSH1 0xA0 SHL SUB NOT AND PUSH1 0x1 PUSH1 0x1 PUSH1 0xA0 SHL SUB DUP10 DUP2 AND SWAP2 DUP3 OR SWAP1 SWAP3 SSTORE SWAP2 MLOAD DUP8 SWAP4 SWAP2 DUP6 AND SWAP2 PUSH32 0xDDF252AD1BE2C89B69C2B068FC378DAA952BA7F163C4A11628F55A4DF523B3EF SWAP2 LOG4 SWAP1 POP JUMPDEST SWAP4 SWAP3 POP POP POP JUMP JUMPDEST PUSH1 0x8 SLOAD PUSH1 0x1 PUSH1 0x1 PUSH1 0xA0 SHL SUB AND CALLER EQ PUSH2 0x680 JUMPI PUSH1 0x40 MLOAD PUSH4 0x118CDAA7 PUSH1 0xE0 SHL DUP2 MSTORE CALLER PUSH1 0x4 DUP3 ADD MSTORE PUSH1 0x24 ADD PUSH2 0x6BC JUMP JUMPDEST PUSH2 0x2710 PUSH1 0x1 PUSH1 0x1 PUSH1 0x60 SHL SUB DUP3 AND DUP2 LT ISZERO PUSH2 0xE7F JUMPI PUSH1 0x40 MLOAD PUSH4 0x6F483D09 PUSH1 0xE0 SHL DUP2 MSTORE PUSH1 0x1 PUSH1 0x1 PUSH1 0x60 SHL SUB DUP4 AND PUSH1 0x4 DUP3 ADD MSTORE PUSH1 0x24 DUP2 ADD DUP3 SWAP1 MSTORE PUSH1 0x44 ADD PUSH2 0x6BC JUMP JUMPDEST PUSH1 0x1 PUSH1 0x1 PUSH1 0xA0 SHL SUB DUP4 AND PUSH2 0xEA8 JUMPI PUSH1 0x40 MLOAD PUSH4 0x5B6CC805 PUSH1 0xE1 SHL DUP2 MSTORE PUSH0 PUSH1 0x4 DUP3 ADD MSTORE PUSH1 0x24 ADD PUSH2 0x6BC JUMP JUMPDEST POP PUSH1 0x40 DUP1 MLOAD DUP1 DUP3 ADD SWAP1 SWAP2 MSTORE PUSH1 0x1 PUSH1 0x1 PUSH1 0xA0 SHL SUB SWAP1 SWAP3 AND DUP1 DUP4 MSTORE PUSH1 0x1 PUSH1 0x1 PUSH1 0x60 SHL SUB SWAP1 SWAP2 AND PUSH1 0x20 SWAP1 SWAP3 ADD DUP3 SWAP1 MSTORE PUSH1 0x1 PUSH1 0xA0 SHL SWAP1 SWAP2 MUL OR PUSH1 0x6 SSTORE JUMP JUMPDEST PUSH1 0x1 PUSH1 0x1 PUSH1 0xA0 SHL SUB DUP3 AND PUSH2 0xF14 JUMPI PUSH1 0x40 MLOAD PUSH4 0xB611743 PUSH1 0xE3 SHL DUP2 MSTORE PUSH1 0x1 PUSH1 0x1 PUSH1 0xA0 SHL SUB DUP4 AND PUSH1 0x4 DUP3 ADD MSTORE PUSH1 0x24 ADD PUSH2 0x6BC JUMP JUMPDEST PUSH1 0x1 PUSH1 0x1 PUSH1 0xA0 SHL SUB DUP4 DUP2 AND PUSH0 DUP2 DUP2 MSTORE PUSH1 0x5 PUSH1 0x20 SWAP1 DUP2 MSTORE PUSH1 0x40 DUP1 DUP4 KECCAK256 SWAP5 DUP8 AND DUP1 DUP5 MSTORE SWAP5 DUP3 MSTORE SWAP2 DUP3 SWAP1 KECCAK256 DUP1 SLOAD PUSH1 0xFF NOT AND DUP7 ISZERO ISZERO SWAP1 DUP2 OR SWAP1 SWAP2 SSTORE SWAP2 MLOAD SWAP2 DUP3 MSTORE PUSH32 0x17307EAB39AB6107E8899845AD3D59BD9653F200F220920489CA2B5937696C31 SWAP2 ADD PUSH1 0x40 MLOAD DUP1 SWAP2 SUB SWAP1 LOG3 POP POP POP JUMP JUMPDEST PUSH1 0x1 PUSH1 0x1 PUSH1 0xA0 SHL SUB DUP4 AND EXTCODESIZE ISZERO PUSH2 0x10A1 JUMPI PUSH1 0x40 MLOAD PUSH4 0xA85BD01 PUSH1 0xE1 SHL DUP2 MSTORE PUSH1 0x1 PUSH1 0x1 PUSH1 0xA0 SHL SUB DUP5 AND SWAP1 PUSH4 0x150B7A02 SWAP1 PUSH2 0xFC2 SWAP1 DUP9 SWAP1 DUP9 SWAP1 DUP8 SWAP1 DUP8 SWAP1 PUSH1 0x4 ADD PUSH2 0x2685 JUMP JUMPDEST PUSH1 0x20 PUSH1 0x40 MLOAD DUP1 DUP4 SUB DUP2 PUSH0 DUP8 GAS CALL SWAP3 POP POP POP DUP1 ISZERO PUSH2 0xFFC JUMPI POP PUSH1 0x40 DUP1 MLOAD PUSH1 0x1F RETURNDATASIZE SWAP1 DUP2 ADD PUSH1 0x1F NOT AND DUP3 ADD SWAP1 SWAP3 MSTORE PUSH2 0xFF9 SWAP2 DUP2 ADD SWAP1 PUSH2 0x26C1 JUMP JUMPDEST PUSH1 0x1 JUMPDEST PUSH2 0x1063 JUMPI RETURNDATASIZE DUP1 DUP1 ISZERO PUSH2 0x1029 JUMPI PUSH1 0x40 MLOAD SWAP2 POP PUSH1 0x1F NOT PUSH1 0x3F RETURNDATASIZE ADD AND DUP3 ADD PUSH1 0x40 MSTORE RETURNDATASIZE DUP3 MSTORE RETURNDATASIZE PUSH0 PUSH1 0x20 DUP5 ADD RETURNDATACOPY PUSH2 0x102E JUMP JUMPDEST PUSH1 0x60 SWAP2 POP JUMPDEST POP DUP1 MLOAD PUSH0 SUB PUSH2 0x105B JUMPI PUSH1 0x40 MLOAD PUSH4 0x32505749 PUSH1 0xE1 SHL DUP2 MSTORE PUSH1 0x1 PUSH1 0x1 PUSH1 0xA0 SHL SUB DUP6 AND PUSH1 0x4 DUP3 ADD MSTORE PUSH1 0x24 ADD PUSH2 0x6BC JUMP JUMPDEST DUP1 MLOAD DUP2 PUSH1 0x20 ADD REVERT JUMPDEST PUSH1 0x1 PUSH1 0x1 PUSH1 0xE0 SHL SUB NOT DUP2 AND PUSH4 0xA85BD01 PUSH1 0xE1 SHL EQ PUSH2 0x109F JUMPI PUSH1 0x40 MLOAD PUSH4 0x32505749 PUSH1 0xE1 SHL DUP2 MSTORE PUSH1 0x1 PUSH1 0x1 PUSH1 0xA0 SHL SUB DUP6 AND PUSH1 0x4 DUP3 ADD MSTORE PUSH1 0x24 ADD PUSH2 0x6BC JUMP JUMPDEST POP JUMPDEST POP POP POP POP POP JUMP JUMPDEST PUSH0 DUP2 ISZERO DUP1 ISZERO SWAP1 PUSH2 0x10B9 JUMPI POP PUSH1 0xB SLOAD DUP3 LT JUMPDEST DUP1 ISZERO PUSH2 0x503 JUMPI POP POP PUSH0 SWAP1 DUP2 MSTORE PUSH1 0x2 PUSH1 0x20 MSTORE PUSH1 0x40 SWAP1 KECCAK256 SLOAD PUSH1 0x1 PUSH1 0x1 PUSH1 0xA0 SHL SUB AND ISZERO ISZERO SWAP1 JUMP JUMPDEST PUSH1 0x60 PUSH2 0x503 DUP3 PUSH1 0x40 MLOAD DUP1 PUSH1 0x60 ADD PUSH1 0x40 MSTORE DUP1 PUSH1 0x40 DUP2 MSTORE PUSH1 0x20 ADD PUSH2 0x27C5 PUSH1 0x40 SWAP2 CODECOPY PUSH1 0x1 PUSH2 0x16BA JUMP JUMPDEST PUSH0 DUP1 PUSH0 JUMPDEST PUSH1 0x20 DUP2 LT ISZERO PUSH2 0x1142 JUMPI PUSH2 0x112B DUP5 DUP3 PUSH1 0x20 DUP2 LT PUSH2 0x1125 JUMPI PUSH2 0x1125 PUSH2 0x26DC JUMP JUMPDEST BYTE PUSH2 0x1835 JUMP JUMPDEST PUSH2 0x1138 SWAP1 PUSH1 0xFF AND DUP4 PUSH2 0x2291 JUMP JUMPDEST SWAP2 POP PUSH1 0x1 ADD PUSH2 0x1107 JUMP JUMPDEST POP PUSH1 0x80 EQ SWAP3 SWAP2 POP POP JUMP JUMPDEST PUSH0 DUP1 PUSH2 0x1157 DUP4 PUSH2 0x1863 JUMP JUMPDEST SWAP1 POP PUSH2 0x1161 PUSH2 0x1ECB JUMP JUMPDEST PUSH0 DUP1 JUMPDEST PUSH1 0x40 DUP2 PUSH1 0xFF AND LT ISZERO PUSH2 0x1288 JUMPI DUP4 MLOAD PUSH1 0xFF DUP3 AND PUSH1 0x40 DUP2 LT PUSH2 0x1186 JUMPI PUSH2 0x1186 PUSH2 0x26DC JUMP JUMPDEST PUSH1 0x20 MUL ADD MLOAD PUSH1 0xFF AND ISZERO ISZERO DUP1 PUSH2 0x11B2 JUMPI POP DUP3 MLOAD PUSH1 0xFF DUP3 AND PUSH1 0x40 DUP2 LT PUSH2 0x11AC JUMPI PUSH2 0x11AC PUSH2 0x26DC JUMP JUMPDEST PUSH1 0x20 MUL ADD MLOAD JUMPDEST PUSH2 0x1280 JUMPI PUSH2 0x11BE PUSH2 0x1ECB JUMP JUMPDEST PUSH2 0x11CA DUP6 DUP6 DUP4 DUP6 PUSH2 0x1990 JUMP JUMPDEST ISZERO PUSH2 0x127E JUMPI DUP3 PUSH2 0x11D9 DUP2 PUSH2 0x26F0 JUMP JUMPDEST SWAP4 POP POP PUSH0 JUMPDEST PUSH1 0x4 DUP2 PUSH1 0xFF AND LT ISZERO PUSH2 0x127C JUMPI PUSH0 JUMPDEST PUSH1 0x40 DUP2 PUSH1 0xFF AND LT ISZERO PUSH2 0x1273 JUMPI DUP3 DUP3 PUSH1 0xFF AND PUSH1 0x4 DUP2 LT PUSH2 0x120D JUMPI PUSH2 0x120D PUSH2 0x26DC JUMP JUMPDEST PUSH1 0x20 MUL ADD MLOAD DUP2 PUSH1 0xFF AND PUSH1 0x40 DUP2 LT PUSH2 0x1226 JUMPI PUSH2 0x1226 PUSH2 0x26DC JUMP JUMPDEST PUSH1 0x20 MUL ADD MLOAD ISZERO PUSH2 0x126B JUMPI PUSH1 0x1 DUP7 DUP4 PUSH1 0xFF AND PUSH1 0x4 DUP2 LT PUSH2 0x1247 JUMPI PUSH2 0x1247 PUSH2 0x26DC JUMP JUMPDEST PUSH1 0x20 MUL ADD MLOAD DUP3 PUSH1 0xFF AND PUSH1 0x40 DUP2 LT PUSH2 0x1260 JUMPI PUSH2 0x1260 PUSH2 0x26DC JUMP JUMPDEST SWAP2 ISZERO ISZERO PUSH1 0x20 SWAP1 SWAP3 MUL ADD MSTORE JUMPDEST PUSH1 0x1 ADD PUSH2 0x11EC JUMP JUMPDEST POP PUSH1 0x1 ADD PUSH2 0x11DE JUMP JUMPDEST POP JUMPDEST POP JUMPDEST PUSH1 0x1 ADD PUSH2 0x1164 JUMP JUMPDEST POP SWAP5 SWAP4 POP POP POP POP JUMP JUMPDEST PUSH1 0x60 PUSH0 PUSH2 0x129D DUP4 PUSH2 0x1BF0 JUMP JUMPDEST PUSH1 0x1 ADD SWAP1 POP PUSH0 DUP2 PUSH8 0xFFFFFFFFFFFFFFFF DUP2 GT ISZERO PUSH2 0x12BC JUMPI PUSH2 0x12BC PUSH2 0x210A JUMP JUMPDEST PUSH1 0x40 MLOAD SWAP1 DUP1 DUP3 MSTORE DUP1 PUSH1 0x1F ADD PUSH1 0x1F NOT AND PUSH1 0x20 ADD DUP3 ADD PUSH1 0x40 MSTORE DUP1 ISZERO PUSH2 0x12E6 JUMPI PUSH1 0x20 DUP3 ADD DUP2 DUP1 CALLDATASIZE DUP4 CALLDATACOPY ADD SWAP1 POP JUMPDEST POP SWAP1 POP DUP2 DUP2 ADD PUSH1 0x20 ADD JUMPDEST PUSH0 NOT ADD PUSH16 0x181899199A1A9B1B9C1CB0B131B232B3 PUSH1 0x81 SHL PUSH1 0xA DUP7 MOD BYTE DUP2 MSTORE8 PUSH1 0xA DUP6 DIV SWAP5 POP DUP5 PUSH2 0x12F0 JUMPI POP SWAP4 SWAP3 POP POP POP JUMP JUMPDEST PUSH1 0x60 DUP3 PUSH0 PUSH2 0x1330 DUP5 PUSH1 0x2 PUSH2 0x22B7 JUMP JUMPDEST PUSH2 0x133B SWAP1 PUSH1 0x2 PUSH2 0x2291 JUMP JUMPDEST PUSH8 0xFFFFFFFFFFFFFFFF DUP2 GT ISZERO PUSH2 0x1353 JUMPI PUSH2 0x1353 PUSH2 0x210A JUMP JUMPDEST PUSH1 0x40 MLOAD SWAP1 DUP1 DUP3 MSTORE DUP1 PUSH1 0x1F ADD PUSH1 0x1F NOT AND PUSH1 0x20 ADD DUP3 ADD PUSH1 0x40 MSTORE DUP1 ISZERO PUSH2 0x137D JUMPI PUSH1 0x20 DUP3 ADD DUP2 DUP1 CALLDATASIZE DUP4 CALLDATACOPY ADD SWAP1 POP JUMPDEST POP SWAP1 POP PUSH1 0x3 PUSH1 0xFC SHL DUP2 PUSH0 DUP2 MLOAD DUP2 LT PUSH2 0x1397 JUMPI PUSH2 0x1397 PUSH2 0x26DC JUMP JUMPDEST PUSH1 0x20 ADD ADD SWAP1 PUSH1 0x1 PUSH1 0x1 PUSH1 0xF8 SHL SUB NOT AND SWAP1 DUP2 PUSH0 BYTE SWAP1 MSTORE8 POP PUSH1 0xF PUSH1 0xFB SHL DUP2 PUSH1 0x1 DUP2 MLOAD DUP2 LT PUSH2 0x13C5 JUMPI PUSH2 0x13C5 PUSH2 0x26DC JUMP JUMPDEST PUSH1 0x20 ADD ADD SWAP1 PUSH1 0x1 PUSH1 0x1 PUSH1 0xF8 SHL SUB NOT AND SWAP1 DUP2 PUSH0 BYTE SWAP1 MSTORE8 POP PUSH0 PUSH2 0x13E7 DUP6 PUSH1 0x2 PUSH2 0x22B7 JUMP JUMPDEST PUSH2 0x13F2 SWAP1 PUSH1 0x1 PUSH2 0x2291 JUMP JUMPDEST SWAP1 POP JUMPDEST PUSH1 0x1 DUP2 GT ISZERO PUSH2 0x1469 JUMPI PUSH16 0x181899199A1A9B1B9C1CB0B131B232B3 PUSH1 0x81 SHL DUP4 PUSH1 0xF AND PUSH1 0x10 DUP2 LT PUSH2 0x1426 JUMPI PUSH2 0x1426 PUSH2 0x26DC JUMP JUMPDEST BYTE PUSH1 0xF8 SHL DUP3 DUP3 DUP2 MLOAD DUP2 LT PUSH2 0x143C JUMPI PUSH2 0x143C PUSH2 0x26DC JUMP JUMPDEST PUSH1 0x20 ADD ADD SWAP1 PUSH1 0x1 PUSH1 0x1 PUSH1 0xF8 SHL SUB NOT AND SWAP1 DUP2 PUSH0 BYTE SWAP1 MSTORE8 POP PUSH1 0x4 SWAP3 SWAP1 SWAP3 SHR SWAP2 PUSH2 0x1462 DUP2 PUSH2 0x270E JUMP JUMPDEST SWAP1 POP PUSH2 0x13F5 JUMP JUMPDEST POP DUP2 ISZERO PUSH2 0x1493 JUMPI PUSH1 0x40 MLOAD PUSH4 0xE22E27EB PUSH1 0xE0 SHL DUP2 MSTORE PUSH1 0x4 DUP2 ADD DUP7 SWAP1 MSTORE PUSH1 0x24 DUP2 ADD DUP6 SWAP1 MSTORE PUSH1 0x44 ADD PUSH2 0x6BC JUMP JUMPDEST SWAP5 SWAP4 POP POP POP POP JUMP JUMPDEST PUSH1 0x8 DUP1 SLOAD PUSH1 0x1 PUSH1 0x1 PUSH1 0xA0 SHL SUB DUP4 DUP2 AND PUSH1 0x1 PUSH1 0x1 PUSH1 0xA0 SHL SUB NOT DUP4 AND DUP2 OR SWAP1 SWAP4 SSTORE PUSH1 0x40 MLOAD SWAP2 AND SWAP2 SWAP1 DUP3 SWAP1 PUSH32 0x8BE0079C531659141344CD1FD0A4F28419497F9722A3DAAFE3B4186F6B6457E0 SWAP1 PUSH0 SWAP1 LOG3 POP POP JUMP JUMPDEST PUSH0 PUSH1 0x1 PUSH1 0x1 PUSH1 0xE0 SHL SUB NOT DUP3 AND PUSH4 0x80AC58CD PUSH1 0xE0 SHL EQ DUP1 PUSH2 0x151C JUMPI POP PUSH1 0x1 PUSH1 0x1 PUSH1 0xE0 SHL SUB NOT DUP3 AND PUSH4 0x5B5E139F PUSH1 0xE0 SHL EQ JUMPDEST DUP1 PUSH2 0x503 JUMPI POP PUSH4 0x1FFC9A7 PUSH1 0xE0 SHL PUSH1 0x1 PUSH1 0x1 PUSH1 0xE0 SHL SUB NOT DUP4 AND EQ PUSH2 0x503 JUMP JUMPDEST DUP1 DUP1 PUSH2 0x154F JUMPI POP PUSH1 0x1 PUSH1 0x1 PUSH1 0xA0 SHL SUB DUP3 AND ISZERO ISZERO JUMPDEST ISZERO PUSH2 0x1610 JUMPI PUSH0 PUSH2 0x155E DUP5 PUSH2 0xC31 JUMP JUMPDEST SWAP1 POP PUSH1 0x1 PUSH1 0x1 PUSH1 0xA0 SHL SUB DUP4 AND ISZERO DUP1 ISZERO SWAP1 PUSH2 0x158A JUMPI POP DUP3 PUSH1 0x1 PUSH1 0x1 PUSH1 0xA0 SHL SUB AND DUP2 PUSH1 0x1 PUSH1 0x1 PUSH1 0xA0 SHL SUB AND EQ ISZERO JUMPDEST DUP1 ISZERO PUSH2 0x159D JUMPI POP PUSH2 0x159B DUP2 DUP5 PUSH2 0xBA6 JUMP JUMPDEST ISZERO JUMPDEST ISZERO PUSH2 0x15C6 JUMPI PUSH1 0x40 MLOAD PUSH4 0xA9FBF51F PUSH1 0xE0 SHL DUP2 MSTORE PUSH1 0x1 PUSH1 0x1 PUSH1 0xA0 SHL SUB DUP5 AND PUSH1 0x4 DUP3 ADD MSTORE PUSH1 0x24 ADD PUSH2 0x6BC JUMP JUMPDEST DUP2 ISZERO PUSH2 0x160E JUMPI DUP4 DUP6 PUSH1 0x1 PUSH1 0x1 PUSH1 0xA0 SHL SUB AND DUP3 PUSH1 0x1 PUSH1 0x1 PUSH1 0xA0 SHL SUB AND PUSH32 0x8C5BE1E5EBEC7D5BD14F71427D1E84F3DD0314C0F7B2291E5B200AC8C7C3B925 PUSH1 0x40 MLOAD PUSH1 0x40 MLOAD DUP1 SWAP2 SUB SWAP1 LOG4 JUMPDEST POP JUMPDEST POP POP PUSH0 SWAP1 DUP2 MSTORE PUSH1 0x4 PUSH1 0x20 MSTORE PUSH1 0x40 SWAP1 KECCAK256 DUP1 SLOAD PUSH1 0x1 PUSH1 0x1 PUSH1 0xA0 SHL SUB NOT AND PUSH1 0x1 PUSH1 0x1 PUSH1 0xA0 SHL SUB SWAP3 SWAP1 SWAP3 AND SWAP2 SWAP1 SWAP2 OR SWAP1 SSTORE JUMP JUMPDEST PUSH2 0x1649 DUP4 DUP4 PUSH2 0x1CC7 JUMP JUMPDEST PUSH2 0x854 CALLER PUSH0 DUP6 DUP6 DUP6 PUSH2 0xF80 JUMP JUMPDEST PUSH2 0x1661 DUP4 DUP4 DUP4 PUSH2 0x1D28 JUMP JUMPDEST PUSH2 0x854 JUMPI PUSH1 0x1 PUSH1 0x1 PUSH1 0xA0 SHL SUB DUP4 AND PUSH2 0x168F JUMPI PUSH1 0x40 MLOAD PUSH4 0x7E273289 PUSH1 0xE0 SHL DUP2 MSTORE PUSH1 0x4 DUP2 ADD DUP3 SWAP1 MSTORE PUSH1 0x24 ADD PUSH2 0x6BC JUMP JUMPDEST PUSH1 0x40 MLOAD PUSH4 0x177E802F PUSH1 0xE0 SHL DUP2 MSTORE PUSH1 0x1 PUSH1 0x1 PUSH1 0xA0 SHL SUB DUP4 AND PUSH1 0x4 DUP3 ADD MSTORE PUSH1 0x24 DUP2 ADD DUP3 SWAP1 MSTORE PUSH1 0x44 ADD PUSH2 0x6BC JUMP JUMPDEST PUSH1 0x60 DUP4 MLOAD PUSH0 SUB PUSH2 0x16D8 JUMPI POP PUSH1 0x40 DUP1 MLOAD PUSH1 0x20 DUP2 ADD SWAP1 SWAP2 MSTORE PUSH0 DUP2 MSTORE PUSH2 0xE0C JUMP JUMPDEST PUSH0 DUP3 PUSH2 0x1708 JUMPI PUSH1 0x3 DUP6 MLOAD PUSH1 0x4 PUSH2 0x16EE SWAP2 SWAP1 PUSH2 0x22B7 JUMP JUMPDEST PUSH2 0x16F9 SWAP1 PUSH1 0x2 PUSH2 0x2291 JUMP JUMPDEST PUSH2 0x1703 SWAP2 SWAP1 PUSH2 0x22E2 JUMP JUMPDEST PUSH2 0x172D JUMP JUMPDEST PUSH1 0x3 DUP6 MLOAD PUSH1 0x2 PUSH2 0x1718 SWAP2 SWAP1 PUSH2 0x2291 JUMP JUMPDEST PUSH2 0x1722 SWAP2 SWAP1 PUSH2 0x22E2 JUMP JUMPDEST PUSH2 0x172D SWAP1 PUSH1 0x4 PUSH2 0x22B7 JUMP JUMPDEST SWAP1 POP PUSH0 DUP2 PUSH8 0xFFFFFFFFFFFFFFFF DUP2 GT ISZERO PUSH2 0x1749 JUMPI PUSH2 0x1749 PUSH2 0x210A JUMP JUMPDEST PUSH1 0x40 MLOAD SWAP1 DUP1 DUP3 MSTORE DUP1 PUSH1 0x1F ADD PUSH1 0x1F NOT AND PUSH1 0x20 ADD DUP3 ADD PUSH1 0x40 MSTORE DUP1 ISZERO PUSH2 0x1773 JUMPI PUSH1 0x20 DUP3 ADD DUP2 DUP1 CALLDATASIZE DUP4 CALLDATACOPY ADD SWAP1 POP JUMPDEST POP SWAP1 POP PUSH1 0x1 DUP6 ADD PUSH1 0x20 DUP3 ADD DUP8 DUP9 MLOAD DUP10 ADD PUSH1 0x20 DUP2 ADD DUP1 MLOAD PUSH0 DUP3 MSTORE JUMPDEST DUP3 DUP5 LT ISZERO PUSH2 0x17E8 JUMPI PUSH1 0x3 DUP5 ADD SWAP4 POP DUP4 MLOAD PUSH1 0x3F DUP2 PUSH1 0x12 SHR AND DUP8 ADD MLOAD DUP7 MSTORE8 PUSH1 0x1 DUP7 ADD SWAP6 POP PUSH1 0x3F DUP2 PUSH1 0xC SHR AND DUP8 ADD MLOAD DUP7 MSTORE8 PUSH1 0x1 DUP7 ADD SWAP6 POP PUSH1 0x3F DUP2 PUSH1 0x6 SHR AND DUP8 ADD MLOAD DUP7 MSTORE8 PUSH1 0x1 DUP7 ADD SWAP6 POP PUSH1 0x3F DUP2 AND DUP8 ADD MLOAD DUP7 MSTORE8 POP PUSH1 0x1 DUP6 ADD SWAP5 POP PUSH2 0x178D JUMP JUMPDEST SWAP1 MSTORE POP POP DUP6 ISZERO PUSH2 0x1829 JUMPI PUSH1 0x3 DUP9 MLOAD MOD PUSH1 0x1 DUP2 EQ PUSH2 0x180C JUMPI PUSH1 0x2 DUP2 EQ PUSH2 0x181F JUMPI PUSH2 0x1827 JUMP JUMPDEST PUSH1 0x3D PUSH1 0x1 DUP4 SUB MSTORE8 PUSH1 0x3D PUSH1 0x2 DUP4 SUB MSTORE8 PUSH2 0x1827 JUMP JUMPDEST PUSH1 0x3D PUSH1 0x1 DUP4 SUB MSTORE8 JUMPDEST POP JUMPDEST POP SWAP1 SWAP7 SWAP6 POP POP POP POP POP POP JUMP JUMPDEST PUSH0 JUMPDEST PUSH1 0xFF DUP3 AND ISZERO PUSH2 0x185E JUMPI PUSH2 0x184D PUSH1 0x1 DUP4 AND DUP3 PUSH2 0x2723 JUMP JUMPDEST SWAP1 POP PUSH1 0x1 DUP3 PUSH1 0xFF AND SWAP1 SHR SWAP2 POP PUSH2 0x1837 JUMP JUMPDEST SWAP2 SWAP1 POP JUMP JUMPDEST PUSH2 0x186B PUSH2 0x1EF8 JUMP JUMPDEST PUSH0 JUMPDEST PUSH1 0x20 DUP2 LT ISZERO PUSH2 0x198A JUMPI PUSH0 PUSH1 0x4 DUP5 DUP4 PUSH1 0x20 DUP2 LT PUSH2 0x188B JUMPI PUSH2 0x188B PUSH2 0x26DC JUMP JUMPDEST BYTE SWAP1 SHR SWAP1 POP PUSH0 DUP5 DUP4 PUSH1 0x20 DUP2 LT PUSH2 0x18A3 JUMPI PUSH2 0x18A3 PUSH2 0x26DC JUMP JUMPDEST BYTE PUSH1 0xF AND SWAP1 POP PUSH0 JUMPDEST PUSH1 0x4 DUP2 PUSH1 0xFF AND LT ISZERO PUSH2 0x197C JUMPI PUSH2 0x18C2 DUP2 PUSH1 0x3 PUSH2 0x273C JUMP JUMPDEST PUSH1 0xFF AND DUP4 PUSH1 0xFF AND SWAP1 SHR PUSH1 0x1 AND DUP6 DUP3 PUSH1 0xFF AND PUSH1 0x4 DUP2 LT PUSH2 0x18E3 JUMPI PUSH2 0x18E3 PUSH2 0x26DC JUMP JUMPDEST PUSH1 0x20 MUL ADD MLOAD PUSH2 0x18F3 DUP7 PUSH1 0x2 PUSH2 0x22B7 JUMP JUMPDEST PUSH1 0x40 DUP2 LT PUSH2 0x1903 JUMPI PUSH2 0x1903 PUSH2 0x26DC JUMP JUMPDEST PUSH1 0xFF SWAP1 SWAP3 AND PUSH1 0x20 SWAP3 SWAP1 SWAP3 MUL ADD MSTORE PUSH2 0x191B DUP2 PUSH1 0x3 PUSH2 0x273C JUMP JUMPDEST PUSH1 0xFF AND DUP3 PUSH1 0xFF AND SWAP1 SHR PUSH1 0x1 AND DUP6 DUP3 PUSH1 0xFF AND PUSH1 0x4 DUP2 LT PUSH2 0x193C JUMPI PUSH2 0x193C PUSH2 0x26DC JUMP JUMPDEST PUSH1 0x20 MUL ADD MLOAD PUSH2 0x194C DUP7 PUSH1 0x2 PUSH2 0x22B7 JUMP JUMPDEST PUSH2 0x1957 SWAP1 PUSH1 0x1 PUSH2 0x2291 JUMP JUMPDEST PUSH1 0x40 DUP2 LT PUSH2 0x1967 JUMPI PUSH2 0x1967 PUSH2 0x26DC JUMP JUMPDEST PUSH1 0xFF SWAP1 SWAP3 AND PUSH1 0x20 SWAP3 SWAP1 SWAP3 MUL ADD MSTORE PUSH1 0x1 ADD PUSH2 0x18AB JUMP JUMPDEST POP POP POP DUP1 PUSH1 0x1 ADD SWAP1 POP PUSH2 0x186D JUMP JUMPDEST POP SWAP2 SWAP1 POP JUMP JUMPDEST PUSH0 PUSH2 0x1999 PUSH2 0x1F25 JUMP JUMPDEST PUSH2 0x19A1 PUSH2 0x1F25 JUMP JUMPDEST PUSH0 DUP1 DUP4 MSTORE PUSH1 0xFF DUP6 AND DUP3 MSTORE PUSH1 0x1 JUMPDEST DUP1 DUP3 LT ISZERO PUSH2 0x1BE4 JUMPI PUSH0 DUP5 DUP4 PUSH2 0x100 DUP2 LT PUSH2 0x19CA JUMPI PUSH2 0x19CA PUSH2 0x26DC JUMP JUMPDEST PUSH1 0x20 MUL ADD MLOAD SWAP1 POP PUSH0 DUP5 DUP5 PUSH2 0x100 DUP2 LT PUSH2 0x19E5 JUMPI PUSH2 0x19E5 PUSH2 0x26DC JUMP JUMPDEST PUSH1 0x20 MUL ADD MLOAD SWAP1 POP DUP4 PUSH2 0x19F6 DUP2 PUSH2 0x2755 JUMP JUMPDEST SWAP5 POP POP DUP9 DUP3 PUSH2 0xFFFF AND PUSH1 0x4 DUP2 LT PUSH2 0x1A0F JUMPI PUSH2 0x1A0F PUSH2 0x26DC JUMP JUMPDEST PUSH1 0x20 MUL ADD MLOAD DUP2 PUSH2 0xFFFF AND PUSH1 0x40 DUP2 LT PUSH2 0x1A29 JUMPI PUSH2 0x1A29 PUSH2 0x26DC JUMP JUMPDEST PUSH1 0x20 MUL ADD MLOAD DUP1 PUSH2 0x1A6F JUMPI POP DUP11 DUP3 PUSH2 0xFFFF AND PUSH1 0x4 DUP2 LT PUSH2 0x1A4A JUMPI PUSH2 0x1A4A PUSH2 0x26DC JUMP JUMPDEST PUSH1 0x20 MUL ADD MLOAD DUP2 PUSH2 0xFFFF AND PUSH1 0x40 DUP2 LT PUSH2 0x1A64 JUMPI PUSH2 0x1A64 PUSH2 0x26DC JUMP JUMPDEST PUSH1 0x20 MUL ADD MLOAD PUSH1 0xFF AND ISZERO ISZERO JUMPDEST ISZERO PUSH2 0x1A7B JUMPI POP POP PUSH2 0x19AE JUMP JUMPDEST PUSH1 0x1 DUP10 DUP4 PUSH2 0xFFFF AND PUSH1 0x4 DUP2 LT PUSH2 0x1A93 JUMPI PUSH2 0x1A93 PUSH2 0x26DC JUMP JUMPDEST PUSH1 0x20 MUL ADD MLOAD DUP3 PUSH2 0xFFFF AND PUSH1 0x40 DUP2 LT PUSH2 0x1AAD JUMPI PUSH2 0x1AAD PUSH2 0x26DC JUMP JUMPDEST SWAP2 ISZERO ISZERO PUSH1 0x20 SWAP1 SWAP3 MUL ADD MSTORE PUSH2 0xFFFF DUP3 AND PUSH1 0x3 SUB PUSH2 0x1AC8 JUMPI PUSH1 0x1 SWAP7 POP JUMPDEST PUSH0 PUSH1 0x40 MLOAD DUP1 PUSH1 0x80 ADD PUSH1 0x40 MSTORE DUP1 DUP5 PUSH1 0x1 PUSH2 0x1AE1 SWAP2 SWAP1 PUSH2 0x276D JUMP JUMPDEST PUSH2 0xFFFF AND PUSH2 0xFFFF AND DUP2 MSTORE PUSH1 0x20 ADD DUP5 PUSH2 0xFFFF AND PUSH0 EQ PUSH2 0x1B09 JUMPI PUSH2 0x1B04 PUSH1 0x1 DUP7 PUSH2 0x2787 JUMP JUMPDEST PUSH2 0x1B0B JUMP JUMPDEST PUSH0 JUMPDEST PUSH2 0xFFFF SWAP1 DUP2 AND DUP3 MSTORE DUP6 DUP2 AND PUSH1 0x20 DUP1 DUP5 ADD DUP3 SWAP1 MSTORE PUSH1 0x40 SWAP4 DUP5 ADD SWAP2 SWAP1 SWAP2 MSTORE DUP3 MLOAD PUSH1 0x80 DUP2 ADD DUP5 MSTORE SWAP2 DUP7 AND DUP1 DUP4 MSTORE SWAP1 DUP3 ADD MSTORE SWAP2 SWAP3 POP PUSH0 SWAP2 SWAP1 DUP2 DUP2 ADD SWAP1 PUSH2 0x1B4E DUP7 PUSH1 0x1 PUSH2 0x276D JUMP JUMPDEST PUSH2 0x1B58 SWAP2 SWAP1 PUSH2 0x27A1 JUMP JUMPDEST PUSH2 0xFFFF AND DUP2 MSTORE PUSH1 0x20 ADD PUSH1 0x40 PUSH2 0x1B6E DUP7 PUSH1 0x3F PUSH2 0x276D JUMP JUMPDEST PUSH2 0x1B78 SWAP2 SWAP1 PUSH2 0x27A1 JUMP JUMPDEST PUSH2 0xFFFF AND SWAP1 MSTORE SWAP1 POP PUSH0 JUMPDEST PUSH1 0x4 DUP2 PUSH1 0xFF AND LT ISZERO PUSH2 0x1BDA JUMPI PUSH2 0x1BD0 DUP15 DUP15 DUP15 DUP13 DUP13 DUP9 DUP8 PUSH1 0xFF AND PUSH1 0x4 DUP2 LT PUSH2 0x1BAB JUMPI PUSH2 0x1BAB PUSH2 0x26DC JUMP JUMPDEST PUSH1 0x20 MUL ADD MLOAD DUP9 DUP9 PUSH1 0xFF AND PUSH1 0x4 DUP2 LT PUSH2 0x1BC5 JUMPI PUSH2 0x1BC5 PUSH2 0x26DC JUMP JUMPDEST PUSH1 0x20 MUL ADD MLOAD DUP14 PUSH2 0x1D89 JUMP JUMPDEST SWAP6 POP PUSH1 0x1 ADD PUSH2 0x1B82 JUMP JUMPDEST POP POP POP POP POP PUSH2 0x19AE JUMP JUMPDEST POP POP POP POP SWAP5 SWAP4 POP POP POP POP JUMP JUMPDEST PUSH0 DUP1 PUSH19 0x184F03E93FF9F4DAA797ED6E38ED64BF6A1F01 PUSH1 0x40 SHL DUP4 LT PUSH2 0x1C2E JUMPI PUSH19 0x184F03E93FF9F4DAA797ED6E38ED64BF6A1F01 PUSH1 0x40 SHL DUP4 DIV SWAP3 POP PUSH1 0x40 ADD JUMPDEST PUSH14 0x4EE2D6D415B85ACEF8100000000 DUP4 LT PUSH2 0x1C5A JUMPI PUSH14 0x4EE2D6D415B85ACEF8100000000 DUP4 DIV SWAP3 POP PUSH1 0x20 ADD JUMPDEST PUSH7 0x2386F26FC10000 DUP4 LT PUSH2 0x1C78 JUMPI PUSH7 0x2386F26FC10000 DUP4 DIV SWAP3 POP PUSH1 0x10 ADD JUMPDEST PUSH4 0x5F5E100 DUP4 LT PUSH2 0x1C90 JUMPI PUSH4 0x5F5E100 DUP4 DIV SWAP3 POP PUSH1 0x8 ADD JUMPDEST PUSH2 0x2710 DUP4 LT PUSH2 0x1CA4 JUMPI PUSH2 0x2710 DUP4 DIV SWAP3 POP PUSH1 0x4 ADD JUMPDEST PUSH1 0x64 DUP4 LT PUSH2 0x1CB6 JUMPI PUSH1 0x64 DUP4 DIV SWAP3 POP PUSH1 0x2 ADD JUMPDEST PUSH1 0xA DUP4 LT PUSH2 0x503 JUMPI PUSH1 0x1 ADD SWAP3 SWAP2 POP POP JUMP JUMPDEST PUSH1 0x1 PUSH1 0x1 PUSH1 0xA0 SHL SUB DUP3 AND PUSH2 0x1CF0 JUMPI PUSH1 0x40 MLOAD PUSH4 0x32505749 PUSH1 0xE1 SHL DUP2 MSTORE PUSH0 PUSH1 0x4 DUP3 ADD MSTORE PUSH1 0x24 ADD PUSH2 0x6BC JUMP JUMPDEST PUSH0 PUSH2 0x1CFC DUP4 DUP4 PUSH0 PUSH2 0xD1F JUMP JUMPDEST SWAP1 POP PUSH1 0x1 PUSH1 0x1 PUSH1 0xA0 SHL SUB DUP2 AND ISZERO PUSH2 0x854 JUMPI PUSH1 0x40 MLOAD PUSH4 0x39E35637 PUSH1 0xE1 SHL DUP2 MSTORE PUSH0 PUSH1 0x4 DUP3 ADD MSTORE PUSH1 0x24 ADD PUSH2 0x6BC JUMP JUMPDEST PUSH0 PUSH1 0x1 PUSH1 0x1 PUSH1 0xA0 SHL SUB DUP4 AND ISZERO DUP1 ISZERO SWAP1 PUSH2 0x1493 JUMPI POP DUP3 PUSH1 0x1 PUSH1 0x1 PUSH1 0xA0 SHL SUB AND DUP5 PUSH1 0x1 PUSH1 0x1 PUSH1 0xA0 SHL SUB AND EQ DUP1 PUSH2 0x1D61 JUMPI POP PUSH2 0x1D61 DUP5 DUP5 PUSH2 0xBA6 JUMP JUMPDEST DUP1 PUSH2 0x1493 JUMPI POP POP PUSH0 SWAP1 DUP2 MSTORE PUSH1 0x4 PUSH1 0x20 MSTORE PUSH1 0x40 SWAP1 KECCAK256 SLOAD PUSH1 0x1 PUSH1 0x1 PUSH1 0xA0 SHL SUB SWAP1 DUP2 AND SWAP2 AND EQ SWAP2 SWAP1 POP JUMP JUMPDEST PUSH0 PUSH1 0x4 DUP5 PUSH2 0xFFFF AND LT ISZERO DUP1 PUSH2 0x1DA3 JUMPI POP PUSH1 0x40 DUP4 PUSH2 0xFFFF AND LT ISZERO JUMPDEST ISZERO PUSH2 0x1DAF JUMPI POP DUP1 PUSH2 0x1EBF JUMP JUMPDEST DUP7 DUP5 PUSH2 0xFFFF AND PUSH1 0x4 DUP2 LT PUSH2 0x1DC5 JUMPI PUSH2 0x1DC5 PUSH2 0x26DC JUMP JUMPDEST PUSH1 0x20 MUL ADD MLOAD DUP4 PUSH2 0xFFFF AND PUSH1 0x40 DUP2 LT PUSH2 0x1DDF JUMPI PUSH2 0x1DDF PUSH2 0x26DC JUMP JUMPDEST PUSH1 0x20 MUL ADD MLOAD DUP1 PUSH2 0x1E20 JUMPI POP DUP8 DUP5 PUSH2 0xFFFF AND PUSH1 0x4 DUP2 LT PUSH2 0x1E00 JUMPI PUSH2 0x1E00 PUSH2 0x26DC JUMP JUMPDEST PUSH1 0x20 MUL ADD MLOAD DUP4 PUSH2 0xFFFF AND PUSH1 0x40 DUP2 LT PUSH2 0x1E1A JUMPI PUSH2 0x1E1A PUSH2 0x26DC JUMP JUMPDEST PUSH1 0x20 MUL ADD MLOAD JUMPDEST DUP1 PUSH2 0x1E61 JUMPI POP DUP9 DUP5 PUSH2 0xFFFF AND PUSH1 0x4 DUP2 LT PUSH2 0x1E3C JUMPI PUSH2 0x1E3C PUSH2 0x26DC JUMP JUMPDEST PUSH1 0x20 MUL ADD MLOAD DUP4 PUSH2 0xFFFF AND PUSH1 0x40 DUP2 LT PUSH2 0x1E56 JUMPI PUSH2 0x1E56 PUSH2 0x26DC JUMP JUMPDEST PUSH1 0x20 MUL ADD MLOAD PUSH1 0xFF AND ISZERO ISZERO JUMPDEST ISZERO PUSH2 0x1E6D JUMPI POP DUP1 PUSH2 0x1EBF JUMP JUMPDEST DUP4 DUP7 DUP4 PUSH2 0x100 DUP2 LT PUSH2 0x1E81 JUMPI PUSH2 0x1E81 PUSH2 0x26DC JUMP JUMPDEST PUSH2 0xFFFF SWAP1 SWAP3 AND PUSH1 0x20 SWAP3 SWAP1 SWAP3 MUL ADD MSTORE DUP3 DUP6 DUP4 PUSH2 0x100 DUP2 LT PUSH2 0x1EA3 JUMPI PUSH2 0x1EA3 PUSH2 0x26DC JUMP JUMPDEST PUSH2 0xFFFF SWAP1 SWAP3 AND PUSH1 0x20 SWAP3 SWAP1 SWAP3 MUL ADD MSTORE PUSH2 0x1EBC DUP3 PUSH1 0x1 PUSH2 0x2291 JUMP JUMPDEST SWAP1 POP JUMPDEST SWAP9 SWAP8 POP POP POP POP POP POP POP POP JUMP JUMPDEST PUSH1 0x40 MLOAD DUP1 PUSH1 0x80 ADD PUSH1 0x40 MSTORE DUP1 PUSH1 0x4 SWAP1 JUMPDEST PUSH2 0x1EE2 PUSH2 0x1F45 JUMP JUMPDEST DUP2 MSTORE PUSH1 0x20 ADD SWAP1 PUSH1 0x1 SWAP1 SUB SWAP1 DUP2 PUSH2 0x1EDA JUMPI SWAP1 POP POP SWAP1 JUMP JUMPDEST PUSH1 0x40 MLOAD DUP1 PUSH1 0x80 ADD PUSH1 0x40 MSTORE DUP1 PUSH1 0x4 SWAP1 JUMPDEST PUSH2 0x1F0F PUSH2 0x1F45 JUMP JUMPDEST DUP2 MSTORE PUSH1 0x20 ADD SWAP1 PUSH1 0x1 SWAP1 SUB SWAP1 DUP2 PUSH2 0x1F07 JUMPI SWAP1 POP POP SWAP1 JUMP JUMPDEST PUSH1 0x40 MLOAD DUP1 PUSH2 0x2000 ADD PUSH1 0x40 MSTORE DUP1 PUSH2 0x100 SWAP1 PUSH1 0x20 DUP3 MUL DUP1 CALLDATASIZE DUP4 CALLDATACOPY POP SWAP2 SWAP3 SWAP2 POP POP JUMP JUMPDEST PUSH1 0x40 MLOAD DUP1 PUSH2 0x800 ADD PUSH1 0x40 MSTORE DUP1 PUSH1 0x40 SWAP1 PUSH1 0x20 DUP3 MUL DUP1 CALLDATASIZE DUP4 CALLDATACOPY POP SWAP2 SWAP3 SWAP2 POP POP JUMP JUMPDEST PUSH1 0x1 PUSH1 0x1 PUSH1 0xE0 SHL SUB NOT DUP2 AND DUP2 EQ PUSH2 0x837 JUMPI PUSH0 DUP1 REVERT JUMPDEST PUSH0 PUSH1 0x20 DUP3 DUP5 SUB SLT ISZERO PUSH2 0x1F89 JUMPI PUSH0 DUP1 REVERT JUMPDEST DUP2 CALLDATALOAD PUSH2 0xE0C DUP2 PUSH2 0x1F64 JUMP JUMPDEST PUSH0 DUP2 MLOAD DUP1 DUP5 MSTORE DUP1 PUSH1 0x20 DUP5 ADD PUSH1 0x20 DUP7 ADD MCOPY PUSH0 PUSH1 0x20 DUP3 DUP7 ADD ADD MSTORE PUSH1 0x20 PUSH1 0x1F NOT PUSH1 0x1F DUP4 ADD AND DUP6 ADD ADD SWAP2 POP POP SWAP3 SWAP2 POP POP JUMP JUMPDEST PUSH1 0x20 DUP2 MSTORE PUSH0 PUSH2 0xE0C PUSH1 0x20 DUP4 ADD DUP5 PUSH2 0x1F94 JUMP JUMPDEST PUSH0 PUSH1 0x20 DUP3 DUP5 SUB SLT ISZERO PUSH2 0x1FE4 JUMPI PUSH0 DUP1 REVERT JUMPDEST POP CALLDATALOAD SWAP2 SWAP1 POP JUMP JUMPDEST DUP1 CALLDATALOAD PUSH1 0x1 PUSH1 0x1 PUSH1 0xA0 SHL SUB DUP2 AND DUP2 EQ PUSH2 0x185E JUMPI PUSH0 DUP1 REVERT JUMPDEST PUSH0 DUP1 PUSH1 0x40 DUP4 DUP6 SUB SLT ISZERO PUSH2 0x2012 JUMPI PUSH0 DUP1 REVERT JUMPDEST PUSH2 0x201B DUP4 PUSH2 0x1FEB JUMP JUMPDEST SWAP5 PUSH1 0x20 SWAP4 SWAP1 SWAP4 ADD CALLDATALOAD SWAP4 POP POP POP JUMP JUMPDEST PUSH0 DUP1 PUSH0 PUSH1 0x60 DUP5 DUP7 SUB SLT ISZERO PUSH2 0x203B JUMPI PUSH0 DUP1 REVERT JUMPDEST PUSH2 0x2044 DUP5 PUSH2 0x1FEB JUMP JUMPDEST SWAP3 POP PUSH2 0x2052 PUSH1 0x20 DUP6 ADD PUSH2 0x1FEB JUMP JUMPDEST SWAP3 SWAP6 SWAP3 SWAP5 POP POP POP PUSH1 0x40 SWAP2 SWAP1 SWAP2 ADD CALLDATALOAD SWAP1 JUMP JUMPDEST PUSH0 DUP1 PUSH1 0x40 DUP4 DUP6 SUB SLT ISZERO PUSH2 0x2074 JUMPI PUSH0 DUP1 REVERT JUMPDEST POP POP DUP1 CALLDATALOAD SWAP3 PUSH1 0x20 SWAP1 SWAP2 ADD CALLDATALOAD SWAP2 POP JUMP JUMPDEST PUSH0 PUSH1 0x20 DUP3 DUP5 SUB SLT ISZERO PUSH2 0x2093 JUMPI PUSH0 DUP1 REVERT JUMPDEST PUSH2 0xE0C DUP3 PUSH2 0x1FEB JUMP JUMPDEST PUSH0 DUP1 PUSH1 0x40 DUP4 DUP6 SUB SLT ISZERO PUSH2 0x20AD JUMPI PUSH0 DUP1 REVERT JUMPDEST PUSH2 0x20B6 DUP4 PUSH2 0x1FEB JUMP JUMPDEST SWAP2 POP PUSH1 0x20 DUP4 ADD CALLDATALOAD PUSH1 0x1 PUSH1 0x1 PUSH1 0x60 SHL SUB DUP2 AND DUP2 EQ PUSH2 0x20D1 JUMPI PUSH0 DUP1 REVERT JUMPDEST DUP1 SWAP2 POP POP SWAP3 POP SWAP3 SWAP1 POP JUMP JUMPDEST PUSH0 DUP1 PUSH1 0x40 DUP4 DUP6 SUB SLT ISZERO PUSH2 0x20ED JUMPI PUSH0 DUP1 REVERT JUMPDEST PUSH2 0x20F6 DUP4 PUSH2 0x1FEB JUMP JUMPDEST SWAP2 POP PUSH1 0x20 DUP4 ADD CALLDATALOAD DUP1 ISZERO ISZERO DUP2 EQ PUSH2 0x20D1 JUMPI PUSH0 DUP1 REVERT JUMPDEST PUSH4 0x4E487B71 PUSH1 0xE0 SHL PUSH0 MSTORE PUSH1 0x41 PUSH1 0x4 MSTORE PUSH1 0x24 PUSH0 REVERT JUMPDEST PUSH1 0x40 MLOAD PUSH1 0x1F DUP3 ADD PUSH1 0x1F NOT AND DUP2 ADD PUSH8 0xFFFFFFFFFFFFFFFF DUP2 GT DUP3 DUP3 LT OR ISZERO PUSH2 0x2147 JUMPI PUSH2 0x2147 PUSH2 0x210A JUMP JUMPDEST PUSH1 0x40 MSTORE SWAP2 SWAP1 POP JUMP JUMPDEST PUSH0 PUSH8 0xFFFFFFFFFFFFFFFF DUP3 GT ISZERO PUSH2 0x2168 JUMPI PUSH2 0x2168 PUSH2 0x210A JUMP JUMPDEST POP PUSH1 0x1F ADD PUSH1 0x1F NOT AND PUSH1 0x20 ADD SWAP1 JUMP JUMPDEST PUSH0 DUP1 PUSH0 DUP1 PUSH1 0x80 DUP6 DUP8 SUB SLT ISZERO PUSH2 0x2189 JUMPI PUSH0 DUP1 REVERT JUMPDEST PUSH2 0x2192 DUP6 PUSH2 0x1FEB JUMP JUMPDEST SWAP4 POP PUSH2 0x21A0 PUSH1 0x20 DUP7 ADD PUSH2 0x1FEB JUMP JUMPDEST SWAP3 POP PUSH1 0x40 DUP6 ADD CALLDATALOAD SWAP2 POP PUSH1 0x60 DUP6 ADD CALLDATALOAD PUSH8 0xFFFFFFFFFFFFFFFF DUP2 GT ISZERO PUSH2 0x21C2 JUMPI PUSH0 DUP1 REVERT JUMPDEST DUP6 ADD PUSH1 0x1F DUP2 ADD DUP8 SGT PUSH2 0x21D2 JUMPI PUSH0 DUP1 REVERT JUMPDEST DUP1 CALLDATALOAD PUSH2 0x21E5 PUSH2 0x21E0 DUP3 PUSH2 0x214F JUMP JUMPDEST PUSH2 0x211E JUMP JUMPDEST DUP2 DUP2 MSTORE DUP9 PUSH1 0x20 DUP4 DUP6 ADD ADD GT ISZERO PUSH2 0x21F9 JUMPI PUSH0 DUP1 REVERT JUMPDEST DUP2 PUSH1 0x20 DUP5 ADD PUSH1 0x20 DUP4 ADD CALLDATACOPY PUSH0 PUSH1 0x20 DUP4 DUP4 ADD ADD MSTORE DUP1 SWAP4 POP POP POP POP SWAP3 SWAP6 SWAP2 SWAP5 POP SWAP3 POP JUMP JUMPDEST PUSH0 DUP1 PUSH1 0x40 DUP4 DUP6 SUB SLT ISZERO PUSH2 0x222B JUMPI PUSH0 DUP1 REVERT JUMPDEST PUSH2 0x2234 DUP4 PUSH2 0x1FEB JUMP JUMPDEST SWAP2 POP PUSH2 0x2242 PUSH1 0x20 DUP5 ADD PUSH2 0x1FEB JUMP JUMPDEST SWAP1 POP SWAP3 POP SWAP3 SWAP1 POP JUMP JUMPDEST PUSH1 0x1 DUP2 DUP2 SHR SWAP1 DUP3 AND DUP1 PUSH2 0x225F JUMPI PUSH1 0x7F DUP3 AND SWAP2 POP JUMPDEST PUSH1 0x20 DUP3 LT DUP2 SUB PUSH2 0x198A JUMPI PUSH4 0x4E487B71 PUSH1 0xE0 SHL PUSH0 MSTORE PUSH1 0x22 PUSH1 0x4 MSTORE PUSH1 0x24 PUSH0 REVERT JUMPDEST PUSH4 0x4E487B71 PUSH1 0xE0 SHL PUSH0 MSTORE PUSH1 0x11 PUSH1 0x4 MSTORE PUSH1 0x24 PUSH0 REVERT JUMPDEST DUP1 DUP3 ADD DUP1 DUP3 GT ISZERO PUSH2 0x503 JUMPI PUSH2 0x503 PUSH2 0x227D JUMP JUMPDEST DUP2 DUP2 SUB DUP2 DUP2 GT ISZERO PUSH2 0x503 JUMPI PUSH2 0x503 PUSH2 0x227D JUMP JUMPDEST DUP1 DUP3 MUL DUP2 ISZERO DUP3 DUP3 DIV DUP5 EQ OR PUSH2 0x503 JUMPI PUSH2 0x503 PUSH2 0x227D JUMP JUMPDEST PUSH4 0x4E487B71 PUSH1 0xE0 SHL PUSH0 MSTORE PUSH1 0x12 PUSH1 0x4 MSTORE PUSH1 0x24 PUSH0 REVERT JUMPDEST PUSH0 DUP3 PUSH2 0x22F0 JUMPI PUSH2 0x22F0 PUSH2 0x22CE JUMP JUMPDEST POP DIV SWAP1 JUMP JUMPDEST PUSH0 PUSH1 0x20 DUP3 DUP5 SUB SLT ISZERO PUSH2 0x2305 JUMPI PUSH0 DUP1 REVERT JUMPDEST DUP2 MLOAD PUSH8 0xFFFFFFFFFFFFFFFF DUP2 GT ISZERO PUSH2 0x231B JUMPI PUSH0 DUP1 REVERT JUMPDEST DUP3 ADD PUSH1 0x1F DUP2 ADD DUP5 SGT PUSH2 0x232B JUMPI PUSH0 DUP1 REVERT JUMPDEST DUP1 MLOAD PUSH2 0x2339 PUSH2 0x21E0 DUP3 PUSH2 0x214F JUMP JUMPDEST DUP2 DUP2 MSTORE DUP6 PUSH1 0x20 DUP4 DUP6 ADD ADD GT ISZERO PUSH2 0x234D JUMPI PUSH0 DUP1 REVERT JUMPDEST DUP2 PUSH1 0x20 DUP5 ADD PUSH1 0x20 DUP4 ADD MCOPY PUSH0 SWAP2 DUP2 ADD PUSH1 0x20 ADD SWAP2 SWAP1 SWAP2 MSTORE SWAP5 SWAP4 POP POP POP POP JUMP JUMPDEST PUSH0 DUP2 MLOAD DUP1 PUSH1 0x20 DUP5 ADD DUP6 MCOPY PUSH0 SWAP4 ADD SWAP3 DUP4 MSTORE POP SWAP1 SWAP2 SWAP1 POP JUMP JUMPDEST PUSH32 0x7B202274726169745F74797065223A2242616C616E636564222C202276616C75 DUP2 MSTORE PUSH4 0x32911D11 PUSH1 0xE1 SHL PUSH1 0x20 DUP3 ADD MSTORE PUSH0 PUSH2 0x23BF PUSH1 0x24 DUP4 ADD DUP7 PUSH2 0x236A JUMP JUMPDEST PUSH4 0x8881F4B PUSH1 0xE2 SHL DUP2 MSTORE PUSH32 0x7B202274726169745F74797065223A225061737361676573222C202276616C75 PUSH1 0x4 DUP3 ADD MSTORE PUSH4 0x32911D11 PUSH1 0xE1 SHL PUSH1 0x24 DUP3 ADD MSTORE PUSH2 0x2409 PUSH1 0x28 DUP3 ADD DUP7 PUSH2 0x236A JUMP JUMPDEST PUSH4 0x8881F4B PUSH1 0xE2 SHL DUP2 MSTORE PUSH32 0x7B202274726169745F74797065223A22536F757263652068617368222C202276 PUSH1 0x4 DUP3 ADD MSTORE PUSH7 0x30B63AB2911D11 PUSH1 0xC9 SHL PUSH1 0x24 DUP3 ADD MSTORE SWAP1 POP PUSH2 0x2458 PUSH1 0x2B DUP3 ADD DUP6 PUSH2 0x236A JUMP JUMPDEST PUSH3 0x22207D PUSH1 0xE8 SHL DUP2 MSTORE PUSH1 0x3 ADD SWAP7 SWAP6 POP POP POP POP POP POP JUMP JUMPDEST PUSH19 0x7B226E616D65223A22486173684A696E672023 PUSH1 0x68 SHL DUP2 MSTORE PUSH0 PUSH2 0x2495 PUSH1 0x13 DUP4 ADD DUP7 PUSH2 0x236A JUMP JUMPDEST PUSH2 0x88B PUSH1 0xF2 SHL DUP2 MSTORE PUSH32 0x226465736372697074696F6E223A2246756C6C79206F6E2D636861696E204861 PUSH1 0x2 DUP3 ADD MSTORE PUSH32 0x73684A696E67206D616E64616C61205C753230313420612064657465726D696E PUSH1 0x22 DUP3 ADD MSTORE PUSH32 0x697374696320676C79706820776865726520656E74726F7079206265636F6D65 PUSH1 0x42 DUP3 ADD MSTORE PUSH9 0x1CC8199BDC9B4B888B PUSH1 0xBA SHL PUSH1 0x62 DUP3 ADD MSTORE PUSH32 0x2263726561746F72223A2244617461536174747661222C000000000000000000 PUSH1 0x6B DUP3 ADD MSTORE PUSH32 0x2265787465726E616C5F75726C223A2268747470733A2F2F6769746875622E63 PUSH1 0x82 DUP3 ADD MSTORE PUSH32 0x6F6D2F446174615361747476612F686173686A696E67222C0000000000000000 PUSH1 0xA2 DUP3 ADD MSTORE PUSH32 0x226C6963656E7365223A2243432042592D4E4320342E30222C00000000000000 PUSH1 0xBA DUP3 ADD SWAP1 DUP2 MSTORE SWAP1 PUSH1 0xD3 ADD PUSH2 0x2649 PUSH2 0x263B PUSH2 0x2635 PUSH2 0x261B PUSH2 0x260D PUSH2 0x2607 DUP7 PUSH32 0x22696D616765223A22646174613A696D6167652F7376672B786D6C3B62617365 DUP2 MSTORE PUSH3 0xD8D0B PUSH1 0xEA SHL PUSH1 0x20 DUP3 ADD MSTORE PUSH1 0x23 ADD SWAP1 JUMP JUMPDEST DUP12 PUSH2 0x236A JUMP JUMPDEST PUSH2 0x88B PUSH1 0xF2 SHL DUP2 MSTORE PUSH1 0x2 ADD SWAP1 JUMP JUMPDEST PUSH14 0x2261747472696275746573223A5B PUSH1 0x90 SHL DUP2 MSTORE PUSH1 0xE ADD SWAP1 JUMP JUMPDEST DUP8 PUSH2 0x236A JUMP JUMPDEST PUSH2 0x5D7D PUSH1 0xF0 SHL DUP2 MSTORE PUSH1 0x2 ADD SWAP1 JUMP JUMPDEST SWAP8 SWAP7 POP POP POP POP POP POP POP JUMP JUMPDEST PUSH32 0x646174613A6170706C69636174696F6E2F6A736F6E3B6261736536342C000000 DUP2 MSTORE PUSH0 PUSH2 0xE0C PUSH1 0x1D DUP4 ADD DUP5 PUSH2 0x236A JUMP JUMPDEST PUSH1 0x1 PUSH1 0x1 PUSH1 0xA0 SHL SUB DUP6 DUP2 AND DUP3 MSTORE DUP5 AND PUSH1 0x20 DUP3 ADD MSTORE PUSH1 0x40 DUP2 ADD DUP4 SWAP1 MSTORE PUSH1 0x80 PUSH1 0x60 DUP3 ADD DUP2 SWAP1 MSTORE PUSH0 SWAP1 PUSH2 0x26B7 SWAP1 DUP4 ADD DUP5 PUSH2 0x1F94 JUMP JUMPDEST SWAP7 SWAP6 POP POP POP POP POP POP JUMP JUMPDEST PUSH0 PUSH1 0x20 DUP3 DUP5 SUB SLT ISZERO PUSH2 0x26D1 JUMPI PUSH0 DUP1 REVERT JUMPDEST DUP2 MLOAD PUSH2 0xE0C DUP2 PUSH2 0x1F64 JUMP JUMPDEST PUSH4 0x4E487B71 PUSH1 0xE0 SHL PUSH0 MSTORE PUSH1 0x32 PUSH1 0x4 MSTORE PUSH1 0x24 PUSH0 REVERT JUMPDEST PUSH0 PUSH1 0xFF DUP3 AND PUSH1 0xFF DUP2 SUB PUSH2 0x2705 JUMPI PUSH2 0x2705 PUSH2 0x227D JUMP JUMPDEST PUSH1 0x1 ADD SWAP3 SWAP2 POP POP JUMP JUMPDEST PUSH0 DUP2 PUSH2 0x271C JUMPI PUSH2 0x271C PUSH2 0x227D JUMP JUMPDEST POP PUSH0 NOT ADD SWAP1 JUMP JUMPDEST PUSH1 0xFF DUP2 DUP2 AND DUP4 DUP3 AND ADD SWAP1 DUP2 GT ISZERO PUSH2 0x503 JUMPI PUSH2 0x503 PUSH2 0x227D JUMP JUMPDEST PUSH1 0xFF DUP3 DUP2 AND DUP3 DUP3 AND SUB SWAP1 DUP2 GT ISZERO PUSH2 0x503 JUMPI PUSH2 0x503 PUSH2 0x227D JUMP JUMPDEST PUSH0 PUSH1 0x1 DUP3 ADD PUSH2 0x2766 JUMPI PUSH2 0x2766 PUSH2 0x227D JUMP JUMPDEST POP PUSH1 0x1 ADD SWAP1 JUMP JUMPDEST PUSH2 0xFFFF DUP2 DUP2 AND DUP4 DUP3 AND ADD SWAP1 DUP2 GT ISZERO PUSH2 0x503 JUMPI PUSH2 0x503 PUSH2 0x227D JUMP JUMPDEST PUSH2 0xFFFF DUP3 DUP2 AND DUP3 DUP3 AND SUB SWAP1 DUP2 GT ISZERO PUSH2 0x503 JUMPI PUSH2 0x503 PUSH2 0x227D JUMP JUMPDEST PUSH0 PUSH2 0xFFFF DUP4 AND DUP1 PUSH2 0x27B4 JUMPI PUSH2 0x27B4 PUSH2 0x22CE JUMP JUMPDEST DUP1 PUSH2 0xFFFF DUP5 AND MOD SWAP2 POP POP SWAP3 SWAP2 POP POP JUMP INVALID COINBASE TIMESTAMP NUMBER PREVRANDAO GASLIMIT CHAINID SELFBALANCE BASEFEE BLOBHASH BLOBBASEFEE 0x4B 0x4C 0x4D 0x4E 0x4F POP MLOAD MSTORE MSTORE8 SLOAD SSTORE JUMP JUMPI PC MSIZE GAS PUSH2 0x6263 PUSH5 0x6566676869 PUSH11 0x6B6C6D6E6F707172737475 PUSH23 0x7778797A303132333435363738392B2FA2646970667358 0x22 SLT KECCAK256 0xA8 SWAP2 JUMPDEST LOG2 MSTORE MSTORE NOT PREVRANDAO 0xBC 0xEC 0xC2 BLOBHASH 0xCB KECCAK256 SWAP15 0xCF 0xC7 DUP9 0xDB PUSH17 0xB5F5D8925BF294EE89D92DDA64736F6C63 NUMBER STOP ADDMOD BYTE STOP CALLER "
		},
		"gasEstimates": {
			"creation": {
				"codeDepositCost": "2059600",
				"executionCost": "infinite",
				"totalCost": "infinite"
			},
			"external": {
				"GENESIS_PRICE()": "261",
				"GENESIS_SUPPLY()": "283",
				"MAX_ROYALTY_BPS()": "260",
				"approve(address,uint256)": "31531",
				"balanceOf(address)": "2696",
				"enableMinting()": "29490",
				"getApproved(uint256)": "infinite",
				"isApprovedForAll(address,address)": "infinite",
				"mint()": "infinite",
				"mintingEnabled()": "2409",
				"name()": "infinite",
				"owner()": "2420",
				"ownerOf(uint256)": "infinite",
				"renderer()": "infinite",
				"renounceOwnership()": "297",
				"royaltyInfo(uint256,uint256)": "5039",
				"safeTransferFrom(address,address,uint256)": "infinite",
				"safeTransferFrom(address,address,uint256,bytes)": "infinite",
				"setApprovalForAll(address,bool)": "26701",
				"setRoyalty(address,uint96)": "24983",
				"supportsInterface(bytes4)": "infinite",
				"symbol()": "infinite",
				"tokenURI(uint256)": "infinite",
				"totalSupply()": "2525",
				"transferFrom(address,address,uint256)": "infinite",
				"transferOwnership(address)": "28443",
				"withdraw()": "infinite"
			},
			"internal": {
				"_bfs(uint8[64] memory[4] memory,bool[64] memory[4] memory,bool[64] memory[4] memory,uint8)": "infinite",
				"_countOnes(uint8)": "infinite",
				"_countPassages(bytes32)": "infinite",
				"_existsLocal(uint256)": "4375",
				"_generateSeed(uint256)": "infinite",
				"_isBalanced(bytes32)": "infinite",
				"_maybeEnqueue(uint8[64] memory[4] memory,bool[64] memory[4] memory,bool[64] memory[4] memory,uint16[256] memory,uint16[256] memory,uint16,uint16,uint256)": "infinite",
				"_toBitGrid(bytes32)": "infinite"
			}
		},
		"methodIdentifiers": {
			"GENESIS_PRICE()": "b85f3fb8",
			"GENESIS_SUPPLY()": "99ec6765",
			"MAX_ROYALTY_BPS()": "3dca40e6",
			"approve(address,uint256)": "095ea7b3",
			"balanceOf(address)": "70a08231",
			"enableMinting()": "e797ec1b",
			"getApproved(uint256)": "081812fc",
			"isApprovedForAll(address,address)": "e985e9c5",
			"mint()": "1249c58b",
			"mintingEnabled()": "9fd6db12",
			"name()": "06fdde03",
			"owner()": "8da5cb5b",
			"ownerOf(uint256)": "6352211e",
			"renderer()": "8ada6b0f",
			"renounceOwnership()": "715018a6",
			"royaltyInfo(uint256,uint256)": "2a55205a",
			"safeTransferFrom(address,address,uint256)": "42842e0e",
			"safeTransferFrom(address,address,uint256,bytes)": "b88d4fde",
			"setApprovalForAll(address,bool)": "a22cb465",
			"setRoyalty(address,uint96)": "8f2fc60b",
			"supportsInterface(bytes4)": "01ffc9a7",
			"symbol()": "95d89b41",
			"tokenURI(uint256)": "c87b56dd",
			"totalSupply()": "18160ddd",
			"transferFrom(address,address,uint256)": "23b872dd",
			"transferOwnership(address)": "f2fde38b",
			"withdraw()": "3ccfd60b"
		}
	},
	"abi": [
		{
			"inputs": [
				{
					"internalType": "address",
					"name": "rendererAddr",
					"type": "address"
				}
			],
			"stateMutability": "nonpayable",
			"type": "constructor"
		},
		{
			"inputs": [
				{
					"internalType": "uint256",
					"name": "numerator",
					"type": "uint256"
				},
				{
					"internalType": "uint256",
					"name": "denominator",
					"type": "uint256"
				}
			],
			"name": "ERC2981InvalidDefaultRoyalty",
			"type": "error"
		},
		{
			"inputs": [
				{
					"internalType": "address",
					"name": "receiver",
					"type": "address"
				}
			],
			"name": "ERC2981InvalidDefaultRoyaltyReceiver",
			"type": "error"
		},
		{
			"inputs": [
				{
					"internalType": "uint256",
					"name": "tokenId",
					"type": "uint256"
				},
				{
					"internalType": "uint256",
					"name": "numerator",
					"type": "uint256"
				},
				{
					"internalType": "uint256",
					"name": "denominator",
					"type": "uint256"
				}
			],
			"name": "ERC2981InvalidTokenRoyalty",
			"type": "error"
		},
		{
			"inputs": [
				{
					"internalType": "uint256",
					"name": "tokenId",
					"type": "uint256"
				},
				{
					"internalType": "address",
					"name": "receiver",
					"type": "address"
				}
			],
			"name": "ERC2981InvalidTokenRoyaltyReceiver",
			"type": "error"
		},
		{
			"inputs": [
				{
					"internalType": "address",
					"name": "sender",
					"type": "address"
				},
				{
					"internalType": "uint256",
					"name": "tokenId",
					"type": "uint256"
				},
				{
					"internalType": "address",
					"name": "owner",
					"type": "address"
				}
			],
			"name": "ERC721IncorrectOwner",
			"type": "error"
		},
		{
			"inputs": [
				{
					"internalType": "address",
					"name": "operator",
					"type": "address"
				},
				{
					"internalType": "uint256",
					"name": "tokenId",
					"type": "uint256"
				}
			],
			"name": "ERC721InsufficientApproval",
			"type": "error"
		},
		{
			"inputs": [
				{
					"internalType": "address",
					"name": "approver",
					"type": "address"
				}
			],
			"name": "ERC721InvalidApprover",
			"type": "error"
		},
		{
			"inputs": [
				{
					"internalType": "address",
					"name": "operator",
					"type": "address"
				}
			],
			"name": "ERC721InvalidOperator",
			"type": "error"
		},
		{
			"inputs": [
				{
					"internalType": "address",
					"name": "owner",
					"type": "address"
				}
			],
			"name": "ERC721InvalidOwner",
			"type": "error"
		},
		{
			"inputs": [
				{
					"internalType": "address",
					"name": "receiver",
					"type": "address"
				}
			],
			"name": "ERC721InvalidReceiver",
			"type": "error"
		},
		{
			"inputs": [
				{
					"internalType": "address",
					"name": "sender",
					"type": "address"
				}
			],
			"name": "ERC721InvalidSender",
			"type": "error"
		},
		{
			"inputs": [
				{
					"internalType": "uint256",
					"name": "tokenId",
					"type": "uint256"
				}
			],
			"name": "ERC721NonexistentToken",
			"type": "error"
		},
		{
			"inputs": [],
			"name": "MintAlreadyEnabled",
			"type": "error"
		},
		{
			"inputs": [],
			"name": "MintDisabled",
			"type": "error"
		},
		{
			"inputs": [],
			"name": "NonexistentToken",
			"type": "error"
		},
		{
			"inputs": [
				{
					"internalType": "address",
					"name": "owner",
					"type": "address"
				}
			],
			"name": "OwnableInvalidOwner",
			"type": "error"
		},
		{
			"inputs": [
				{
					"internalType": "address",
					"name": "account",
					"type": "address"
				}
			],
			"name": "OwnableUnauthorizedAccount",
			"type": "error"
		},
		{
			"inputs": [],
			"name": "ReentrancyGuardReentrantCall",
			"type": "error"
		},
		{
			"inputs": [],
			"name": "SoldOut",
			"type": "error"
		},
		{
			"inputs": [
				{
					"internalType": "uint256",
					"name": "value",
					"type": "uint256"
				},
				{
					"internalType": "uint256",
					"name": "length",
					"type": "uint256"
				}
			],
			"name": "StringsInsufficientHexLength",
			"type": "error"
		},
		{
			"inputs": [],
			"name": "WrongMintFee",
			"type": "error"
		},
		{
			"anonymous": false,
			"inputs": [
				{
					"indexed": true,
					"internalType": "address",
					"name": "owner",
					"type": "address"
				},
				{
					"indexed": true,
					"internalType": "address",
					"name": "approved",
					"type": "address"
				},
				{
					"indexed": true,
					"internalType": "uint256",
					"name": "tokenId",
					"type": "uint256"
				}
			],
			"name": "Approval",
			"type": "event"
		},
		{
			"anonymous": false,
			"inputs": [
				{
					"indexed": true,
					"internalType": "address",
					"name": "owner",
					"type": "address"
				},
				{
					"indexed": true,
					"internalType": "address",
					"name": "operator",
					"type": "address"
				},
				{
					"indexed": false,
					"internalType": "bool",
					"name": "approved",
					"type": "bool"
				}
			],
			"name": "ApprovalForAll",
			"type": "event"
		},
		{
			"anonymous": false,
			"inputs": [],
			"name": "MintingEnabled",
			"type": "event"
		},
		{
			"anonymous": false,
			"inputs": [
				{
					"indexed": true,
					"internalType": "address",
					"name": "previousOwner",
					"type": "address"
				},
				{
					"indexed": true,
					"internalType": "address",
					"name": "newOwner",
					"type": "address"
				}
			],
			"name": "OwnershipTransferred",
			"type": "event"
		},
		{
			"anonymous": false,
			"inputs": [
				{
					"indexed": true,
					"internalType": "address",
					"name": "from",
					"type": "address"
				},
				{
					"indexed": true,
					"internalType": "address",
					"name": "to",
					"type": "address"
				},
				{
					"indexed": true,
					"internalType": "uint256",
					"name": "tokenId",
					"type": "uint256"
				}
			],
			"name": "Transfer",
			"type": "event"
		},
		{
			"inputs": [],
			"name": "GENESIS_PRICE",
			"outputs": [
				{
					"internalType": "uint256",
					"name": "",
					"type": "uint256"
				}
			],
			"stateMutability": "view",
			"type": "function"
		},
		{
			"inputs": [],
			"name": "GENESIS_SUPPLY",
			"outputs": [
				{
					"internalType": "uint256",
					"name": "",
					"type": "uint256"
				}
			],
			"stateMutability": "view",
			"type": "function"
		},
		{
			"inputs": [],
			"name": "MAX_ROYALTY_BPS",
			"outputs": [
				{
					"internalType": "uint96",
					"name": "",
					"type": "uint96"
				}
			],
			"stateMutability": "view",
			"type": "function"
		},
		{
			"inputs": [
				{
					"internalType": "address",
					"name": "to",
					"type": "address"
				},
				{
					"internalType": "uint256",
					"name": "tokenId",
					"type": "uint256"
				}
			],
			"name": "approve",
			"outputs": [],
			"stateMutability": "nonpayable",
			"type": "function"
		},
		{
			"inputs": [
				{
					"internalType": "address",
					"name": "owner",
					"type": "address"
				}
			],
			"name": "balanceOf",
			"outputs": [
				{
					"internalType": "uint256",
					"name": "",
					"type": "uint256"
				}
			],
			"stateMutability": "view",
			"type": "function"
		},
		{
			"inputs": [],
			"name": "enableMinting",
			"outputs": [],
			"stateMutability": "nonpayable",
			"type": "function"
		},
		{
			"inputs": [
				{
					"internalType": "uint256",
					"name": "tokenId",
					"type": "uint256"
				}
			],
			"name": "getApproved",
			"outputs": [
				{
					"internalType": "address",
					"name": "",
					"type": "address"
				}
			],
			"stateMutability": "view",
			"type": "function"
		},
		{
			"inputs": [
				{
					"internalType": "address",
					"name": "owner",
					"type": "address"
				},
				{
					"internalType": "address",
					"name": "operator",
					"type": "address"
				}
			],
			"name": "isApprovedForAll",
			"outputs": [
				{
					"internalType": "bool",
					"name": "",
					"type": "bool"
				}
			],
			"stateMutability": "view",
			"type": "function"
		},
		{
			"inputs": [],
			"name": "mint",
			"outputs": [],
			"stateMutability": "payable",
			"type": "function"
		},
		{
			"inputs": [],
			"name": "mintingEnabled",
			"outputs": [
				{
					"internalType": "bool",
					"name": "",
					"type": "bool"
				}
			],
			"stateMutability": "view",
			"type": "function"
		},
		{
			"inputs": [],
			"name": "name",
			"outputs": [
				{
					"internalType": "string",
					"name": "",
					"type": "string"
				}
			],
			"stateMutability": "view",
			"type": "function"
		},
		{
			"inputs": [],
			"name": "owner",
			"outputs": [
				{
					"internalType": "address",
					"name": "",
					"type": "address"
				}
			],
			"stateMutability": "view",
			"type": "function"
		},
		{
			"inputs": [
				{
					"internalType": "uint256",
					"name": "tokenId",
					"type": "uint256"
				}
			],
			"name": "ownerOf",
			"outputs": [
				{
					"internalType": "address",
					"name": "",
					"type": "address"
				}
			],
			"stateMutability": "view",
			"type": "function"
		},
		{
			"inputs": [],
			"name": "renderer",
			"outputs": [
				{
					"internalType": "contract IMandalaRenderer",
					"name": "",
					"type": "address"
				}
			],
			"stateMutability": "view",
			"type": "function"
		},
		{
			"inputs": [],
			"name": "renounceOwnership",
			"outputs": [],
			"stateMutability": "pure",
			"type": "function"
		},
		{
			"inputs": [
				{
					"internalType": "uint256",
					"name": "tokenId",
					"type": "uint256"
				},
				{
					"internalType": "uint256",
					"name": "salePrice",
					"type": "uint256"
				}
			],
			"name": "royaltyInfo",
			"outputs": [
				{
					"internalType": "address",
					"name": "receiver",
					"type": "address"
				},
				{
					"internalType": "uint256",
					"name": "amount",
					"type": "uint256"
				}
			],
			"stateMutability": "view",
			"type": "function"
		},
		{
			"inputs": [
				{
					"internalType": "address",
					"name": "from",
					"type": "address"
				},
				{
					"internalType": "address",
					"name": "to",
					"type": "address"
				},
				{
					"internalType": "uint256",
					"name": "tokenId",
					"type": "uint256"
				}
			],
			"name": "safeTransferFrom",
			"outputs": [],
			"stateMutability": "nonpayable",
			"type": "function"
		},
		{
			"inputs": [
				{
					"internalType": "address",
					"name": "from",
					"type": "address"
				},
				{
					"internalType": "address",
					"name": "to",
					"type": "address"
				},
				{
					"internalType": "uint256",
					"name": "tokenId",
					"type": "uint256"
				},
				{
					"internalType": "bytes",
					"name": "data",
					"type": "bytes"
				}
			],
			"name": "safeTransferFrom",
			"outputs": [],
			"stateMutability": "nonpayable",
			"type": "function"
		},
		{
			"inputs": [
				{
					"internalType": "address",
					"name": "operator",
					"type": "address"
				},
				{
					"internalType": "bool",
					"name": "approved",
					"type": "bool"
				}
			],
			"name": "setApprovalForAll",
			"outputs": [],
			"stateMutability": "nonpayable",
			"type": "function"
		},
		{
			"inputs": [
				{
					"internalType": "address",
					"name": "receiver",
					"type": "address"
				},
				{
					"internalType": "uint96",
					"name": "feeBps",
					"type": "uint96"
				}
			],
			"name": "setRoyalty",
			"outputs": [],
			"stateMutability": "nonpayable",
			"type": "function"
		},
		{
			"inputs": [
				{
					"internalType": "bytes4",
					"name": "iid",
					"type": "bytes4"
				}
			],
			"name": "supportsInterface",
			"outputs": [
				{
					"internalType": "bool",
					"name": "",
					"type": "bool"
				}
			],
			"stateMutability": "view",
			"type": "function"
		},
		{
			"inputs": [],
			"name": "symbol",
			"outputs": [
				{
					"internalType": "string",
					"name": "",
					"type": "string"
				}
			],
			"stateMutability": "view",
			"type": "function"
		},
		{
			"inputs": [
				{
					"internalType": "uint256",
					"name": "id",
					"type": "uint256"
				}
			],
			"name": "tokenURI",
			"outputs": [
				{
					"internalType": "string",
					"name": "",
					"type": "string"
				}
			],
			"stateMutability": "view",
			"type": "function"
		},
		{
			"inputs": [],
			"name": "totalSupply",
			"outputs": [
				{
					"internalType": "uint256",
					"name": "",
					"type": "uint256"
				}
			],
			"stateMutability": "view",
			"type": "function"
		},
		{
			"inputs": [
				{
					"internalType": "address",
					"name": "from",
					"type": "address"
				},
				{
					"internalType": "address",
					"name": "to",
					"type": "address"
				},
				{
					"internalType": "uint256",
					"name": "tokenId",
					"type": "uint256"
				}
			],
			"name": "transferFrom",
			"outputs": [],
			"stateMutability": "nonpayable",
			"type": "function"
		},
		{
			"inputs": [
				{
					"internalType": "address",
					"name": "newOwner",
					"type": "address"
				}
			],
			"name": "transferOwnership",
			"outputs": [],
			"stateMutability": "nonpayable",
			"type": "function"
		},
		{
			"inputs": [],
			"name": "withdraw",
			"outputs": [],
			"stateMutability": "nonpayable",
			"type": "function"
		}
	]
}