{
	"data": {
		"bytecode": {
			"linkReferences": {},
			"object": "60a06040526001600c55600d805460ff1916905534801561001e575f80fd5b50604051612f9a380380612f9a83398101604081905261003d91610296565b3360405180604001604052806008815260200167486173684a696e6760c01b81525060405180604001604052806002815260200161242560f11b815250815f9081610088919061035b565b506001610095828261035b565b5050506001600160a01b0381166100c657604051631e4fbdf760e01b81525f60048201526024015b60405180910390fd5b6100cf816101a3565b5060016009556001600160a01b0381166080526100ee336102ee6101f4565b7ff51e4f48342ecc9c64e4c320548d63000df70155e0eef5cb36114db52eef04c9604051610195906040808252602a908201527f68747470733a2f2f646174617361747476612e6769746875622e696f2f6861736060820152691a1a9a5b99cb5b5a5b9d60b21b608082015260a0602082018190526016908201527f68747470733a2f2f782e636f6d2f486173684a696e670000000000000000000060c082015260e00190565b60405180910390a150610415565b600880546001600160a01b038381166001600160a01b0319831681179093556040519116919082907f8be0079c531659141344cd1fd0a4f28419497f9722a3daafe3b4186f6b6457e0905f90a35050565b6127106001600160601b03821681101561023357604051636f483d0960e01b81526001600160601b0383166004820152602481018290526044016100bd565b6001600160a01b03831661025c57604051635b6cc80560e11b81525f60048201526024016100bd565b50604080518082019091526001600160a01b039092168083526001600160601b039091166020909201829052600160a01b90910217600655565b5f602082840312156102a6575f80fd5b81516001600160a01b03811681146102bc575f80fd5b9392505050565b634e487b7160e01b5f52604160045260245ffd5b600181811c908216806102eb57607f821691505b60208210810361030957634e487b7160e01b5f52602260045260245ffd5b50919050565b601f82111561035657805f5260205f20601f840160051c810160208510156103345750805b601f840160051c820191505b81811015610353575f8155600101610340565b50505b505050565b81516001600160401b03811115610374576103746102c3565b6103888161038284546102d7565b8461030f565b6020601f8211600181146103ba575f83156103a35750848201515b5f19600385901b1c1916600184901b178455610353565b5f84815260208120601f198516915b828110156103e957878501518255602094850194600190920191016103c9565b508482101561040657868401515f19600387901b60f8161c191681555b50505050600190811b01905550565b608051612b666104345f395f818161042c0152610b4d0152612b665ff3fe6080604052600436106101c5575f3560e01c80638462151c116100f25780639fd6db1211610092578063c87b56dd11610062578063c87b56dd14610536578063e797ec1b14610555578063e985e9c514610569578063f2fde38b14610588575f80fd5b80639fd6db12146104c5578063a22cb465146104de578063b85f3fb8146104fd578063b88d4fde14610517575f80fd5b80638da5cb5b116100cd5780638da5cb5b146104605780638f2fc60b1461047d57806395d89b411461049c57806399ec6765146104b0575f80fd5b80638462151c146103ef5780638ada6b0f1461041b5780638b7afe2e1461044e575f80fd5b80632a55205a116101685780634c5d9cad116101385780634c5d9cad1461035d5780636352211e1461039d57806370a08231146103bc578063715018a6146103db575f80fd5b80632a55205a146102bf5780633ccfd60b146102fd5780633dca40e61461031157806342842e0e1461033e575f80fd5b8063095ea7b3116101a3578063095ea7b3146102555780631249c58b1461027657806318160ddd1461027e57806323b872dd146102a0575f80fd5b806301ffc9a7146101c957806306fdde03146101fd578063081812fc1461021e575b5f80fd5b3480156101d4575f80fd5b506101e86101e3366004612189565b6105a7565b60405190151581526020015b60405180910390f35b348015610208575f80fd5b506102116105b7565b6040516101f491906121d2565b348015610229575f80fd5b5061023d6102383660046121e4565b610646565b6040516001600160a01b0390911681526020016101f4565b348015610260575f80fd5b5061027461026f366004612211565b61066d565b005b61027461067c565b348015610289575f80fd5b5061029261073d565b6040519081526020016101f4565b3480156102ab575f80fd5b506102746102ba366004612239565b610752565b3480156102ca575f80fd5b506102de6102d9366004612273565b6107e0565b604080516001600160a01b0390931683526020830191909152016101f4565b348015610308575f80fd5b50610274610863565b34801561031c575f80fd5b506103266103e881565b6040516001600160601b0390911681526020016101f4565b348015610349575f80fd5b50610274610358366004612239565b6108f5565b348015610368575f80fd5b5061038b6103773660046121e4565b600b6020525f908152604090205460ff1681565b60405160ff90911681526020016101f4565b3480156103a8575f80fd5b5061023d6103b73660046121e4565b610914565b3480156103c7575f80fd5b506102926103d6366004612293565b61091e565b3480156103e6575f80fd5b50610274610963565b3480156103fa575f80fd5b5061040e610409366004612293565b6109ab565b6040516101f491906122ac565b348015610426575f80fd5b5061023d7f000000000000000000000000000000000000000000000000000000000000000081565b348015610459575f80fd5b5047610292565b34801561046b575f80fd5b506008546001600160a01b031661023d565b348015610488575f80fd5b506102746104973660046122ee565b610a71565b3480156104a7575f80fd5b50610211610ac8565b3480156104bb575f80fd5b5061029261200081565b3480156104d0575f80fd5b50600d546101e89060ff1681565b3480156104e9575f80fd5b506102746104f836600461232e565b610ad7565b348015610508575f80fd5b5061029266071afd498d000081565b348015610522575f80fd5b506102746105313660046123c8565b610ae2565b348015610541575f80fd5b506102116105503660046121e4565b610afa565b348015610560575f80fd5b50610274610c8f565b348015610574575f80fd5b506101e861058336600461246c565b610cf2565b348015610593575f80fd5b506102746105a2366004612293565b610d1f565b5f6105b182610d59565b92915050565b60605f80546105c59061249d565b80601f01602080910402602001604051908101604052809291908181526020018280546105f19061249d565b801561063c5780601f106106135761010080835404028352916020019161063c565b820191905f5260205f20905b81548152906001019060200180831161061f57829003601f168201915b5050505050905090565b5f61065082610d7d565b505f828152600460205260409020546001600160a01b03166105b1565b610678828233610db5565b5050565b610684610dc2565b600d5460ff166106a7576040516317efbd6b60e01b815260040160405180910390fd5b600c546120008111156106cd576040516352df9fe560e01b815260040160405180910390fd5b66071afd498d000034146106f4576040516339c5f2df60e01b815260040160405180910390fd5b6106ff8160016124e3565b600c5561070b81610dec565b5f828152600a60205260409020819055610726908290610e52565b6107303382610ee9565b5061073b6001600955565b565b5f6001600c5461074d91906124f6565b905090565b6001600160a01b03821661078057604051633250574960e11b81525f60048201526024015b60405180910390fd5b5f61078c838333610f02565b9050836001600160a01b0316816001600160a01b0316146107da576040516364283d7b60e01b81526001600160a01b0380861660048301526024820184905282166044820152606401610777565b50505050565b5f82815260076020526040812080548291906001600160a01b03811690600160a01b90046001600160601b0316816108335750506006546001600160a01b03811690600160a01b90046001600160601b03165b5f61271061084a6001600160601b03841689612509565b6108549190612534565b92989297509195505050505050565b61086b610ff6565b6040515f90339047908381818185875af1925050503d805f81146108aa576040519150601f19603f3d011682016040523d82523d5f602084013e6108af565b606091505b50509050806108f25760405162461bcd60e51b815260206004820152600f60248201526e15da5d1a191c985dc819985a5b1959608a1b6044820152606401610777565b50565b61090f83838360405180602001604052805f815250610ae2565b505050565b5f6105b182610d7d565b5f6001600160a01b038216610948576040516322718ad960e21b81525f6004820152602401610777565b506001600160a01b03165f9081526003602052604090205490565b60405162461bcd60e51b815260206004820152601d60248201527f72656e6f756e63654f776e6572736869702069732064697361626c65640000006044820152606401610777565b60605f6109b78361091e565b90505f8167ffffffffffffffff8111156109d3576109d361235c565b6040519080825280602002602001820160405280156109fc578160200160208202803683370190505b5090505f60015b600c54811015610a67575f818152600260205260409020546001600160a01b03878116911603610a5857808383610a3981612547565b945081518110610a4b57610a4b61255f565b6020026020010181815250505b818414610a6757600101610a03565b5090949350505050565b610a79610ff6565b6103e86001600160601b0382161115610abe5760405162461bcd60e51b81526020600482015260076024820152664d61782031302560c81b6044820152606401610777565b6106788282611023565b6060600180546105c59061249d565b6106783383836110c5565b610aed848484610752565b6107da3385858585611163565b6060610b058261128b565b610b225760405163163a09e160e31b815260040160405180910390fd5b5f828152600a60205260408082205490516302158aa560e11b815260048101829052909190610bc5907f00000000000000000000000000000000000000000000000000000000000000006001600160a01b03169063042b154a906024015f60405180830381865afa158015610b99573d5f803e3d5ffd5b505050506040513d5f823e601f3d908101601f19168201604052610bc09190810190612573565b6112c0565b5f858152600b602052604081205491925060ff90911690610be5846112e6565b90505f610bf18361142b565b610bfd8360ff166114b2565b610c08876020611542565b604051602001610c1a939291906125ff565b60405160208183030381529060405290505f610c60610c38896114b2565b8684604051602001610c4c939291906126ec565b6040516020818303038152906040526112c0565b905080604051602001610c7391906129a2565b6040516020818303038152906040529650505050505050919050565b610c97610ff6565b600d5460ff1615610cbb576040516339f3829b60e01b815260040160405180910390fd5b600d805460ff191660011790556040517f38cb976174a5c48b8f7b2f07f69b47c271ba7f019948915dc12efb770c2a542c905f90a1565b6001600160a01b039182165f90815260056020908152604080832093909416825291909152205460ff1690565b610d27610ff6565b6001600160a01b038116610d5057604051631e4fbdf760e01b81525f6004820152602401610777565b6108f2816116bc565b5f6001600160e01b0319821663152a902d60e11b14806105b157506105b18261170d565b5f818152600260205260408120546001600160a01b0316806105b157604051637e27328960e01b815260048101849052602401610777565b61090f838383600161175c565b600260095403610de557604051633ee5aeb560e01b815260040160405180910390fd5b6002600955565b5f610df86001436124f6565b604080519140602083015244908201526bffffffffffffffffffffffff1930606090811b8216818401526074830185905233901b16609482015260a801604051602081830303815290604052805190602001209050919050565b5f610e5c82611860565b90505f610e6b826101006124f6565b90505f821580610e79575081155b15610e8557505f610ec4565b5f828410610e935782610e95565b835b90505f838511610ea55783610ea7565b845b905080610eb5836064612509565b610ebf9190612534565b925050505b5f948552600b6020526040909420805460ff191660ff90951694909417909355505050565b610678828260405180602001604052805f81525061187d565b5f828152600260205260408120546001600160a01b0390811690831615610f2e57610f2e818486611894565b6001600160a01b03811615610f6857610f495f855f8061175c565b6001600160a01b0381165f90815260036020526040902080545f190190555b6001600160a01b03851615610f96576001600160a01b0385165f908152600360205260409020805460010190555b5f8481526002602052604080822080546001600160a01b0319166001600160a01b0389811691821790925591518793918516917fddf252ad1be2c89b69c2b068fc378daa952ba7f163c4a11628f55a4df523b3ef91a490505b9392505050565b6008546001600160a01b0316331461073b5760405163118cdaa760e01b8152336004820152602401610777565b6127106001600160601b03821681101561106257604051636f483d0960e01b81526001600160601b038316600482015260248101829052604401610777565b6001600160a01b03831661108b57604051635b6cc80560e11b81525f6004820152602401610777565b50604080518082019091526001600160a01b039092168083526001600160601b039091166020909201829052600160a01b90910217600655565b6001600160a01b0382166110f757604051630b61174360e31b81526001600160a01b0383166004820152602401610777565b6001600160a01b038381165f81815260056020908152604080832094871680845294825291829020805460ff191686151590811790915591519182527f17307eab39ab6107e8899845ad3d59bd9653f200f220920489ca2b5937696c31910160405180910390a3505050565b6001600160a01b0383163b1561128457604051630a85bd0160e11b81526001600160a01b0384169063150b7a02906111a59088908890879087906004016129d3565b6020604051808303815f875af19250505080156111df575060408051601f3d908101601f191682019092526111dc91810190612a05565b60015b611246573d80801561120c576040519150601f19603f3d011682016040523d82523d5f602084013e611211565b606091505b5080515f0361123e57604051633250574960e11b81526001600160a01b0385166004820152602401610777565b805181602001fd5b6001600160e01b03198116630a85bd0160e11b1461128257604051633250574960e11b81526001600160a01b0385166004820152602401610777565b505b5050505050565b5f811580159061129c5750600c5482105b80156105b15750505f908152600260205260409020546001600160a01b0316151590565b60606105b182604051806060016040528060408152602001612af16040913960016118f8565b5f806112f183611a73565b90506112fb6120db565b5f805b60408160ff16101561142257835160ff8216604081106113205761132061255f565b602002015160ff1615158061134c5750825160ff8216604081106113465761134661255f565b60200201515b61141a576113586120db565b61136485858385611ba0565b15611418578261137381612a20565b9350505f5b60048160ff161015611416575f5b60408160ff16101561140d57828260ff16600481106113a7576113a761255f565b60200201518160ff16604081106113c0576113c061255f565b602002015115611405576001868360ff16600481106113e1576113e161255f565b60200201518260ff16604081106113fa576113fa61255f565b911515602090920201525b600101611386565b50600101611378565b505b505b6001016112fe565b50949350505050565b60608160ff166064036114585750506040805180820190915260048152630312e30360e41b602082015290565b600a8260ff161015611496576114708260ff166114b2565b6040516020016114809190612a3e565b6040516020818303038152906040529050919050565b6114a28260ff166114b2565b6040516020016114809190612a55565b60605f6114be83611e00565b60010190505f8167ffffffffffffffff8111156114dd576114dd61235c565b6040519080825280601f01601f191660200182016040528015611507576020820181803683370190505b5090508181016020015b5f19016f181899199a1a9b1b9c1cb0b131b232b360811b600a86061a8153600a850494508461151157509392505050565b6060825f611551846002612509565b61155c9060026124e3565b67ffffffffffffffff8111156115745761157461235c565b6040519080825280601f01601f19166020018201604052801561159e576020820181803683370190505b509050600360fc1b815f815181106115b8576115b861255f565b60200101906001600160f81b03191690815f1a905350600f60fb1b816001815181106115e6576115e661255f565b60200101906001600160f81b03191690815f1a9053505f611608856002612509565b6116139060016124e3565b90505b600181111561168a576f181899199a1a9b1b9c1cb0b131b232b360811b83600f16601081106116475761164761255f565b1a60f81b82828151811061165d5761165d61255f565b60200101906001600160f81b03191690815f1a90535060049290921c9161168381612a6b565b9050611616565b5081156116b45760405163e22e27eb60e01b81526004810186905260248101859052604401610777565b949350505050565b600880546001600160a01b038381166001600160a01b0319831681179093556040519116919082907f8be0079c531659141344cd1fd0a4f28419497f9722a3daafe3b4186f6b6457e0905f90a35050565b5f6001600160e01b031982166380ac58cd60e01b148061173d57506001600160e01b03198216635b5e139f60e01b145b806105b157506301ffc9a760e01b6001600160e01b03198316146105b1565b808061177057506001600160a01b03821615155b15611831575f61177f84610d7d565b90506001600160a01b038316158015906117ab5750826001600160a01b0316816001600160a01b031614155b80156117be57506117bc8184610cf2565b155b156117e75760405163a9fbf51f60e01b81526001600160a01b0384166004820152602401610777565b811561182f5783856001600160a01b0316826001600160a01b03167f8c5be1e5ebec7d5bd14f71427d1e84f3dd0314c0f7b2291e5b200ac8c7c3b92560405160405180910390a45b505b50505f90815260046020526040902080546001600160a01b0319166001600160a01b0392909216919091179055565b5f5b8115611878575f19820190911690600101611862565b919050565b6118878383611ed7565b61090f335f858585611163565b61189f838383611f38565b61090f576001600160a01b0383166118cd57604051637e27328960e01b815260048101829052602401610777565b60405163177e802f60e01b81526001600160a01b038316600482015260248101829052604401610777565b606083515f03611916575060408051602081019091525f8152610fef565b5f826119465760038551600461192c9190612509565b6119379060026124e3565b6119419190612534565b61196b565b60038551600261195691906124e3565b6119609190612534565b61196b906004612509565b90505f8167ffffffffffffffff8111156119875761198761235c565b6040519080825280601f01601f1916602001820160405280156119b1576020820181803683370190505b509050600185016020820187885189016020810180515f82525b82841015611a26576003840193508351603f8160121c168701518653600186019550603f81600c1c168701518653600186019550603f8160061c168701518653600186019550603f81168701518653506001850194506119cb565b905250508515611a6757600388510660018114611a4a5760028114611a5d57611a65565b603d6001830353603d6002830353611a65565b603d60018303535b505b50909695505050505050565b611a7b612108565b5f5b6020811015611b9a575f6004848360208110611a9b57611a9b61255f565b1a901c90505f848360208110611ab357611ab361255f565b1a600f1690505f5b60048160ff161015611b8c57611ad2816003612a80565b60ff168360ff16901c600116858260ff1660048110611af357611af361255f565b6020020151611b03866002612509565b60408110611b1357611b1361255f565b60ff9092166020929092020152611b2b816003612a80565b60ff168260ff16901c600116858260ff1660048110611b4c57611b4c61255f565b6020020151611b5c866002612509565b611b679060016124e3565b60408110611b7757611b7761255f565b60ff9092166020929092020152600101611abb565b505050806001019050611a7d565b50919050565b5f611ba9612135565b611bb1612135565b5f80835260ff8516825260015b80821015611df4575f84836101008110611bda57611bda61255f565b602002015190505f84846101008110611bf557611bf561255f565b6020020151905083611c0681612547565b945050888261ffff1660048110611c1f57611c1f61255f565b60200201518161ffff1660408110611c3957611c3961255f565b602002015180611c7f57508a8261ffff1660048110611c5a57611c5a61255f565b60200201518161ffff1660408110611c7457611c7461255f565b602002015160ff1615155b15611c8b575050611bbe565b6001898361ffff1660048110611ca357611ca361255f565b60200201518261ffff1660408110611cbd57611cbd61255f565b9115156020909202015261ffff8216600303611cd857600196505b5f6040518060800160405280846001611cf19190612a99565b61ffff1661ffff1681526020018461ffff165f14611d1957611d14600186612ab3565b611d1b565b5f5b61ffff908116825285811660208084018290526040938401919091528251608081018452918616808352908201529192505f919081810190611d5e866001612a99565b611d689190612acd565b61ffff1681526020016040611d7e86603f612a99565b611d889190612acd565b61ffff16905290505f5b60048160ff161015611dea57611de08e8e8e8c8c888760ff1660048110611dbb57611dbb61255f565b6020020151888860ff1660048110611dd557611dd561255f565b60200201518d611f99565b9550600101611d92565b5050505050611bbe565b50505050949350505050565b5f8072184f03e93ff9f4daa797ed6e38ed64bf6a1f0160401b8310611e3e5772184f03e93ff9f4daa797ed6e38ed64bf6a1f0160401b830492506040015b6d04ee2d6d415b85acef81000000008310611e6a576d04ee2d6d415b85acef8100000000830492506020015b662386f26fc100008310611e8857662386f26fc10000830492506010015b6305f5e1008310611ea0576305f5e100830492506008015b6127108310611eb457612710830492506004015b60648310611ec6576064830492506002015b600a83106105b15760010192915050565b6001600160a01b038216611f0057604051633250574960e11b81525f6004820152602401610777565b5f611f0c83835f610f02565b90506001600160a01b0381161561090f576040516339e3563760e11b81525f6004820152602401610777565b5f6001600160a01b038316158015906116b45750826001600160a01b0316846001600160a01b03161480611f715750611f718484610cf2565b806116b45750505f908152600460205260409020546001600160a01b03908116911614919050565b5f60048461ffff16101580611fb3575060408361ffff1610155b15611fbf5750806120cf565b868461ffff1660048110611fd557611fd561255f565b60200201518361ffff1660408110611fef57611fef61255f565b6020020151806120305750878461ffff16600481106120105761201061255f565b60200201518361ffff166040811061202a5761202a61255f565b60200201515b806120715750888461ffff166004811061204c5761204c61255f565b60200201518361ffff16604081106120665761206661255f565b602002015160ff1615155b1561207d5750806120cf565b83868361010081106120915761209161255f565b61ffff909216602092909202015282858361010081106120b3576120b361255f565b61ffff90921660209290920201526120cc8260016124e3565b90505b98975050505050505050565b60405180608001604052806004905b6120f2612155565b8152602001906001900390816120ea5790505090565b60405180608001604052806004905b61211f612155565b8152602001906001900390816121175790505090565b604051806120000160405280610100906020820280368337509192915050565b6040518061080001604052806040906020820280368337509192915050565b6001600160e01b0319811681146108f2575f80fd5b5f60208284031215612199575f80fd5b8135610fef81612174565b5f81518084528060208401602086015e5f602082860101526020601f19601f83011685010191505092915050565b602081525f610fef60208301846121a4565b5f602082840312156121f4575f80fd5b5035919050565b80356001600160a01b0381168114611878575f80fd5b5f8060408385031215612222575f80fd5b61222b836121fb565b946020939093013593505050565b5f805f6060848603121561224b575f80fd5b612254846121fb565b9250612262602085016121fb565b929592945050506040919091013590565b5f8060408385031215612284575f80fd5b50508035926020909101359150565b5f602082840312156122a3575f80fd5b610fef826121fb565b602080825282518282018190525f918401906040840190835b818110156122e35783518352602093840193909201916001016122c5565b509095945050505050565b5f80604083850312156122ff575f80fd5b612308836121fb565b915060208301356001600160601b0381168114612323575f80fd5b809150509250929050565b5f806040838503121561233f575f80fd5b612348836121fb565b915060208301358015158114612323575f80fd5b634e487b7160e01b5f52604160045260245ffd5b604051601f8201601f1916810167ffffffffffffffff811182821017156123995761239961235c565b604052919050565b5f67ffffffffffffffff8211156123ba576123ba61235c565b50601f01601f191660200190565b5f805f80608085870312156123db575f80fd5b6123e4856121fb565b93506123f2602086016121fb565b925060408501359150606085013567ffffffffffffffff811115612414575f80fd5b8501601f81018713612424575f80fd5b8035612437612432826123a1565b612370565b81815288602083850101111561244b575f80fd5b816020840160208301375f6020838301015280935050505092959194509250565b5f806040838503121561247d575f80fd5b612486836121fb565b9150612494602084016121fb565b90509250929050565b600181811c908216806124b157607f821691505b602082108103611b9a57634e487b7160e01b5f52602260045260245ffd5b634e487b7160e01b5f52601160045260245ffd5b808201808211156105b1576105b16124cf565b818103818111156105b1576105b16124cf565b80820281158282048414176105b1576105b16124cf565b634e487b7160e01b5f52601260045260245ffd5b5f8261254257612542612520565b500490565b5f60018201612558576125586124cf565b5060010190565b634e487b7160e01b5f52603260045260245ffd5b5f60208284031215612583575f80fd5b815167ffffffffffffffff811115612599575f80fd5b8201601f810184136125a9575f80fd5b80516125b7612432826123a1565b8181528560208385010111156125cb575f80fd5b8160208401602083015e5f91810160200191909152949350505050565b5f81518060208401855e5f93019283525090919050565b7f7b202274726169745f74797065223a224576656e6e657373222c202276616c7581526332911d1160e11b60208201525f61263d60248301866125e8565b6308881f4b60e21b81527f7b202274726169745f74797065223a225061737361676573222c202276616c7560048201526332911d1160e11b602482015261268760288201866125e8565b6308881f4b60e21b81527f7b202274726169745f74797065223a22536f757263652068617368222c20227660048201526630b63ab2911d1160c91b602482015290506126d6602b8201856125e8565b6222207d60e81b81526003019695505050505050565b727b226e616d65223a22486173684a696e67202360681b81525f61271360138301866125e8565b61088b60f21b81527f226465736372697074696f6e223a22486173684a696e6720697320612066756c60028201527f6c79206f6e2d636861696e206d616e64616c613a20612064657465726d696e6960228201527f7374696320676c79706820776865726520656e74726f7079206265636f6d657360428201527f20666f726d2e2041203235362d6269742063727970746f67726170686963207360628201527f65656420756e666f6c647320696e746f2073656c662d636f6e7461696e65642060828201527f535647206172742c20666f6c6c6f77696e67207468652076697375616c20707260a28201527f696e6369706c6573206f66207468652049204368696e672e204e6f204950465360c28201527f2e204e6f20736572766572732e204f6e6c7920457468657265756d2e222c000060e28201527f2263726561746f72223a2244617461536174747661222c0000000000000000006101008201527f2265787465726e616c5f75726c223a2268747470733a2f2f6769746875622e636101178201527f6f6d2f446174615361747476612f686173686a696e672d6e6674222c000000006101378201527f226c6963656e7365223a2243432042592d4e4320342e30202b2048617368204a6101538201527f696e6720436f6d6d65726369616c204c6963656e73652076312e30222c0000006101738201527f22696d616765223a22646174613a696d6167652f7376672b786d6c3b62617365610190820152620d8d0b60ea1b6101b082015261299861298a61298461296a61295c6101b386018a6125e8565b61088b60f21b815260020190565b6d2261747472696275746573223a5b60901b8152600e0190565b866125e8565b615d7d60f01b815260020190565b9695505050505050565b7f646174613a6170706c69636174696f6e2f6a736f6e3b6261736536342c00000081525f610fef601d8301846125e8565b6001600160a01b03858116825284166020820152604081018390526080606082018190525f90612998908301846121a4565b5f60208284031215612a15575f80fd5b8151610fef81612174565b5f60ff821660ff8103612a3557612a356124cf565b60010192915050565b620302e360ec1b81525f610fef60038301846125e8565b61181760f11b81525f610fef60028301846125e8565b5f81612a7957612a796124cf565b505f190190565b60ff82811682821603908111156105b1576105b16124cf565b61ffff81811683821601908111156105b1576105b16124cf565b61ffff82811682821603908111156105b1576105b16124cf565b5f61ffff831680612ae057612ae0612520565b8061ffff8416069150509291505056fe4142434445464748494a4b4c4d4e4f505152535455565758595a6162636465666768696a6b6c6d6e6f707172737475767778797a303132333435363738392b2fa26469706673582212205ff48c638ffdc3737404e5446728c234b3babbeeaad1c1bbb0346d5d34d5879864736f6c634300081a0033",
			"opcodes": "PUSH1 0xA0 PUSH1 0x40 MSTORE PUSH1 0x1 PUSH1 0xC SSTORE PUSH1 0xD DUP1 SLOAD PUSH1 0xFF NOT AND SWAP1 SSTORE CALLVALUE DUP1 ISZERO PUSH2 0x1E JUMPI PUSH0 DUP1 REVERT JUMPDEST POP PUSH1 0x40 MLOAD PUSH2 0x2F9A CODESIZE SUB DUP1 PUSH2 0x2F9A DUP4 CODECOPY DUP2 ADD PUSH1 0x40 DUP2 SWAP1 MSTORE PUSH2 0x3D SWAP2 PUSH2 0x296 JUMP JUMPDEST CALLER PUSH1 0x40 MLOAD DUP1 PUSH1 0x40 ADD PUSH1 0x40 MSTORE DUP1 PUSH1 0x8 DUP2 MSTORE PUSH1 0x20 ADD PUSH8 0x486173684A696E67 PUSH1 0xC0 SHL DUP2 MSTORE POP PUSH1 0x40 MLOAD DUP1 PUSH1 0x40 ADD PUSH1 0x40 MSTORE DUP1 PUSH1 0x2 DUP2 MSTORE PUSH1 0x20 ADD PUSH2 0x2425 PUSH1 0xF1 SHL DUP2 MSTORE POP DUP2 PUSH0 SWAP1 DUP2 PUSH2 0x88 SWAP2 SWAP1 PUSH2 0x35B JUMP JUMPDEST POP PUSH1 0x1 PUSH2 0x95 DUP3 DUP3 PUSH2 0x35B JUMP JUMPDEST POP POP POP PUSH1 0x1 PUSH1 0x1 PUSH1 0xA0 SHL SUB DUP2 AND PUSH2 0xC6 JUMPI PUSH1 0x40 MLOAD PUSH4 0x1E4FBDF7 PUSH1 0xE0 SHL DUP2 MSTORE PUSH0 PUSH1 0x4 DUP3 ADD MSTORE PUSH1 0x24 ADD JUMPDEST PUSH1 0x40 MLOAD DUP1 SWAP2 SUB SWAP1 REVERT JUMPDEST PUSH2 0xCF DUP2 PUSH2 0x1A3 JUMP JUMPDEST POP PUSH1 0x1 PUSH1 0x9 SSTORE PUSH1 0x1 PUSH1 0x1 PUSH1 0xA0 SHL SUB DUP2 AND PUSH1 0x80 MSTORE PUSH2 0xEE CALLER PUSH2 0x2EE PUSH2 0x1F4 JUMP JUMPDEST PUSH32 0xF51E4F48342ECC9C64E4C320548D63000DF70155E0EEF5CB36114DB52EEF04C9 PUSH1 0x40 MLOAD PUSH2 0x195 SWAP1 PUSH1 0x40 DUP1 DUP3 MSTORE PUSH1 0x2A SWAP1 DUP3 ADD MSTORE PUSH32 0x68747470733A2F2F646174617361747476612E6769746875622E696F2F686173 PUSH1 0x60 DUP3 ADD MSTORE PUSH10 0x1A1A9A5B99CB5B5A5B9D PUSH1 0xB2 SHL PUSH1 0x80 DUP3 ADD MSTORE PUSH1 0xA0 PUSH1 0x20 DUP3 ADD DUP2 SWAP1 MSTORE PUSH1 0x16 SWAP1 DUP3 ADD MSTORE PUSH32 0x68747470733A2F2F782E636F6D2F486173684A696E6700000000000000000000 PUSH1 0xC0 DUP3 ADD MSTORE PUSH1 0xE0 ADD SWAP1 JUMP JUMPDEST PUSH1 0x40 MLOAD DUP1 SWAP2 SUB SWAP1 LOG1 POP PUSH2 0x415 JUMP JUMPDEST PUSH1 0x8 DUP1 SLOAD PUSH1 0x1 PUSH1 0x1 PUSH1 0xA0 SHL SUB DUP4 DUP2 AND PUSH1 0x1 PUSH1 0x1 PUSH1 0xA0 SHL SUB NOT DUP4 AND DUP2 OR SWAP1 SWAP4 SSTORE PUSH1 0x40 MLOAD SWAP2 AND SWAP2 SWAP1 DUP3 SWAP1 PUSH32 0x8BE0079C531659141344CD1FD0A4F28419497F9722A3DAAFE3B4186F6B6457E0 SWAP1 PUSH0 SWAP1 LOG3 POP POP JUMP JUMPDEST PUSH2 0x2710 PUSH1 0x1 PUSH1 0x1 PUSH1 0x60 SHL SUB DUP3 AND DUP2 LT ISZERO PUSH2 0x233 JUMPI PUSH1 0x40 MLOAD PUSH4 0x6F483D09 PUSH1 0xE0 SHL DUP2 MSTORE PUSH1 0x1 PUSH1 0x1 PUSH1 0x60 SHL SUB DUP4 AND PUSH1 0x4 DUP3 ADD MSTORE PUSH1 0x24 DUP2 ADD DUP3 SWAP1 MSTORE PUSH1 0x44 ADD PUSH2 0xBD JUMP JUMPDEST PUSH1 0x1 PUSH1 0x1 PUSH1 0xA0 SHL SUB DUP4 AND PUSH2 0x25C JUMPI PUSH1 0x40 MLOAD PUSH4 0x5B6CC805 PUSH1 0xE1 SHL DUP2 MSTORE PUSH0 PUSH1 0x4 DUP3 ADD MSTORE PUSH1 0x24 ADD PUSH2 0xBD JUMP JUMPDEST POP PUSH1 0x40 DUP1 MLOAD DUP1 DUP3 ADD SWAP1 SWAP2 MSTORE PUSH1 0x1 PUSH1 0x1 PUSH1 0xA0 SHL SUB SWAP1 SWAP3 AND DUP1 DUP4 MSTORE PUSH1 0x1 PUSH1 0x1 PUSH1 0x60 SHL SUB SWAP1 SWAP2 AND PUSH1 0x20 SWAP1 SWAP3 ADD DUP3 SWAP1 MSTORE PUSH1 0x1 PUSH1 0xA0 SHL SWAP1 SWAP2 MUL OR PUSH1 0x6 SSTORE JUMP JUMPDEST PUSH0 PUSH1 0x20 DUP3 DUP5 SUB SLT ISZERO PUSH2 0x2A6 JUMPI PUSH0 DUP1 REVERT JUMPDEST DUP2 MLOAD PUSH1 0x1 PUSH1 0x1 PUSH1 0xA0 SHL SUB DUP2 AND DUP2 EQ PUSH2 0x2BC JUMPI PUSH0 DUP1 REVERT JUMPDEST SWAP4 SWAP3 POP POP POP JUMP JUMPDEST PUSH4 0x4E487B71 PUSH1 0xE0 SHL PUSH0 MSTORE PUSH1 0x41 PUSH1 0x4 MSTORE PUSH1 0x24 PUSH0 REVERT JUMPDEST PUSH1 0x1 DUP2 DUP2 SHR SWAP1 DUP3 AND DUP1 PUSH2 0x2EB JUMPI PUSH1 0x7F DUP3 AND SWAP2 POP JUMPDEST PUSH1 0x20 DUP3 LT DUP2 SUB PUSH2 0x309 JUMPI PUSH4 0x4E487B71 PUSH1 0xE0 SHL PUSH0 MSTORE PUSH1 0x22 PUSH1 0x4 MSTORE PUSH1 0x24 PUSH0 REVERT JUMPDEST POP SWAP2 SWAP1 POP JUMP JUMPDEST PUSH1 0x1F DUP3 GT ISZERO PUSH2 0x356 JUMPI DUP1 PUSH0 MSTORE PUSH1 0x20 PUSH0 KECCAK256 PUSH1 0x1F DUP5 ADD PUSH1 0x5 SHR DUP2 ADD PUSH1 0x20 DUP6 LT ISZERO PUSH2 0x334 JUMPI POP DUP1 JUMPDEST PUSH1 0x1F DUP5 ADD PUSH1 0x5 SHR DUP3 ADD SWAP2 POP JUMPDEST DUP2 DUP2 LT ISZERO PUSH2 0x353 JUMPI PUSH0 DUP2 SSTORE PUSH1 0x1 ADD PUSH2 0x340 JUMP JUMPDEST POP POP JUMPDEST POP POP POP JUMP JUMPDEST DUP2 MLOAD PUSH1 0x1 PUSH1 0x1 PUSH1 0x40 SHL SUB DUP2 GT ISZERO PUSH2 0x374 JUMPI PUSH2 0x374 PUSH2 0x2C3 JUMP JUMPDEST PUSH2 0x388 DUP2 PUSH2 0x382 DUP5 SLOAD PUSH2 0x2D7 JUMP JUMPDEST DUP5 PUSH2 0x30F JUMP JUMPDEST PUSH1 0x20 PUSH1 0x1F DUP3 GT PUSH1 0x1 DUP2 EQ PUSH2 0x3BA JUMPI PUSH0 DUP4 ISZERO PUSH2 0x3A3 JUMPI POP DUP5 DUP3 ADD MLOAD JUMPDEST PUSH0 NOT PUSH1 0x3 DUP6 SWAP1 SHL SHR NOT AND PUSH1 0x1 DUP5 SWAP1 SHL OR DUP5 SSTORE PUSH2 0x353 JUMP JUMPDEST PUSH0 DUP5 DUP2 MSTORE PUSH1 0x20 DUP2 KECCAK256 PUSH1 0x1F NOT DUP6 AND SWAP2 JUMPDEST DUP3 DUP2 LT ISZERO PUSH2 0x3E9 JUMPI DUP8 DUP6 ADD MLOAD DUP3 SSTORE PUSH1 0x20 SWAP5 DUP6 ADD SWAP5 PUSH1 0x1 SWAP1 SWAP3 ADD SWAP2 ADD PUSH2 0x3C9 JUMP JUMPDEST POP DUP5 DUP3 LT ISZERO PUSH2 0x406 JUMPI DUP7 DUP5 ADD MLOAD PUSH0 NOT PUSH1 0x3 DUP8 SWAP1 SHL PUSH1 0xF8 AND SHR NOT AND DUP2 SSTORE JUMPDEST POP POP POP POP PUSH1 0x1 SWAP1 DUP2 SHL ADD SWAP1 SSTORE POP JUMP JUMPDEST PUSH1 0x80 MLOAD PUSH2 0x2B66 PUSH2 0x434 PUSH0 CODECOPY PUSH0 DUP2 DUP2 PUSH2 0x42C ADD MSTORE PUSH2 0xB4D ADD MSTORE PUSH2 0x2B66 PUSH0 RETURN INVALID PUSH1 0x80 PUSH1 0x40 MSTORE PUSH1 0x4 CALLDATASIZE LT PUSH2 0x1C5 JUMPI PUSH0 CALLDATALOAD PUSH1 0xE0 SHR DUP1 PUSH4 0x8462151C GT PUSH2 0xF2 JUMPI DUP1 PUSH4 0x9FD6DB12 GT PUSH2 0x92 JUMPI DUP1 PUSH4 0xC87B56DD GT PUSH2 0x62 JUMPI DUP1 PUSH4 0xC87B56DD EQ PUSH2 0x536 JUMPI DUP1 PUSH4 0xE797EC1B EQ PUSH2 0x555 JUMPI DUP1 PUSH4 0xE985E9C5 EQ PUSH2 0x569 JUMPI DUP1 PUSH4 0xF2FDE38B EQ PUSH2 0x588 JUMPI PUSH0 DUP1 REVERT JUMPDEST DUP1 PUSH4 0x9FD6DB12 EQ PUSH2 0x4C5 JUMPI DUP1 PUSH4 0xA22CB465 EQ PUSH2 0x4DE JUMPI DUP1 PUSH4 0xB85F3FB8 EQ PUSH2 0x4FD JUMPI DUP1 PUSH4 0xB88D4FDE EQ PUSH2 0x517 JUMPI PUSH0 DUP1 REVERT JUMPDEST DUP1 PUSH4 0x8DA5CB5B GT PUSH2 0xCD JUMPI DUP1 PUSH4 0x8DA5CB5B EQ PUSH2 0x460 JUMPI DUP1 PUSH4 0x8F2FC60B EQ PUSH2 0x47D JUMPI DUP1 PUSH4 0x95D89B41 EQ PUSH2 0x49C JUMPI DUP1 PUSH4 0x99EC6765 EQ PUSH2 0x4B0 JUMPI PUSH0 DUP1 REVERT JUMPDEST DUP1 PUSH4 0x8462151C EQ PUSH2 0x3EF JUMPI DUP1 PUSH4 0x8ADA6B0F EQ PUSH2 0x41B JUMPI DUP1 PUSH4 0x8B7AFE2E EQ PUSH2 0x44E JUMPI PUSH0 DUP1 REVERT JUMPDEST DUP1 PUSH4 0x2A55205A GT PUSH2 0x168 JUMPI DUP1 PUSH4 0x4C5D9CAD GT PUSH2 0x138 JUMPI DUP1 PUSH4 0x4C5D9CAD EQ PUSH2 0x35D JUMPI DUP1 PUSH4 0x6352211E EQ PUSH2 0x39D JUMPI DUP1 PUSH4 0x70A08231 EQ PUSH2 0x3BC JUMPI DUP1 PUSH4 0x715018A6 EQ PUSH2 0x3DB JUMPI PUSH0 DUP1 REVERT JUMPDEST DUP1 PUSH4 0x2A55205A EQ PUSH2 0x2BF JUMPI DUP1 PUSH4 0x3CCFD60B EQ PUSH2 0x2FD JUMPI DUP1 PUSH4 0x3DCA40E6 EQ PUSH2 0x311 JUMPI DUP1 PUSH4 0x42842E0E EQ PUSH2 0x33E JUMPI PUSH0 DUP1 REVERT JUMPDEST DUP1 PUSH4 0x95EA7B3 GT PUSH2 0x1A3 JUMPI DUP1 PUSH4 0x95EA7B3 EQ PUSH2 0x255 JUMPI DUP1 PUSH4 0x1249C58B EQ PUSH2 0x276 JUMPI DUP1 PUSH4 0x18160DDD EQ PUSH2 0x27E JUMPI DUP1 PUSH4 0x23B872DD EQ PUSH2 0x2A0 JUMPI PUSH0 DUP1 REVERT JUMPDEST DUP1 PUSH4 0x1FFC9A7 EQ PUSH2 0x1C9 JUMPI DUP1 PUSH4 0x6FDDE03 EQ PUSH2 0x1FD JUMPI DUP1 PUSH4 0x81812FC EQ PUSH2 0x21E JUMPI JUMPDEST PUSH0 DUP1 REVERT JUMPDEST CALLVALUE DUP1 ISZERO PUSH2 0x1D4 JUMPI PUSH0 DUP1 REVERT JUMPDEST POP PUSH2 0x1E8 PUSH2 0x1E3 CALLDATASIZE PUSH1 0x4 PUSH2 0x2189 JUMP JUMPDEST PUSH2 0x5A7 JUMP JUMPDEST PUSH1 0x40 MLOAD SWAP1 ISZERO ISZERO DUP2 MSTORE PUSH1 0x20 ADD JUMPDEST PUSH1 0x40 MLOAD DUP1 SWAP2 SUB SWAP1 RETURN JUMPDEST CALLVALUE DUP1 ISZERO PUSH2 0x208 JUMPI PUSH0 DUP1 REVERT JUMPDEST POP PUSH2 0x211 PUSH2 0x5B7 JUMP JUMPDEST PUSH1 0x40 MLOAD PUSH2 0x1F4 SWAP2 SWAP1 PUSH2 0x21D2 JUMP JUMPDEST CALLVALUE DUP1 ISZERO PUSH2 0x229 JUMPI PUSH0 DUP1 REVERT JUMPDEST POP PUSH2 0x23D PUSH2 0x238 CALLDATASIZE PUSH1 0x4 PUSH2 0x21E4 JUMP JUMPDEST PUSH2 0x646 JUMP JUMPDEST PUSH1 0x40 MLOAD PUSH1 0x1 PUSH1 0x1 PUSH1 0xA0 SHL SUB SWAP1 SWAP2 AND DUP2 MSTORE PUSH1 0x20 ADD PUSH2 0x1F4 JUMP JUMPDEST CALLVALUE DUP1 ISZERO PUSH2 0x260 JUMPI PUSH0 DUP1 REVERT JUMPDEST POP PUSH2 0x274 PUSH2 0x26F CALLDATASIZE PUSH1 0x4 PUSH2 0x2211 JUMP JUMPDEST PUSH2 0x66D JUMP JUMPDEST STOP JUMPDEST PUSH2 0x274 PUSH2 0x67C JUMP JUMPDEST CALLVALUE DUP1 ISZERO PUSH2 0x289 JUMPI PUSH0 DUP1 REVERT JUMPDEST POP PUSH2 0x292 PUSH2 0x73D JUMP JUMPDEST PUSH1 0x40 MLOAD SWAP1 DUP2 MSTORE PUSH1 0x20 ADD PUSH2 0x1F4 JUMP JUMPDEST CALLVALUE DUP1 ISZERO PUSH2 0x2AB JUMPI PUSH0 DUP1 REVERT JUMPDEST POP PUSH2 0x274 PUSH2 0x2BA CALLDATASIZE PUSH1 0x4 PUSH2 0x2239 JUMP JUMPDEST PUSH2 0x752 JUMP JUMPDEST CALLVALUE DUP1 ISZERO PUSH2 0x2CA JUMPI PUSH0 DUP1 REVERT JUMPDEST POP PUSH2 0x2DE PUSH2 0x2D9 CALLDATASIZE PUSH1 0x4 PUSH2 0x2273 JUMP JUMPDEST PUSH2 0x7E0 JUMP JUMPDEST PUSH1 0x40 DUP1 MLOAD PUSH1 0x1 PUSH1 0x1 PUSH1 0xA0 SHL SUB SWAP1 SWAP4 AND DUP4 MSTORE PUSH1 0x20 DUP4 ADD SWAP2 SWAP1 SWAP2 MSTORE ADD PUSH2 0x1F4 JUMP JUMPDEST CALLVALUE DUP1 ISZERO PUSH2 0x308 JUMPI PUSH0 DUP1 REVERT JUMPDEST POP PUSH2 0x274 PUSH2 0x863 JUMP JUMPDEST CALLVALUE DUP1 ISZERO PUSH2 0x31C JUMPI PUSH0 DUP1 REVERT JUMPDEST POP PUSH2 0x326 PUSH2 0x3E8 DUP2 JUMP JUMPDEST PUSH1 0x40 MLOAD PUSH1 0x1 PUSH1 0x1 PUSH1 0x60 SHL SUB SWAP1 SWAP2 AND DUP2 MSTORE PUSH1 0x20 ADD PUSH2 0x1F4 JUMP JUMPDEST CALLVALUE DUP1 ISZERO PUSH2 0x349 JUMPI PUSH0 DUP1 REVERT JUMPDEST POP PUSH2 0x274 PUSH2 0x358 CALLDATASIZE PUSH1 0x4 PUSH2 0x2239 JUMP JUMPDEST PUSH2 0x8F5 JUMP JUMPDEST CALLVALUE DUP1 ISZERO PUSH2 0x368 JUMPI PUSH0 DUP1 REVERT JUMPDEST POP PUSH2 0x38B PUSH2 0x377 CALLDATASIZE PUSH1 0x4 PUSH2 0x21E4 JUMP JUMPDEST PUSH1 0xB PUSH1 0x20 MSTORE PUSH0 SWAP1 DUP2 MSTORE PUSH1 0x40 SWAP1 KECCAK256 SLOAD PUSH1 0xFF AND DUP2 JUMP JUMPDEST PUSH1 0x40 MLOAD PUSH1 0xFF SWAP1 SWAP2 AND DUP2 MSTORE PUSH1 0x20 ADD PUSH2 0x1F4 JUMP JUMPDEST CALLVALUE DUP1 ISZERO PUSH2 0x3A8 JUMPI PUSH0 DUP1 REVERT JUMPDEST POP PUSH2 0x23D PUSH2 0x3B7 CALLDATASIZE PUSH1 0x4 PUSH2 0x21E4 JUMP JUMPDEST PUSH2 0x914 JUMP JUMPDEST CALLVALUE DUP1 ISZERO PUSH2 0x3C7 JUMPI PUSH0 DUP1 REVERT JUMPDEST POP PUSH2 0x292 PUSH2 0x3D6 CALLDATASIZE PUSH1 0x4 PUSH2 0x2293 JUMP JUMPDEST PUSH2 0x91E JUMP JUMPDEST CALLVALUE DUP1 ISZERO PUSH2 0x3E6 JUMPI PUSH0 DUP1 REVERT JUMPDEST POP PUSH2 0x274 PUSH2 0x963 JUMP JUMPDEST CALLVALUE DUP1 ISZERO PUSH2 0x3FA JUMPI PUSH0 DUP1 REVERT JUMPDEST POP PUSH2 0x40E PUSH2 0x409 CALLDATASIZE PUSH1 0x4 PUSH2 0x2293 JUMP JUMPDEST PUSH2 0x9AB JUMP JUMPDEST PUSH1 0x40 MLOAD PUSH2 0x1F4 SWAP2 SWAP1 PUSH2 0x22AC JUMP JUMPDEST CALLVALUE DUP1 ISZERO PUSH2 0x426 JUMPI PUSH0 DUP1 REVERT JUMPDEST POP PUSH2 0x23D PUSH32 0x0 DUP2 JUMP JUMPDEST CALLVALUE DUP1 ISZERO PUSH2 0x459 JUMPI PUSH0 DUP1 REVERT JUMPDEST POP SELFBALANCE PUSH2 0x292 JUMP JUMPDEST CALLVALUE DUP1 ISZERO PUSH2 0x46B JUMPI PUSH0 DUP1 REVERT JUMPDEST POP PUSH1 0x8 SLOAD PUSH1 0x1 PUSH1 0x1 PUSH1 0xA0 SHL SUB AND PUSH2 0x23D JUMP JUMPDEST CALLVALUE DUP1 ISZERO PUSH2 0x488 JUMPI PUSH0 DUP1 REVERT JUMPDEST POP PUSH2 0x274 PUSH2 0x497 CALLDATASIZE PUSH1 0x4 PUSH2 0x22EE JUMP JUMPDEST PUSH2 0xA71 JUMP JUMPDEST CALLVALUE DUP1 ISZERO PUSH2 0x4A7 JUMPI PUSH0 DUP1 REVERT JUMPDEST POP PUSH2 0x211 PUSH2 0xAC8 JUMP JUMPDEST CALLVALUE DUP1 ISZERO PUSH2 0x4BB JUMPI PUSH0 DUP1 REVERT JUMPDEST POP PUSH2 0x292 PUSH2 0x2000 DUP2 JUMP JUMPDEST CALLVALUE DUP1 ISZERO PUSH2 0x4D0 JUMPI PUSH0 DUP1 REVERT JUMPDEST POP PUSH1 0xD SLOAD PUSH2 0x1E8 SWAP1 PUSH1 0xFF AND DUP2 JUMP JUMPDEST CALLVALUE DUP1 ISZERO PUSH2 0x4E9 JUMPI PUSH0 DUP1 REVERT JUMPDEST POP PUSH2 0x274 PUSH2 0x4F8 CALLDATASIZE PUSH1 0x4 PUSH2 0x232E JUMP JUMPDEST PUSH2 0xAD7 JUMP JUMPDEST CALLVALUE DUP1 ISZERO PUSH2 0x508 JUMPI PUSH0 DUP1 REVERT JUMPDEST POP PUSH2 0x292 PUSH7 0x71AFD498D0000 DUP2 JUMP JUMPDEST CALLVALUE DUP1 ISZERO PUSH2 0x522 JUMPI PUSH0 DUP1 REVERT JUMPDEST POP PUSH2 0x274 PUSH2 0x531 CALLDATASIZE PUSH1 0x4 PUSH2 0x23C8 JUMP JUMPDEST PUSH2 0xAE2 JUMP JUMPDEST CALLVALUE DUP1 ISZERO PUSH2 0x541 JUMPI PUSH0 DUP1 REVERT JUMPDEST POP PUSH2 0x211 PUSH2 0x550 CALLDATASIZE PUSH1 0x4 PUSH2 0x21E4 JUMP JUMPDEST PUSH2 0xAFA JUMP JUMPDEST CALLVALUE DUP1 ISZERO PUSH2 0x560 JUMPI PUSH0 DUP1 REVERT JUMPDEST POP PUSH2 0x274 PUSH2 0xC8F JUMP JUMPDEST CALLVALUE DUP1 ISZERO PUSH2 0x574 JUMPI PUSH0 DUP1 REVERT JUMPDEST POP PUSH2 0x1E8 PUSH2 0x583 CALLDATASIZE PUSH1 0x4 PUSH2 0x246C JUMP JUMPDEST PUSH2 0xCF2 JUMP JUMPDEST CALLVALUE DUP1 ISZERO PUSH2 0x593 JUMPI PUSH0 DUP1 REVERT JUMPDEST POP PUSH2 0x274 PUSH2 0x5A2 CALLDATASIZE PUSH1 0x4 PUSH2 0x2293 JUMP JUMPDEST PUSH2 0xD1F JUMP JUMPDEST PUSH0 PUSH2 0x5B1 DUP3 PUSH2 0xD59 JUMP JUMPDEST SWAP3 SWAP2 POP POP JUMP JUMPDEST PUSH1 0x60 PUSH0 DUP1 SLOAD PUSH2 0x5C5 SWAP1 PUSH2 0x249D JUMP JUMPDEST DUP1 PUSH1 0x1F ADD PUSH1 0x20 DUP1 SWAP2 DIV MUL PUSH1 0x20 ADD PUSH1 0x40 MLOAD SWAP1 DUP2 ADD PUSH1 0x40 MSTORE DUP1 SWAP3 SWAP2 SWAP1 DUP2 DUP2 MSTORE PUSH1 0x20 ADD DUP3 DUP1 SLOAD PUSH2 0x5F1 SWAP1 PUSH2 0x249D JUMP JUMPDEST DUP1 ISZERO PUSH2 0x63C JUMPI DUP1 PUSH1 0x1F LT PUSH2 0x613 JUMPI PUSH2 0x100 DUP1 DUP4 SLOAD DIV MUL DUP4 MSTORE SWAP2 PUSH1 0x20 ADD SWAP2 PUSH2 0x63C JUMP JUMPDEST DUP3 ADD SWAP2 SWAP1 PUSH0 MSTORE PUSH1 0x20 PUSH0 KECCAK256 SWAP1 JUMPDEST DUP2 SLOAD DUP2 MSTORE SWAP1 PUSH1 0x1 ADD SWAP1 PUSH1 0x20 ADD DUP1 DUP4 GT PUSH2 0x61F JUMPI DUP3 SWAP1 SUB PUSH1 0x1F AND DUP3 ADD SWAP2 JUMPDEST POP POP POP POP POP SWAP1 POP SWAP1 JUMP JUMPDEST PUSH0 PUSH2 0x650 DUP3 PUSH2 0xD7D JUMP JUMPDEST POP PUSH0 DUP3 DUP2 MSTORE PUSH1 0x4 PUSH1 0x20 MSTORE PUSH1 0x40 SWAP1 KECCAK256 SLOAD PUSH1 0x1 PUSH1 0x1 PUSH1 0xA0 SHL SUB AND PUSH2 0x5B1 JUMP JUMPDEST PUSH2 0x678 DUP3 DUP3 CALLER PUSH2 0xDB5 JUMP JUMPDEST POP POP JUMP JUMPDEST PUSH2 0x684 PUSH2 0xDC2 JUMP JUMPDEST PUSH1 0xD SLOAD PUSH1 0xFF AND PUSH2 0x6A7 JUMPI PUSH1 0x40 MLOAD PUSH4 0x17EFBD6B PUSH1 0xE0 SHL DUP2 MSTORE PUSH1 0x4 ADD PUSH1 0x40 MLOAD DUP1 SWAP2 SUB SWAP1 REVERT JUMPDEST PUSH1 0xC SLOAD PUSH2 0x2000 DUP2 GT ISZERO PUSH2 0x6CD JUMPI PUSH1 0x40 MLOAD PUSH4 0x52DF9FE5 PUSH1 0xE0 SHL DUP2 MSTORE PUSH1 0x4 ADD PUSH1 0x40 MLOAD DUP1 SWAP2 SUB SWAP1 REVERT JUMPDEST PUSH7 0x71AFD498D0000 CALLVALUE EQ PUSH2 0x6F4 JUMPI PUSH1 0x40 MLOAD PUSH4 0x39C5F2DF PUSH1 0xE0 SHL DUP2 MSTORE PUSH1 0x4 ADD PUSH1 0x40 MLOAD DUP1 SWAP2 SUB SWAP1 REVERT JUMPDEST PUSH2 0x6FF DUP2 PUSH1 0x1 PUSH2 0x24E3 JUMP JUMPDEST PUSH1 0xC SSTORE PUSH2 0x70B DUP2 PUSH2 0xDEC JUMP JUMPDEST PUSH0 DUP3 DUP2 MSTORE PUSH1 0xA PUSH1 0x20 MSTORE PUSH1 0x40 SWAP1 KECCAK256 DUP2 SWAP1 SSTORE PUSH2 0x726 SWAP1 DUP3 SWAP1 PUSH2 0xE52 JUMP JUMPDEST PUSH2 0x730 CALLER DUP3 PUSH2 0xEE9 JUMP JUMPDEST POP PUSH2 0x73B PUSH1 0x1 PUSH1 0x9 SSTORE JUMP JUMPDEST JUMP JUMPDEST PUSH0 PUSH1 0x1 PUSH1 0xC SLOAD PUSH2 0x74D SWAP2 SWAP1 PUSH2 0x24F6 JUMP JUMPDEST SWAP1 POP SWAP1 JUMP JUMPDEST PUSH1 0x1 PUSH1 0x1 PUSH1 0xA0 SHL SUB DUP3 AND PUSH2 0x780 JUMPI PUSH1 0x40 MLOAD PUSH4 0x32505749 PUSH1 0xE1 SHL DUP2 MSTORE PUSH0 PUSH1 0x4 DUP3 ADD MSTORE PUSH1 0x24 ADD JUMPDEST PUSH1 0x40 MLOAD DUP1 SWAP2 SUB SWAP1 REVERT JUMPDEST PUSH0 PUSH2 0x78C DUP4 DUP4 CALLER PUSH2 0xF02 JUMP JUMPDEST SWAP1 POP DUP4 PUSH1 0x1 PUSH1 0x1 PUSH1 0xA0 SHL SUB AND DUP2 PUSH1 0x1 PUSH1 0x1 PUSH1 0xA0 SHL SUB AND EQ PUSH2 0x7DA JUMPI PUSH1 0x40 MLOAD PUSH4 0x64283D7B PUSH1 0xE0 SHL DUP2 MSTORE PUSH1 0x1 PUSH1 0x1 PUSH1 0xA0 SHL SUB DUP1 DUP7 AND PUSH1 0x4 DUP4 ADD MSTORE PUSH1 0x24 DUP3 ADD DUP5 SWAP1 MSTORE DUP3 AND PUSH1 0x44 DUP3 ADD MSTORE PUSH1 0x64 ADD PUSH2 0x777 JUMP JUMPDEST POP POP POP POP JUMP JUMPDEST PUSH0 DUP3 DUP2 MSTORE PUSH1 0x7 PUSH1 0x20 MSTORE PUSH1 0x40 DUP2 KECCAK256 DUP1 SLOAD DUP3 SWAP2 SWAP1 PUSH1 0x1 PUSH1 0x1 PUSH1 0xA0 SHL SUB DUP2 AND SWAP1 PUSH1 0x1 PUSH1 0xA0 SHL SWAP1 DIV PUSH1 0x1 PUSH1 0x1 PUSH1 0x60 SHL SUB AND DUP2 PUSH2 0x833 JUMPI POP POP PUSH1 0x6 SLOAD PUSH1 0x1 PUSH1 0x1 PUSH1 0xA0 SHL SUB DUP2 AND SWAP1 PUSH1 0x1 PUSH1 0xA0 SHL SWAP1 DIV PUSH1 0x1 PUSH1 0x1 PUSH1 0x60 SHL SUB AND JUMPDEST PUSH0 PUSH2 0x2710 PUSH2 0x84A PUSH1 0x1 PUSH1 0x1 PUSH1 0x60 SHL SUB DUP5 AND DUP10 PUSH2 0x2509 JUMP JUMPDEST PUSH2 0x854 SWAP2 SWAP1 PUSH2 0x2534 JUMP JUMPDEST SWAP3 SWAP9 SWAP3 SWAP8 POP SWAP2 SWAP6 POP POP POP POP POP POP JUMP JUMPDEST PUSH2 0x86B PUSH2 0xFF6 JUMP JUMPDEST PUSH1 0x40 MLOAD PUSH0 SWAP1 CALLER SWAP1 SELFBALANCE SWAP1 DUP4 DUP2 DUP2 DUP2 DUP6 DUP8 GAS CALL SWAP3 POP POP POP RETURNDATASIZE DUP1 PUSH0 DUP2 EQ PUSH2 0x8AA JUMPI PUSH1 0x40 MLOAD SWAP2 POP PUSH1 0x1F NOT PUSH1 0x3F RETURNDATASIZE ADD AND DUP3 ADD PUSH1 0x40 MSTORE RETURNDATASIZE DUP3 MSTORE RETURNDATASIZE PUSH0 PUSH1 0x20 DUP5 ADD RETURNDATACOPY PUSH2 0x8AF JUMP JUMPDEST PUSH1 0x60 SWAP2 POP JUMPDEST POP POP SWAP1 POP DUP1 PUSH2 0x8F2 JUMPI PUSH1 0x40 MLOAD PUSH3 0x461BCD PUSH1 0xE5 SHL DUP2 MSTORE PUSH1 0x20 PUSH1 0x4 DUP3 ADD MSTORE PUSH1 0xF PUSH1 0x24 DUP3 ADD MSTORE PUSH15 0x15DA5D1A191C985DC819985A5B1959 PUSH1 0x8A SHL PUSH1 0x44 DUP3 ADD MSTORE PUSH1 0x64 ADD PUSH2 0x777 JUMP JUMPDEST POP JUMP JUMPDEST PUSH2 0x90F DUP4 DUP4 DUP4 PUSH1 0x40 MLOAD DUP1 PUSH1 0x20 ADD PUSH1 0x40 MSTORE DUP1 PUSH0 DUP2 MSTORE POP PUSH2 0xAE2 JUMP JUMPDEST POP POP POP JUMP JUMPDEST PUSH0 PUSH2 0x5B1 DUP3 PUSH2 0xD7D JUMP JUMPDEST PUSH0 PUSH1 0x1 PUSH1 0x1 PUSH1 0xA0 SHL SUB DUP3 AND PUSH2 0x948 JUMPI PUSH1 0x40 MLOAD PUSH4 0x22718AD9 PUSH1 0xE2 SHL DUP2 MSTORE PUSH0 PUSH1 0x4 DUP3 ADD MSTORE PUSH1 0x24 ADD PUSH2 0x777 JUMP JUMPDEST POP PUSH1 0x1 PUSH1 0x1 PUSH1 0xA0 SHL SUB AND PUSH0 SWAP1 DUP2 MSTORE PUSH1 0x3 PUSH1 0x20 MSTORE PUSH1 0x40 SWAP1 KECCAK256 SLOAD SWAP1 JUMP JUMPDEST PUSH1 0x40 MLOAD PUSH3 0x461BCD PUSH1 0xE5 SHL DUP2 MSTORE PUSH1 0x20 PUSH1 0x4 DUP3 ADD MSTORE PUSH1 0x1D PUSH1 0x24 DUP3 ADD MSTORE PUSH32 0x72656E6F756E63654F776E6572736869702069732064697361626C6564000000 PUSH1 0x44 DUP3 ADD MSTORE PUSH1 0x64 ADD PUSH2 0x777 JUMP JUMPDEST PUSH1 0x60 PUSH0 PUSH2 0x9B7 DUP4 PUSH2 0x91E JUMP JUMPDEST SWAP1 POP PUSH0 DUP2 PUSH8 0xFFFFFFFFFFFFFFFF DUP2 GT ISZERO PUSH2 0x9D3 JUMPI PUSH2 0x9D3 PUSH2 0x235C JUMP JUMPDEST PUSH1 0x40 MLOAD SWAP1 DUP1 DUP3 MSTORE DUP1 PUSH1 0x20 MUL PUSH1 0x20 ADD DUP3 ADD PUSH1 0x40 MSTORE DUP1 ISZERO PUSH2 0x9FC JUMPI DUP2 PUSH1 0x20 ADD PUSH1 0x20 DUP3 MUL DUP1 CALLDATASIZE DUP4 CALLDATACOPY ADD SWAP1 POP JUMPDEST POP SWAP1 POP PUSH0 PUSH1 0x1 JUMPDEST PUSH1 0xC SLOAD DUP2 LT ISZERO PUSH2 0xA67 JUMPI PUSH0 DUP2 DUP2 MSTORE PUSH1 0x2 PUSH1 0x20 MSTORE PUSH1 0x40 SWAP1 KECCAK256 SLOAD PUSH1 0x1 PUSH1 0x1 PUSH1 0xA0 SHL SUB DUP8 DUP2 AND SWAP2 AND SUB PUSH2 0xA58 JUMPI DUP1 DUP4 DUP4 PUSH2 0xA39 DUP2 PUSH2 0x2547 JUMP JUMPDEST SWAP5 POP DUP2 MLOAD DUP2 LT PUSH2 0xA4B JUMPI PUSH2 0xA4B PUSH2 0x255F JUMP JUMPDEST PUSH1 0x20 MUL PUSH1 0x20 ADD ADD DUP2 DUP2 MSTORE POP POP JUMPDEST DUP2 DUP5 EQ PUSH2 0xA67 JUMPI PUSH1 0x1 ADD PUSH2 0xA03 JUMP JUMPDEST POP SWAP1 SWAP5 SWAP4 POP POP POP POP JUMP JUMPDEST PUSH2 0xA79 PUSH2 0xFF6 JUMP JUMPDEST PUSH2 0x3E8 PUSH1 0x1 PUSH1 0x1 PUSH1 0x60 SHL SUB DUP3 AND GT ISZERO PUSH2 0xABE JUMPI PUSH1 0x40 MLOAD PUSH3 0x461BCD PUSH1 0xE5 SHL DUP2 MSTORE PUSH1 0x20 PUSH1 0x4 DUP3 ADD MSTORE PUSH1 0x7 PUSH1 0x24 DUP3 ADD MSTORE PUSH7 0x4D617820313025 PUSH1 0xC8 SHL PUSH1 0x44 DUP3 ADD MSTORE PUSH1 0x64 ADD PUSH2 0x777 JUMP JUMPDEST PUSH2 0x678 DUP3 DUP3 PUSH2 0x1023 JUMP JUMPDEST PUSH1 0x60 PUSH1 0x1 DUP1 SLOAD PUSH2 0x5C5 SWAP1 PUSH2 0x249D JUMP JUMPDEST PUSH2 0x678 CALLER DUP4 DUP4 PUSH2 0x10C5 JUMP JUMPDEST PUSH2 0xAED DUP5 DUP5 DUP5 PUSH2 0x752 JUMP JUMPDEST PUSH2 0x7DA CALLER DUP6 DUP6 DUP6 DUP6 PUSH2 0x1163 JUMP JUMPDEST PUSH1 0x60 PUSH2 0xB05 DUP3 PUSH2 0x128B JUMP JUMPDEST PUSH2 0xB22 JUMPI PUSH1 0x40 MLOAD PUSH4 0x163A09E1 PUSH1 0xE3 SHL DUP2 MSTORE PUSH1 0x4 ADD PUSH1 0x40 MLOAD DUP1 SWAP2 SUB SWAP1 REVERT JUMPDEST PUSH0 DUP3 DUP2 MSTORE PUSH1 0xA PUSH1 0x20 MSTORE PUSH1 0x40 DUP1 DUP3 KECCAK256 SLOAD SWAP1 MLOAD PUSH4 0x2158AA5 PUSH1 0xE1 SHL DUP2 MSTORE PUSH1 0x4 DUP2 ADD DUP3 SWAP1 MSTORE SWAP1 SWAP2 SWAP1 PUSH2 0xBC5 SWAP1 PUSH32 0x0 PUSH1 0x1 PUSH1 0x1 PUSH1 0xA0 SHL SUB AND SWAP1 PUSH4 0x42B154A SWAP1 PUSH1 0x24 ADD PUSH0 PUSH1 0x40 MLOAD DUP1 DUP4 SUB DUP2 DUP7 GAS STATICCALL ISZERO DUP1 ISZERO PUSH2 0xB99 JUMPI RETURNDATASIZE PUSH0 DUP1 RETURNDATACOPY RETURNDATASIZE PUSH0 REVERT JUMPDEST POP POP POP POP PUSH1 0x40 MLOAD RETURNDATASIZE PUSH0 DUP3 RETURNDATACOPY PUSH1 0x1F RETURNDATASIZE SWAP1 DUP2 ADD PUSH1 0x1F NOT AND DUP3 ADD PUSH1 0x40 MSTORE PUSH2 0xBC0 SWAP2 SWAP1 DUP2 ADD SWAP1 PUSH2 0x2573 JUMP JUMPDEST PUSH2 0x12C0 JUMP JUMPDEST PUSH0 DUP6 DUP2 MSTORE PUSH1 0xB PUSH1 0x20 MSTORE PUSH1 0x40 DUP2 KECCAK256 SLOAD SWAP2 SWAP3 POP PUSH1 0xFF SWAP1 SWAP2 AND SWAP1 PUSH2 0xBE5 DUP5 PUSH2 0x12E6 JUMP JUMPDEST SWAP1 POP PUSH0 PUSH2 0xBF1 DUP4 PUSH2 0x142B JUMP JUMPDEST PUSH2 0xBFD DUP4 PUSH1 0xFF AND PUSH2 0x14B2 JUMP JUMPDEST PUSH2 0xC08 DUP8 PUSH1 0x20 PUSH2 0x1542 JUMP JUMPDEST PUSH1 0x40 MLOAD PUSH1 0x20 ADD PUSH2 0xC1A SWAP4 SWAP3 SWAP2 SWAP1 PUSH2 0x25FF JUMP JUMPDEST PUSH1 0x40 MLOAD PUSH1 0x20 DUP2 DUP4 SUB SUB DUP2 MSTORE SWAP1 PUSH1 0x40 MSTORE SWAP1 POP PUSH0 PUSH2 0xC60 PUSH2 0xC38 DUP10 PUSH2 0x14B2 JUMP JUMPDEST DUP7 DUP5 PUSH1 0x40 MLOAD PUSH1 0x20 ADD PUSH2 0xC4C SWAP4 SWAP3 SWAP2 SWAP1 PUSH2 0x26EC JUMP JUMPDEST PUSH1 0x40 MLOAD PUSH1 0x20 DUP2 DUP4 SUB SUB DUP2 MSTORE SWAP1 PUSH1 0x40 MSTORE PUSH2 0x12C0 JUMP JUMPDEST SWAP1 POP DUP1 PUSH1 0x40 MLOAD PUSH1 0x20 ADD PUSH2 0xC73 SWAP2 SWAP1 PUSH2 0x29A2 JUMP JUMPDEST PUSH1 0x40 MLOAD PUSH1 0x20 DUP2 DUP4 SUB SUB DUP2 MSTORE SWAP1 PUSH1 0x40 MSTORE SWAP7 POP POP POP POP POP POP POP SWAP2 SWAP1 POP JUMP JUMPDEST PUSH2 0xC97 PUSH2 0xFF6 JUMP JUMPDEST PUSH1 0xD SLOAD PUSH1 0xFF AND ISZERO PUSH2 0xCBB JUMPI PUSH1 0x40 MLOAD PUSH4 0x39F3829B PUSH1 0xE0 SHL DUP2 MSTORE PUSH1 0x4 ADD PUSH1 0x40 MLOAD DUP1 SWAP2 SUB SWAP1 REVERT JUMPDEST PUSH1 0xD DUP1 SLOAD PUSH1 0xFF NOT AND PUSH1 0x1 OR SWAP1 SSTORE PUSH1 0x40 MLOAD PUSH32 0x38CB976174A5C48B8F7B2F07F69B47C271BA7F019948915DC12EFB770C2A542C SWAP1 PUSH0 SWAP1 LOG1 JUMP JUMPDEST PUSH1 0x1 PUSH1 0x1 PUSH1 0xA0 SHL SUB SWAP2 DUP3 AND PUSH0 SWAP1 DUP2 MSTORE PUSH1 0x5 PUSH1 0x20 SWAP1 DUP2 MSTORE PUSH1 0x40 DUP1 DUP4 KECCAK256 SWAP4 SWAP1 SWAP5 AND DUP3 MSTORE SWAP2 SWAP1 SWAP2 MSTORE KECCAK256 SLOAD PUSH1 0xFF AND SWAP1 JUMP JUMPDEST PUSH2 0xD27 PUSH2 0xFF6 JUMP JUMPDEST PUSH1 0x1 PUSH1 0x1 PUSH1 0xA0 SHL SUB DUP2 AND PUSH2 0xD50 JUMPI PUSH1 0x40 MLOAD PUSH4 0x1E4FBDF7 PUSH1 0xE0 SHL DUP2 MSTORE PUSH0 PUSH1 0x4 DUP3 ADD MSTORE PUSH1 0x24 ADD PUSH2 0x777 JUMP JUMPDEST PUSH2 0x8F2 DUP2 PUSH2 0x16BC JUMP JUMPDEST PUSH0 PUSH1 0x1 PUSH1 0x1 PUSH1 0xE0 SHL SUB NOT DUP3 AND PUSH4 0x152A902D PUSH1 0xE1 SHL EQ DUP1 PUSH2 0x5B1 JUMPI POP PUSH2 0x5B1 DUP3 PUSH2 0x170D JUMP JUMPDEST PUSH0 DUP2 DUP2 MSTORE PUSH1 0x2 PUSH1 0x20 MSTORE PUSH1 0x40 DUP2 KECCAK256 SLOAD PUSH1 0x1 PUSH1 0x1 PUSH1 0xA0 SHL SUB AND DUP1 PUSH2 0x5B1 JUMPI PUSH1 0x40 MLOAD PUSH4 0x7E273289 PUSH1 0xE0 SHL DUP2 MSTORE PUSH1 0x4 DUP2 ADD DUP5 SWAP1 MSTORE PUSH1 0x24 ADD PUSH2 0x777 JUMP JUMPDEST PUSH2 0x90F DUP4 DUP4 DUP4 PUSH1 0x1 PUSH2 0x175C JUMP JUMPDEST PUSH1 0x2 PUSH1 0x9 SLOAD SUB PUSH2 0xDE5 JUMPI PUSH1 0x40 MLOAD PUSH4 0x3EE5AEB5 PUSH1 0xE0 SHL DUP2 MSTORE PUSH1 0x4 ADD PUSH1 0x40 MLOAD DUP1 SWAP2 SUB SWAP1 REVERT JUMPDEST PUSH1 0x2 PUSH1 0x9 SSTORE JUMP JUMPDEST PUSH0 PUSH2 0xDF8 PUSH1 0x1 NUMBER PUSH2 0x24F6 JUMP JUMPDEST PUSH1 0x40 DUP1 MLOAD SWAP2 BLOCKHASH PUSH1 0x20 DUP4 ADD MSTORE PREVRANDAO SWAP1 DUP3 ADD MSTORE PUSH12 0xFFFFFFFFFFFFFFFFFFFFFFFF NOT ADDRESS PUSH1 0x60 SWAP1 DUP2 SHL DUP3 AND DUP2 DUP5 ADD MSTORE PUSH1 0x74 DUP4 ADD DUP6 SWAP1 MSTORE CALLER SWAP1 SHL AND PUSH1 0x94 DUP3 ADD MSTORE PUSH1 0xA8 ADD PUSH1 0x40 MLOAD PUSH1 0x20 DUP2 DUP4 SUB SUB DUP2 MSTORE SWAP1 PUSH1 0x40 MSTORE DUP1 MLOAD SWAP1 PUSH1 0x20 ADD KECCAK256 SWAP1 POP SWAP2 SWAP1 POP JUMP JUMPDEST PUSH0 PUSH2 0xE5C DUP3 PUSH2 0x1860 JUMP JUMPDEST SWAP1 POP PUSH0 PUSH2 0xE6B DUP3 PUSH2 0x100 PUSH2 0x24F6 JUMP JUMPDEST SWAP1 POP PUSH0 DUP3 ISZERO DUP1 PUSH2 0xE79 JUMPI POP DUP2 ISZERO JUMPDEST ISZERO PUSH2 0xE85 JUMPI POP PUSH0 PUSH2 0xEC4 JUMP JUMPDEST PUSH0 DUP3 DUP5 LT PUSH2 0xE93 JUMPI DUP3 PUSH2 0xE95 JUMP JUMPDEST DUP4 JUMPDEST SWAP1 POP PUSH0 DUP4 DUP6 GT PUSH2 0xEA5 JUMPI DUP4 PUSH2 0xEA7 JUMP JUMPDEST DUP5 JUMPDEST SWAP1 POP DUP1 PUSH2 0xEB5 DUP4 PUSH1 0x64 PUSH2 0x2509 JUMP JUMPDEST PUSH2 0xEBF SWAP2 SWAP1 PUSH2 0x2534 JUMP JUMPDEST SWAP3 POP POP POP JUMPDEST PUSH0 SWAP5 DUP6 MSTORE PUSH1 0xB PUSH1 0x20 MSTORE PUSH1 0x40 SWAP1 SWAP5 KECCAK256 DUP1 SLOAD PUSH1 0xFF NOT AND PUSH1 0xFF SWAP1 SWAP6 AND SWAP5 SWAP1 SWAP5 OR SWAP1 SWAP4 SSTORE POP POP POP JUMP JUMPDEST PUSH2 0x678 DUP3 DUP3 PUSH1 0x40 MLOAD DUP1 PUSH1 0x20 ADD PUSH1 0x40 MSTORE DUP1 PUSH0 DUP2 MSTORE POP PUSH2 0x187D JUMP JUMPDEST PUSH0 DUP3 DUP2 MSTORE PUSH1 0x2 PUSH1 0x20 MSTORE PUSH1 0x40 DUP2 KECCAK256 SLOAD PUSH1 0x1 PUSH1 0x1 PUSH1 0xA0 SHL SUB SWAP1 DUP2 AND SWAP1 DUP4 AND ISZERO PUSH2 0xF2E JUMPI PUSH2 0xF2E DUP2 DUP5 DUP7 PUSH2 0x1894 JUMP JUMPDEST PUSH1 0x1 PUSH1 0x1 PUSH1 0xA0 SHL SUB DUP2 AND ISZERO PUSH2 0xF68 JUMPI PUSH2 0xF49 PUSH0 DUP6 PUSH0 DUP1 PUSH2 0x175C JUMP JUMPDEST PUSH1 0x1 PUSH1 0x1 PUSH1 0xA0 SHL SUB DUP2 AND PUSH0 SWAP1 DUP2 MSTORE PUSH1 0x3 PUSH1 0x20 MSTORE PUSH1 0x40 SWAP1 KECCAK256 DUP1 SLOAD PUSH0 NOT ADD SWAP1 SSTORE JUMPDEST PUSH1 0x1 PUSH1 0x1 PUSH1 0xA0 SHL SUB DUP6 AND ISZERO PUSH2 0xF96 JUMPI PUSH1 0x1 PUSH1 0x1 PUSH1 0xA0 SHL SUB DUP6 AND PUSH0 SWAP1 DUP2 MSTORE PUSH1 0x3 PUSH1 0x20 MSTORE PUSH1 0x40 SWAP1 KECCAK256 DUP1 SLOAD PUSH1 0x1 ADD SWAP1 SSTORE JUMPDEST PUSH0 DUP5 DUP2 MSTORE PUSH1 0x2 PUSH1 0x20 MSTORE PUSH1 0x40 DUP1 DUP3 KECCAK256 DUP1 SLOAD PUSH1 0x1 PUSH1 0x1 PUSH1 0xA0 SHL SUB NOT AND PUSH1 0x1 PUSH1 0x1 PUSH1 0xA0 SHL SUB DUP10 DUP2 AND SWAP2 DUP3 OR SWAP1 SWAP3 SSTORE SWAP2 MLOAD DUP8 SWAP4 SWAP2 DUP6 AND SWAP2 PUSH32 0xDDF252AD1BE2C89B69C2B068FC378DAA952BA7F163C4A11628F55A4DF523B3EF SWAP2 LOG4 SWAP1 POP JUMPDEST SWAP4 SWAP3 POP POP POP JUMP JUMPDEST PUSH1 0x8 SLOAD PUSH1 0x1 PUSH1 0x1 PUSH1 0xA0 SHL SUB AND CALLER EQ PUSH2 0x73B JUMPI PUSH1 0x40 MLOAD PUSH4 0x118CDAA7 PUSH1 0xE0 SHL DUP2 MSTORE CALLER PUSH1 0x4 DUP3 ADD MSTORE PUSH1 0x24 ADD PUSH2 0x777 JUMP JUMPDEST PUSH2 0x2710 PUSH1 0x1 PUSH1 0x1 PUSH1 0x60 SHL SUB DUP3 AND DUP2 LT ISZERO PUSH2 0x1062 JUMPI PUSH1 0x40 MLOAD PUSH4 0x6F483D09 PUSH1 0xE0 SHL DUP2 MSTORE PUSH1 0x1 PUSH1 0x1 PUSH1 0x60 SHL SUB DUP4 AND PUSH1 0x4 DUP3 ADD MSTORE PUSH1 0x24 DUP2 ADD DUP3 SWAP1 MSTORE PUSH1 0x44 ADD PUSH2 0x777 JUMP JUMPDEST PUSH1 0x1 PUSH1 0x1 PUSH1 0xA0 SHL SUB DUP4 AND PUSH2 0x108B JUMPI PUSH1 0x40 MLOAD PUSH4 0x5B6CC805 PUSH1 0xE1 SHL DUP2 MSTORE PUSH0 PUSH1 0x4 DUP3 ADD MSTORE PUSH1 0x24 ADD PUSH2 0x777 JUMP JUMPDEST POP PUSH1 0x40 DUP1 MLOAD DUP1 DUP3 ADD SWAP1 SWAP2 MSTORE PUSH1 0x1 PUSH1 0x1 PUSH1 0xA0 SHL SUB SWAP1 SWAP3 AND DUP1 DUP4 MSTORE PUSH1 0x1 PUSH1 0x1 PUSH1 0x60 SHL SUB SWAP1 SWAP2 AND PUSH1 0x20 SWAP1 SWAP3 ADD DUP3 SWAP1 MSTORE PUSH1 0x1 PUSH1 0xA0 SHL SWAP1 SWAP2 MUL OR PUSH1 0x6 SSTORE JUMP JUMPDEST PUSH1 0x1 PUSH1 0x1 PUSH1 0xA0 SHL SUB DUP3 AND PUSH2 0x10F7 JUMPI PUSH1 0x40 MLOAD PUSH4 0xB611743 PUSH1 0xE3 SHL DUP2 MSTORE PUSH1 0x1 PUSH1 0x1 PUSH1 0xA0 SHL SUB DUP4 AND PUSH1 0x4 DUP3 ADD MSTORE PUSH1 0x24 ADD PUSH2 0x777 JUMP JUMPDEST PUSH1 0x1 PUSH1 0x1 PUSH1 0xA0 SHL SUB DUP4 DUP2 AND PUSH0 DUP2 DUP2 MSTORE PUSH1 0x5 PUSH1 0x20 SWAP1 DUP2 MSTORE PUSH1 0x40 DUP1 DUP4 KECCAK256 SWAP5 DUP8 AND DUP1 DUP5 MSTORE SWAP5 DUP3 MSTORE SWAP2 DUP3 SWAP1 KECCAK256 DUP1 SLOAD PUSH1 0xFF NOT AND DUP7 ISZERO ISZERO SWAP1 DUP2 OR SWAP1 SWAP2 SSTORE SWAP2 MLOAD SWAP2 DUP3 MSTORE PUSH32 0x17307EAB39AB6107E8899845AD3D59BD9653F200F220920489CA2B5937696C31 SWAP2 ADD PUSH1 0x40 MLOAD DUP1 SWAP2 SUB SWAP1 LOG3 POP POP POP JUMP JUMPDEST PUSH1 0x1 PUSH1 0x1 PUSH1 0xA0 SHL SUB DUP4 AND EXTCODESIZE ISZERO PUSH2 0x1284 JUMPI PUSH1 0x40 MLOAD PUSH4 0xA85BD01 PUSH1 0xE1 SHL DUP2 MSTORE PUSH1 0x1 PUSH1 0x1 PUSH1 0xA0 SHL SUB DUP5 AND SWAP1 PUSH4 0x150B7A02 SWAP1 PUSH2 0x11A5 SWAP1 DUP9 SWAP1 DUP9 SWAP1 DUP8 SWAP1 DUP8 SWAP1 PUSH1 0x4 ADD PUSH2 0x29D3 JUMP JUMPDEST PUSH1 0x20 PUSH1 0x40 MLOAD DUP1 DUP4 SUB DUP2 PUSH0 DUP8 GAS CALL SWAP3 POP POP POP DUP1 ISZERO PUSH2 0x11DF JUMPI POP PUSH1 0x40 DUP1 MLOAD PUSH1 0x1F RETURNDATASIZE SWAP1 DUP2 ADD PUSH1 0x1F NOT AND DUP3 ADD SWAP1 SWAP3 MSTORE PUSH2 0x11DC SWAP2 DUP2 ADD SWAP1 PUSH2 0x2A05 JUMP JUMPDEST PUSH1 0x1 JUMPDEST PUSH2 0x1246 JUMPI RETURNDATASIZE DUP1 DUP1 ISZERO PUSH2 0x120C JUMPI PUSH1 0x40 MLOAD SWAP2 POP PUSH1 0x1F NOT PUSH1 0x3F RETURNDATASIZE ADD AND DUP3 ADD PUSH1 0x40 MSTORE RETURNDATASIZE DUP3 MSTORE RETURNDATASIZE PUSH0 PUSH1 0x20 DUP5 ADD RETURNDATACOPY PUSH2 0x1211 JUMP JUMPDEST PUSH1 0x60 SWAP2 POP JUMPDEST POP DUP1 MLOAD PUSH0 SUB PUSH2 0x123E JUMPI PUSH1 0x40 MLOAD PUSH4 0x32505749 PUSH1 0xE1 SHL DUP2 MSTORE PUSH1 0x1 PUSH1 0x1 PUSH1 0xA0 SHL SUB DUP6 AND PUSH1 0x4 DUP3 ADD MSTORE PUSH1 0x24 ADD PUSH2 0x777 JUMP JUMPDEST DUP1 MLOAD DUP2 PUSH1 0x20 ADD REVERT JUMPDEST PUSH1 0x1 PUSH1 0x1 PUSH1 0xE0 SHL SUB NOT DUP2 AND PUSH4 0xA85BD01 PUSH1 0xE1 SHL EQ PUSH2 0x1282 JUMPI PUSH1 0x40 MLOAD PUSH4 0x32505749 PUSH1 0xE1 SHL DUP2 MSTORE PUSH1 0x1 PUSH1 0x1 PUSH1 0xA0 SHL SUB DUP6 AND PUSH1 0x4 DUP3 ADD MSTORE PUSH1 0x24 ADD PUSH2 0x777 JUMP JUMPDEST POP JUMPDEST POP POP POP POP POP JUMP JUMPDEST PUSH0 DUP2 ISZERO DUP1 ISZERO SWAP1 PUSH2 0x129C JUMPI POP PUSH1 0xC SLOAD DUP3 LT JUMPDEST DUP1 ISZERO PUSH2 0x5B1 JUMPI POP POP PUSH0 SWAP1 DUP2 MSTORE PUSH1 0x2 PUSH1 0x20 MSTORE PUSH1 0x40 SWAP1 KECCAK256 SLOAD PUSH1 0x1 PUSH1 0x1 PUSH1 0xA0 SHL SUB AND ISZERO ISZERO SWAP1 JUMP JUMPDEST PUSH1 0x60 PUSH2 0x5B1 DUP3 PUSH1 0x40 MLOAD DUP1 PUSH1 0x60 ADD PUSH1 0x40 MSTORE DUP1 PUSH1 0x40 DUP2 MSTORE PUSH1 0x20 ADD PUSH2 0x2AF1 PUSH1 0x40 SWAP2 CODECOPY PUSH1 0x1 PUSH2 0x18F8 JUMP JUMPDEST PUSH0 DUP1 PUSH2 0x12F1 DUP4 PUSH2 0x1A73 JUMP JUMPDEST SWAP1 POP PUSH2 0x12FB PUSH2 0x20DB JUMP JUMPDEST PUSH0 DUP1 JUMPDEST PUSH1 0x40 DUP2 PUSH1 0xFF AND LT ISZERO PUSH2 0x1422 JUMPI DUP4 MLOAD PUSH1 0xFF DUP3 AND PUSH1 0x40 DUP2 LT PUSH2 0x1320 JUMPI PUSH2 0x1320 PUSH2 0x255F JUMP JUMPDEST PUSH1 0x20 MUL ADD MLOAD PUSH1 0xFF AND ISZERO ISZERO DUP1 PUSH2 0x134C JUMPI POP DUP3 MLOAD PUSH1 0xFF DUP3 AND PUSH1 0x40 DUP2 LT PUSH2 0x1346 JUMPI PUSH2 0x1346 PUSH2 0x255F JUMP JUMPDEST PUSH1 0x20 MUL ADD MLOAD JUMPDEST PUSH2 0x141A JUMPI PUSH2 0x1358 PUSH2 0x20DB JUMP JUMPDEST PUSH2 0x1364 DUP6 DUP6 DUP4 DUP6 PUSH2 0x1BA0 JUMP JUMPDEST ISZERO PUSH2 0x1418 JUMPI DUP3 PUSH2 0x1373 DUP2 PUSH2 0x2A20 JUMP JUMPDEST SWAP4 POP POP PUSH0 JUMPDEST PUSH1 0x4 DUP2 PUSH1 0xFF AND LT ISZERO PUSH2 0x1416 JUMPI PUSH0 JUMPDEST PUSH1 0x40 DUP2 PUSH1 0xFF AND LT ISZERO PUSH2 0x140D JUMPI DUP3 DUP3 PUSH1 0xFF AND PUSH1 0x4 DUP2 LT PUSH2 0x13A7 JUMPI PUSH2 0x13A7 PUSH2 0x255F JUMP JUMPDEST PUSH1 0x20 MUL ADD MLOAD DUP2 PUSH1 0xFF AND PUSH1 0x40 DUP2 LT PUSH2 0x13C0 JUMPI PUSH2 0x13C0 PUSH2 0x255F JUMP JUMPDEST PUSH1 0x20 MUL ADD MLOAD ISZERO PUSH2 0x1405 JUMPI PUSH1 0x1 DUP7 DUP4 PUSH1 0xFF AND PUSH1 0x4 DUP2 LT PUSH2 0x13E1 JUMPI PUSH2 0x13E1 PUSH2 0x255F JUMP JUMPDEST PUSH1 0x20 MUL ADD MLOAD DUP3 PUSH1 0xFF AND PUSH1 0x40 DUP2 LT PUSH2 0x13FA JUMPI PUSH2 0x13FA PUSH2 0x255F JUMP JUMPDEST SWAP2 ISZERO ISZERO PUSH1 0x20 SWAP1 SWAP3 MUL ADD MSTORE JUMPDEST PUSH1 0x1 ADD PUSH2 0x1386 JUMP JUMPDEST POP PUSH1 0x1 ADD PUSH2 0x1378 JUMP JUMPDEST POP JUMPDEST POP JUMPDEST PUSH1 0x1 ADD PUSH2 0x12FE JUMP JUMPDEST POP SWAP5 SWAP4 POP POP POP POP JUMP JUMPDEST PUSH1 0x60 DUP2 PUSH1 0xFF AND PUSH1 0x64 SUB PUSH2 0x1458 JUMPI POP POP PUSH1 0x40 DUP1 MLOAD DUP1 DUP3 ADD SWAP1 SWAP2 MSTORE PUSH1 0x4 DUP2 MSTORE PUSH4 0x312E303 PUSH1 0xE4 SHL PUSH1 0x20 DUP3 ADD MSTORE SWAP1 JUMP JUMPDEST PUSH1 0xA DUP3 PUSH1 0xFF AND LT ISZERO PUSH2 0x1496 JUMPI PUSH2 0x1470 DUP3 PUSH1 0xFF AND PUSH2 0x14B2 JUMP JUMPDEST PUSH1 0x40 MLOAD PUSH1 0x20 ADD PUSH2 0x1480 SWAP2 SWAP1 PUSH2 0x2A3E JUMP JUMPDEST PUSH1 0x40 MLOAD PUSH1 0x20 DUP2 DUP4 SUB SUB DUP2 MSTORE SWAP1 PUSH1 0x40 MSTORE SWAP1 POP SWAP2 SWAP1 POP JUMP JUMPDEST PUSH2 0x14A2 DUP3 PUSH1 0xFF AND PUSH2 0x14B2 JUMP JUMPDEST PUSH1 0x40 MLOAD PUSH1 0x20 ADD PUSH2 0x1480 SWAP2 SWAP1 PUSH2 0x2A55 JUMP JUMPDEST PUSH1 0x60 PUSH0 PUSH2 0x14BE DUP4 PUSH2 0x1E00 JUMP JUMPDEST PUSH1 0x1 ADD SWAP1 POP PUSH0 DUP2 PUSH8 0xFFFFFFFFFFFFFFFF DUP2 GT ISZERO PUSH2 0x14DD JUMPI PUSH2 0x14DD PUSH2 0x235C JUMP JUMPDEST PUSH1 0x40 MLOAD SWAP1 DUP1 DUP3 MSTORE DUP1 PUSH1 0x1F ADD PUSH1 0x1F NOT AND PUSH1 0x20 ADD DUP3 ADD PUSH1 0x40 MSTORE DUP1 ISZERO PUSH2 0x1507 JUMPI PUSH1 0x20 DUP3 ADD DUP2 DUP1 CALLDATASIZE DUP4 CALLDATACOPY ADD SWAP1 POP JUMPDEST POP SWAP1 POP DUP2 DUP2 ADD PUSH1 0x20 ADD JUMPDEST PUSH0 NOT ADD PUSH16 0x181899199A1A9B1B9C1CB0B131B232B3 PUSH1 0x81 SHL PUSH1 0xA DUP7 MOD BYTE DUP2 MSTORE8 PUSH1 0xA DUP6 DIV SWAP5 POP DUP5 PUSH2 0x1511 JUMPI POP SWAP4 SWAP3 POP POP POP JUMP JUMPDEST PUSH1 0x60 DUP3 PUSH0 PUSH2 0x1551 DUP5 PUSH1 0x2 PUSH2 0x2509 JUMP JUMPDEST PUSH2 0x155C SWAP1 PUSH1 0x2 PUSH2 0x24E3 JUMP JUMPDEST PUSH8 0xFFFFFFFFFFFFFFFF DUP2 GT ISZERO PUSH2 0x1574 JUMPI PUSH2 0x1574 PUSH2 0x235C JUMP JUMPDEST PUSH1 0x40 MLOAD SWAP1 DUP1 DUP3 MSTORE DUP1 PUSH1 0x1F ADD PUSH1 0x1F NOT AND PUSH1 0x20 ADD DUP3 ADD PUSH1 0x40 MSTORE DUP1 ISZERO PUSH2 0x159E JUMPI PUSH1 0x20 DUP3 ADD DUP2 DUP1 CALLDATASIZE DUP4 CALLDATACOPY ADD SWAP1 POP JUMPDEST POP SWAP1 POP PUSH1 0x3 PUSH1 0xFC SHL DUP2 PUSH0 DUP2 MLOAD DUP2 LT PUSH2 0x15B8 JUMPI PUSH2 0x15B8 PUSH2 0x255F JUMP JUMPDEST PUSH1 0x20 ADD ADD SWAP1 PUSH1 0x1 PUSH1 0x1 PUSH1 0xF8 SHL SUB NOT AND SWAP1 DUP2 PUSH0 BYTE SWAP1 MSTORE8 POP PUSH1 0xF PUSH1 0xFB SHL DUP2 PUSH1 0x1 DUP2 MLOAD DUP2 LT PUSH2 0x15E6 JUMPI PUSH2 0x15E6 PUSH2 0x255F JUMP JUMPDEST PUSH1 0x20 ADD ADD SWAP1 PUSH1 0x1 PUSH1 0x1 PUSH1 0xF8 SHL SUB NOT AND SWAP1 DUP2 PUSH0 BYTE SWAP1 MSTORE8 POP PUSH0 PUSH2 0x1608 DUP6 PUSH1 0x2 PUSH2 0x2509 JUMP JUMPDEST PUSH2 0x1613 SWAP1 PUSH1 0x1 PUSH2 0x24E3 JUMP JUMPDEST SWAP1 POP JUMPDEST PUSH1 0x1 DUP2 GT ISZERO PUSH2 0x168A JUMPI PUSH16 0x181899199A1A9B1B9C1CB0B131B232B3 PUSH1 0x81 SHL DUP4 PUSH1 0xF AND PUSH1 0x10 DUP2 LT PUSH2 0x1647 JUMPI PUSH2 0x1647 PUSH2 0x255F JUMP JUMPDEST BYTE PUSH1 0xF8 SHL DUP3 DUP3 DUP2 MLOAD DUP2 LT PUSH2 0x165D JUMPI PUSH2 0x165D PUSH2 0x255F JUMP JUMPDEST PUSH1 0x20 ADD ADD SWAP1 PUSH1 0x1 PUSH1 0x1 PUSH1 0xF8 SHL SUB NOT AND SWAP1 DUP2 PUSH0 BYTE SWAP1 MSTORE8 POP PUSH1 0x4 SWAP3 SWAP1 SWAP3 SHR SWAP2 PUSH2 0x1683 DUP2 PUSH2 0x2A6B JUMP JUMPDEST SWAP1 POP PUSH2 0x1616 JUMP JUMPDEST POP DUP2 ISZERO PUSH2 0x16B4 JUMPI PUSH1 0x40 MLOAD PUSH4 0xE22E27EB PUSH1 0xE0 SHL DUP2 MSTORE PUSH1 0x4 DUP2 ADD DUP7 SWAP1 MSTORE PUSH1 0x24 DUP2 ADD DUP6 SWAP1 MSTORE PUSH1 0x44 ADD PUSH2 0x777 JUMP JUMPDEST SWAP5 SWAP4 POP POP POP POP JUMP JUMPDEST PUSH1 0x8 DUP1 SLOAD PUSH1 0x1 PUSH1 0x1 PUSH1 0xA0 SHL SUB DUP4 DUP2 AND PUSH1 0x1 PUSH1 0x1 PUSH1 0xA0 SHL SUB NOT DUP4 AND DUP2 OR SWAP1 SWAP4 SSTORE PUSH1 0x40 MLOAD SWAP2 AND SWAP2 SWAP1 DUP3 SWAP1 PUSH32 0x8BE0079C531659141344CD1FD0A4F28419497F9722A3DAAFE3B4186F6B6457E0 SWAP1 PUSH0 SWAP1 LOG3 POP POP JUMP JUMPDEST PUSH0 PUSH1 0x1 PUSH1 0x1 PUSH1 0xE0 SHL SUB NOT DUP3 AND PUSH4 0x80AC58CD PUSH1 0xE0 SHL EQ DUP1 PUSH2 0x173D JUMPI POP PUSH1 0x1 PUSH1 0x1 PUSH1 0xE0 SHL SUB NOT DUP3 AND PUSH4 0x5B5E139F PUSH1 0xE0 SHL EQ JUMPDEST DUP1 PUSH2 0x5B1 JUMPI POP PUSH4 0x1FFC9A7 PUSH1 0xE0 SHL PUSH1 0x1 PUSH1 0x1 PUSH1 0xE0 SHL SUB NOT DUP4 AND EQ PUSH2 0x5B1 JUMP JUMPDEST DUP1 DUP1 PUSH2 0x1770 JUMPI POP PUSH1 0x1 PUSH1 0x1 PUSH1 0xA0 SHL SUB DUP3 AND ISZERO ISZERO JUMPDEST ISZERO PUSH2 0x1831 JUMPI PUSH0 PUSH2 0x177F DUP5 PUSH2 0xD7D JUMP JUMPDEST SWAP1 POP PUSH1 0x1 PUSH1 0x1 PUSH1 0xA0 SHL SUB DUP4 AND ISZERO DUP1 ISZERO SWAP1 PUSH2 0x17AB JUMPI POP DUP3 PUSH1 0x1 PUSH1 0x1 PUSH1 0xA0 SHL SUB AND DUP2 PUSH1 0x1 PUSH1 0x1 PUSH1 0xA0 SHL SUB AND EQ ISZERO JUMPDEST DUP1 ISZERO PUSH2 0x17BE JUMPI POP PUSH2 0x17BC DUP2 DUP5 PUSH2 0xCF2 JUMP JUMPDEST ISZERO JUMPDEST ISZERO PUSH2 0x17E7 JUMPI PUSH1 0x40 MLOAD PUSH4 0xA9FBF51F PUSH1 0xE0 SHL DUP2 MSTORE PUSH1 0x1 PUSH1 0x1 PUSH1 0xA0 SHL SUB DUP5 AND PUSH1 0x4 DUP3 ADD MSTORE PUSH1 0x24 ADD PUSH2 0x777 JUMP JUMPDEST DUP2 ISZERO PUSH2 0x182F JUMPI DUP4 DUP6 PUSH1 0x1 PUSH1 0x1 PUSH1 0xA0 SHL SUB AND DUP3 PUSH1 0x1 PUSH1 0x1 PUSH1 0xA0 SHL SUB AND PUSH32 0x8C5BE1E5EBEC7D5BD14F71427D1E84F3DD0314C0F7B2291E5B200AC8C7C3B925 PUSH1 0x40 MLOAD PUSH1 0x40 MLOAD DUP1 SWAP2 SUB SWAP1 LOG4 JUMPDEST POP JUMPDEST POP POP PUSH0 SWAP1 DUP2 MSTORE PUSH1 0x4 PUSH1 0x20 MSTORE PUSH1 0x40 SWAP1 KECCAK256 DUP1 SLOAD PUSH1 0x1 PUSH1 0x1 PUSH1 0xA0 SHL SUB NOT AND PUSH1 0x1 PUSH1 0x1 PUSH1 0xA0 SHL SUB SWAP3 SWAP1 SWAP3 AND SWAP2 SWAP1 SWAP2 OR SWAP1 SSTORE JUMP JUMPDEST PUSH0 JUMPDEST DUP2 ISZERO PUSH2 0x1878 JUMPI PUSH0 NOT DUP3 ADD SWAP1 SWAP2 AND SWAP1 PUSH1 0x1 ADD PUSH2 0x1862 JUMP JUMPDEST SWAP2 SWAP1 POP JUMP JUMPDEST PUSH2 0x1887 DUP4 DUP4 PUSH2 0x1ED7 JUMP JUMPDEST PUSH2 0x90F CALLER PUSH0 DUP6 DUP6 DUP6 PUSH2 0x1163 JUMP JUMPDEST PUSH2 0x189F DUP4 DUP4 DUP4 PUSH2 0x1F38 JUMP JUMPDEST PUSH2 0x90F JUMPI PUSH1 0x1 PUSH1 0x1 PUSH1 0xA0 SHL SUB DUP4 AND PUSH2 0x18CD JUMPI PUSH1 0x40 MLOAD PUSH4 0x7E273289 PUSH1 0xE0 SHL DUP2 MSTORE PUSH1 0x4 DUP2 ADD DUP3 SWAP1 MSTORE PUSH1 0x24 ADD PUSH2 0x777 JUMP JUMPDEST PUSH1 0x40 MLOAD PUSH4 0x177E802F PUSH1 0xE0 SHL DUP2 MSTORE PUSH1 0x1 PUSH1 0x1 PUSH1 0xA0 SHL SUB DUP4 AND PUSH1 0x4 DUP3 ADD MSTORE PUSH1 0x24 DUP2 ADD DUP3 SWAP1 MSTORE PUSH1 0x44 ADD PUSH2 0x777 JUMP JUMPDEST PUSH1 0x60 DUP4 MLOAD PUSH0 SUB PUSH2 0x1916 JUMPI POP PUSH1 0x40 DUP1 MLOAD PUSH1 0x20 DUP2 ADD SWAP1 SWAP2 MSTORE PUSH0 DUP2 MSTORE PUSH2 0xFEF JUMP JUMPDEST PUSH0 DUP3 PUSH2 0x1946 JUMPI PUSH1 0x3 DUP6 MLOAD PUSH1 0x4 PUSH2 0x192C SWAP2 SWAP1 PUSH2 0x2509 JUMP JUMPDEST PUSH2 0x1937 SWAP1 PUSH1 0x2 PUSH2 0x24E3 JUMP JUMPDEST PUSH2 0x1941 SWAP2 SWAP1 PUSH2 0x2534 JUMP JUMPDEST PUSH2 0x196B JUMP JUMPDEST PUSH1 0x3 DUP6 MLOAD PUSH1 0x2 PUSH2 0x1956 SWAP2 SWAP1 PUSH2 0x24E3 JUMP JUMPDEST PUSH2 0x1960 SWAP2 SWAP1 PUSH2 0x2534 JUMP JUMPDEST PUSH2 0x196B SWAP1 PUSH1 0x4 PUSH2 0x2509 JUMP JUMPDEST SWAP1 POP PUSH0 DUP2 PUSH8 0xFFFFFFFFFFFFFFFF DUP2 GT ISZERO PUSH2 0x1987 JUMPI PUSH2 0x1987 PUSH2 0x235C JUMP JUMPDEST PUSH1 0x40 MLOAD SWAP1 DUP1 DUP3 MSTORE DUP1 PUSH1 0x1F ADD PUSH1 0x1F NOT AND PUSH1 0x20 ADD DUP3 ADD PUSH1 0x40 MSTORE DUP1 ISZERO PUSH2 0x19B1 JUMPI PUSH1 0x20 DUP3 ADD DUP2 DUP1 CALLDATASIZE DUP4 CALLDATACOPY ADD SWAP1 POP JUMPDEST POP SWAP1 POP PUSH1 0x1 DUP6 ADD PUSH1 0x20 DUP3 ADD DUP8 DUP9 MLOAD DUP10 ADD PUSH1 0x20 DUP2 ADD DUP1 MLOAD PUSH0 DUP3 MSTORE JUMPDEST DUP3 DUP5 LT ISZERO PUSH2 0x1A26 JUMPI PUSH1 0x3 DUP5 ADD SWAP4 POP DUP4 MLOAD PUSH1 0x3F DUP2 PUSH1 0x12 SHR AND DUP8 ADD MLOAD DUP7 MSTORE8 PUSH1 0x1 DUP7 ADD SWAP6 POP PUSH1 0x3F DUP2 PUSH1 0xC SHR AND DUP8 ADD MLOAD DUP7 MSTORE8 PUSH1 0x1 DUP7 ADD SWAP6 POP PUSH1 0x3F DUP2 PUSH1 0x6 SHR AND DUP8 ADD MLOAD DUP7 MSTORE8 PUSH1 0x1 DUP7 ADD SWAP6 POP PUSH1 0x3F DUP2 AND DUP8 ADD MLOAD DUP7 MSTORE8 POP PUSH1 0x1 DUP6 ADD SWAP5 POP PUSH2 0x19CB JUMP JUMPDEST SWAP1 MSTORE POP POP DUP6 ISZERO PUSH2 0x1A67 JUMPI PUSH1 0x3 DUP9 MLOAD MOD PUSH1 0x1 DUP2 EQ PUSH2 0x1A4A JUMPI PUSH1 0x2 DUP2 EQ PUSH2 0x1A5D JUMPI PUSH2 0x1A65 JUMP JUMPDEST PUSH1 0x3D PUSH1 0x1 DUP4 SUB MSTORE8 PUSH1 0x3D PUSH1 0x2 DUP4 SUB MSTORE8 PUSH2 0x1A65 JUMP JUMPDEST PUSH1 0x3D PUSH1 0x1 DUP4 SUB MSTORE8 JUMPDEST POP JUMPDEST POP SWAP1 SWAP7 SWAP6 POP POP POP POP POP POP JUMP JUMPDEST PUSH2 0x1A7B PUSH2 0x2108 JUMP JUMPDEST PUSH0 JUMPDEST PUSH1 0x20 DUP2 LT ISZERO PUSH2 0x1B9A JUMPI PUSH0 PUSH1 0x4 DUP5 DUP4 PUSH1 0x20 DUP2 LT PUSH2 0x1A9B JUMPI PUSH2 0x1A9B PUSH2 0x255F JUMP JUMPDEST BYTE SWAP1 SHR SWAP1 POP PUSH0 DUP5 DUP4 PUSH1 0x20 DUP2 LT PUSH2 0x1AB3 JUMPI PUSH2 0x1AB3 PUSH2 0x255F JUMP JUMPDEST BYTE PUSH1 0xF AND SWAP1 POP PUSH0 JUMPDEST PUSH1 0x4 DUP2 PUSH1 0xFF AND LT ISZERO PUSH2 0x1B8C JUMPI PUSH2 0x1AD2 DUP2 PUSH1 0x3 PUSH2 0x2A80 JUMP JUMPDEST PUSH1 0xFF AND DUP4 PUSH1 0xFF AND SWAP1 SHR PUSH1 0x1 AND DUP6 DUP3 PUSH1 0xFF AND PUSH1 0x4 DUP2 LT PUSH2 0x1AF3 JUMPI PUSH2 0x1AF3 PUSH2 0x255F JUMP JUMPDEST PUSH1 0x20 MUL ADD MLOAD PUSH2 0x1B03 DUP7 PUSH1 0x2 PUSH2 0x2509 JUMP JUMPDEST PUSH1 0x40 DUP2 LT PUSH2 0x1B13 JUMPI PUSH2 0x1B13 PUSH2 0x255F JUMP JUMPDEST PUSH1 0xFF SWAP1 SWAP3 AND PUSH1 0x20 SWAP3 SWAP1 SWAP3 MUL ADD MSTORE PUSH2 0x1B2B DUP2 PUSH1 0x3 PUSH2 0x2A80 JUMP JUMPDEST PUSH1 0xFF AND DUP3 PUSH1 0xFF AND SWAP1 SHR PUSH1 0x1 AND DUP6 DUP3 PUSH1 0xFF AND PUSH1 0x4 DUP2 LT PUSH2 0x1B4C JUMPI PUSH2 0x1B4C PUSH2 0x255F JUMP JUMPDEST PUSH1 0x20 MUL ADD MLOAD PUSH2 0x1B5C DUP7 PUSH1 0x2 PUSH2 0x2509 JUMP JUMPDEST PUSH2 0x1B67 SWAP1 PUSH1 0x1 PUSH2 0x24E3 JUMP JUMPDEST PUSH1 0x40 DUP2 LT PUSH2 0x1B77 JUMPI PUSH2 0x1B77 PUSH2 0x255F JUMP JUMPDEST PUSH1 0xFF SWAP1 SWAP3 AND PUSH1 0x20 SWAP3 SWAP1 SWAP3 MUL ADD MSTORE PUSH1 0x1 ADD PUSH2 0x1ABB JUMP JUMPDEST POP POP POP DUP1 PUSH1 0x1 ADD SWAP1 POP PUSH2 0x1A7D JUMP JUMPDEST POP SWAP2 SWAP1 POP JUMP JUMPDEST PUSH0 PUSH2 0x1BA9 PUSH2 0x2135 JUMP JUMPDEST PUSH2 0x1BB1 PUSH2 0x2135 JUMP JUMPDEST PUSH0 DUP1 DUP4 MSTORE PUSH1 0xFF DUP6 AND DUP3 MSTORE PUSH1 0x1 JUMPDEST DUP1 DUP3 LT ISZERO PUSH2 0x1DF4 JUMPI PUSH0 DUP5 DUP4 PUSH2 0x100 DUP2 LT PUSH2 0x1BDA JUMPI PUSH2 0x1BDA PUSH2 0x255F JUMP JUMPDEST PUSH1 0x20 MUL ADD MLOAD SWAP1 POP PUSH0 DUP5 DUP5 PUSH2 0x100 DUP2 LT PUSH2 0x1BF5 JUMPI PUSH2 0x1BF5 PUSH2 0x255F JUMP JUMPDEST PUSH1 0x20 MUL ADD MLOAD SWAP1 POP DUP4 PUSH2 0x1C06 DUP2 PUSH2 0x2547 JUMP JUMPDEST SWAP5 POP POP DUP9 DUP3 PUSH2 0xFFFF AND PUSH1 0x4 DUP2 LT PUSH2 0x1C1F JUMPI PUSH2 0x1C1F PUSH2 0x255F JUMP JUMPDEST PUSH1 0x20 MUL ADD MLOAD DUP2 PUSH2 0xFFFF AND PUSH1 0x40 DUP2 LT PUSH2 0x1C39 JUMPI PUSH2 0x1C39 PUSH2 0x255F JUMP JUMPDEST PUSH1 0x20 MUL ADD MLOAD DUP1 PUSH2 0x1C7F JUMPI POP DUP11 DUP3 PUSH2 0xFFFF AND PUSH1 0x4 DUP2 LT PUSH2 0x1C5A JUMPI PUSH2 0x1C5A PUSH2 0x255F JUMP JUMPDEST PUSH1 0x20 MUL ADD MLOAD DUP2 PUSH2 0xFFFF AND PUSH1 0x40 DUP2 LT PUSH2 0x1C74 JUMPI PUSH2 0x1C74 PUSH2 0x255F JUMP JUMPDEST PUSH1 0x20 MUL ADD MLOAD PUSH1 0xFF AND ISZERO ISZERO JUMPDEST ISZERO PUSH2 0x1C8B JUMPI POP POP PUSH2 0x1BBE JUMP JUMPDEST PUSH1 0x1 DUP10 DUP4 PUSH2 0xFFFF AND PUSH1 0x4 DUP2 LT PUSH2 0x1CA3 JUMPI PUSH2 0x1CA3 PUSH2 0x255F JUMP JUMPDEST PUSH1 0x20 MUL ADD MLOAD DUP3 PUSH2 0xFFFF AND PUSH1 0x40 DUP2 LT PUSH2 0x1CBD JUMPI PUSH2 0x1CBD PUSH2 0x255F JUMP JUMPDEST SWAP2 ISZERO ISZERO PUSH1 0x20 SWAP1 SWAP3 MUL ADD MSTORE PUSH2 0xFFFF DUP3 AND PUSH1 0x3 SUB PUSH2 0x1CD8 JUMPI PUSH1 0x1 SWAP7 POP JUMPDEST PUSH0 PUSH1 0x40 MLOAD DUP1 PUSH1 0x80 ADD PUSH1 0x40 MSTORE DUP1 DUP5 PUSH1 0x1 PUSH2 0x1CF1 SWAP2 SWAP1 PUSH2 0x2A99 JUMP JUMPDEST PUSH2 0xFFFF AND PUSH2 0xFFFF AND DUP2 MSTORE PUSH1 0x20 ADD DUP5 PUSH2 0xFFFF AND PUSH0 EQ PUSH2 0x1D19 JUMPI PUSH2 0x1D14 PUSH1 0x1 DUP7 PUSH2 0x2AB3 JUMP JUMPDEST PUSH2 0x1D1B JUMP JUMPDEST PUSH0 JUMPDEST PUSH2 0xFFFF SWAP1 DUP2 AND DUP3 MSTORE DUP6 DUP2 AND PUSH1 0x20 DUP1 DUP5 ADD DUP3 SWAP1 MSTORE PUSH1 0x40 SWAP4 DUP5 ADD SWAP2 SWAP1 SWAP2 MSTORE DUP3 MLOAD PUSH1 0x80 DUP2 ADD DUP5 MSTORE SWAP2 DUP7 AND DUP1 DUP4 MSTORE SWAP1 DUP3 ADD MSTORE SWAP2 SWAP3 POP PUSH0 SWAP2 SWAP1 DUP2 DUP2 ADD SWAP1 PUSH2 0x1D5E DUP7 PUSH1 0x1 PUSH2 0x2A99 JUMP JUMPDEST PUSH2 0x1D68 SWAP2 SWAP1 PUSH2 0x2ACD JUMP JUMPDEST PUSH2 0xFFFF AND DUP2 MSTORE PUSH1 0x20 ADD PUSH1 0x40 PUSH2 0x1D7E DUP7 PUSH1 0x3F PUSH2 0x2A99 JUMP JUMPDEST PUSH2 0x1D88 SWAP2 SWAP1 PUSH2 0x2ACD JUMP JUMPDEST PUSH2 0xFFFF AND SWAP1 MSTORE SWAP1 POP PUSH0 JUMPDEST PUSH1 0x4 DUP2 PUSH1 0xFF AND LT ISZERO PUSH2 0x1DEA JUMPI PUSH2 0x1DE0 DUP15 DUP15 DUP15 DUP13 DUP13 DUP9 DUP8 PUSH1 0xFF AND PUSH1 0x4 DUP2 LT PUSH2 0x1DBB JUMPI PUSH2 0x1DBB PUSH2 0x255F JUMP JUMPDEST PUSH1 0x20 MUL ADD MLOAD DUP9 DUP9 PUSH1 0xFF AND PUSH1 0x4 DUP2 LT PUSH2 0x1DD5 JUMPI PUSH2 0x1DD5 PUSH2 0x255F JUMP JUMPDEST PUSH1 0x20 MUL ADD MLOAD DUP14 PUSH2 0x1F99 JUMP JUMPDEST SWAP6 POP PUSH1 0x1 ADD PUSH2 0x1D92 JUMP JUMPDEST POP POP POP POP POP PUSH2 0x1BBE JUMP JUMPDEST POP POP POP POP SWAP5 SWAP4 POP POP POP POP JUMP JUMPDEST PUSH0 DUP1 PUSH19 0x184F03E93FF9F4DAA797ED6E38ED64BF6A1F01 PUSH1 0x40 SHL DUP4 LT PUSH2 0x1E3E JUMPI PUSH19 0x184F03E93FF9F4DAA797ED6E38ED64BF6A1F01 PUSH1 0x40 SHL DUP4 DIV SWAP3 POP PUSH1 0x40 ADD JUMPDEST PUSH14 0x4EE2D6D415B85ACEF8100000000 DUP4 LT PUSH2 0x1E6A JUMPI PUSH14 0x4EE2D6D415B85ACEF8100000000 DUP4 DIV SWAP3 POP PUSH1 0x20 ADD JUMPDEST PUSH7 0x2386F26FC10000 DUP4 LT PUSH2 0x1E88 JUMPI PUSH7 0x2386F26FC10000 DUP4 DIV SWAP3 POP PUSH1 0x10 ADD JUMPDEST PUSH4 0x5F5E100 DUP4 LT PUSH2 0x1EA0 JUMPI PUSH4 0x5F5E100 DUP4 DIV SWAP3 POP PUSH1 0x8 ADD JUMPDEST PUSH2 0x2710 DUP4 LT PUSH2 0x1EB4 JUMPI PUSH2 0x2710 DUP4 DIV SWAP3 POP PUSH1 0x4 ADD JUMPDEST PUSH1 0x64 DUP4 LT PUSH2 0x1EC6 JUMPI PUSH1 0x64 DUP4 DIV SWAP3 POP PUSH1 0x2 ADD JUMPDEST PUSH1 0xA DUP4 LT PUSH2 0x5B1 JUMPI PUSH1 0x1 ADD SWAP3 SWAP2 POP POP JUMP JUMPDEST PUSH1 0x1 PUSH1 0x1 PUSH1 0xA0 SHL SUB DUP3 AND PUSH2 0x1F00 JUMPI PUSH1 0x40 MLOAD PUSH4 0x32505749 PUSH1 0xE1 SHL DUP2 MSTORE PUSH0 PUSH1 0x4 DUP3 ADD MSTORE PUSH1 0x24 ADD PUSH2 0x777 JUMP JUMPDEST PUSH0 PUSH2 0x1F0C DUP4 DUP4 PUSH0 PUSH2 0xF02 JUMP JUMPDEST SWAP1 POP PUSH1 0x1 PUSH1 0x1 PUSH1 0xA0 SHL SUB DUP2 AND ISZERO PUSH2 0x90F JUMPI PUSH1 0x40 MLOAD PUSH4 0x39E35637 PUSH1 0xE1 SHL DUP2 MSTORE PUSH0 PUSH1 0x4 DUP3 ADD MSTORE PUSH1 0x24 ADD PUSH2 0x777 JUMP JUMPDEST PUSH0 PUSH1 0x1 PUSH1 0x1 PUSH1 0xA0 SHL SUB DUP4 AND ISZERO DUP1 ISZERO SWAP1 PUSH2 0x16B4 JUMPI POP DUP3 PUSH1 0x1 PUSH1 0x1 PUSH1 0xA0 SHL SUB AND DUP5 PUSH1 0x1 PUSH1 0x1 PUSH1 0xA0 SHL SUB AND EQ DUP1 PUSH2 0x1F71 JUMPI POP PUSH2 0x1F71 DUP5 DUP5 PUSH2 0xCF2 JUMP JUMPDEST DUP1 PUSH2 0x16B4 JUMPI POP POP PUSH0 SWAP1 DUP2 MSTORE PUSH1 0x4 PUSH1 0x20 MSTORE PUSH1 0x40 SWAP1 KECCAK256 SLOAD PUSH1 0x1 PUSH1 0x1 PUSH1 0xA0 SHL SUB SWAP1 DUP2 AND SWAP2 AND EQ SWAP2 SWAP1 POP JUMP JUMPDEST PUSH0 PUSH1 0x4 DUP5 PUSH2 0xFFFF AND LT ISZERO DUP1 PUSH2 0x1FB3 JUMPI POP PUSH1 0x40 DUP4 PUSH2 0xFFFF AND LT ISZERO JUMPDEST ISZERO PUSH2 0x1FBF JUMPI POP DUP1 PUSH2 0x20CF JUMP JUMPDEST DUP7 DUP5 PUSH2 0xFFFF AND PUSH1 0x4 DUP2 LT PUSH2 0x1FD5 JUMPI PUSH2 0x1FD5 PUSH2 0x255F JUMP JUMPDEST PUSH1 0x20 MUL ADD MLOAD DUP4 PUSH2 0xFFFF AND PUSH1 0x40 DUP2 LT PUSH2 0x1FEF JUMPI PUSH2 0x1FEF PUSH2 0x255F JUMP JUMPDEST PUSH1 0x20 MUL ADD MLOAD DUP1 PUSH2 0x2030 JUMPI POP DUP8 DUP5 PUSH2 0xFFFF AND PUSH1 0x4 DUP2 LT PUSH2 0x2010 JUMPI PUSH2 0x2010 PUSH2 0x255F JUMP JUMPDEST PUSH1 0x20 MUL ADD MLOAD DUP4 PUSH2 0xFFFF AND PUSH1 0x40 DUP2 LT PUSH2 0x202A JUMPI PUSH2 0x202A PUSH2 0x255F JUMP JUMPDEST PUSH1 0x20 MUL ADD MLOAD JUMPDEST DUP1 PUSH2 0x2071 JUMPI POP DUP9 DUP5 PUSH2 0xFFFF AND PUSH1 0x4 DUP2 LT PUSH2 0x204C JUMPI PUSH2 0x204C PUSH2 0x255F JUMP JUMPDEST PUSH1 0x20 MUL ADD MLOAD DUP4 PUSH2 0xFFFF AND PUSH1 0x40 DUP2 LT PUSH2 0x2066 JUMPI PUSH2 0x2066 PUSH2 0x255F JUMP JUMPDEST PUSH1 0x20 MUL ADD MLOAD PUSH1 0xFF AND ISZERO ISZERO JUMPDEST ISZERO PUSH2 0x207D JUMPI POP DUP1 PUSH2 0x20CF JUMP JUMPDEST DUP4 DUP7 DUP4 PUSH2 0x100 DUP2 LT PUSH2 0x2091 JUMPI PUSH2 0x2091 PUSH2 0x255F JUMP JUMPDEST PUSH2 0xFFFF SWAP1 SWAP3 AND PUSH1 0x20 SWAP3 SWAP1 SWAP3 MUL ADD MSTORE DUP3 DUP6 DUP4 PUSH2 0x100 DUP2 LT PUSH2 0x20B3 JUMPI PUSH2 0x20B3 PUSH2 0x255F JUMP JUMPDEST PUSH2 0xFFFF SWAP1 SWAP3 AND PUSH1 0x20 SWAP3 SWAP1 SWAP3 MUL ADD MSTORE PUSH2 0x20CC DUP3 PUSH1 0x1 PUSH2 0x24E3 JUMP JUMPDEST SWAP1 POP JUMPDEST SWAP9 SWAP8 POP POP POP POP POP POP POP POP JUMP JUMPDEST PUSH1 0x40 MLOAD DUP1 PUSH1 0x80 ADD PUSH1 0x40 MSTORE DUP1 PUSH1 0x4 SWAP1 JUMPDEST PUSH2 0x20F2 PUSH2 0x2155 JUMP JUMPDEST DUP2 MSTORE PUSH1 0x20 ADD SWAP1 PUSH1 0x1 SWAP1 SUB SWAP1 DUP2 PUSH2 0x20EA JUMPI SWAP1 POP POP SWAP1 JUMP JUMPDEST PUSH1 0x40 MLOAD DUP1 PUSH1 0x80 ADD PUSH1 0x40 MSTORE DUP1 PUSH1 0x4 SWAP1 JUMPDEST PUSH2 0x211F PUSH2 0x2155 JUMP JUMPDEST DUP2 MSTORE PUSH1 0x20 ADD SWAP1 PUSH1 0x1 SWAP1 SUB SWAP1 DUP2 PUSH2 0x2117 JUMPI SWAP1 POP POP SWAP1 JUMP JUMPDEST PUSH1 0x40 MLOAD DUP1 PUSH2 0x2000 ADD PUSH1 0x40 MSTORE DUP1 PUSH2 0x100 SWAP1 PUSH1 0x20 DUP3 MUL DUP1 CALLDATASIZE DUP4 CALLDATACOPY POP SWAP2 SWAP3 SWAP2 POP POP JUMP JUMPDEST PUSH1 0x40 MLOAD DUP1 PUSH2 0x800 ADD PUSH1 0x40 MSTORE DUP1 PUSH1 0x40 SWAP1 PUSH1 0x20 DUP3 MUL DUP1 CALLDATASIZE DUP4 CALLDATACOPY POP SWAP2 SWAP3 SWAP2 POP POP JUMP JUMPDEST PUSH1 0x1 PUSH1 0x1 PUSH1 0xE0 SHL SUB NOT DUP2 AND DUP2 EQ PUSH2 0x8F2 JUMPI PUSH0 DUP1 REVERT JUMPDEST PUSH0 PUSH1 0x20 DUP3 DUP5 SUB SLT ISZERO PUSH2 0x2199 JUMPI PUSH0 DUP1 REVERT JUMPDEST DUP2 CALLDATALOAD PUSH2 0xFEF DUP2 PUSH2 0x2174 JUMP JUMPDEST PUSH0 DUP2 MLOAD DUP1 DUP5 MSTORE DUP1 PUSH1 0x20 DUP5 ADD PUSH1 0x20 DUP7 ADD MCOPY PUSH0 PUSH1 0x20 DUP3 DUP7 ADD ADD MSTORE PUSH1 0x20 PUSH1 0x1F NOT PUSH1 0x1F DUP4 ADD AND DUP6 ADD ADD SWAP2 POP POP SWAP3 SWAP2 POP POP JUMP JUMPDEST PUSH1 0x20 DUP2 MSTORE PUSH0 PUSH2 0xFEF PUSH1 0x20 DUP4 ADD DUP5 PUSH2 0x21A4 JUMP JUMPDEST PUSH0 PUSH1 0x20 DUP3 DUP5 SUB SLT ISZERO PUSH2 0x21F4 JUMPI PUSH0 DUP1 REVERT JUMPDEST POP CALLDATALOAD SWAP2 SWAP1 POP JUMP JUMPDEST DUP1 CALLDATALOAD PUSH1 0x1 PUSH1 0x1 PUSH1 0xA0 SHL SUB DUP2 AND DUP2 EQ PUSH2 0x1878 JUMPI PUSH0 DUP1 REVERT JUMPDEST PUSH0 DUP1 PUSH1 0x40 DUP4 DUP6 SUB SLT ISZERO PUSH2 0x2222 JUMPI PUSH0 DUP1 REVERT JUMPDEST PUSH2 0x222B DUP4 PUSH2 0x21FB JUMP JUMPDEST SWAP5 PUSH1 0x20 SWAP4 SWAP1 SWAP4 ADD CALLDATALOAD SWAP4 POP POP POP JUMP JUMPDEST PUSH0 DUP1 PUSH0 PUSH1 0x60 DUP5 DUP7 SUB SLT ISZERO PUSH2 0x224B JUMPI PUSH0 DUP1 REVERT JUMPDEST PUSH2 0x2254 DUP5 PUSH2 0x21FB JUMP JUMPDEST SWAP3 POP PUSH2 0x2262 PUSH1 0x20 DUP6 ADD PUSH2 0x21FB JUMP JUMPDEST SWAP3 SWAP6 SWAP3 SWAP5 POP POP POP PUSH1 0x40 SWAP2 SWAP1 SWAP2 ADD CALLDATALOAD SWAP1 JUMP JUMPDEST PUSH0 DUP1 PUSH1 0x40 DUP4 DUP6 SUB SLT ISZERO PUSH2 0x2284 JUMPI PUSH0 DUP1 REVERT JUMPDEST POP POP DUP1 CALLDATALOAD SWAP3 PUSH1 0x20 SWAP1 SWAP2 ADD CALLDATALOAD SWAP2 POP JUMP JUMPDEST PUSH0 PUSH1 0x20 DUP3 DUP5 SUB SLT ISZERO PUSH2 0x22A3 JUMPI PUSH0 DUP1 REVERT JUMPDEST PUSH2 0xFEF DUP3 PUSH2 0x21FB JUMP JUMPDEST PUSH1 0x20 DUP1 DUP3 MSTORE DUP3 MLOAD DUP3 DUP3 ADD DUP2 SWAP1 MSTORE PUSH0 SWAP2 DUP5 ADD SWAP1 PUSH1 0x40 DUP5 ADD SWAP1 DUP4 JUMPDEST DUP2 DUP2 LT ISZERO PUSH2 0x22E3 JUMPI DUP4 MLOAD DUP4 MSTORE PUSH1 0x20 SWAP4 DUP5 ADD SWAP4 SWAP1 SWAP3 ADD SWAP2 PUSH1 0x1 ADD PUSH2 0x22C5 JUMP JUMPDEST POP SWAP1 SWAP6 SWAP5 POP POP POP POP POP JUMP JUMPDEST PUSH0 DUP1 PUSH1 0x40 DUP4 DUP6 SUB SLT ISZERO PUSH2 0x22FF JUMPI PUSH0 DUP1 REVERT JUMPDEST PUSH2 0x2308 DUP4 PUSH2 0x21FB JUMP JUMPDEST SWAP2 POP PUSH1 0x20 DUP4 ADD CALLDATALOAD PUSH1 0x1 PUSH1 0x1 PUSH1 0x60 SHL SUB DUP2 AND DUP2 EQ PUSH2 0x2323 JUMPI PUSH0 DUP1 REVERT JUMPDEST DUP1 SWAP2 POP POP SWAP3 POP SWAP3 SWAP1 POP JUMP JUMPDEST PUSH0 DUP1 PUSH1 0x40 DUP4 DUP6 SUB SLT ISZERO PUSH2 0x233F JUMPI PUSH0 DUP1 REVERT JUMPDEST PUSH2 0x2348 DUP4 PUSH2 0x21FB JUMP JUMPDEST SWAP2 POP PUSH1 0x20 DUP4 ADD CALLDATALOAD DUP1 ISZERO ISZERO DUP2 EQ PUSH2 0x2323 JUMPI PUSH0 DUP1 REVERT JUMPDEST PUSH4 0x4E487B71 PUSH1 0xE0 SHL PUSH0 MSTORE PUSH1 0x41 PUSH1 0x4 MSTORE PUSH1 0x24 PUSH0 REVERT JUMPDEST PUSH1 0x40 MLOAD PUSH1 0x1F DUP3 ADD PUSH1 0x1F NOT AND DUP2 ADD PUSH8 0xFFFFFFFFFFFFFFFF DUP2 GT DUP3 DUP3 LT OR ISZERO PUSH2 0x2399 JUMPI PUSH2 0x2399 PUSH2 0x235C JUMP JUMPDEST PUSH1 0x40 MSTORE SWAP2 SWAP1 POP JUMP JUMPDEST PUSH0 PUSH8 0xFFFFFFFFFFFFFFFF DUP3 GT ISZERO PUSH2 0x23BA JUMPI PUSH2 0x23BA PUSH2 0x235C JUMP JUMPDEST POP PUSH1 0x1F ADD PUSH1 0x1F NOT AND PUSH1 0x20 ADD SWAP1 JUMP JUMPDEST PUSH0 DUP1 PUSH0 DUP1 PUSH1 0x80 DUP6 DUP8 SUB SLT ISZERO PUSH2 0x23DB JUMPI PUSH0 DUP1 REVERT JUMPDEST PUSH2 0x23E4 DUP6 PUSH2 0x21FB JUMP JUMPDEST SWAP4 POP PUSH2 0x23F2 PUSH1 0x20 DUP7 ADD PUSH2 0x21FB JUMP JUMPDEST SWAP3 POP PUSH1 0x40 DUP6 ADD CALLDATALOAD SWAP2 POP PUSH1 0x60 DUP6 ADD CALLDATALOAD PUSH8 0xFFFFFFFFFFFFFFFF DUP2 GT ISZERO PUSH2 0x2414 JUMPI PUSH0 DUP1 REVERT JUMPDEST DUP6 ADD PUSH1 0x1F DUP2 ADD DUP8 SGT PUSH2 0x2424 JUMPI PUSH0 DUP1 REVERT JUMPDEST DUP1 CALLDATALOAD PUSH2 0x2437 PUSH2 0x2432 DUP3 PUSH2 0x23A1 JUMP JUMPDEST PUSH2 0x2370 JUMP JUMPDEST DUP2 DUP2 MSTORE DUP9 PUSH1 0x20 DUP4 DUP6 ADD ADD GT ISZERO PUSH2 0x244B JUMPI PUSH0 DUP1 REVERT JUMPDEST DUP2 PUSH1 0x20 DUP5 ADD PUSH1 0x20 DUP4 ADD CALLDATACOPY PUSH0 PUSH1 0x20 DUP4 DUP4 ADD ADD MSTORE DUP1 SWAP4 POP POP POP POP SWAP3 SWAP6 SWAP2 SWAP5 POP SWAP3 POP JUMP JUMPDEST PUSH0 DUP1 PUSH1 0x40 DUP4 DUP6 SUB SLT ISZERO PUSH2 0x247D JUMPI PUSH0 DUP1 REVERT JUMPDEST PUSH2 0x2486 DUP4 PUSH2 0x21FB JUMP JUMPDEST SWAP2 POP PUSH2 0x2494 PUSH1 0x20 DUP5 ADD PUSH2 0x21FB JUMP JUMPDEST SWAP1 POP SWAP3 POP SWAP3 SWAP1 POP JUMP JUMPDEST PUSH1 0x1 DUP2 DUP2 SHR SWAP1 DUP3 AND DUP1 PUSH2 0x24B1 JUMPI PUSH1 0x7F DUP3 AND SWAP2 POP JUMPDEST PUSH1 0x20 DUP3 LT DUP2 SUB PUSH2 0x1B9A JUMPI PUSH4 0x4E487B71 PUSH1 0xE0 SHL PUSH0 MSTORE PUSH1 0x22 PUSH1 0x4 MSTORE PUSH1 0x24 PUSH0 REVERT JUMPDEST PUSH4 0x4E487B71 PUSH1 0xE0 SHL PUSH0 MSTORE PUSH1 0x11 PUSH1 0x4 MSTORE PUSH1 0x24 PUSH0 REVERT JUMPDEST DUP1 DUP3 ADD DUP1 DUP3 GT ISZERO PUSH2 0x5B1 JUMPI PUSH2 0x5B1 PUSH2 0x24CF JUMP JUMPDEST DUP2 DUP2 SUB DUP2 DUP2 GT ISZERO PUSH2 0x5B1 JUMPI PUSH2 0x5B1 PUSH2 0x24CF JUMP JUMPDEST DUP1 DUP3 MUL DUP2 ISZERO DUP3 DUP3 DIV DUP5 EQ OR PUSH2 0x5B1 JUMPI PUSH2 0x5B1 PUSH2 0x24CF JUMP JUMPDEST PUSH4 0x4E487B71 PUSH1 0xE0 SHL PUSH0 MSTORE PUSH1 0x12 PUSH1 0x4 MSTORE PUSH1 0x24 PUSH0 REVERT JUMPDEST PUSH0 DUP3 PUSH2 0x2542 JUMPI PUSH2 0x2542 PUSH2 0x2520 JUMP JUMPDEST POP DIV SWAP1 JUMP JUMPDEST PUSH0 PUSH1 0x1 DUP3 ADD PUSH2 0x2558 JUMPI PUSH2 0x2558 PUSH2 0x24CF JUMP JUMPDEST POP PUSH1 0x1 ADD SWAP1 JUMP JUMPDEST PUSH4 0x4E487B71 PUSH1 0xE0 SHL PUSH0 MSTORE PUSH1 0x32 PUSH1 0x4 MSTORE PUSH1 0x24 PUSH0 REVERT JUMPDEST PUSH0 PUSH1 0x20 DUP3 DUP5 SUB SLT ISZERO PUSH2 0x2583 JUMPI PUSH0 DUP1 REVERT JUMPDEST DUP2 MLOAD PUSH8 0xFFFFFFFFFFFFFFFF DUP2 GT ISZERO PUSH2 0x2599 JUMPI PUSH0 DUP1 REVERT JUMPDEST DUP3 ADD PUSH1 0x1F DUP2 ADD DUP5 SGT PUSH2 0x25A9 JUMPI PUSH0 DUP1 REVERT JUMPDEST DUP1 MLOAD PUSH2 0x25B7 PUSH2 0x2432 DUP3 PUSH2 0x23A1 JUMP JUMPDEST DUP2 DUP2 MSTORE DUP6 PUSH1 0x20 DUP4 DUP6 ADD ADD GT ISZERO PUSH2 0x25CB JUMPI PUSH0 DUP1 REVERT JUMPDEST DUP2 PUSH1 0x20 DUP5 ADD PUSH1 0x20 DUP4 ADD MCOPY PUSH0 SWAP2 DUP2 ADD PUSH1 0x20 ADD SWAP2 SWAP1 SWAP2 MSTORE SWAP5 SWAP4 POP POP POP POP JUMP JUMPDEST PUSH0 DUP2 MLOAD DUP1 PUSH1 0x20 DUP5 ADD DUP6 MCOPY PUSH0 SWAP4 ADD SWAP3 DUP4 MSTORE POP SWAP1 SWAP2 SWAP1 POP JUMP JUMPDEST PUSH32 0x7B202274726169745F74797065223A224576656E6E657373222C202276616C75 DUP2 MSTORE PUSH4 0x32911D11 PUSH1 0xE1 SHL PUSH1 0x20 DUP3 ADD MSTORE PUSH0 PUSH2 0x263D PUSH1 0x24 DUP4 ADD DUP7 PUSH2 0x25E8 JUMP JUMPDEST PUSH4 0x8881F4B PUSH1 0xE2 SHL DUP2 MSTORE PUSH32 0x7B202274726169745F74797065223A225061737361676573222C202276616C75 PUSH1 0x4 DUP3 ADD MSTORE PUSH4 0x32911D11 PUSH1 0xE1 SHL PUSH1 0x24 DUP3 ADD MSTORE PUSH2 0x2687 PUSH1 0x28 DUP3 ADD DUP7 PUSH2 0x25E8 JUMP JUMPDEST PUSH4 0x8881F4B PUSH1 0xE2 SHL DUP2 MSTORE PUSH32 0x7B202274726169745F74797065223A22536F757263652068617368222C202276 PUSH1 0x4 DUP3 ADD MSTORE PUSH7 0x30B63AB2911D11 PUSH1 0xC9 SHL PUSH1 0x24 DUP3 ADD MSTORE SWAP1 POP PUSH2 0x26D6 PUSH1 0x2B DUP3 ADD DUP6 PUSH2 0x25E8 JUMP JUMPDEST PUSH3 0x22207D PUSH1 0xE8 SHL DUP2 MSTORE PUSH1 0x3 ADD SWAP7 SWAP6 POP POP POP POP POP POP JUMP JUMPDEST PUSH19 0x7B226E616D65223A22486173684A696E672023 PUSH1 0x68 SHL DUP2 MSTORE PUSH0 PUSH2 0x2713 PUSH1 0x13 DUP4 ADD DUP7 PUSH2 0x25E8 JUMP JUMPDEST PUSH2 0x88B PUSH1 0xF2 SHL DUP2 MSTORE PUSH32 0x226465736372697074696F6E223A22486173684A696E6720697320612066756C PUSH1 0x2 DUP3 ADD MSTORE PUSH32 0x6C79206F6E2D636861696E206D616E64616C613A20612064657465726D696E69 PUSH1 0x22 DUP3 ADD MSTORE PUSH32 0x7374696320676C79706820776865726520656E74726F7079206265636F6D6573 PUSH1 0x42 DUP3 ADD MSTORE PUSH32 0x20666F726D2E2041203235362D6269742063727970746F677261706869632073 PUSH1 0x62 DUP3 ADD MSTORE PUSH32 0x65656420756E666F6C647320696E746F2073656C662D636F6E7461696E656420 PUSH1 0x82 DUP3 ADD MSTORE PUSH32 0x535647206172742C20666F6C6C6F77696E67207468652076697375616C207072 PUSH1 0xA2 DUP3 ADD MSTORE PUSH32 0x696E6369706C6573206F66207468652049204368696E672E204E6F2049504653 PUSH1 0xC2 DUP3 ADD MSTORE PUSH32 0x2E204E6F20736572766572732E204F6E6C7920457468657265756D2E222C0000 PUSH1 0xE2 DUP3 ADD MSTORE PUSH32 0x2263726561746F72223A2244617461536174747661222C000000000000000000 PUSH2 0x100 DUP3 ADD MSTORE PUSH32 0x2265787465726E616C5F75726C223A2268747470733A2F2F6769746875622E63 PUSH2 0x117 DUP3 ADD MSTORE PUSH32 0x6F6D2F446174615361747476612F686173686A696E672D6E6674222C00000000 PUSH2 0x137 DUP3 ADD MSTORE PUSH32 0x226C6963656E7365223A2243432042592D4E4320342E30202B2048617368204A PUSH2 0x153 DUP3 ADD MSTORE PUSH32 0x696E6720436F6D6D65726369616C204C6963656E73652076312E30222C000000 PUSH2 0x173 DUP3 ADD MSTORE PUSH32 0x22696D616765223A22646174613A696D6167652F7376672B786D6C3B62617365 PUSH2 0x190 DUP3 ADD MSTORE PUSH3 0xD8D0B PUSH1 0xEA SHL PUSH2 0x1B0 DUP3 ADD MSTORE PUSH2 0x2998 PUSH2 0x298A PUSH2 0x2984 PUSH2 0x296A PUSH2 0x295C PUSH2 0x1B3 DUP7 ADD DUP11 PUSH2 0x25E8 JUMP JUMPDEST PUSH2 0x88B PUSH1 0xF2 SHL DUP2 MSTORE PUSH1 0x2 ADD SWAP1 JUMP JUMPDEST PUSH14 0x2261747472696275746573223A5B PUSH1 0x90 SHL DUP2 MSTORE PUSH1 0xE ADD SWAP1 JUMP JUMPDEST DUP7 PUSH2 0x25E8 JUMP JUMPDEST PUSH2 0x5D7D PUSH1 0xF0 SHL DUP2 MSTORE PUSH1 0x2 ADD SWAP1 JUMP JUMPDEST SWAP7 SWAP6 POP POP POP POP POP POP JUMP JUMPDEST PUSH32 0x646174613A6170706C69636174696F6E2F6A736F6E3B6261736536342C000000 DUP2 MSTORE PUSH0 PUSH2 0xFEF PUSH1 0x1D DUP4 ADD DUP5 PUSH2 0x25E8 JUMP JUMPDEST PUSH1 0x1 PUSH1 0x1 PUSH1 0xA0 SHL SUB DUP6 DUP2 AND DUP3 MSTORE DUP5 AND PUSH1 0x20 DUP3 ADD MSTORE PUSH1 0x40 DUP2 ADD DUP4 SWAP1 MSTORE PUSH1 0x80 PUSH1 0x60 DUP3 ADD DUP2 SWAP1 MSTORE PUSH0 SWAP1 PUSH2 0x2998 SWAP1 DUP4 ADD DUP5 PUSH2 0x21A4 JUMP JUMPDEST PUSH0 PUSH1 0x20 DUP3 DUP5 SUB SLT ISZERO PUSH2 0x2A15 JUMPI PUSH0 DUP1 REVERT JUMPDEST DUP2 MLOAD PUSH2 0xFEF DUP2 PUSH2 0x2174 JUMP JUMPDEST PUSH0 PUSH1 0xFF DUP3 AND PUSH1 0xFF DUP2 SUB PUSH2 0x2A35 JUMPI PUSH2 0x2A35 PUSH2 0x24CF JUMP JUMPDEST PUSH1 0x1 ADD SWAP3 SWAP2 POP POP JUMP JUMPDEST PUSH3 0x302E3 PUSH1 0xEC SHL DUP2 MSTORE PUSH0 PUSH2 0xFEF PUSH1 0x3 DUP4 ADD DUP5 PUSH2 0x25E8 JUMP JUMPDEST PUSH2 0x1817 PUSH1 0xF1 SHL DUP2 MSTORE PUSH0 PUSH2 0xFEF PUSH1 0x2 DUP4 ADD DUP5 PUSH2 0x25E8 JUMP JUMPDEST PUSH0 DUP2 PUSH2 0x2A79 JUMPI PUSH2 0x2A79 PUSH2 0x24CF JUMP JUMPDEST POP PUSH0 NOT ADD SWAP1 JUMP JUMPDEST PUSH1 0xFF DUP3 DUP2 AND DUP3 DUP3 AND SUB SWAP1 DUP2 GT ISZERO PUSH2 0x5B1 JUMPI PUSH2 0x5B1 PUSH2 0x24CF JUMP JUMPDEST PUSH2 0xFFFF DUP2 DUP2 AND DUP4 DUP3 AND ADD SWAP1 DUP2 GT ISZERO PUSH2 0x5B1 JUMPI PUSH2 0x5B1 PUSH2 0x24CF JUMP JUMPDEST PUSH2 0xFFFF DUP3 DUP2 AND DUP3 DUP3 AND SUB SWAP1 DUP2 GT ISZERO PUSH2 0x5B1 JUMPI PUSH2 0x5B1 PUSH2 0x24CF JUMP JUMPDEST PUSH0 PUSH2 0xFFFF DUP4 AND DUP1 PUSH2 0x2AE0 JUMPI PUSH2 0x2AE0 PUSH2 0x2520 JUMP JUMPDEST DUP1 PUSH2 0xFFFF DUP5 AND MOD SWAP2 POP POP SWAP3 SWAP2 POP POP JUMP INVALID COINBASE TIMESTAMP NUMBER PREVRANDAO GASLIMIT CHAINID SELFBALANCE BASEFEE BLOBHASH BLOBBASEFEE 0x4B 0x4C 0x4D 0x4E 0x4F POP MLOAD MSTORE MSTORE8 SLOAD SSTORE JUMP JUMPI PC MSIZE GAS PUSH2 0x6263 PUSH5 0x6566676869 PUSH11 0x6B6C6D6E6F707172737475 PUSH23 0x7778797A303132333435363738392B2FA2646970667358 0x22 SLT KECCAK256 PUSH0 DELEGATECALL DUP13 PUSH4 0x8FFDC373 PUSH21 0x4E5446728C234B3BABBEEAAD1C1BBB0346D5D34D5 DUP8 SWAP9 PUSH5 0x736F6C6343 STOP ADDMOD BYTE STOP CALLER "
		},
		"gasEstimates": {
			"creation": {
				"codeDepositCost": "2222000",
				"executionCost": "infinite",
				"totalCost": "infinite"
			},
			"external": {
				"GENESIS_PRICE()": "283",
				"GENESIS_SUPPLY()": "305",
				"MAX_ROYALTY_BPS()": "305",
				"approve(address,uint256)": "31487",
				"balanceOf(address)": "2674",
				"contractBalance()": "283",
				"enableMinting()": "29490",
				"evenness(uint256)": "2495",
				"getApproved(uint256)": "infinite",
				"isApprovedForAll(address,address)": "infinite",
				"mint()": "infinite",
				"mintingEnabled()": "2343",
				"name()": "infinite",
				"owner()": "2375",
				"ownerOf(uint256)": "infinite",
				"renderer()": "infinite",
				"renounceOwnership()": "362",
				"royaltyInfo(uint256,uint256)": "5017",
				"safeTransferFrom(address,address,uint256)": "infinite",
				"safeTransferFrom(address,address,uint256,bytes)": "infinite",
				"setApprovalForAll(address,bool)": "26723",
				"setRoyalty(address,uint96)": "25005",
				"supportsInterface(bytes4)": "infinite",
				"symbol()": "infinite",
				"tokenURI(uint256)": "infinite",
				"tokensOfOwner(address)": "infinite",
				"totalSupply()": "2481",
				"transferFrom(address,address,uint256)": "infinite",
				"transferOwnership(address)": "28443",
				"withdraw()": "infinite"
			},
			"internal": {
				"_bfs(uint8[64] memory[4] memory,bool[64] memory[4] memory,bool[64] memory[4] memory,uint8)": "infinite",
				"_countPassages(bytes32)": "infinite",
				"_evennessLabel(uint8)": "infinite",
				"_existsLocal(uint256)": "4375",
				"_generateSeed(uint256)": "infinite",
				"_maybeEnqueue(uint8[64] memory[4] memory,bool[64] memory[4] memory,bool[64] memory[4] memory,uint16[256] memory,uint16[256] memory,uint16,uint16,uint256)": "infinite",
				"_popcount(uint256)": "infinite",
				"_storeEvenness(uint256,bytes32)": "infinite",
				"_toBitGrid(bytes32)": "infinite"
			}
		},
		"methodIdentifiers": {
			"GENESIS_PRICE()": "b85f3fb8",
			"GENESIS_SUPPLY()": "99ec6765",
			"MAX_ROYALTY_BPS()": "3dca40e6",
			"approve(address,uint256)": "095ea7b3",
			"balanceOf(address)": "70a08231",
			"contractBalance()": "8b7afe2e",
			"enableMinting()": "e797ec1b",
			"evenness(uint256)": "4c5d9cad",
			"getApproved(uint256)": "081812fc",
			"isApprovedForAll(address,address)": "e985e9c5",
			"mint()": "1249c58b",
			"mintingEnabled()": "9fd6db12",
			"name()": "06fdde03",
			"owner()": "8da5cb5b",
			"ownerOf(uint256)": "6352211e",
			"renderer()": "8ada6b0f",
			"renounceOwnership()": "715018a6",
			"royaltyInfo(uint256,uint256)": "2a55205a",
			"safeTransferFrom(address,address,uint256)": "42842e0e",
			"safeTransferFrom(address,address,uint256,bytes)": "b88d4fde",
			"setApprovalForAll(address,bool)": "a22cb465",
			"setRoyalty(address,uint96)": "8f2fc60b",
			"supportsInterface(bytes4)": "01ffc9a7",
			"symbol()": "95d89b41",
			"tokenURI(uint256)": "c87b56dd",
			"tokensOfOwner(address)": "8462151c",
			"totalSupply()": "18160ddd",
			"transferFrom(address,address,uint256)": "23b872dd",
			"transferOwnership(address)": "f2fde38b",
			"withdraw()": "3ccfd60b"
		}
	},
	"abi": [
		{
			"inputs": [
				{
					"internalType": "address",
					"name": "rendererAddr",
					"type": "address"
				}
			],
			"stateMutability": "nonpayable",
			"type": "constructor"
		},
		{
			"inputs": [
				{
					"internalType": "uint256",
					"name": "numerator",
					"type": "uint256"
				},
				{
					"internalType": "uint256",
					"name": "denominator",
					"type": "uint256"
				}
			],
			"name": "ERC2981InvalidDefaultRoyalty",
			"type": "error"
		},
		{
			"inputs": [
				{
					"internalType": "address",
					"name": "receiver",
					"type": "address"
				}
			],
			"name": "ERC2981InvalidDefaultRoyaltyReceiver",
			"type": "error"
		},
		{
			"inputs": [
				{
					"internalType": "uint256",
					"name": "tokenId",
					"type": "uint256"
				},
				{
					"internalType": "uint256",
					"name": "numerator",
					"type": "uint256"
				},
				{
					"internalType": "uint256",
					"name": "denominator",
					"type": "uint256"
				}
			],
			"name": "ERC2981InvalidTokenRoyalty",
			"type": "error"
		},
		{
			"inputs": [
				{
					"internalType": "uint256",
					"name": "tokenId",
					"type": "uint256"
				},
				{
					"internalType": "address",
					"name": "receiver",
					"type": "address"
				}
			],
			"name": "ERC2981InvalidTokenRoyaltyReceiver",
			"type": "error"
		},
		{
			"inputs": [
				{
					"internalType": "address",
					"name": "sender",
					"type": "address"
				},
				{
					"internalType": "uint256",
					"name": "tokenId",
					"type": "uint256"
				},
				{
					"internalType": "address",
					"name": "owner",
					"type": "address"
				}
			],
			"name": "ERC721IncorrectOwner",
			"type": "error"
		},
		{
			"inputs": [
				{
					"internalType": "address",
					"name": "operator",
					"type": "address"
				},
				{
					"internalType": "uint256",
					"name": "tokenId",
					"type": "uint256"
				}
			],
			"name": "ERC721InsufficientApproval",
			"type": "error"
		},
		{
			"inputs": [
				{
					"internalType": "address",
					"name": "approver",
					"type": "address"
				}
			],
			"name": "ERC721InvalidApprover",
			"type": "error"
		},
		{
			"inputs": [
				{
					"internalType": "address",
					"name": "operator",
					"type": "address"
				}
			],
			"name": "ERC721InvalidOperator",
			"type": "error"
		},
		{
			"inputs": [
				{
					"internalType": "address",
					"name": "owner",
					"type": "address"
				}
			],
			"name": "ERC721InvalidOwner",
			"type": "error"
		},
		{
			"inputs": [
				{
					"internalType": "address",
					"name": "receiver",
					"type": "address"
				}
			],
			"name": "ERC721InvalidReceiver",
			"type": "error"
		},
		{
			"inputs": [
				{
					"internalType": "address",
					"name": "sender",
					"type": "address"
				}
			],
			"name": "ERC721InvalidSender",
			"type": "error"
		},
		{
			"inputs": [
				{
					"internalType": "uint256",
					"name": "tokenId",
					"type": "uint256"
				}
			],
			"name": "ERC721NonexistentToken",
			"type": "error"
		},
		{
			"inputs": [],
			"name": "MintAlreadyEnabled",
			"type": "error"
		},
		{
			"inputs": [],
			"name": "MintDisabled",
			"type": "error"
		},
		{
			"inputs": [],
			"name": "NonexistentToken",
			"type": "error"
		},
		{
			"inputs": [
				{
					"internalType": "address",
					"name": "owner",
					"type": "address"
				}
			],
			"name": "OwnableInvalidOwner",
			"type": "error"
		},
		{
			"inputs": [
				{
					"internalType": "address",
					"name": "account",
					"type": "address"
				}
			],
			"name": "OwnableUnauthorizedAccount",
			"type": "error"
		},
		{
			"inputs": [],
			"name": "ReentrancyGuardReentrantCall",
			"type": "error"
		},
		{
			"inputs": [],
			"name": "SoldOut",
			"type": "error"
		},
		{
			"inputs": [
				{
					"internalType": "uint256",
					"name": "value",
					"type": "uint256"
				},
				{
					"internalType": "uint256",
					"name": "length",
					"type": "uint256"
				}
			],
			"name": "StringsInsufficientHexLength",
			"type": "error"
		},
		{
			"inputs": [],
			"name": "WrongMintFee",
			"type": "error"
		},
		{
			"anonymous": false,
			"inputs": [
				{
					"indexed": true,
					"internalType": "address",
					"name": "owner",
					"type": "address"
				},
				{
					"indexed": true,
					"internalType": "address",
					"name": "approved",
					"type": "address"
				},
				{
					"indexed": true,
					"internalType": "uint256",
					"name": "tokenId",
					"type": "uint256"
				}
			],
			"name": "Approval",
			"type": "event"
		},
		{
			"anonymous": false,
			"inputs": [
				{
					"indexed": true,
					"internalType": "address",
					"name": "owner",
					"type": "address"
				},
				{
					"indexed": true,
					"internalType": "address",
					"name": "operator",
					"type": "address"
				},
				{
					"indexed": false,
					"internalType": "bool",
					"name": "approved",
					"type": "bool"
				}
			],
			"name": "ApprovalForAll",
			"type": "event"
		},
		{
			"anonymous": false,
			"inputs": [
				{
					"indexed": false,
					"internalType": "string",
					"name": "site",
					"type": "string"
				},
				{
					"indexed": false,
					"internalType": "string",
					"name": "social",
					"type": "string"
				}
			],
			"name": "HashJingNFTDeployed",
			"type": "event"
		},
		{
			"anonymous": false,
			"inputs": [],
			"name": "MintingEnabled",
			"type": "event"
		},
		{
			"anonymous": false,
			"inputs": [
				{
					"indexed": true,
					"internalType": "address",
					"name": "previousOwner",
					"type": "address"
				},
				{
					"indexed": true,
					"internalType": "address",
					"name": "newOwner",
					"type": "address"
				}
			],
			"name": "OwnershipTransferred",
			"type": "event"
		},
		{
			"anonymous": false,
			"inputs": [
				{
					"indexed": true,
					"internalType": "address",
					"name": "from",
					"type": "address"
				},
				{
					"indexed": true,
					"internalType": "address",
					"name": "to",
					"type": "address"
				},
				{
					"indexed": true,
					"internalType": "uint256",
					"name": "tokenId",
					"type": "uint256"
				}
			],
			"name": "Transfer",
			"type": "event"
		},
		{
			"inputs": [],
			"name": "GENESIS_PRICE",
			"outputs": [
				{
					"internalType": "uint256",
					"name": "",
					"type": "uint256"
				}
			],
			"stateMutability": "view",
			"type": "function"
		},
		{
			"inputs": [],
			"name": "GENESIS_SUPPLY",
			"outputs": [
				{
					"internalType": "uint256",
					"name": "",
					"type": "uint256"
				}
			],
			"stateMutability": "view",
			"type": "function"
		},
		{
			"inputs": [],
			"name": "MAX_ROYALTY_BPS",
			"outputs": [
				{
					"internalType": "uint96",
					"name": "",
					"type": "uint96"
				}
			],
			"stateMutability": "view",
			"type": "function"
		},
		{
			"inputs": [
				{
					"internalType": "address",
					"name": "to",
					"type": "address"
				},
				{
					"internalType": "uint256",
					"name": "tokenId",
					"type": "uint256"
				}
			],
			"name": "approve",
			"outputs": [],
			"stateMutability": "nonpayable",
			"type": "function"
		},
		{
			"inputs": [
				{
					"internalType": "address",
					"name": "owner",
					"type": "address"
				}
			],
			"name": "balanceOf",
			"outputs": [
				{
					"internalType": "uint256",
					"name": "",
					"type": "uint256"
				}
			],
			"stateMutability": "view",
			"type": "function"
		},
		{
			"inputs": [],
			"name": "contractBalance",
			"outputs": [
				{
					"internalType": "uint256",
					"name": "",
					"type": "uint256"
				}
			],
			"stateMutability": "view",
			"type": "function"
		},
		{
			"inputs": [],
			"name": "enableMinting",
			"outputs": [],
			"stateMutability": "nonpayable",
			"type": "function"
		},
		{
			"inputs": [
				{
					"internalType": "uint256",
					"name": "",
					"type": "uint256"
				}
			],
			"name": "evenness",
			"outputs": [
				{
					"internalType": "uint8",
					"name": "",
					"type": "uint8"
				}
			],
			"stateMutability": "view",
			"type": "function"
		},
		{
			"inputs": [
				{
					"internalType": "uint256",
					"name": "tokenId",
					"type": "uint256"
				}
			],
			"name": "getApproved",
			"outputs": [
				{
					"internalType": "address",
					"name": "",
					"type": "address"
				}
			],
			"stateMutability": "view",
			"type": "function"
		},
		{
			"inputs": [
				{
					"internalType": "address",
					"name": "owner",
					"type": "address"
				},
				{
					"internalType": "address",
					"name": "operator",
					"type": "address"
				}
			],
			"name": "isApprovedForAll",
			"outputs": [
				{
					"internalType": "bool",
					"name": "",
					"type": "bool"
				}
			],
			"stateMutability": "view",
			"type": "function"
		},
		{
			"inputs": [],
			"name": "mint",
			"outputs": [],
			"stateMutability": "payable",
			"type": "function"
		},
		{
			"inputs": [],
			"name": "mintingEnabled",
			"outputs": [
				{
					"internalType": "bool",
					"name": "",
					"type": "bool"
				}
			],
			"stateMutability": "view",
			"type": "function"
		},
		{
			"inputs": [],
			"name": "name",
			"outputs": [
				{
					"internalType": "string",
					"name": "",
					"type": "string"
				}
			],
			"stateMutability": "view",
			"type": "function"
		},
		{
			"inputs": [],
			"name": "owner",
			"outputs": [
				{
					"internalType": "address",
					"name": "",
					"type": "address"
				}
			],
			"stateMutability": "view",
			"type": "function"
		},
		{
			"inputs": [
				{
					"internalType": "uint256",
					"name": "tokenId",
					"type": "uint256"
				}
			],
			"name": "ownerOf",
			"outputs": [
				{
					"internalType": "address",
					"name": "",
					"type": "address"
				}
			],
			"stateMutability": "view",
			"type": "function"
		},
		{
			"inputs": [],
			"name": "renderer",
			"outputs": [
				{
					"internalType": "contract IMandalaRenderer",
					"name": "",
					"type": "address"
				}
			],
			"stateMutability": "view",
			"type": "function"
		},
		{
			"inputs": [],
			"name": "renounceOwnership",
			"outputs": [],
			"stateMutability": "pure",
			"type": "function"
		},
		{
			"inputs": [
				{
					"internalType": "uint256",
					"name": "tokenId",
					"type": "uint256"
				},
				{
					"internalType": "uint256",
					"name": "salePrice",
					"type": "uint256"
				}
			],
			"name": "royaltyInfo",
			"outputs": [
				{
					"internalType": "address",
					"name": "receiver",
					"type": "address"
				},
				{
					"internalType": "uint256",
					"name": "amount",
					"type": "uint256"
				}
			],
			"stateMutability": "view",
			"type": "function"
		},
		{
			"inputs": [
				{
					"internalType": "address",
					"name": "from",
					"type": "address"
				},
				{
					"internalType": "address",
					"name": "to",
					"type": "address"
				},
				{
					"internalType": "uint256",
					"name": "tokenId",
					"type": "uint256"
				}
			],
			"name": "safeTransferFrom",
			"outputs": [],
			"stateMutability": "nonpayable",
			"type": "function"
		},
		{
			"inputs": [
				{
					"internalType": "address",
					"name": "from",
					"type": "address"
				},
				{
					"internalType": "address",
					"name": "to",
					"type": "address"
				},
				{
					"internalType": "uint256",
					"name": "tokenId",
					"type": "uint256"
				},
				{
					"internalType": "bytes",
					"name": "data",
					"type": "bytes"
				}
			],
			"name": "safeTransferFrom",
			"outputs": [],
			"stateMutability": "nonpayable",
			"type": "function"
		},
		{
			"inputs": [
				{
					"internalType": "address",
					"name": "operator",
					"type": "address"
				},
				{
					"internalType": "bool",
					"name": "approved",
					"type": "bool"
				}
			],
			"name": "setApprovalForAll",
			"outputs": [],
			"stateMutability": "nonpayable",
			"type": "function"
		},
		{
			"inputs": [
				{
					"internalType": "address",
					"name": "receiver",
					"type": "address"
				},
				{
					"internalType": "uint96",
					"name": "feeBps",
					"type": "uint96"
				}
			],
			"name": "setRoyalty",
			"outputs": [],
			"stateMutability": "nonpayable",
			"type": "function"
		},
		{
			"inputs": [
				{
					"internalType": "bytes4",
					"name": "iid",
					"type": "bytes4"
				}
			],
			"name": "supportsInterface",
			"outputs": [
				{
					"internalType": "bool",
					"name": "",
					"type": "bool"
				}
			],
			"stateMutability": "view",
			"type": "function"
		},
		{
			"inputs": [],
			"name": "symbol",
			"outputs": [
				{
					"internalType": "string",
					"name": "",
					"type": "string"
				}
			],
			"stateMutability": "view",
			"type": "function"
		},
		{
			"inputs": [
				{
					"internalType": "uint256",
					"name": "id",
					"type": "uint256"
				}
			],
			"name": "tokenURI",
			"outputs": [
				{
					"internalType": "string",
					"name": "",
					"type": "string"
				}
			],
			"stateMutability": "view",
			"type": "function"
		},
		{
			"inputs": [
				{
					"internalType": "address",
					"name": "owner",
					"type": "address"
				}
			],
			"name": "tokensOfOwner",
			"outputs": [
				{
					"internalType": "uint256[]",
					"name": "",
					"type": "uint256[]"
				}
			],
			"stateMutability": "view",
			"type": "function"
		},
		{
			"inputs": [],
			"name": "totalSupply",
			"outputs": [
				{
					"internalType": "uint256",
					"name": "",
					"type": "uint256"
				}
			],
			"stateMutability": "view",
			"type": "function"
		},
		{
			"inputs": [
				{
					"internalType": "address",
					"name": "from",
					"type": "address"
				},
				{
					"internalType": "address",
					"name": "to",
					"type": "address"
				},
				{
					"internalType": "uint256",
					"name": "tokenId",
					"type": "uint256"
				}
			],
			"name": "transferFrom",
			"outputs": [],
			"stateMutability": "nonpayable",
			"type": "function"
		},
		{
			"inputs": [
				{
					"internalType": "address",
					"name": "newOwner",
					"type": "address"
				}
			],
			"name": "transferOwnership",
			"outputs": [],
			"stateMutability": "nonpayable",
			"type": "function"
		},
		{
			"inputs": [],
			"name": "withdraw",
			"outputs": [],
			"stateMutability": "nonpayable",
			"type": "function"
		}
	]
}