{
	"data": {
		"bytecode": {
			"linkReferences": {},
			"object": "60a06040526001600b55600c805461ffff1916610100179055348015610023575f80fd5b50604051612e01380380612e01833981016040819052610042916101ec565b3360405180604001604052806008815260200167486173684a696e6760c01b81525060405180604001604052806002815260200161242560f11b815250815f908161008d91906102b1565b50600161009a82826102b1565b5050506001600160a01b0381166100cb57604051631e4fbdf760e01b81525f60048201526024015b60405180910390fd5b6100d4816100f9565b5060016009556001600160a01b0381166080526100f3336102ee61014a565b5061036b565b600880546001600160a01b038381166001600160a01b0319831681179093556040519116919082907f8be0079c531659141344cd1fd0a4f28419497f9722a3daafe3b4186f6b6457e0905f90a35050565b6127106001600160601b03821681101561018957604051636f483d0960e01b81526001600160601b0383166004820152602481018290526044016100c2565b6001600160a01b0383166101b257604051635b6cc80560e11b81525f60048201526024016100c2565b50604080518082019091526001600160a01b039092168083526001600160601b039091166020909201829052600160a01b90910217600655565b5f602082840312156101fc575f80fd5b81516001600160a01b0381168114610212575f80fd5b9392505050565b634e487b7160e01b5f52604160045260245ffd5b600181811c9082168061024157607f821691505b60208210810361025f57634e487b7160e01b5f52602260045260245ffd5b50919050565b601f8211156102ac57805f5260205f20601f840160051c8101602085101561028a5750805b601f840160051c820191505b818110156102a9575f8155600101610296565b50505b505050565b81516001600160401b038111156102ca576102ca610219565b6102de816102d8845461022d565b84610265565b6020601f821160018114610310575f83156102f95750848201515b5f19600385901b1c1916600184901b1784556102a9565b5f84815260208120601f198516915b8281101561033f578785015182556020948501946001909201910161031f565b508482101561035c57868401515f19600387901b60f8161c191681555b50505050600190811b01905550565b608051612a7761038a5f395f81816103fd0152610afe0152612a775ff3fe6080604052600436106101c5575f3560e01c8063715018a6116100f2578063a22cb46511610092578063cf8e629a11610062578063cf8e629a14610514578063e797ec1b14610528578063e985e9c51461053c578063f2fde38b1461055b575f80fd5b8063a22cb4651461049d578063b85f3fb8146104bc578063b88d4fde146104d6578063c87b56dd146104f5575f80fd5b80638f2fc60b116100cd5780638f2fc60b1461043c57806395d89b411461045b57806399ec67651461046f5780639fd6db1214610484575f80fd5b8063715018a6146103d85780638ada6b0f146103ec5780638da5cb5b1461041f575f80fd5b80632a55205a1161016857806342842e0e1161013857806342842e0e1461035c5780636352211e1461037b5780636447c35d1461039a57806370a08231146103b9575f80fd5b80632a55205a146102bf5780633ccfd60b146102fd5780633d141aa3146103115780633dca40e61461032f575f80fd5b8063095ea7b3116101a3578063095ea7b3146102555780631249c58b1461027657806318160ddd1461027e57806323b872dd146102a0575f80fd5b806301ffc9a7146101c957806306fdde03146101fd578063081812fc1461021e575b5f80fd5b3480156101d4575f80fd5b506101e86101e3366004612130565b61057a565b60405190151581526020015b60405180910390f35b348015610208575f80fd5b5061021161058a565b6040516101f49190612179565b348015610229575f80fd5b5061023d61023836600461218b565b610619565b6040516001600160a01b0390911681526020016101f4565b348015610260575f80fd5b5061027461026f3660046121b8565b610640565b005b61027461064f565b348015610289575f80fd5b50610292610747565b6040519081526020016101f4565b3480156102ab575f80fd5b506102746102ba3660046121e0565b61075c565b3480156102ca575f80fd5b506102de6102d936600461221a565b6107ea565b604080516001600160a01b0390931683526020830191909152016101f4565b348015610308575f80fd5b5061027461086d565b34801561031c575f80fd5b50600c546101e890610100900460ff1681565b34801561033a575f80fd5b506103446103e881565b6040516001600160601b0390911681526020016101f4565b348015610367575f80fd5b506102746103763660046121e0565b6108ff565b348015610386575f80fd5b5061023d61039536600461218b565b61091e565b3480156103a5575f80fd5b506102746103b436600461223a565b610928565b3480156103c4575f80fd5b506102926103d33660046122ab565b610995565b3480156103e3575f80fd5b506102746109da565b3480156103f7575f80fd5b5061023d7f000000000000000000000000000000000000000000000000000000000000000081565b34801561042a575f80fd5b506008546001600160a01b031661023d565b348015610447575f80fd5b506102746104563660046122c4565b610a22565b348015610466575f80fd5b50610211610a79565b34801561047a575f80fd5b5061029261200081565b34801561048f575f80fd5b50600c546101e89060ff1681565b3480156104a8575f80fd5b506102746104b7366004612304565b610a88565b3480156104c7575f80fd5b5061029266071afd498d000081565b3480156104e1575f80fd5b506102746104f036600461239e565b610a93565b348015610500575f80fd5b5061021161050f36600461218b565b610aab565b34801561051f575f80fd5b50610274610c75565b348015610533575f80fd5b50610274610cfa565b348015610547575f80fd5b506101e8610556366004612442565b610d5d565b348015610566575f80fd5b506102746105753660046122ab565b610d8a565b5f61058482610dc4565b92915050565b60605f805461059890612473565b80601f01602080910402602001604051908101604052809291908181526020018280546105c490612473565b801561060f5780601f106105e65761010080835404028352916020019161060f565b820191905f5260205f20905b8154815290600101906020018083116105f257829003601f168201915b5050505050905090565b5f61062382610de8565b505f828152600460205260409020546001600160a01b0316610584565b61064b828233610e20565b5050565b610657610e2d565b600c5460ff1661067a576040516317efbd6b60e01b815260040160405180910390fd5b600c54610100900460ff1680156106a05750335f908152600d602052604090205460ff16155b156106be57604051630b094f2760e31b815260040160405180910390fd5b600b546120008111156106e4576040516352df9fe560e01b815260040160405180910390fd5b66071afd498d0000341461070b576040516339c5f2df60e01b815260040160405180910390fd5b6107168160016124b9565b600b5561072281610e57565b5f828152600a602052604090205561073a3382610ebd565b506107456001600955565b565b5f6001600b5461075791906124cc565b905090565b6001600160a01b03821661078a57604051633250574960e11b81525f60048201526024015b60405180910390fd5b5f610796838333610ed6565b9050836001600160a01b0316816001600160a01b0316146107e4576040516364283d7b60e01b81526001600160a01b0380861660048301526024820184905282166044820152606401610781565b50505050565b5f82815260076020526040812080548291906001600160a01b03811690600160a01b90046001600160601b03168161083d5750506006546001600160a01b03811690600160a01b90046001600160601b03165b5f6127106108546001600160601b038416896124df565b61085e919061250a565b92989297509195505050505050565b610875610fca565b6040515f90339047908381818185875af1925050503d805f81146108b4576040519150601f19603f3d011682016040523d82523d5f602084013e6108b9565b606091505b50509050806108fc5760405162461bcd60e51b815260206004820152600f60248201526e15da5d1a191c985dc819985a5b1959608a1b6044820152606401610781565b50565b61091983838360405180602001604052805f815250610a93565b505050565b5f61058482610de8565b610930610fca565b5f5b81811015610919576001600d5f8585858181106109515761095161251d565b905060200201602081019061096691906122ab565b6001600160a01b0316815260208101919091526040015f20805460ff1916911515919091179055600101610932565b5f6001600160a01b0382166109bf576040516322718ad960e21b81525f6004820152602401610781565b506001600160a01b03165f9081526003602052604090205490565b60405162461bcd60e51b815260206004820152601d60248201527f72656e6f756e63654f776e6572736869702069732064697361626c65640000006044820152606401610781565b610a2a610fca565b6103e86001600160601b0382161115610a6f5760405162461bcd60e51b81526020600482015260076024820152664d61782031302560c81b6044820152606401610781565b61064b8282610ff7565b60606001805461059890612473565b61064b338383611099565b610a9e84848461075c565b6107e43385858585611137565b6060610ab68261125f565b610ad35760405163163a09e160e31b815260040160405180910390fd5b5f828152600a60205260408082205490516302158aa560e11b815260048101829052909190610b76907f00000000000000000000000000000000000000000000000000000000000000006001600160a01b03169063042b154a906024015f60405180830381865afa158015610b4a573d5f803e3d5ffd5b505050506040513d5f823e601f3d908101601f19168201604052610b719190810190612531565b611294565b90505f610b82836112ba565b90505f610b8e84611303565b90505f82610bb9576040518060400160405280600581526020016466616c736560d81b815250610bd7565b604051806040016040528060048152602001637472756560e01b8152505b610be38360ff16611448565b610bee8760206114d8565b604051602001610c00939291906125bd565b60405160208183030381529060405290505f610c46610c1e89611448565b8684604051602001610c32939291906126aa565b604051602081830303815290604052611294565b905080604051602001610c5991906128a5565b6040516020818303038152906040529650505050505050919050565b610c7d610fca565b600c54610100900460ff16610cc55760405162461bcd60e51b815260206004820152600e60248201526d416c7265616479207075626c696360901b6044820152606401610781565b600c805461ff00191690556040517f2d35c8d348a345fd7b3b03b7cfcf7ad0b60c2d46742d5ca536342e4185becb07905f90a1565b610d02610fca565b600c5460ff1615610d26576040516339f3829b60e01b815260040160405180910390fd5b600c805460ff191660011790556040517f38cb976174a5c48b8f7b2f07f69b47c271ba7f019948915dc12efb770c2a542c905f90a1565b6001600160a01b039182165f90815260056020908152604080832093909416825291909152205460ff1690565b610d92610fca565b6001600160a01b038116610dbb57604051631e4fbdf760e01b81525f6004820152602401610781565b6108fc81611652565b5f6001600160e01b0319821663152a902d60e11b14806105845750610584826116a3565b5f818152600260205260408120546001600160a01b03168061058457604051637e27328960e01b815260048101849052602401610781565b61091983838360016116f2565b600260095403610e5057604051633ee5aeb560e01b815260040160405180910390fd5b6002600955565b5f610e636001436124cc565b604080519140602083015244908201526bffffffffffffffffffffffff1930606090811b8216818401526074830185905233901b16609482015260a801604051602081830303815290604052805190602001209050919050565b61064b828260405180602001604052805f8152506117f6565b5f828152600260205260408120546001600160a01b0390811690831615610f0257610f0281848661180d565b6001600160a01b03811615610f3c57610f1d5f855f806116f2565b6001600160a01b0381165f90815260036020526040902080545f190190555b6001600160a01b03851615610f6a576001600160a01b0385165f908152600360205260409020805460010190555b5f8481526002602052604080822080546001600160a01b0319166001600160a01b0389811691821790925591518793918516917fddf252ad1be2c89b69c2b068fc378daa952ba7f163c4a11628f55a4df523b3ef91a490505b9392505050565b6008546001600160a01b031633146107455760405163118cdaa760e01b8152336004820152602401610781565b6127106001600160601b03821681101561103657604051636f483d0960e01b81526001600160601b038316600482015260248101829052604401610781565b6001600160a01b03831661105f57604051635b6cc80560e11b81525f6004820152602401610781565b50604080518082019091526001600160a01b039092168083526001600160601b039091166020909201829052600160a01b90910217600655565b6001600160a01b0382166110cb57604051630b61174360e31b81526001600160a01b0383166004820152602401610781565b6001600160a01b038381165f81815260056020908152604080832094871680845294825291829020805460ff191686151590811790915591519182527f17307eab39ab6107e8899845ad3d59bd9653f200f220920489ca2b5937696c31910160405180910390a3505050565b6001600160a01b0383163b1561125857604051630a85bd0160e11b81526001600160a01b0384169063150b7a02906111799088908890879087906004016128d6565b6020604051808303815f875af19250505080156111b3575060408051601f3d908101601f191682019092526111b091810190612912565b60015b61121a573d8080156111e0576040519150601f19603f3d011682016040523d82523d5f602084013e6111e5565b606091505b5080515f0361121257604051633250574960e11b81526001600160a01b0385166004820152602401610781565b805181602001fd5b6001600160e01b03198116630a85bd0160e11b1461125657604051633250574960e11b81526001600160a01b0385166004820152602401610781565b505b5050505050565b5f81158015906112705750600b5482105b80156105845750505f908152600260205260409020546001600160a01b0316151590565b606061058482604051806060016040528060408152602001612a02604091396001611871565b5f805f5b60208110156112f9576112e28482602081106112dc576112dc61251d565b1a6119ec565b6112ef9060ff16836124b9565b91506001016112be565b5060801492915050565b5f8061130e83611a1a565b9050611318612082565b5f805b60408160ff16101561143f57835160ff82166040811061133d5761133d61251d565b602002015160ff161515806113695750825160ff8216604081106113635761136361251d565b60200201515b61143757611375612082565b61138185858385611b47565b1561143557826113908161292d565b9350505f5b60048160ff161015611433575f5b60408160ff16101561142a57828260ff16600481106113c4576113c461251d565b60200201518160ff16604081106113dd576113dd61251d565b602002015115611422576001868360ff16600481106113fe576113fe61251d565b60200201518260ff16604081106114175761141761251d565b911515602090920201525b6001016113a3565b50600101611395565b505b505b60010161131b565b50949350505050565b60605f61145483611da7565b60010190505f8167ffffffffffffffff81111561147357611473612332565b6040519080825280601f01601f19166020018201604052801561149d576020820181803683370190505b5090508181016020015b5f19016f181899199a1a9b1b9c1cb0b131b232b360811b600a86061a8153600a85049450846114a757509392505050565b6060825f6114e78460026124df565b6114f29060026124b9565b67ffffffffffffffff81111561150a5761150a612332565b6040519080825280601f01601f191660200182016040528015611534576020820181803683370190505b509050600360fc1b815f8151811061154e5761154e61251d565b60200101906001600160f81b03191690815f1a905350600f60fb1b8160018151811061157c5761157c61251d565b60200101906001600160f81b03191690815f1a9053505f61159e8560026124df565b6115a99060016124b9565b90505b6001811115611620576f181899199a1a9b1b9c1cb0b131b232b360811b83600f16601081106115dd576115dd61251d565b1a60f81b8282815181106115f3576115f361251d565b60200101906001600160f81b03191690815f1a90535060049290921c916116198161294b565b90506115ac565b50811561164a5760405163e22e27eb60e01b81526004810186905260248101859052604401610781565b949350505050565b600880546001600160a01b038381166001600160a01b0319831681179093556040519116919082907f8be0079c531659141344cd1fd0a4f28419497f9722a3daafe3b4186f6b6457e0905f90a35050565b5f6001600160e01b031982166380ac58cd60e01b14806116d357506001600160e01b03198216635b5e139f60e01b145b8061058457506301ffc9a760e01b6001600160e01b0319831614610584565b808061170657506001600160a01b03821615155b156117c7575f61171584610de8565b90506001600160a01b038316158015906117415750826001600160a01b0316816001600160a01b031614155b801561175457506117528184610d5d565b155b1561177d5760405163a9fbf51f60e01b81526001600160a01b0384166004820152602401610781565b81156117c55783856001600160a01b0316826001600160a01b03167f8c5be1e5ebec7d5bd14f71427d1e84f3dd0314c0f7b2291e5b200ac8c7c3b92560405160405180910390a45b505b50505f90815260046020526040902080546001600160a01b0319166001600160a01b0392909216919091179055565b6118008383611e7e565b610919335f858585611137565b611818838383611edf565b610919576001600160a01b03831661184657604051637e27328960e01b815260048101829052602401610781565b60405163177e802f60e01b81526001600160a01b038316600482015260248101829052604401610781565b606083515f0361188f575060408051602081019091525f8152610fc3565b5f826118bf576003855160046118a591906124df565b6118b09060026124b9565b6118ba919061250a565b6118e4565b6003855160026118cf91906124b9565b6118d9919061250a565b6118e49060046124df565b90505f8167ffffffffffffffff81111561190057611900612332565b6040519080825280601f01601f19166020018201604052801561192a576020820181803683370190505b509050600185016020820187885189016020810180515f82525b8284101561199f576003840193508351603f8160121c168701518653600186019550603f81600c1c168701518653600186019550603f8160061c168701518653600186019550603f8116870151865350600185019450611944565b9052505085156119e0576003885106600181146119c357600281146119d6576119de565b603d6001830353603d60028303536119de565b603d60018303535b505b50909695505050505050565b5f5b60ff821615611a1557611a046001831682612960565b905060018260ff16901c91506119ee565b919050565b611a226120af565b5f5b6020811015611b41575f6004848360208110611a4257611a4261251d565b1a901c90505f848360208110611a5a57611a5a61251d565b1a600f1690505f5b60048160ff161015611b3357611a79816003612979565b60ff168360ff16901c600116858260ff1660048110611a9a57611a9a61251d565b6020020151611aaa8660026124df565b60408110611aba57611aba61251d565b60ff9092166020929092020152611ad2816003612979565b60ff168260ff16901c600116858260ff1660048110611af357611af361251d565b6020020151611b038660026124df565b611b0e9060016124b9565b60408110611b1e57611b1e61251d565b60ff9092166020929092020152600101611a62565b505050806001019050611a24565b50919050565b5f611b506120dc565b611b586120dc565b5f80835260ff8516825260015b80821015611d9b575f84836101008110611b8157611b8161251d565b602002015190505f84846101008110611b9c57611b9c61251d565b6020020151905083611bad81612992565b945050888261ffff1660048110611bc657611bc661251d565b60200201518161ffff1660408110611be057611be061251d565b602002015180611c2657508a8261ffff1660048110611c0157611c0161251d565b60200201518161ffff1660408110611c1b57611c1b61251d565b602002015160ff1615155b15611c32575050611b65565b6001898361ffff1660048110611c4a57611c4a61251d565b60200201518261ffff1660408110611c6457611c6461251d565b9115156020909202015261ffff8216600303611c7f57600196505b5f6040518060800160405280846001611c9891906129aa565b61ffff1661ffff1681526020018461ffff165f14611cc057611cbb6001866129c4565b611cc2565b5f5b61ffff908116825285811660208084018290526040938401919091528251608081018452918616808352908201529192505f919081810190611d058660016129aa565b611d0f91906129de565b61ffff1681526020016040611d2586603f6129aa565b611d2f91906129de565b61ffff16905290505f5b60048160ff161015611d9157611d878e8e8e8c8c888760ff1660048110611d6257611d6261251d565b6020020151888860ff1660048110611d7c57611d7c61251d565b60200201518d611f40565b9550600101611d39565b5050505050611b65565b50505050949350505050565b5f8072184f03e93ff9f4daa797ed6e38ed64bf6a1f0160401b8310611de55772184f03e93ff9f4daa797ed6e38ed64bf6a1f0160401b830492506040015b6d04ee2d6d415b85acef81000000008310611e11576d04ee2d6d415b85acef8100000000830492506020015b662386f26fc100008310611e2f57662386f26fc10000830492506010015b6305f5e1008310611e47576305f5e100830492506008015b6127108310611e5b57612710830492506004015b60648310611e6d576064830492506002015b600a83106105845760010192915050565b6001600160a01b038216611ea757604051633250574960e11b81525f6004820152602401610781565b5f611eb383835f610ed6565b90506001600160a01b03811615610919576040516339e3563760e11b81525f6004820152602401610781565b5f6001600160a01b0383161580159061164a5750826001600160a01b0316846001600160a01b03161480611f185750611f188484610d5d565b8061164a5750505f908152600460205260409020546001600160a01b03908116911614919050565b5f60048461ffff16101580611f5a575060408361ffff1610155b15611f66575080612076565b868461ffff1660048110611f7c57611f7c61251d565b60200201518361ffff1660408110611f9657611f9661251d565b602002015180611fd75750878461ffff1660048110611fb757611fb761251d565b60200201518361ffff1660408110611fd157611fd161251d565b60200201515b806120185750888461ffff1660048110611ff357611ff361251d565b60200201518361ffff166040811061200d5761200d61251d565b602002015160ff1615155b15612024575080612076565b83868361010081106120385761203861251d565b61ffff9092166020929092020152828583610100811061205a5761205a61251d565b61ffff90921660209290920201526120738260016124b9565b90505b98975050505050505050565b60405180608001604052806004905b6120996120fc565b8152602001906001900390816120915790505090565b60405180608001604052806004905b6120c66120fc565b8152602001906001900390816120be5790505090565b604051806120000160405280610100906020820280368337509192915050565b6040518061080001604052806040906020820280368337509192915050565b6001600160e01b0319811681146108fc575f80fd5b5f60208284031215612140575f80fd5b8135610fc38161211b565b5f81518084528060208401602086015e5f602082860101526020601f19601f83011685010191505092915050565b602081525f610fc3602083018461214b565b5f6020828403121561219b575f80fd5b5035919050565b80356001600160a01b0381168114611a15575f80fd5b5f80604083850312156121c9575f80fd5b6121d2836121a2565b946020939093013593505050565b5f805f606084860312156121f2575f80fd5b6121fb846121a2565b9250612209602085016121a2565b929592945050506040919091013590565b5f806040838503121561222b575f80fd5b50508035926020909101359150565b5f806020838503121561224b575f80fd5b823567ffffffffffffffff811115612261575f80fd5b8301601f81018513612271575f80fd5b803567ffffffffffffffff811115612287575f80fd5b8560208260051b840101111561229b575f80fd5b6020919091019590945092505050565b5f602082840312156122bb575f80fd5b610fc3826121a2565b5f80604083850312156122d5575f80fd5b6122de836121a2565b915060208301356001600160601b03811681146122f9575f80fd5b809150509250929050565b5f8060408385031215612315575f80fd5b61231e836121a2565b9150602083013580151581146122f9575f80fd5b634e487b7160e01b5f52604160045260245ffd5b604051601f8201601f1916810167ffffffffffffffff8111828210171561236f5761236f612332565b604052919050565b5f67ffffffffffffffff82111561239057612390612332565b50601f01601f191660200190565b5f805f80608085870312156123b1575f80fd5b6123ba856121a2565b93506123c8602086016121a2565b925060408501359150606085013567ffffffffffffffff8111156123ea575f80fd5b8501601f810187136123fa575f80fd5b803561240d61240882612377565b612346565b818152886020838501011115612421575f80fd5b816020840160208301375f6020838301015280935050505092959194509250565b5f8060408385031215612453575f80fd5b61245c836121a2565b915061246a602084016121a2565b90509250929050565b600181811c9082168061248757607f821691505b602082108103611b4157634e487b7160e01b5f52602260045260245ffd5b634e487b7160e01b5f52601160045260245ffd5b80820180821115610584576105846124a5565b81810381811115610584576105846124a5565b8082028115828204841417610584576105846124a5565b634e487b7160e01b5f52601260045260245ffd5b5f82612518576125186124f6565b500490565b634e487b7160e01b5f52603260045260245ffd5b5f60208284031215612541575f80fd5b815167ffffffffffffffff811115612557575f80fd5b8201601f81018413612567575f80fd5b805161257561240882612377565b818152856020838501011115612589575f80fd5b8160208401602083015e5f91810160200191909152949350505050565b5f81518060208401855e5f93019283525090919050565b7f7b202274726169745f74797065223a2242616c616e636564222c202276616c7581526332911d1160e11b60208201525f6125fb60248301866125a6565b6308881f4b60e21b81527f7b202274726169745f74797065223a225061737361676573222c202276616c7560048201526332911d1160e11b602482015261264560288201866125a6565b6308881f4b60e21b81527f7b202274726169745f74797065223a22536f757263652068617368222c20227660048201526630b63ab2911d1160c91b60248201529050612694602b8201856125a6565b6222207d60e81b81526003019695505050505050565b727b226e616d65223a22486173684a696e67202360681b81525f6126d160138301866125a6565b61088b60f21b81527f226465736372697074696f6e223a2246756c6c79206f6e2d636861696e20486160028201527f73684a696e67206d616e64616c61205c753230313420612064657465726d696e60228201527f697374696320676c79706820776865726520656e74726f7079206265636f6d656042820152681cc8199bdc9b4b888b60ba1b60628201527f2263726561746f72223a2244617461536174747661222c000000000000000000606b8201527f2265787465726e616c5f75726c223a2268747470733a2f2f6769746875622e6360828201527f6f6d2f446174615361747476612f686173686a696e672d6e6674222c0000000060a28201527f226c6963656e7365223a2243432042592d4e4320342e30202b2048617368204a60be82019081527f696e6720436f6d6d65726369616c204c6963656e73652076312e30222c22696d60de8301527f616765223a22646174613a696d6167652f7376672b786d6c3b6261736536342c60fe8301529061011e0161289a61288c61288661286c61285e858b6125a6565b61088b60f21b815260020190565b6d2261747472696275746573223a5b60901b8152600e0190565b876125a6565b615d7d60f01b815260020190565b979650505050505050565b7f646174613a6170706c69636174696f6e2f6a736f6e3b6261736536342c00000081525f610fc3601d8301846125a6565b6001600160a01b03858116825284166020820152604081018390526080606082018190525f906129089083018461214b565b9695505050505050565b5f60208284031215612922575f80fd5b8151610fc38161211b565b5f60ff821660ff8103612942576129426124a5565b60010192915050565b5f81612959576129596124a5565b505f190190565b60ff8181168382160190811115610584576105846124a5565b60ff8281168282160390811115610584576105846124a5565b5f600182016129a3576129a36124a5565b5060010190565b61ffff8181168382160190811115610584576105846124a5565b61ffff8281168282160390811115610584576105846124a5565b5f61ffff8316806129f1576129f16124f6565b8061ffff8416069150509291505056fe4142434445464748494a4b4c4d4e4f505152535455565758595a6162636465666768696a6b6c6d6e6f707172737475767778797a303132333435363738392b2fa26469706673582212208eb5b1580f63d3d71877a6d1089805bf145d756e6823f924cb6e671e9e772d0864736f6c634300081a0033",
			"opcodes": "PUSH1 0xA0 PUSH1 0x40 MSTORE PUSH1 0x1 PUSH1 0xB SSTORE PUSH1 0xC DUP1 SLOAD PUSH2 0xFFFF NOT AND PUSH2 0x100 OR SWAP1 SSTORE CALLVALUE DUP1 ISZERO PUSH2 0x23 JUMPI PUSH0 DUP1 REVERT JUMPDEST POP PUSH1 0x40 MLOAD PUSH2 0x2E01 CODESIZE SUB DUP1 PUSH2 0x2E01 DUP4 CODECOPY DUP2 ADD PUSH1 0x40 DUP2 SWAP1 MSTORE PUSH2 0x42 SWAP2 PUSH2 0x1EC JUMP JUMPDEST CALLER PUSH1 0x40 MLOAD DUP1 PUSH1 0x40 ADD PUSH1 0x40 MSTORE DUP1 PUSH1 0x8 DUP2 MSTORE PUSH1 0x20 ADD PUSH8 0x486173684A696E67 PUSH1 0xC0 SHL DUP2 MSTORE POP PUSH1 0x40 MLOAD DUP1 PUSH1 0x40 ADD PUSH1 0x40 MSTORE DUP1 PUSH1 0x2 DUP2 MSTORE PUSH1 0x20 ADD PUSH2 0x2425 PUSH1 0xF1 SHL DUP2 MSTORE POP DUP2 PUSH0 SWAP1 DUP2 PUSH2 0x8D SWAP2 SWAP1 PUSH2 0x2B1 JUMP JUMPDEST POP PUSH1 0x1 PUSH2 0x9A DUP3 DUP3 PUSH2 0x2B1 JUMP JUMPDEST POP POP POP PUSH1 0x1 PUSH1 0x1 PUSH1 0xA0 SHL SUB DUP2 AND PUSH2 0xCB JUMPI PUSH1 0x40 MLOAD PUSH4 0x1E4FBDF7 PUSH1 0xE0 SHL DUP2 MSTORE PUSH0 PUSH1 0x4 DUP3 ADD MSTORE PUSH1 0x24 ADD JUMPDEST PUSH1 0x40 MLOAD DUP1 SWAP2 SUB SWAP1 REVERT JUMPDEST PUSH2 0xD4 DUP2 PUSH2 0xF9 JUMP JUMPDEST POP PUSH1 0x1 PUSH1 0x9 SSTORE PUSH1 0x1 PUSH1 0x1 PUSH1 0xA0 SHL SUB DUP2 AND PUSH1 0x80 MSTORE PUSH2 0xF3 CALLER PUSH2 0x2EE PUSH2 0x14A JUMP JUMPDEST POP PUSH2 0x36B JUMP JUMPDEST PUSH1 0x8 DUP1 SLOAD PUSH1 0x1 PUSH1 0x1 PUSH1 0xA0 SHL SUB DUP4 DUP2 AND PUSH1 0x1 PUSH1 0x1 PUSH1 0xA0 SHL SUB NOT DUP4 AND DUP2 OR SWAP1 SWAP4 SSTORE PUSH1 0x40 MLOAD SWAP2 AND SWAP2 SWAP1 DUP3 SWAP1 PUSH32 0x8BE0079C531659141344CD1FD0A4F28419497F9722A3DAAFE3B4186F6B6457E0 SWAP1 PUSH0 SWAP1 LOG3 POP POP JUMP JUMPDEST PUSH2 0x2710 PUSH1 0x1 PUSH1 0x1 PUSH1 0x60 SHL SUB DUP3 AND DUP2 LT ISZERO PUSH2 0x189 JUMPI PUSH1 0x40 MLOAD PUSH4 0x6F483D09 PUSH1 0xE0 SHL DUP2 MSTORE PUSH1 0x1 PUSH1 0x1 PUSH1 0x60 SHL SUB DUP4 AND PUSH1 0x4 DUP3 ADD MSTORE PUSH1 0x24 DUP2 ADD DUP3 SWAP1 MSTORE PUSH1 0x44 ADD PUSH2 0xC2 JUMP JUMPDEST PUSH1 0x1 PUSH1 0x1 PUSH1 0xA0 SHL SUB DUP4 AND PUSH2 0x1B2 JUMPI PUSH1 0x40 MLOAD PUSH4 0x5B6CC805 PUSH1 0xE1 SHL DUP2 MSTORE PUSH0 PUSH1 0x4 DUP3 ADD MSTORE PUSH1 0x24 ADD PUSH2 0xC2 JUMP JUMPDEST POP PUSH1 0x40 DUP1 MLOAD DUP1 DUP3 ADD SWAP1 SWAP2 MSTORE PUSH1 0x1 PUSH1 0x1 PUSH1 0xA0 SHL SUB SWAP1 SWAP3 AND DUP1 DUP4 MSTORE PUSH1 0x1 PUSH1 0x1 PUSH1 0x60 SHL SUB SWAP1 SWAP2 AND PUSH1 0x20 SWAP1 SWAP3 ADD DUP3 SWAP1 MSTORE PUSH1 0x1 PUSH1 0xA0 SHL SWAP1 SWAP2 MUL OR PUSH1 0x6 SSTORE JUMP JUMPDEST PUSH0 PUSH1 0x20 DUP3 DUP5 SUB SLT ISZERO PUSH2 0x1FC JUMPI PUSH0 DUP1 REVERT JUMPDEST DUP2 MLOAD PUSH1 0x1 PUSH1 0x1 PUSH1 0xA0 SHL SUB DUP2 AND DUP2 EQ PUSH2 0x212 JUMPI PUSH0 DUP1 REVERT JUMPDEST SWAP4 SWAP3 POP POP POP JUMP JUMPDEST PUSH4 0x4E487B71 PUSH1 0xE0 SHL PUSH0 MSTORE PUSH1 0x41 PUSH1 0x4 MSTORE PUSH1 0x24 PUSH0 REVERT JUMPDEST PUSH1 0x1 DUP2 DUP2 SHR SWAP1 DUP3 AND DUP1 PUSH2 0x241 JUMPI PUSH1 0x7F DUP3 AND SWAP2 POP JUMPDEST PUSH1 0x20 DUP3 LT DUP2 SUB PUSH2 0x25F JUMPI PUSH4 0x4E487B71 PUSH1 0xE0 SHL PUSH0 MSTORE PUSH1 0x22 PUSH1 0x4 MSTORE PUSH1 0x24 PUSH0 REVERT JUMPDEST POP SWAP2 SWAP1 POP JUMP JUMPDEST PUSH1 0x1F DUP3 GT ISZERO PUSH2 0x2AC JUMPI DUP1 PUSH0 MSTORE PUSH1 0x20 PUSH0 KECCAK256 PUSH1 0x1F DUP5 ADD PUSH1 0x5 SHR DUP2 ADD PUSH1 0x20 DUP6 LT ISZERO PUSH2 0x28A JUMPI POP DUP1 JUMPDEST PUSH1 0x1F DUP5 ADD PUSH1 0x5 SHR DUP3 ADD SWAP2 POP JUMPDEST DUP2 DUP2 LT ISZERO PUSH2 0x2A9 JUMPI PUSH0 DUP2 SSTORE PUSH1 0x1 ADD PUSH2 0x296 JUMP JUMPDEST POP POP JUMPDEST POP POP POP JUMP JUMPDEST DUP2 MLOAD PUSH1 0x1 PUSH1 0x1 PUSH1 0x40 SHL SUB DUP2 GT ISZERO PUSH2 0x2CA JUMPI PUSH2 0x2CA PUSH2 0x219 JUMP JUMPDEST PUSH2 0x2DE DUP2 PUSH2 0x2D8 DUP5 SLOAD PUSH2 0x22D JUMP JUMPDEST DUP5 PUSH2 0x265 JUMP JUMPDEST PUSH1 0x20 PUSH1 0x1F DUP3 GT PUSH1 0x1 DUP2 EQ PUSH2 0x310 JUMPI PUSH0 DUP4 ISZERO PUSH2 0x2F9 JUMPI POP DUP5 DUP3 ADD MLOAD JUMPDEST PUSH0 NOT PUSH1 0x3 DUP6 SWAP1 SHL SHR NOT AND PUSH1 0x1 DUP5 SWAP1 SHL OR DUP5 SSTORE PUSH2 0x2A9 JUMP JUMPDEST PUSH0 DUP5 DUP2 MSTORE PUSH1 0x20 DUP2 KECCAK256 PUSH1 0x1F NOT DUP6 AND SWAP2 JUMPDEST DUP3 DUP2 LT ISZERO PUSH2 0x33F JUMPI DUP8 DUP6 ADD MLOAD DUP3 SSTORE PUSH1 0x20 SWAP5 DUP6 ADD SWAP5 PUSH1 0x1 SWAP1 SWAP3 ADD SWAP2 ADD PUSH2 0x31F JUMP JUMPDEST POP DUP5 DUP3 LT ISZERO PUSH2 0x35C JUMPI DUP7 DUP5 ADD MLOAD PUSH0 NOT PUSH1 0x3 DUP8 SWAP1 SHL PUSH1 0xF8 AND SHR NOT AND DUP2 SSTORE JUMPDEST POP POP POP POP PUSH1 0x1 SWAP1 DUP2 SHL ADD SWAP1 SSTORE POP JUMP JUMPDEST PUSH1 0x80 MLOAD PUSH2 0x2A77 PUSH2 0x38A PUSH0 CODECOPY PUSH0 DUP2 DUP2 PUSH2 0x3FD ADD MSTORE PUSH2 0xAFE ADD MSTORE PUSH2 0x2A77 PUSH0 RETURN INVALID PUSH1 0x80 PUSH1 0x40 MSTORE PUSH1 0x4 CALLDATASIZE LT PUSH2 0x1C5 JUMPI PUSH0 CALLDATALOAD PUSH1 0xE0 SHR DUP1 PUSH4 0x715018A6 GT PUSH2 0xF2 JUMPI DUP1 PUSH4 0xA22CB465 GT PUSH2 0x92 JUMPI DUP1 PUSH4 0xCF8E629A GT PUSH2 0x62 JUMPI DUP1 PUSH4 0xCF8E629A EQ PUSH2 0x514 JUMPI DUP1 PUSH4 0xE797EC1B EQ PUSH2 0x528 JUMPI DUP1 PUSH4 0xE985E9C5 EQ PUSH2 0x53C JUMPI DUP1 PUSH4 0xF2FDE38B EQ PUSH2 0x55B JUMPI PUSH0 DUP1 REVERT JUMPDEST DUP1 PUSH4 0xA22CB465 EQ PUSH2 0x49D JUMPI DUP1 PUSH4 0xB85F3FB8 EQ PUSH2 0x4BC JUMPI DUP1 PUSH4 0xB88D4FDE EQ PUSH2 0x4D6 JUMPI DUP1 PUSH4 0xC87B56DD EQ PUSH2 0x4F5 JUMPI PUSH0 DUP1 REVERT JUMPDEST DUP1 PUSH4 0x8F2FC60B GT PUSH2 0xCD JUMPI DUP1 PUSH4 0x8F2FC60B EQ PUSH2 0x43C JUMPI DUP1 PUSH4 0x95D89B41 EQ PUSH2 0x45B JUMPI DUP1 PUSH4 0x99EC6765 EQ PUSH2 0x46F JUMPI DUP1 PUSH4 0x9FD6DB12 EQ PUSH2 0x484 JUMPI PUSH0 DUP1 REVERT JUMPDEST DUP1 PUSH4 0x715018A6 EQ PUSH2 0x3D8 JUMPI DUP1 PUSH4 0x8ADA6B0F EQ PUSH2 0x3EC JUMPI DUP1 PUSH4 0x8DA5CB5B EQ PUSH2 0x41F JUMPI PUSH0 DUP1 REVERT JUMPDEST DUP1 PUSH4 0x2A55205A GT PUSH2 0x168 JUMPI DUP1 PUSH4 0x42842E0E GT PUSH2 0x138 JUMPI DUP1 PUSH4 0x42842E0E EQ PUSH2 0x35C JUMPI DUP1 PUSH4 0x6352211E EQ PUSH2 0x37B JUMPI DUP1 PUSH4 0x6447C35D EQ PUSH2 0x39A JUMPI DUP1 PUSH4 0x70A08231 EQ PUSH2 0x3B9 JUMPI PUSH0 DUP1 REVERT JUMPDEST DUP1 PUSH4 0x2A55205A EQ PUSH2 0x2BF JUMPI DUP1 PUSH4 0x3CCFD60B EQ PUSH2 0x2FD JUMPI DUP1 PUSH4 0x3D141AA3 EQ PUSH2 0x311 JUMPI DUP1 PUSH4 0x3DCA40E6 EQ PUSH2 0x32F JUMPI PUSH0 DUP1 REVERT JUMPDEST DUP1 PUSH4 0x95EA7B3 GT PUSH2 0x1A3 JUMPI DUP1 PUSH4 0x95EA7B3 EQ PUSH2 0x255 JUMPI DUP1 PUSH4 0x1249C58B EQ PUSH2 0x276 JUMPI DUP1 PUSH4 0x18160DDD EQ PUSH2 0x27E JUMPI DUP1 PUSH4 0x23B872DD EQ PUSH2 0x2A0 JUMPI PUSH0 DUP1 REVERT JUMPDEST DUP1 PUSH4 0x1FFC9A7 EQ PUSH2 0x1C9 JUMPI DUP1 PUSH4 0x6FDDE03 EQ PUSH2 0x1FD JUMPI DUP1 PUSH4 0x81812FC EQ PUSH2 0x21E JUMPI JUMPDEST PUSH0 DUP1 REVERT JUMPDEST CALLVALUE DUP1 ISZERO PUSH2 0x1D4 JUMPI PUSH0 DUP1 REVERT JUMPDEST POP PUSH2 0x1E8 PUSH2 0x1E3 CALLDATASIZE PUSH1 0x4 PUSH2 0x2130 JUMP JUMPDEST PUSH2 0x57A JUMP JUMPDEST PUSH1 0x40 MLOAD SWAP1 ISZERO ISZERO DUP2 MSTORE PUSH1 0x20 ADD JUMPDEST PUSH1 0x40 MLOAD DUP1 SWAP2 SUB SWAP1 RETURN JUMPDEST CALLVALUE DUP1 ISZERO PUSH2 0x208 JUMPI PUSH0 DUP1 REVERT JUMPDEST POP PUSH2 0x211 PUSH2 0x58A JUMP JUMPDEST PUSH1 0x40 MLOAD PUSH2 0x1F4 SWAP2 SWAP1 PUSH2 0x2179 JUMP JUMPDEST CALLVALUE DUP1 ISZERO PUSH2 0x229 JUMPI PUSH0 DUP1 REVERT JUMPDEST POP PUSH2 0x23D PUSH2 0x238 CALLDATASIZE PUSH1 0x4 PUSH2 0x218B JUMP JUMPDEST PUSH2 0x619 JUMP JUMPDEST PUSH1 0x40 MLOAD PUSH1 0x1 PUSH1 0x1 PUSH1 0xA0 SHL SUB SWAP1 SWAP2 AND DUP2 MSTORE PUSH1 0x20 ADD PUSH2 0x1F4 JUMP JUMPDEST CALLVALUE DUP1 ISZERO PUSH2 0x260 JUMPI PUSH0 DUP1 REVERT JUMPDEST POP PUSH2 0x274 PUSH2 0x26F CALLDATASIZE PUSH1 0x4 PUSH2 0x21B8 JUMP JUMPDEST PUSH2 0x640 JUMP JUMPDEST STOP JUMPDEST PUSH2 0x274 PUSH2 0x64F JUMP JUMPDEST CALLVALUE DUP1 ISZERO PUSH2 0x289 JUMPI PUSH0 DUP1 REVERT JUMPDEST POP PUSH2 0x292 PUSH2 0x747 JUMP JUMPDEST PUSH1 0x40 MLOAD SWAP1 DUP2 MSTORE PUSH1 0x20 ADD PUSH2 0x1F4 JUMP JUMPDEST CALLVALUE DUP1 ISZERO PUSH2 0x2AB JUMPI PUSH0 DUP1 REVERT JUMPDEST POP PUSH2 0x274 PUSH2 0x2BA CALLDATASIZE PUSH1 0x4 PUSH2 0x21E0 JUMP JUMPDEST PUSH2 0x75C JUMP JUMPDEST CALLVALUE DUP1 ISZERO PUSH2 0x2CA JUMPI PUSH0 DUP1 REVERT JUMPDEST POP PUSH2 0x2DE PUSH2 0x2D9 CALLDATASIZE PUSH1 0x4 PUSH2 0x221A JUMP JUMPDEST PUSH2 0x7EA JUMP JUMPDEST PUSH1 0x40 DUP1 MLOAD PUSH1 0x1 PUSH1 0x1 PUSH1 0xA0 SHL SUB SWAP1 SWAP4 AND DUP4 MSTORE PUSH1 0x20 DUP4 ADD SWAP2 SWAP1 SWAP2 MSTORE ADD PUSH2 0x1F4 JUMP JUMPDEST CALLVALUE DUP1 ISZERO PUSH2 0x308 JUMPI PUSH0 DUP1 REVERT JUMPDEST POP PUSH2 0x274 PUSH2 0x86D JUMP JUMPDEST CALLVALUE DUP1 ISZERO PUSH2 0x31C JUMPI PUSH0 DUP1 REVERT JUMPDEST POP PUSH1 0xC SLOAD PUSH2 0x1E8 SWAP1 PUSH2 0x100 SWAP1 DIV PUSH1 0xFF AND DUP2 JUMP JUMPDEST CALLVALUE DUP1 ISZERO PUSH2 0x33A JUMPI PUSH0 DUP1 REVERT JUMPDEST POP PUSH2 0x344 PUSH2 0x3E8 DUP2 JUMP JUMPDEST PUSH1 0x40 MLOAD PUSH1 0x1 PUSH1 0x1 PUSH1 0x60 SHL SUB SWAP1 SWAP2 AND DUP2 MSTORE PUSH1 0x20 ADD PUSH2 0x1F4 JUMP JUMPDEST CALLVALUE DUP1 ISZERO PUSH2 0x367 JUMPI PUSH0 DUP1 REVERT JUMPDEST POP PUSH2 0x274 PUSH2 0x376 CALLDATASIZE PUSH1 0x4 PUSH2 0x21E0 JUMP JUMPDEST PUSH2 0x8FF JUMP JUMPDEST CALLVALUE DUP1 ISZERO PUSH2 0x386 JUMPI PUSH0 DUP1 REVERT JUMPDEST POP PUSH2 0x23D PUSH2 0x395 CALLDATASIZE PUSH1 0x4 PUSH2 0x218B JUMP JUMPDEST PUSH2 0x91E JUMP JUMPDEST CALLVALUE DUP1 ISZERO PUSH2 0x3A5 JUMPI PUSH0 DUP1 REVERT JUMPDEST POP PUSH2 0x274 PUSH2 0x3B4 CALLDATASIZE PUSH1 0x4 PUSH2 0x223A JUMP JUMPDEST PUSH2 0x928 JUMP JUMPDEST CALLVALUE DUP1 ISZERO PUSH2 0x3C4 JUMPI PUSH0 DUP1 REVERT JUMPDEST POP PUSH2 0x292 PUSH2 0x3D3 CALLDATASIZE PUSH1 0x4 PUSH2 0x22AB JUMP JUMPDEST PUSH2 0x995 JUMP JUMPDEST CALLVALUE DUP1 ISZERO PUSH2 0x3E3 JUMPI PUSH0 DUP1 REVERT JUMPDEST POP PUSH2 0x274 PUSH2 0x9DA JUMP JUMPDEST CALLVALUE DUP1 ISZERO PUSH2 0x3F7 JUMPI PUSH0 DUP1 REVERT JUMPDEST POP PUSH2 0x23D PUSH32 0x0 DUP2 JUMP JUMPDEST CALLVALUE DUP1 ISZERO PUSH2 0x42A JUMPI PUSH0 DUP1 REVERT JUMPDEST POP PUSH1 0x8 SLOAD PUSH1 0x1 PUSH1 0x1 PUSH1 0xA0 SHL SUB AND PUSH2 0x23D JUMP JUMPDEST CALLVALUE DUP1 ISZERO PUSH2 0x447 JUMPI PUSH0 DUP1 REVERT JUMPDEST POP PUSH2 0x274 PUSH2 0x456 CALLDATASIZE PUSH1 0x4 PUSH2 0x22C4 JUMP JUMPDEST PUSH2 0xA22 JUMP JUMPDEST CALLVALUE DUP1 ISZERO PUSH2 0x466 JUMPI PUSH0 DUP1 REVERT JUMPDEST POP PUSH2 0x211 PUSH2 0xA79 JUMP JUMPDEST CALLVALUE DUP1 ISZERO PUSH2 0x47A JUMPI PUSH0 DUP1 REVERT JUMPDEST POP PUSH2 0x292 PUSH2 0x2000 DUP2 JUMP JUMPDEST CALLVALUE DUP1 ISZERO PUSH2 0x48F JUMPI PUSH0 DUP1 REVERT JUMPDEST POP PUSH1 0xC SLOAD PUSH2 0x1E8 SWAP1 PUSH1 0xFF AND DUP2 JUMP JUMPDEST CALLVALUE DUP1 ISZERO PUSH2 0x4A8 JUMPI PUSH0 DUP1 REVERT JUMPDEST POP PUSH2 0x274 PUSH2 0x4B7 CALLDATASIZE PUSH1 0x4 PUSH2 0x2304 JUMP JUMPDEST PUSH2 0xA88 JUMP JUMPDEST CALLVALUE DUP1 ISZERO PUSH2 0x4C7 JUMPI PUSH0 DUP1 REVERT JUMPDEST POP PUSH2 0x292 PUSH7 0x71AFD498D0000 DUP2 JUMP JUMPDEST CALLVALUE DUP1 ISZERO PUSH2 0x4E1 JUMPI PUSH0 DUP1 REVERT JUMPDEST POP PUSH2 0x274 PUSH2 0x4F0 CALLDATASIZE PUSH1 0x4 PUSH2 0x239E JUMP JUMPDEST PUSH2 0xA93 JUMP JUMPDEST CALLVALUE DUP1 ISZERO PUSH2 0x500 JUMPI PUSH0 DUP1 REVERT JUMPDEST POP PUSH2 0x211 PUSH2 0x50F CALLDATASIZE PUSH1 0x4 PUSH2 0x218B JUMP JUMPDEST PUSH2 0xAAB JUMP JUMPDEST CALLVALUE DUP1 ISZERO PUSH2 0x51F JUMPI PUSH0 DUP1 REVERT JUMPDEST POP PUSH2 0x274 PUSH2 0xC75 JUMP JUMPDEST CALLVALUE DUP1 ISZERO PUSH2 0x533 JUMPI PUSH0 DUP1 REVERT JUMPDEST POP PUSH2 0x274 PUSH2 0xCFA JUMP JUMPDEST CALLVALUE DUP1 ISZERO PUSH2 0x547 JUMPI PUSH0 DUP1 REVERT JUMPDEST POP PUSH2 0x1E8 PUSH2 0x556 CALLDATASIZE PUSH1 0x4 PUSH2 0x2442 JUMP JUMPDEST PUSH2 0xD5D JUMP JUMPDEST CALLVALUE DUP1 ISZERO PUSH2 0x566 JUMPI PUSH0 DUP1 REVERT JUMPDEST POP PUSH2 0x274 PUSH2 0x575 CALLDATASIZE PUSH1 0x4 PUSH2 0x22AB JUMP JUMPDEST PUSH2 0xD8A JUMP JUMPDEST PUSH0 PUSH2 0x584 DUP3 PUSH2 0xDC4 JUMP JUMPDEST SWAP3 SWAP2 POP POP JUMP JUMPDEST PUSH1 0x60 PUSH0 DUP1 SLOAD PUSH2 0x598 SWAP1 PUSH2 0x2473 JUMP JUMPDEST DUP1 PUSH1 0x1F ADD PUSH1 0x20 DUP1 SWAP2 DIV MUL PUSH1 0x20 ADD PUSH1 0x40 MLOAD SWAP1 DUP2 ADD PUSH1 0x40 MSTORE DUP1 SWAP3 SWAP2 SWAP1 DUP2 DUP2 MSTORE PUSH1 0x20 ADD DUP3 DUP1 SLOAD PUSH2 0x5C4 SWAP1 PUSH2 0x2473 JUMP JUMPDEST DUP1 ISZERO PUSH2 0x60F JUMPI DUP1 PUSH1 0x1F LT PUSH2 0x5E6 JUMPI PUSH2 0x100 DUP1 DUP4 SLOAD DIV MUL DUP4 MSTORE SWAP2 PUSH1 0x20 ADD SWAP2 PUSH2 0x60F JUMP JUMPDEST DUP3 ADD SWAP2 SWAP1 PUSH0 MSTORE PUSH1 0x20 PUSH0 KECCAK256 SWAP1 JUMPDEST DUP2 SLOAD DUP2 MSTORE SWAP1 PUSH1 0x1 ADD SWAP1 PUSH1 0x20 ADD DUP1 DUP4 GT PUSH2 0x5F2 JUMPI DUP3 SWAP1 SUB PUSH1 0x1F AND DUP3 ADD SWAP2 JUMPDEST POP POP POP POP POP SWAP1 POP SWAP1 JUMP JUMPDEST PUSH0 PUSH2 0x623 DUP3 PUSH2 0xDE8 JUMP JUMPDEST POP PUSH0 DUP3 DUP2 MSTORE PUSH1 0x4 PUSH1 0x20 MSTORE PUSH1 0x40 SWAP1 KECCAK256 SLOAD PUSH1 0x1 PUSH1 0x1 PUSH1 0xA0 SHL SUB AND PUSH2 0x584 JUMP JUMPDEST PUSH2 0x64B DUP3 DUP3 CALLER PUSH2 0xE20 JUMP JUMPDEST POP POP JUMP JUMPDEST PUSH2 0x657 PUSH2 0xE2D JUMP JUMPDEST PUSH1 0xC SLOAD PUSH1 0xFF AND PUSH2 0x67A JUMPI PUSH1 0x40 MLOAD PUSH4 0x17EFBD6B PUSH1 0xE0 SHL DUP2 MSTORE PUSH1 0x4 ADD PUSH1 0x40 MLOAD DUP1 SWAP2 SUB SWAP1 REVERT JUMPDEST PUSH1 0xC SLOAD PUSH2 0x100 SWAP1 DIV PUSH1 0xFF AND DUP1 ISZERO PUSH2 0x6A0 JUMPI POP CALLER PUSH0 SWAP1 DUP2 MSTORE PUSH1 0xD PUSH1 0x20 MSTORE PUSH1 0x40 SWAP1 KECCAK256 SLOAD PUSH1 0xFF AND ISZERO JUMPDEST ISZERO PUSH2 0x6BE JUMPI PUSH1 0x40 MLOAD PUSH4 0xB094F27 PUSH1 0xE3 SHL DUP2 MSTORE PUSH1 0x4 ADD PUSH1 0x40 MLOAD DUP1 SWAP2 SUB SWAP1 REVERT JUMPDEST PUSH1 0xB SLOAD PUSH2 0x2000 DUP2 GT ISZERO PUSH2 0x6E4 JUMPI PUSH1 0x40 MLOAD PUSH4 0x52DF9FE5 PUSH1 0xE0 SHL DUP2 MSTORE PUSH1 0x4 ADD PUSH1 0x40 MLOAD DUP1 SWAP2 SUB SWAP1 REVERT JUMPDEST PUSH7 0x71AFD498D0000 CALLVALUE EQ PUSH2 0x70B JUMPI PUSH1 0x40 MLOAD PUSH4 0x39C5F2DF PUSH1 0xE0 SHL DUP2 MSTORE PUSH1 0x4 ADD PUSH1 0x40 MLOAD DUP1 SWAP2 SUB SWAP1 REVERT JUMPDEST PUSH2 0x716 DUP2 PUSH1 0x1 PUSH2 0x24B9 JUMP JUMPDEST PUSH1 0xB SSTORE PUSH2 0x722 DUP2 PUSH2 0xE57 JUMP JUMPDEST PUSH0 DUP3 DUP2 MSTORE PUSH1 0xA PUSH1 0x20 MSTORE PUSH1 0x40 SWAP1 KECCAK256 SSTORE PUSH2 0x73A CALLER DUP3 PUSH2 0xEBD JUMP JUMPDEST POP PUSH2 0x745 PUSH1 0x1 PUSH1 0x9 SSTORE JUMP JUMPDEST JUMP JUMPDEST PUSH0 PUSH1 0x1 PUSH1 0xB SLOAD PUSH2 0x757 SWAP2 SWAP1 PUSH2 0x24CC JUMP JUMPDEST SWAP1 POP SWAP1 JUMP JUMPDEST PUSH1 0x1 PUSH1 0x1 PUSH1 0xA0 SHL SUB DUP3 AND PUSH2 0x78A JUMPI PUSH1 0x40 MLOAD PUSH4 0x32505749 PUSH1 0xE1 SHL DUP2 MSTORE PUSH0 PUSH1 0x4 DUP3 ADD MSTORE PUSH1 0x24 ADD JUMPDEST PUSH1 0x40 MLOAD DUP1 SWAP2 SUB SWAP1 REVERT JUMPDEST PUSH0 PUSH2 0x796 DUP4 DUP4 CALLER PUSH2 0xED6 JUMP JUMPDEST SWAP1 POP DUP4 PUSH1 0x1 PUSH1 0x1 PUSH1 0xA0 SHL SUB AND DUP2 PUSH1 0x1 PUSH1 0x1 PUSH1 0xA0 SHL SUB AND EQ PUSH2 0x7E4 JUMPI PUSH1 0x40 MLOAD PUSH4 0x64283D7B PUSH1 0xE0 SHL DUP2 MSTORE PUSH1 0x1 PUSH1 0x1 PUSH1 0xA0 SHL SUB DUP1 DUP7 AND PUSH1 0x4 DUP4 ADD MSTORE PUSH1 0x24 DUP3 ADD DUP5 SWAP1 MSTORE DUP3 AND PUSH1 0x44 DUP3 ADD MSTORE PUSH1 0x64 ADD PUSH2 0x781 JUMP JUMPDEST POP POP POP POP JUMP JUMPDEST PUSH0 DUP3 DUP2 MSTORE PUSH1 0x7 PUSH1 0x20 MSTORE PUSH1 0x40 DUP2 KECCAK256 DUP1 SLOAD DUP3 SWAP2 SWAP1 PUSH1 0x1 PUSH1 0x1 PUSH1 0xA0 SHL SUB DUP2 AND SWAP1 PUSH1 0x1 PUSH1 0xA0 SHL SWAP1 DIV PUSH1 0x1 PUSH1 0x1 PUSH1 0x60 SHL SUB AND DUP2 PUSH2 0x83D JUMPI POP POP PUSH1 0x6 SLOAD PUSH1 0x1 PUSH1 0x1 PUSH1 0xA0 SHL SUB DUP2 AND SWAP1 PUSH1 0x1 PUSH1 0xA0 SHL SWAP1 DIV PUSH1 0x1 PUSH1 0x1 PUSH1 0x60 SHL SUB AND JUMPDEST PUSH0 PUSH2 0x2710 PUSH2 0x854 PUSH1 0x1 PUSH1 0x1 PUSH1 0x60 SHL SUB DUP5 AND DUP10 PUSH2 0x24DF JUMP JUMPDEST PUSH2 0x85E SWAP2 SWAP1 PUSH2 0x250A JUMP JUMPDEST SWAP3 SWAP9 SWAP3 SWAP8 POP SWAP2 SWAP6 POP POP POP POP POP POP JUMP JUMPDEST PUSH2 0x875 PUSH2 0xFCA JUMP JUMPDEST PUSH1 0x40 MLOAD PUSH0 SWAP1 CALLER SWAP1 SELFBALANCE SWAP1 DUP4 DUP2 DUP2 DUP2 DUP6 DUP8 GAS CALL SWAP3 POP POP POP RETURNDATASIZE DUP1 PUSH0 DUP2 EQ PUSH2 0x8B4 JUMPI PUSH1 0x40 MLOAD SWAP2 POP PUSH1 0x1F NOT PUSH1 0x3F RETURNDATASIZE ADD AND DUP3 ADD PUSH1 0x40 MSTORE RETURNDATASIZE DUP3 MSTORE RETURNDATASIZE PUSH0 PUSH1 0x20 DUP5 ADD RETURNDATACOPY PUSH2 0x8B9 JUMP JUMPDEST PUSH1 0x60 SWAP2 POP JUMPDEST POP POP SWAP1 POP DUP1 PUSH2 0x8FC JUMPI PUSH1 0x40 MLOAD PUSH3 0x461BCD PUSH1 0xE5 SHL DUP2 MSTORE PUSH1 0x20 PUSH1 0x4 DUP3 ADD MSTORE PUSH1 0xF PUSH1 0x24 DUP3 ADD MSTORE PUSH15 0x15DA5D1A191C985DC819985A5B1959 PUSH1 0x8A SHL PUSH1 0x44 DUP3 ADD MSTORE PUSH1 0x64 ADD PUSH2 0x781 JUMP JUMPDEST POP JUMP JUMPDEST PUSH2 0x919 DUP4 DUP4 DUP4 PUSH1 0x40 MLOAD DUP1 PUSH1 0x20 ADD PUSH1 0x40 MSTORE DUP1 PUSH0 DUP2 MSTORE POP PUSH2 0xA93 JUMP JUMPDEST POP POP POP JUMP JUMPDEST PUSH0 PUSH2 0x584 DUP3 PUSH2 0xDE8 JUMP JUMPDEST PUSH2 0x930 PUSH2 0xFCA JUMP JUMPDEST PUSH0 JUMPDEST DUP2 DUP2 LT ISZERO PUSH2 0x919 JUMPI PUSH1 0x1 PUSH1 0xD PUSH0 DUP6 DUP6 DUP6 DUP2 DUP2 LT PUSH2 0x951 JUMPI PUSH2 0x951 PUSH2 0x251D JUMP JUMPDEST SWAP1 POP PUSH1 0x20 MUL ADD PUSH1 0x20 DUP2 ADD SWAP1 PUSH2 0x966 SWAP2 SWAP1 PUSH2 0x22AB JUMP JUMPDEST PUSH1 0x1 PUSH1 0x1 PUSH1 0xA0 SHL SUB AND DUP2 MSTORE PUSH1 0x20 DUP2 ADD SWAP2 SWAP1 SWAP2 MSTORE PUSH1 0x40 ADD PUSH0 KECCAK256 DUP1 SLOAD PUSH1 0xFF NOT AND SWAP2 ISZERO ISZERO SWAP2 SWAP1 SWAP2 OR SWAP1 SSTORE PUSH1 0x1 ADD PUSH2 0x932 JUMP JUMPDEST PUSH0 PUSH1 0x1 PUSH1 0x1 PUSH1 0xA0 SHL SUB DUP3 AND PUSH2 0x9BF JUMPI PUSH1 0x40 MLOAD PUSH4 0x22718AD9 PUSH1 0xE2 SHL DUP2 MSTORE PUSH0 PUSH1 0x4 DUP3 ADD MSTORE PUSH1 0x24 ADD PUSH2 0x781 JUMP JUMPDEST POP PUSH1 0x1 PUSH1 0x1 PUSH1 0xA0 SHL SUB AND PUSH0 SWAP1 DUP2 MSTORE PUSH1 0x3 PUSH1 0x20 MSTORE PUSH1 0x40 SWAP1 KECCAK256 SLOAD SWAP1 JUMP JUMPDEST PUSH1 0x40 MLOAD PUSH3 0x461BCD PUSH1 0xE5 SHL DUP2 MSTORE PUSH1 0x20 PUSH1 0x4 DUP3 ADD MSTORE PUSH1 0x1D PUSH1 0x24 DUP3 ADD MSTORE PUSH32 0x72656E6F756E63654F776E6572736869702069732064697361626C6564000000 PUSH1 0x44 DUP3 ADD MSTORE PUSH1 0x64 ADD PUSH2 0x781 JUMP JUMPDEST PUSH2 0xA2A PUSH2 0xFCA JUMP JUMPDEST PUSH2 0x3E8 PUSH1 0x1 PUSH1 0x1 PUSH1 0x60 SHL SUB DUP3 AND GT ISZERO PUSH2 0xA6F JUMPI PUSH1 0x40 MLOAD PUSH3 0x461BCD PUSH1 0xE5 SHL DUP2 MSTORE PUSH1 0x20 PUSH1 0x4 DUP3 ADD MSTORE PUSH1 0x7 PUSH1 0x24 DUP3 ADD MSTORE PUSH7 0x4D617820313025 PUSH1 0xC8 SHL PUSH1 0x44 DUP3 ADD MSTORE PUSH1 0x64 ADD PUSH2 0x781 JUMP JUMPDEST PUSH2 0x64B DUP3 DUP3 PUSH2 0xFF7 JUMP JUMPDEST PUSH1 0x60 PUSH1 0x1 DUP1 SLOAD PUSH2 0x598 SWAP1 PUSH2 0x2473 JUMP JUMPDEST PUSH2 0x64B CALLER DUP4 DUP4 PUSH2 0x1099 JUMP JUMPDEST PUSH2 0xA9E DUP5 DUP5 DUP5 PUSH2 0x75C JUMP JUMPDEST PUSH2 0x7E4 CALLER DUP6 DUP6 DUP6 DUP6 PUSH2 0x1137 JUMP JUMPDEST PUSH1 0x60 PUSH2 0xAB6 DUP3 PUSH2 0x125F JUMP JUMPDEST PUSH2 0xAD3 JUMPI PUSH1 0x40 MLOAD PUSH4 0x163A09E1 PUSH1 0xE3 SHL DUP2 MSTORE PUSH1 0x4 ADD PUSH1 0x40 MLOAD DUP1 SWAP2 SUB SWAP1 REVERT JUMPDEST PUSH0 DUP3 DUP2 MSTORE PUSH1 0xA PUSH1 0x20 MSTORE PUSH1 0x40 DUP1 DUP3 KECCAK256 SLOAD SWAP1 MLOAD PUSH4 0x2158AA5 PUSH1 0xE1 SHL DUP2 MSTORE PUSH1 0x4 DUP2 ADD DUP3 SWAP1 MSTORE SWAP1 SWAP2 SWAP1 PUSH2 0xB76 SWAP1 PUSH32 0x0 PUSH1 0x1 PUSH1 0x1 PUSH1 0xA0 SHL SUB AND SWAP1 PUSH4 0x42B154A SWAP1 PUSH1 0x24 ADD PUSH0 PUSH1 0x40 MLOAD DUP1 DUP4 SUB DUP2 DUP7 GAS STATICCALL ISZERO DUP1 ISZERO PUSH2 0xB4A JUMPI RETURNDATASIZE PUSH0 DUP1 RETURNDATACOPY RETURNDATASIZE PUSH0 REVERT JUMPDEST POP POP POP POP PUSH1 0x40 MLOAD RETURNDATASIZE PUSH0 DUP3 RETURNDATACOPY PUSH1 0x1F RETURNDATASIZE SWAP1 DUP2 ADD PUSH1 0x1F NOT AND DUP3 ADD PUSH1 0x40 MSTORE PUSH2 0xB71 SWAP2 SWAP1 DUP2 ADD SWAP1 PUSH2 0x2531 JUMP JUMPDEST PUSH2 0x1294 JUMP JUMPDEST SWAP1 POP PUSH0 PUSH2 0xB82 DUP4 PUSH2 0x12BA JUMP JUMPDEST SWAP1 POP PUSH0 PUSH2 0xB8E DUP5 PUSH2 0x1303 JUMP JUMPDEST SWAP1 POP PUSH0 DUP3 PUSH2 0xBB9 JUMPI PUSH1 0x40 MLOAD DUP1 PUSH1 0x40 ADD PUSH1 0x40 MSTORE DUP1 PUSH1 0x5 DUP2 MSTORE PUSH1 0x20 ADD PUSH5 0x66616C7365 PUSH1 0xD8 SHL DUP2 MSTORE POP PUSH2 0xBD7 JUMP JUMPDEST PUSH1 0x40 MLOAD DUP1 PUSH1 0x40 ADD PUSH1 0x40 MSTORE DUP1 PUSH1 0x4 DUP2 MSTORE PUSH1 0x20 ADD PUSH4 0x74727565 PUSH1 0xE0 SHL DUP2 MSTORE POP JUMPDEST PUSH2 0xBE3 DUP4 PUSH1 0xFF AND PUSH2 0x1448 JUMP JUMPDEST PUSH2 0xBEE DUP8 PUSH1 0x20 PUSH2 0x14D8 JUMP JUMPDEST PUSH1 0x40 MLOAD PUSH1 0x20 ADD PUSH2 0xC00 SWAP4 SWAP3 SWAP2 SWAP1 PUSH2 0x25BD JUMP JUMPDEST PUSH1 0x40 MLOAD PUSH1 0x20 DUP2 DUP4 SUB SUB DUP2 MSTORE SWAP1 PUSH1 0x40 MSTORE SWAP1 POP PUSH0 PUSH2 0xC46 PUSH2 0xC1E DUP10 PUSH2 0x1448 JUMP JUMPDEST DUP7 DUP5 PUSH1 0x40 MLOAD PUSH1 0x20 ADD PUSH2 0xC32 SWAP4 SWAP3 SWAP2 SWAP1 PUSH2 0x26AA JUMP JUMPDEST PUSH1 0x40 MLOAD PUSH1 0x20 DUP2 DUP4 SUB SUB DUP2 MSTORE SWAP1 PUSH1 0x40 MSTORE PUSH2 0x1294 JUMP JUMPDEST SWAP1 POP DUP1 PUSH1 0x40 MLOAD PUSH1 0x20 ADD PUSH2 0xC59 SWAP2 SWAP1 PUSH2 0x28A5 JUMP JUMPDEST PUSH1 0x40 MLOAD PUSH1 0x20 DUP2 DUP4 SUB SUB DUP2 MSTORE SWAP1 PUSH1 0x40 MSTORE SWAP7 POP POP POP POP POP POP POP SWAP2 SWAP1 POP JUMP JUMPDEST PUSH2 0xC7D PUSH2 0xFCA JUMP JUMPDEST PUSH1 0xC SLOAD PUSH2 0x100 SWAP1 DIV PUSH1 0xFF AND PUSH2 0xCC5 JUMPI PUSH1 0x40 MLOAD PUSH3 0x461BCD PUSH1 0xE5 SHL DUP2 MSTORE PUSH1 0x20 PUSH1 0x4 DUP3 ADD MSTORE PUSH1 0xE PUSH1 0x24 DUP3 ADD MSTORE PUSH14 0x416C7265616479207075626C6963 PUSH1 0x90 SHL PUSH1 0x44 DUP3 ADD MSTORE PUSH1 0x64 ADD PUSH2 0x781 JUMP JUMPDEST PUSH1 0xC DUP1 SLOAD PUSH2 0xFF00 NOT AND SWAP1 SSTORE PUSH1 0x40 MLOAD PUSH32 0x2D35C8D348A345FD7B3B03B7CFCF7AD0B60C2D46742D5CA536342E4185BECB07 SWAP1 PUSH0 SWAP1 LOG1 JUMP JUMPDEST PUSH2 0xD02 PUSH2 0xFCA JUMP JUMPDEST PUSH1 0xC SLOAD PUSH1 0xFF AND ISZERO PUSH2 0xD26 JUMPI PUSH1 0x40 MLOAD PUSH4 0x39F3829B PUSH1 0xE0 SHL DUP2 MSTORE PUSH1 0x4 ADD PUSH1 0x40 MLOAD DUP1 SWAP2 SUB SWAP1 REVERT JUMPDEST PUSH1 0xC DUP1 SLOAD PUSH1 0xFF NOT AND PUSH1 0x1 OR SWAP1 SSTORE PUSH1 0x40 MLOAD PUSH32 0x38CB976174A5C48B8F7B2F07F69B47C271BA7F019948915DC12EFB770C2A542C SWAP1 PUSH0 SWAP1 LOG1 JUMP JUMPDEST PUSH1 0x1 PUSH1 0x1 PUSH1 0xA0 SHL SUB SWAP2 DUP3 AND PUSH0 SWAP1 DUP2 MSTORE PUSH1 0x5 PUSH1 0x20 SWAP1 DUP2 MSTORE PUSH1 0x40 DUP1 DUP4 KECCAK256 SWAP4 SWAP1 SWAP5 AND DUP3 MSTORE SWAP2 SWAP1 SWAP2 MSTORE KECCAK256 SLOAD PUSH1 0xFF AND SWAP1 JUMP JUMPDEST PUSH2 0xD92 PUSH2 0xFCA JUMP JUMPDEST PUSH1 0x1 PUSH1 0x1 PUSH1 0xA0 SHL SUB DUP2 AND PUSH2 0xDBB JUMPI PUSH1 0x40 MLOAD PUSH4 0x1E4FBDF7 PUSH1 0xE0 SHL DUP2 MSTORE PUSH0 PUSH1 0x4 DUP3 ADD MSTORE PUSH1 0x24 ADD PUSH2 0x781 JUMP JUMPDEST PUSH2 0x8FC DUP2 PUSH2 0x1652 JUMP JUMPDEST PUSH0 PUSH1 0x1 PUSH1 0x1 PUSH1 0xE0 SHL SUB NOT DUP3 AND PUSH4 0x152A902D PUSH1 0xE1 SHL EQ DUP1 PUSH2 0x584 JUMPI POP PUSH2 0x584 DUP3 PUSH2 0x16A3 JUMP JUMPDEST PUSH0 DUP2 DUP2 MSTORE PUSH1 0x2 PUSH1 0x20 MSTORE PUSH1 0x40 DUP2 KECCAK256 SLOAD PUSH1 0x1 PUSH1 0x1 PUSH1 0xA0 SHL SUB AND DUP1 PUSH2 0x584 JUMPI PUSH1 0x40 MLOAD PUSH4 0x7E273289 PUSH1 0xE0 SHL DUP2 MSTORE PUSH1 0x4 DUP2 ADD DUP5 SWAP1 MSTORE PUSH1 0x24 ADD PUSH2 0x781 JUMP JUMPDEST PUSH2 0x919 DUP4 DUP4 DUP4 PUSH1 0x1 PUSH2 0x16F2 JUMP JUMPDEST PUSH1 0x2 PUSH1 0x9 SLOAD SUB PUSH2 0xE50 JUMPI PUSH1 0x40 MLOAD PUSH4 0x3EE5AEB5 PUSH1 0xE0 SHL DUP2 MSTORE PUSH1 0x4 ADD PUSH1 0x40 MLOAD DUP1 SWAP2 SUB SWAP1 REVERT JUMPDEST PUSH1 0x2 PUSH1 0x9 SSTORE JUMP JUMPDEST PUSH0 PUSH2 0xE63 PUSH1 0x1 NUMBER PUSH2 0x24CC JUMP JUMPDEST PUSH1 0x40 DUP1 MLOAD SWAP2 BLOCKHASH PUSH1 0x20 DUP4 ADD MSTORE PREVRANDAO SWAP1 DUP3 ADD MSTORE PUSH12 0xFFFFFFFFFFFFFFFFFFFFFFFF NOT ADDRESS PUSH1 0x60 SWAP1 DUP2 SHL DUP3 AND DUP2 DUP5 ADD MSTORE PUSH1 0x74 DUP4 ADD DUP6 SWAP1 MSTORE CALLER SWAP1 SHL AND PUSH1 0x94 DUP3 ADD MSTORE PUSH1 0xA8 ADD PUSH1 0x40 MLOAD PUSH1 0x20 DUP2 DUP4 SUB SUB DUP2 MSTORE SWAP1 PUSH1 0x40 MSTORE DUP1 MLOAD SWAP1 PUSH1 0x20 ADD KECCAK256 SWAP1 POP SWAP2 SWAP1 POP JUMP JUMPDEST PUSH2 0x64B DUP3 DUP3 PUSH1 0x40 MLOAD DUP1 PUSH1 0x20 ADD PUSH1 0x40 MSTORE DUP1 PUSH0 DUP2 MSTORE POP PUSH2 0x17F6 JUMP JUMPDEST PUSH0 DUP3 DUP2 MSTORE PUSH1 0x2 PUSH1 0x20 MSTORE PUSH1 0x40 DUP2 KECCAK256 SLOAD PUSH1 0x1 PUSH1 0x1 PUSH1 0xA0 SHL SUB SWAP1 DUP2 AND SWAP1 DUP4 AND ISZERO PUSH2 0xF02 JUMPI PUSH2 0xF02 DUP2 DUP5 DUP7 PUSH2 0x180D JUMP JUMPDEST PUSH1 0x1 PUSH1 0x1 PUSH1 0xA0 SHL SUB DUP2 AND ISZERO PUSH2 0xF3C JUMPI PUSH2 0xF1D PUSH0 DUP6 PUSH0 DUP1 PUSH2 0x16F2 JUMP JUMPDEST PUSH1 0x1 PUSH1 0x1 PUSH1 0xA0 SHL SUB DUP2 AND PUSH0 SWAP1 DUP2 MSTORE PUSH1 0x3 PUSH1 0x20 MSTORE PUSH1 0x40 SWAP1 KECCAK256 DUP1 SLOAD PUSH0 NOT ADD SWAP1 SSTORE JUMPDEST PUSH1 0x1 PUSH1 0x1 PUSH1 0xA0 SHL SUB DUP6 AND ISZERO PUSH2 0xF6A JUMPI PUSH1 0x1 PUSH1 0x1 PUSH1 0xA0 SHL SUB DUP6 AND PUSH0 SWAP1 DUP2 MSTORE PUSH1 0x3 PUSH1 0x20 MSTORE PUSH1 0x40 SWAP1 KECCAK256 DUP1 SLOAD PUSH1 0x1 ADD SWAP1 SSTORE JUMPDEST PUSH0 DUP5 DUP2 MSTORE PUSH1 0x2 PUSH1 0x20 MSTORE PUSH1 0x40 DUP1 DUP3 KECCAK256 DUP1 SLOAD PUSH1 0x1 PUSH1 0x1 PUSH1 0xA0 SHL SUB NOT AND PUSH1 0x1 PUSH1 0x1 PUSH1 0xA0 SHL SUB DUP10 DUP2 AND SWAP2 DUP3 OR SWAP1 SWAP3 SSTORE SWAP2 MLOAD DUP8 SWAP4 SWAP2 DUP6 AND SWAP2 PUSH32 0xDDF252AD1BE2C89B69C2B068FC378DAA952BA7F163C4A11628F55A4DF523B3EF SWAP2 LOG4 SWAP1 POP JUMPDEST SWAP4 SWAP3 POP POP POP JUMP JUMPDEST PUSH1 0x8 SLOAD PUSH1 0x1 PUSH1 0x1 PUSH1 0xA0 SHL SUB AND CALLER EQ PUSH2 0x745 JUMPI PUSH1 0x40 MLOAD PUSH4 0x118CDAA7 PUSH1 0xE0 SHL DUP2 MSTORE CALLER PUSH1 0x4 DUP3 ADD MSTORE PUSH1 0x24 ADD PUSH2 0x781 JUMP JUMPDEST PUSH2 0x2710 PUSH1 0x1 PUSH1 0x1 PUSH1 0x60 SHL SUB DUP3 AND DUP2 LT ISZERO PUSH2 0x1036 JUMPI PUSH1 0x40 MLOAD PUSH4 0x6F483D09 PUSH1 0xE0 SHL DUP2 MSTORE PUSH1 0x1 PUSH1 0x1 PUSH1 0x60 SHL SUB DUP4 AND PUSH1 0x4 DUP3 ADD MSTORE PUSH1 0x24 DUP2 ADD DUP3 SWAP1 MSTORE PUSH1 0x44 ADD PUSH2 0x781 JUMP JUMPDEST PUSH1 0x1 PUSH1 0x1 PUSH1 0xA0 SHL SUB DUP4 AND PUSH2 0x105F JUMPI PUSH1 0x40 MLOAD PUSH4 0x5B6CC805 PUSH1 0xE1 SHL DUP2 MSTORE PUSH0 PUSH1 0x4 DUP3 ADD MSTORE PUSH1 0x24 ADD PUSH2 0x781 JUMP JUMPDEST POP PUSH1 0x40 DUP1 MLOAD DUP1 DUP3 ADD SWAP1 SWAP2 MSTORE PUSH1 0x1 PUSH1 0x1 PUSH1 0xA0 SHL SUB SWAP1 SWAP3 AND DUP1 DUP4 MSTORE PUSH1 0x1 PUSH1 0x1 PUSH1 0x60 SHL SUB SWAP1 SWAP2 AND PUSH1 0x20 SWAP1 SWAP3 ADD DUP3 SWAP1 MSTORE PUSH1 0x1 PUSH1 0xA0 SHL SWAP1 SWAP2 MUL OR PUSH1 0x6 SSTORE JUMP JUMPDEST PUSH1 0x1 PUSH1 0x1 PUSH1 0xA0 SHL SUB DUP3 AND PUSH2 0x10CB JUMPI PUSH1 0x40 MLOAD PUSH4 0xB611743 PUSH1 0xE3 SHL DUP2 MSTORE PUSH1 0x1 PUSH1 0x1 PUSH1 0xA0 SHL SUB DUP4 AND PUSH1 0x4 DUP3 ADD MSTORE PUSH1 0x24 ADD PUSH2 0x781 JUMP JUMPDEST PUSH1 0x1 PUSH1 0x1 PUSH1 0xA0 SHL SUB DUP4 DUP2 AND PUSH0 DUP2 DUP2 MSTORE PUSH1 0x5 PUSH1 0x20 SWAP1 DUP2 MSTORE PUSH1 0x40 DUP1 DUP4 KECCAK256 SWAP5 DUP8 AND DUP1 DUP5 MSTORE SWAP5 DUP3 MSTORE SWAP2 DUP3 SWAP1 KECCAK256 DUP1 SLOAD PUSH1 0xFF NOT AND DUP7 ISZERO ISZERO SWAP1 DUP2 OR SWAP1 SWAP2 SSTORE SWAP2 MLOAD SWAP2 DUP3 MSTORE PUSH32 0x17307EAB39AB6107E8899845AD3D59BD9653F200F220920489CA2B5937696C31 SWAP2 ADD PUSH1 0x40 MLOAD DUP1 SWAP2 SUB SWAP1 LOG3 POP POP POP JUMP JUMPDEST PUSH1 0x1 PUSH1 0x1 PUSH1 0xA0 SHL SUB DUP4 AND EXTCODESIZE ISZERO PUSH2 0x1258 JUMPI PUSH1 0x40 MLOAD PUSH4 0xA85BD01 PUSH1 0xE1 SHL DUP2 MSTORE PUSH1 0x1 PUSH1 0x1 PUSH1 0xA0 SHL SUB DUP5 AND SWAP1 PUSH4 0x150B7A02 SWAP1 PUSH2 0x1179 SWAP1 DUP9 SWAP1 DUP9 SWAP1 DUP8 SWAP1 DUP8 SWAP1 PUSH1 0x4 ADD PUSH2 0x28D6 JUMP JUMPDEST PUSH1 0x20 PUSH1 0x40 MLOAD DUP1 DUP4 SUB DUP2 PUSH0 DUP8 GAS CALL SWAP3 POP POP POP DUP1 ISZERO PUSH2 0x11B3 JUMPI POP PUSH1 0x40 DUP1 MLOAD PUSH1 0x1F RETURNDATASIZE SWAP1 DUP2 ADD PUSH1 0x1F NOT AND DUP3 ADD SWAP1 SWAP3 MSTORE PUSH2 0x11B0 SWAP2 DUP2 ADD SWAP1 PUSH2 0x2912 JUMP JUMPDEST PUSH1 0x1 JUMPDEST PUSH2 0x121A JUMPI RETURNDATASIZE DUP1 DUP1 ISZERO PUSH2 0x11E0 JUMPI PUSH1 0x40 MLOAD SWAP2 POP PUSH1 0x1F NOT PUSH1 0x3F RETURNDATASIZE ADD AND DUP3 ADD PUSH1 0x40 MSTORE RETURNDATASIZE DUP3 MSTORE RETURNDATASIZE PUSH0 PUSH1 0x20 DUP5 ADD RETURNDATACOPY PUSH2 0x11E5 JUMP JUMPDEST PUSH1 0x60 SWAP2 POP JUMPDEST POP DUP1 MLOAD PUSH0 SUB PUSH2 0x1212 JUMPI PUSH1 0x40 MLOAD PUSH4 0x32505749 PUSH1 0xE1 SHL DUP2 MSTORE PUSH1 0x1 PUSH1 0x1 PUSH1 0xA0 SHL SUB DUP6 AND PUSH1 0x4 DUP3 ADD MSTORE PUSH1 0x24 ADD PUSH2 0x781 JUMP JUMPDEST DUP1 MLOAD DUP2 PUSH1 0x20 ADD REVERT JUMPDEST PUSH1 0x1 PUSH1 0x1 PUSH1 0xE0 SHL SUB NOT DUP2 AND PUSH4 0xA85BD01 PUSH1 0xE1 SHL EQ PUSH2 0x1256 JUMPI PUSH1 0x40 MLOAD PUSH4 0x32505749 PUSH1 0xE1 SHL DUP2 MSTORE PUSH1 0x1 PUSH1 0x1 PUSH1 0xA0 SHL SUB DUP6 AND PUSH1 0x4 DUP3 ADD MSTORE PUSH1 0x24 ADD PUSH2 0x781 JUMP JUMPDEST POP JUMPDEST POP POP POP POP POP JUMP JUMPDEST PUSH0 DUP2 ISZERO DUP1 ISZERO SWAP1 PUSH2 0x1270 JUMPI POP PUSH1 0xB SLOAD DUP3 LT JUMPDEST DUP1 ISZERO PUSH2 0x584 JUMPI POP POP PUSH0 SWAP1 DUP2 MSTORE PUSH1 0x2 PUSH1 0x20 MSTORE PUSH1 0x40 SWAP1 KECCAK256 SLOAD PUSH1 0x1 PUSH1 0x1 PUSH1 0xA0 SHL SUB AND ISZERO ISZERO SWAP1 JUMP JUMPDEST PUSH1 0x60 PUSH2 0x584 DUP3 PUSH1 0x40 MLOAD DUP1 PUSH1 0x60 ADD PUSH1 0x40 MSTORE DUP1 PUSH1 0x40 DUP2 MSTORE PUSH1 0x20 ADD PUSH2 0x2A02 PUSH1 0x40 SWAP2 CODECOPY PUSH1 0x1 PUSH2 0x1871 JUMP JUMPDEST PUSH0 DUP1 PUSH0 JUMPDEST PUSH1 0x20 DUP2 LT ISZERO PUSH2 0x12F9 JUMPI PUSH2 0x12E2 DUP5 DUP3 PUSH1 0x20 DUP2 LT PUSH2 0x12DC JUMPI PUSH2 0x12DC PUSH2 0x251D JUMP JUMPDEST BYTE PUSH2 0x19EC JUMP JUMPDEST PUSH2 0x12EF SWAP1 PUSH1 0xFF AND DUP4 PUSH2 0x24B9 JUMP JUMPDEST SWAP2 POP PUSH1 0x1 ADD PUSH2 0x12BE JUMP JUMPDEST POP PUSH1 0x80 EQ SWAP3 SWAP2 POP POP JUMP JUMPDEST PUSH0 DUP1 PUSH2 0x130E DUP4 PUSH2 0x1A1A JUMP JUMPDEST SWAP1 POP PUSH2 0x1318 PUSH2 0x2082 JUMP JUMPDEST PUSH0 DUP1 JUMPDEST PUSH1 0x40 DUP2 PUSH1 0xFF AND LT ISZERO PUSH2 0x143F JUMPI DUP4 MLOAD PUSH1 0xFF DUP3 AND PUSH1 0x40 DUP2 LT PUSH2 0x133D JUMPI PUSH2 0x133D PUSH2 0x251D JUMP JUMPDEST PUSH1 0x20 MUL ADD MLOAD PUSH1 0xFF AND ISZERO ISZERO DUP1 PUSH2 0x1369 JUMPI POP DUP3 MLOAD PUSH1 0xFF DUP3 AND PUSH1 0x40 DUP2 LT PUSH2 0x1363 JUMPI PUSH2 0x1363 PUSH2 0x251D JUMP JUMPDEST PUSH1 0x20 MUL ADD MLOAD JUMPDEST PUSH2 0x1437 JUMPI PUSH2 0x1375 PUSH2 0x2082 JUMP JUMPDEST PUSH2 0x1381 DUP6 DUP6 DUP4 DUP6 PUSH2 0x1B47 JUMP JUMPDEST ISZERO PUSH2 0x1435 JUMPI DUP3 PUSH2 0x1390 DUP2 PUSH2 0x292D JUMP JUMPDEST SWAP4 POP POP PUSH0 JUMPDEST PUSH1 0x4 DUP2 PUSH1 0xFF AND LT ISZERO PUSH2 0x1433 JUMPI PUSH0 JUMPDEST PUSH1 0x40 DUP2 PUSH1 0xFF AND LT ISZERO PUSH2 0x142A JUMPI DUP3 DUP3 PUSH1 0xFF AND PUSH1 0x4 DUP2 LT PUSH2 0x13C4 JUMPI PUSH2 0x13C4 PUSH2 0x251D JUMP JUMPDEST PUSH1 0x20 MUL ADD MLOAD DUP2 PUSH1 0xFF AND PUSH1 0x40 DUP2 LT PUSH2 0x13DD JUMPI PUSH2 0x13DD PUSH2 0x251D JUMP JUMPDEST PUSH1 0x20 MUL ADD MLOAD ISZERO PUSH2 0x1422 JUMPI PUSH1 0x1 DUP7 DUP4 PUSH1 0xFF AND PUSH1 0x4 DUP2 LT PUSH2 0x13FE JUMPI PUSH2 0x13FE PUSH2 0x251D JUMP JUMPDEST PUSH1 0x20 MUL ADD MLOAD DUP3 PUSH1 0xFF AND PUSH1 0x40 DUP2 LT PUSH2 0x1417 JUMPI PUSH2 0x1417 PUSH2 0x251D JUMP JUMPDEST SWAP2 ISZERO ISZERO PUSH1 0x20 SWAP1 SWAP3 MUL ADD MSTORE JUMPDEST PUSH1 0x1 ADD PUSH2 0x13A3 JUMP JUMPDEST POP PUSH1 0x1 ADD PUSH2 0x1395 JUMP JUMPDEST POP JUMPDEST POP JUMPDEST PUSH1 0x1 ADD PUSH2 0x131B JUMP JUMPDEST POP SWAP5 SWAP4 POP POP POP POP JUMP JUMPDEST PUSH1 0x60 PUSH0 PUSH2 0x1454 DUP4 PUSH2 0x1DA7 JUMP JUMPDEST PUSH1 0x1 ADD SWAP1 POP PUSH0 DUP2 PUSH8 0xFFFFFFFFFFFFFFFF DUP2 GT ISZERO PUSH2 0x1473 JUMPI PUSH2 0x1473 PUSH2 0x2332 JUMP JUMPDEST PUSH1 0x40 MLOAD SWAP1 DUP1 DUP3 MSTORE DUP1 PUSH1 0x1F ADD PUSH1 0x1F NOT AND PUSH1 0x20 ADD DUP3 ADD PUSH1 0x40 MSTORE DUP1 ISZERO PUSH2 0x149D JUMPI PUSH1 0x20 DUP3 ADD DUP2 DUP1 CALLDATASIZE DUP4 CALLDATACOPY ADD SWAP1 POP JUMPDEST POP SWAP1 POP DUP2 DUP2 ADD PUSH1 0x20 ADD JUMPDEST PUSH0 NOT ADD PUSH16 0x181899199A1A9B1B9C1CB0B131B232B3 PUSH1 0x81 SHL PUSH1 0xA DUP7 MOD BYTE DUP2 MSTORE8 PUSH1 0xA DUP6 DIV SWAP5 POP DUP5 PUSH2 0x14A7 JUMPI POP SWAP4 SWAP3 POP POP POP JUMP JUMPDEST PUSH1 0x60 DUP3 PUSH0 PUSH2 0x14E7 DUP5 PUSH1 0x2 PUSH2 0x24DF JUMP JUMPDEST PUSH2 0x14F2 SWAP1 PUSH1 0x2 PUSH2 0x24B9 JUMP JUMPDEST PUSH8 0xFFFFFFFFFFFFFFFF DUP2 GT ISZERO PUSH2 0x150A JUMPI PUSH2 0x150A PUSH2 0x2332 JUMP JUMPDEST PUSH1 0x40 MLOAD SWAP1 DUP1 DUP3 MSTORE DUP1 PUSH1 0x1F ADD PUSH1 0x1F NOT AND PUSH1 0x20 ADD DUP3 ADD PUSH1 0x40 MSTORE DUP1 ISZERO PUSH2 0x1534 JUMPI PUSH1 0x20 DUP3 ADD DUP2 DUP1 CALLDATASIZE DUP4 CALLDATACOPY ADD SWAP1 POP JUMPDEST POP SWAP1 POP PUSH1 0x3 PUSH1 0xFC SHL DUP2 PUSH0 DUP2 MLOAD DUP2 LT PUSH2 0x154E JUMPI PUSH2 0x154E PUSH2 0x251D JUMP JUMPDEST PUSH1 0x20 ADD ADD SWAP1 PUSH1 0x1 PUSH1 0x1 PUSH1 0xF8 SHL SUB NOT AND SWAP1 DUP2 PUSH0 BYTE SWAP1 MSTORE8 POP PUSH1 0xF PUSH1 0xFB SHL DUP2 PUSH1 0x1 DUP2 MLOAD DUP2 LT PUSH2 0x157C JUMPI PUSH2 0x157C PUSH2 0x251D JUMP JUMPDEST PUSH1 0x20 ADD ADD SWAP1 PUSH1 0x1 PUSH1 0x1 PUSH1 0xF8 SHL SUB NOT AND SWAP1 DUP2 PUSH0 BYTE SWAP1 MSTORE8 POP PUSH0 PUSH2 0x159E DUP6 PUSH1 0x2 PUSH2 0x24DF JUMP JUMPDEST PUSH2 0x15A9 SWAP1 PUSH1 0x1 PUSH2 0x24B9 JUMP JUMPDEST SWAP1 POP JUMPDEST PUSH1 0x1 DUP2 GT ISZERO PUSH2 0x1620 JUMPI PUSH16 0x181899199A1A9B1B9C1CB0B131B232B3 PUSH1 0x81 SHL DUP4 PUSH1 0xF AND PUSH1 0x10 DUP2 LT PUSH2 0x15DD JUMPI PUSH2 0x15DD PUSH2 0x251D JUMP JUMPDEST BYTE PUSH1 0xF8 SHL DUP3 DUP3 DUP2 MLOAD DUP2 LT PUSH2 0x15F3 JUMPI PUSH2 0x15F3 PUSH2 0x251D JUMP JUMPDEST PUSH1 0x20 ADD ADD SWAP1 PUSH1 0x1 PUSH1 0x1 PUSH1 0xF8 SHL SUB NOT AND SWAP1 DUP2 PUSH0 BYTE SWAP1 MSTORE8 POP PUSH1 0x4 SWAP3 SWAP1 SWAP3 SHR SWAP2 PUSH2 0x1619 DUP2 PUSH2 0x294B JUMP JUMPDEST SWAP1 POP PUSH2 0x15AC JUMP JUMPDEST POP DUP2 ISZERO PUSH2 0x164A JUMPI PUSH1 0x40 MLOAD PUSH4 0xE22E27EB PUSH1 0xE0 SHL DUP2 MSTORE PUSH1 0x4 DUP2 ADD DUP7 SWAP1 MSTORE PUSH1 0x24 DUP2 ADD DUP6 SWAP1 MSTORE PUSH1 0x44 ADD PUSH2 0x781 JUMP JUMPDEST SWAP5 SWAP4 POP POP POP POP JUMP JUMPDEST PUSH1 0x8 DUP1 SLOAD PUSH1 0x1 PUSH1 0x1 PUSH1 0xA0 SHL SUB DUP4 DUP2 AND PUSH1 0x1 PUSH1 0x1 PUSH1 0xA0 SHL SUB NOT DUP4 AND DUP2 OR SWAP1 SWAP4 SSTORE PUSH1 0x40 MLOAD SWAP2 AND SWAP2 SWAP1 DUP3 SWAP1 PUSH32 0x8BE0079C531659141344CD1FD0A4F28419497F9722A3DAAFE3B4186F6B6457E0 SWAP1 PUSH0 SWAP1 LOG3 POP POP JUMP JUMPDEST PUSH0 PUSH1 0x1 PUSH1 0x1 PUSH1 0xE0 SHL SUB NOT DUP3 AND PUSH4 0x80AC58CD PUSH1 0xE0 SHL EQ DUP1 PUSH2 0x16D3 JUMPI POP PUSH1 0x1 PUSH1 0x1 PUSH1 0xE0 SHL SUB NOT DUP3 AND PUSH4 0x5B5E139F PUSH1 0xE0 SHL EQ JUMPDEST DUP1 PUSH2 0x584 JUMPI POP PUSH4 0x1FFC9A7 PUSH1 0xE0 SHL PUSH1 0x1 PUSH1 0x1 PUSH1 0xE0 SHL SUB NOT DUP4 AND EQ PUSH2 0x584 JUMP JUMPDEST DUP1 DUP1 PUSH2 0x1706 JUMPI POP PUSH1 0x1 PUSH1 0x1 PUSH1 0xA0 SHL SUB DUP3 AND ISZERO ISZERO JUMPDEST ISZERO PUSH2 0x17C7 JUMPI PUSH0 PUSH2 0x1715 DUP5 PUSH2 0xDE8 JUMP JUMPDEST SWAP1 POP PUSH1 0x1 PUSH1 0x1 PUSH1 0xA0 SHL SUB DUP4 AND ISZERO DUP1 ISZERO SWAP1 PUSH2 0x1741 JUMPI POP DUP3 PUSH1 0x1 PUSH1 0x1 PUSH1 0xA0 SHL SUB AND DUP2 PUSH1 0x1 PUSH1 0x1 PUSH1 0xA0 SHL SUB AND EQ ISZERO JUMPDEST DUP1 ISZERO PUSH2 0x1754 JUMPI POP PUSH2 0x1752 DUP2 DUP5 PUSH2 0xD5D JUMP JUMPDEST ISZERO JUMPDEST ISZERO PUSH2 0x177D JUMPI PUSH1 0x40 MLOAD PUSH4 0xA9FBF51F PUSH1 0xE0 SHL DUP2 MSTORE PUSH1 0x1 PUSH1 0x1 PUSH1 0xA0 SHL SUB DUP5 AND PUSH1 0x4 DUP3 ADD MSTORE PUSH1 0x24 ADD PUSH2 0x781 JUMP JUMPDEST DUP2 ISZERO PUSH2 0x17C5 JUMPI DUP4 DUP6 PUSH1 0x1 PUSH1 0x1 PUSH1 0xA0 SHL SUB AND DUP3 PUSH1 0x1 PUSH1 0x1 PUSH1 0xA0 SHL SUB AND PUSH32 0x8C5BE1E5EBEC7D5BD14F71427D1E84F3DD0314C0F7B2291E5B200AC8C7C3B925 PUSH1 0x40 MLOAD PUSH1 0x40 MLOAD DUP1 SWAP2 SUB SWAP1 LOG4 JUMPDEST POP JUMPDEST POP POP PUSH0 SWAP1 DUP2 MSTORE PUSH1 0x4 PUSH1 0x20 MSTORE PUSH1 0x40 SWAP1 KECCAK256 DUP1 SLOAD PUSH1 0x1 PUSH1 0x1 PUSH1 0xA0 SHL SUB NOT AND PUSH1 0x1 PUSH1 0x1 PUSH1 0xA0 SHL SUB SWAP3 SWAP1 SWAP3 AND SWAP2 SWAP1 SWAP2 OR SWAP1 SSTORE JUMP JUMPDEST PUSH2 0x1800 DUP4 DUP4 PUSH2 0x1E7E JUMP JUMPDEST PUSH2 0x919 CALLER PUSH0 DUP6 DUP6 DUP6 PUSH2 0x1137 JUMP JUMPDEST PUSH2 0x1818 DUP4 DUP4 DUP4 PUSH2 0x1EDF JUMP JUMPDEST PUSH2 0x919 JUMPI PUSH1 0x1 PUSH1 0x1 PUSH1 0xA0 SHL SUB DUP4 AND PUSH2 0x1846 JUMPI PUSH1 0x40 MLOAD PUSH4 0x7E273289 PUSH1 0xE0 SHL DUP2 MSTORE PUSH1 0x4 DUP2 ADD DUP3 SWAP1 MSTORE PUSH1 0x24 ADD PUSH2 0x781 JUMP JUMPDEST PUSH1 0x40 MLOAD PUSH4 0x177E802F PUSH1 0xE0 SHL DUP2 MSTORE PUSH1 0x1 PUSH1 0x1 PUSH1 0xA0 SHL SUB DUP4 AND PUSH1 0x4 DUP3 ADD MSTORE PUSH1 0x24 DUP2 ADD DUP3 SWAP1 MSTORE PUSH1 0x44 ADD PUSH2 0x781 JUMP JUMPDEST PUSH1 0x60 DUP4 MLOAD PUSH0 SUB PUSH2 0x188F JUMPI POP PUSH1 0x40 DUP1 MLOAD PUSH1 0x20 DUP2 ADD SWAP1 SWAP2 MSTORE PUSH0 DUP2 MSTORE PUSH2 0xFC3 JUMP JUMPDEST PUSH0 DUP3 PUSH2 0x18BF JUMPI PUSH1 0x3 DUP6 MLOAD PUSH1 0x4 PUSH2 0x18A5 SWAP2 SWAP1 PUSH2 0x24DF JUMP JUMPDEST PUSH2 0x18B0 SWAP1 PUSH1 0x2 PUSH2 0x24B9 JUMP JUMPDEST PUSH2 0x18BA SWAP2 SWAP1 PUSH2 0x250A JUMP JUMPDEST PUSH2 0x18E4 JUMP JUMPDEST PUSH1 0x3 DUP6 MLOAD PUSH1 0x2 PUSH2 0x18CF SWAP2 SWAP1 PUSH2 0x24B9 JUMP JUMPDEST PUSH2 0x18D9 SWAP2 SWAP1 PUSH2 0x250A JUMP JUMPDEST PUSH2 0x18E4 SWAP1 PUSH1 0x4 PUSH2 0x24DF JUMP JUMPDEST SWAP1 POP PUSH0 DUP2 PUSH8 0xFFFFFFFFFFFFFFFF DUP2 GT ISZERO PUSH2 0x1900 JUMPI PUSH2 0x1900 PUSH2 0x2332 JUMP JUMPDEST PUSH1 0x40 MLOAD SWAP1 DUP1 DUP3 MSTORE DUP1 PUSH1 0x1F ADD PUSH1 0x1F NOT AND PUSH1 0x20 ADD DUP3 ADD PUSH1 0x40 MSTORE DUP1 ISZERO PUSH2 0x192A JUMPI PUSH1 0x20 DUP3 ADD DUP2 DUP1 CALLDATASIZE DUP4 CALLDATACOPY ADD SWAP1 POP JUMPDEST POP SWAP1 POP PUSH1 0x1 DUP6 ADD PUSH1 0x20 DUP3 ADD DUP8 DUP9 MLOAD DUP10 ADD PUSH1 0x20 DUP2 ADD DUP1 MLOAD PUSH0 DUP3 MSTORE JUMPDEST DUP3 DUP5 LT ISZERO PUSH2 0x199F JUMPI PUSH1 0x3 DUP5 ADD SWAP4 POP DUP4 MLOAD PUSH1 0x3F DUP2 PUSH1 0x12 SHR AND DUP8 ADD MLOAD DUP7 MSTORE8 PUSH1 0x1 DUP7 ADD SWAP6 POP PUSH1 0x3F DUP2 PUSH1 0xC SHR AND DUP8 ADD MLOAD DUP7 MSTORE8 PUSH1 0x1 DUP7 ADD SWAP6 POP PUSH1 0x3F DUP2 PUSH1 0x6 SHR AND DUP8 ADD MLOAD DUP7 MSTORE8 PUSH1 0x1 DUP7 ADD SWAP6 POP PUSH1 0x3F DUP2 AND DUP8 ADD MLOAD DUP7 MSTORE8 POP PUSH1 0x1 DUP6 ADD SWAP5 POP PUSH2 0x1944 JUMP JUMPDEST SWAP1 MSTORE POP POP DUP6 ISZERO PUSH2 0x19E0 JUMPI PUSH1 0x3 DUP9 MLOAD MOD PUSH1 0x1 DUP2 EQ PUSH2 0x19C3 JUMPI PUSH1 0x2 DUP2 EQ PUSH2 0x19D6 JUMPI PUSH2 0x19DE JUMP JUMPDEST PUSH1 0x3D PUSH1 0x1 DUP4 SUB MSTORE8 PUSH1 0x3D PUSH1 0x2 DUP4 SUB MSTORE8 PUSH2 0x19DE JUMP JUMPDEST PUSH1 0x3D PUSH1 0x1 DUP4 SUB MSTORE8 JUMPDEST POP JUMPDEST POP SWAP1 SWAP7 SWAP6 POP POP POP POP POP POP JUMP JUMPDEST PUSH0 JUMPDEST PUSH1 0xFF DUP3 AND ISZERO PUSH2 0x1A15 JUMPI PUSH2 0x1A04 PUSH1 0x1 DUP4 AND DUP3 PUSH2 0x2960 JUMP JUMPDEST SWAP1 POP PUSH1 0x1 DUP3 PUSH1 0xFF AND SWAP1 SHR SWAP2 POP PUSH2 0x19EE JUMP JUMPDEST SWAP2 SWAP1 POP JUMP JUMPDEST PUSH2 0x1A22 PUSH2 0x20AF JUMP JUMPDEST PUSH0 JUMPDEST PUSH1 0x20 DUP2 LT ISZERO PUSH2 0x1B41 JUMPI PUSH0 PUSH1 0x4 DUP5 DUP4 PUSH1 0x20 DUP2 LT PUSH2 0x1A42 JUMPI PUSH2 0x1A42 PUSH2 0x251D JUMP JUMPDEST BYTE SWAP1 SHR SWAP1 POP PUSH0 DUP5 DUP4 PUSH1 0x20 DUP2 LT PUSH2 0x1A5A JUMPI PUSH2 0x1A5A PUSH2 0x251D JUMP JUMPDEST BYTE PUSH1 0xF AND SWAP1 POP PUSH0 JUMPDEST PUSH1 0x4 DUP2 PUSH1 0xFF AND LT ISZERO PUSH2 0x1B33 JUMPI PUSH2 0x1A79 DUP2 PUSH1 0x3 PUSH2 0x2979 JUMP JUMPDEST PUSH1 0xFF AND DUP4 PUSH1 0xFF AND SWAP1 SHR PUSH1 0x1 AND DUP6 DUP3 PUSH1 0xFF AND PUSH1 0x4 DUP2 LT PUSH2 0x1A9A JUMPI PUSH2 0x1A9A PUSH2 0x251D JUMP JUMPDEST PUSH1 0x20 MUL ADD MLOAD PUSH2 0x1AAA DUP7 PUSH1 0x2 PUSH2 0x24DF JUMP JUMPDEST PUSH1 0x40 DUP2 LT PUSH2 0x1ABA JUMPI PUSH2 0x1ABA PUSH2 0x251D JUMP JUMPDEST PUSH1 0xFF SWAP1 SWAP3 AND PUSH1 0x20 SWAP3 SWAP1 SWAP3 MUL ADD MSTORE PUSH2 0x1AD2 DUP2 PUSH1 0x3 PUSH2 0x2979 JUMP JUMPDEST PUSH1 0xFF AND DUP3 PUSH1 0xFF AND SWAP1 SHR PUSH1 0x1 AND DUP6 DUP3 PUSH1 0xFF AND PUSH1 0x4 DUP2 LT PUSH2 0x1AF3 JUMPI PUSH2 0x1AF3 PUSH2 0x251D JUMP JUMPDEST PUSH1 0x20 MUL ADD MLOAD PUSH2 0x1B03 DUP7 PUSH1 0x2 PUSH2 0x24DF JUMP JUMPDEST PUSH2 0x1B0E SWAP1 PUSH1 0x1 PUSH2 0x24B9 JUMP JUMPDEST PUSH1 0x40 DUP2 LT PUSH2 0x1B1E JUMPI PUSH2 0x1B1E PUSH2 0x251D JUMP JUMPDEST PUSH1 0xFF SWAP1 SWAP3 AND PUSH1 0x20 SWAP3 SWAP1 SWAP3 MUL ADD MSTORE PUSH1 0x1 ADD PUSH2 0x1A62 JUMP JUMPDEST POP POP POP DUP1 PUSH1 0x1 ADD SWAP1 POP PUSH2 0x1A24 JUMP JUMPDEST POP SWAP2 SWAP1 POP JUMP JUMPDEST PUSH0 PUSH2 0x1B50 PUSH2 0x20DC JUMP JUMPDEST PUSH2 0x1B58 PUSH2 0x20DC JUMP JUMPDEST PUSH0 DUP1 DUP4 MSTORE PUSH1 0xFF DUP6 AND DUP3 MSTORE PUSH1 0x1 JUMPDEST DUP1 DUP3 LT ISZERO PUSH2 0x1D9B JUMPI PUSH0 DUP5 DUP4 PUSH2 0x100 DUP2 LT PUSH2 0x1B81 JUMPI PUSH2 0x1B81 PUSH2 0x251D JUMP JUMPDEST PUSH1 0x20 MUL ADD MLOAD SWAP1 POP PUSH0 DUP5 DUP5 PUSH2 0x100 DUP2 LT PUSH2 0x1B9C JUMPI PUSH2 0x1B9C PUSH2 0x251D JUMP JUMPDEST PUSH1 0x20 MUL ADD MLOAD SWAP1 POP DUP4 PUSH2 0x1BAD DUP2 PUSH2 0x2992 JUMP JUMPDEST SWAP5 POP POP DUP9 DUP3 PUSH2 0xFFFF AND PUSH1 0x4 DUP2 LT PUSH2 0x1BC6 JUMPI PUSH2 0x1BC6 PUSH2 0x251D JUMP JUMPDEST PUSH1 0x20 MUL ADD MLOAD DUP2 PUSH2 0xFFFF AND PUSH1 0x40 DUP2 LT PUSH2 0x1BE0 JUMPI PUSH2 0x1BE0 PUSH2 0x251D JUMP JUMPDEST PUSH1 0x20 MUL ADD MLOAD DUP1 PUSH2 0x1C26 JUMPI POP DUP11 DUP3 PUSH2 0xFFFF AND PUSH1 0x4 DUP2 LT PUSH2 0x1C01 JUMPI PUSH2 0x1C01 PUSH2 0x251D JUMP JUMPDEST PUSH1 0x20 MUL ADD MLOAD DUP2 PUSH2 0xFFFF AND PUSH1 0x40 DUP2 LT PUSH2 0x1C1B JUMPI PUSH2 0x1C1B PUSH2 0x251D JUMP JUMPDEST PUSH1 0x20 MUL ADD MLOAD PUSH1 0xFF AND ISZERO ISZERO JUMPDEST ISZERO PUSH2 0x1C32 JUMPI POP POP PUSH2 0x1B65 JUMP JUMPDEST PUSH1 0x1 DUP10 DUP4 PUSH2 0xFFFF AND PUSH1 0x4 DUP2 LT PUSH2 0x1C4A JUMPI PUSH2 0x1C4A PUSH2 0x251D JUMP JUMPDEST PUSH1 0x20 MUL ADD MLOAD DUP3 PUSH2 0xFFFF AND PUSH1 0x40 DUP2 LT PUSH2 0x1C64 JUMPI PUSH2 0x1C64 PUSH2 0x251D JUMP JUMPDEST SWAP2 ISZERO ISZERO PUSH1 0x20 SWAP1 SWAP3 MUL ADD MSTORE PUSH2 0xFFFF DUP3 AND PUSH1 0x3 SUB PUSH2 0x1C7F JUMPI PUSH1 0x1 SWAP7 POP JUMPDEST PUSH0 PUSH1 0x40 MLOAD DUP1 PUSH1 0x80 ADD PUSH1 0x40 MSTORE DUP1 DUP5 PUSH1 0x1 PUSH2 0x1C98 SWAP2 SWAP1 PUSH2 0x29AA JUMP JUMPDEST PUSH2 0xFFFF AND PUSH2 0xFFFF AND DUP2 MSTORE PUSH1 0x20 ADD DUP5 PUSH2 0xFFFF AND PUSH0 EQ PUSH2 0x1CC0 JUMPI PUSH2 0x1CBB PUSH1 0x1 DUP7 PUSH2 0x29C4 JUMP JUMPDEST PUSH2 0x1CC2 JUMP JUMPDEST PUSH0 JUMPDEST PUSH2 0xFFFF SWAP1 DUP2 AND DUP3 MSTORE DUP6 DUP2 AND PUSH1 0x20 DUP1 DUP5 ADD DUP3 SWAP1 MSTORE PUSH1 0x40 SWAP4 DUP5 ADD SWAP2 SWAP1 SWAP2 MSTORE DUP3 MLOAD PUSH1 0x80 DUP2 ADD DUP5 MSTORE SWAP2 DUP7 AND DUP1 DUP4 MSTORE SWAP1 DUP3 ADD MSTORE SWAP2 SWAP3 POP PUSH0 SWAP2 SWAP1 DUP2 DUP2 ADD SWAP1 PUSH2 0x1D05 DUP7 PUSH1 0x1 PUSH2 0x29AA JUMP JUMPDEST PUSH2 0x1D0F SWAP2 SWAP1 PUSH2 0x29DE JUMP JUMPDEST PUSH2 0xFFFF AND DUP2 MSTORE PUSH1 0x20 ADD PUSH1 0x40 PUSH2 0x1D25 DUP7 PUSH1 0x3F PUSH2 0x29AA JUMP JUMPDEST PUSH2 0x1D2F SWAP2 SWAP1 PUSH2 0x29DE JUMP JUMPDEST PUSH2 0xFFFF AND SWAP1 MSTORE SWAP1 POP PUSH0 JUMPDEST PUSH1 0x4 DUP2 PUSH1 0xFF AND LT ISZERO PUSH2 0x1D91 JUMPI PUSH2 0x1D87 DUP15 DUP15 DUP15 DUP13 DUP13 DUP9 DUP8 PUSH1 0xFF AND PUSH1 0x4 DUP2 LT PUSH2 0x1D62 JUMPI PUSH2 0x1D62 PUSH2 0x251D JUMP JUMPDEST PUSH1 0x20 MUL ADD MLOAD DUP9 DUP9 PUSH1 0xFF AND PUSH1 0x4 DUP2 LT PUSH2 0x1D7C JUMPI PUSH2 0x1D7C PUSH2 0x251D JUMP JUMPDEST PUSH1 0x20 MUL ADD MLOAD DUP14 PUSH2 0x1F40 JUMP JUMPDEST SWAP6 POP PUSH1 0x1 ADD PUSH2 0x1D39 JUMP JUMPDEST POP POP POP POP POP PUSH2 0x1B65 JUMP JUMPDEST POP POP POP POP SWAP5 SWAP4 POP POP POP POP JUMP JUMPDEST PUSH0 DUP1 PUSH19 0x184F03E93FF9F4DAA797ED6E38ED64BF6A1F01 PUSH1 0x40 SHL DUP4 LT PUSH2 0x1DE5 JUMPI PUSH19 0x184F03E93FF9F4DAA797ED6E38ED64BF6A1F01 PUSH1 0x40 SHL DUP4 DIV SWAP3 POP PUSH1 0x40 ADD JUMPDEST PUSH14 0x4EE2D6D415B85ACEF8100000000 DUP4 LT PUSH2 0x1E11 JUMPI PUSH14 0x4EE2D6D415B85ACEF8100000000 DUP4 DIV SWAP3 POP PUSH1 0x20 ADD JUMPDEST PUSH7 0x2386F26FC10000 DUP4 LT PUSH2 0x1E2F JUMPI PUSH7 0x2386F26FC10000 DUP4 DIV SWAP3 POP PUSH1 0x10 ADD JUMPDEST PUSH4 0x5F5E100 DUP4 LT PUSH2 0x1E47 JUMPI PUSH4 0x5F5E100 DUP4 DIV SWAP3 POP PUSH1 0x8 ADD JUMPDEST PUSH2 0x2710 DUP4 LT PUSH2 0x1E5B JUMPI PUSH2 0x2710 DUP4 DIV SWAP3 POP PUSH1 0x4 ADD JUMPDEST PUSH1 0x64 DUP4 LT PUSH2 0x1E6D JUMPI PUSH1 0x64 DUP4 DIV SWAP3 POP PUSH1 0x2 ADD JUMPDEST PUSH1 0xA DUP4 LT PUSH2 0x584 JUMPI PUSH1 0x1 ADD SWAP3 SWAP2 POP POP JUMP JUMPDEST PUSH1 0x1 PUSH1 0x1 PUSH1 0xA0 SHL SUB DUP3 AND PUSH2 0x1EA7 JUMPI PUSH1 0x40 MLOAD PUSH4 0x32505749 PUSH1 0xE1 SHL DUP2 MSTORE PUSH0 PUSH1 0x4 DUP3 ADD MSTORE PUSH1 0x24 ADD PUSH2 0x781 JUMP JUMPDEST PUSH0 PUSH2 0x1EB3 DUP4 DUP4 PUSH0 PUSH2 0xED6 JUMP JUMPDEST SWAP1 POP PUSH1 0x1 PUSH1 0x1 PUSH1 0xA0 SHL SUB DUP2 AND ISZERO PUSH2 0x919 JUMPI PUSH1 0x40 MLOAD PUSH4 0x39E35637 PUSH1 0xE1 SHL DUP2 MSTORE PUSH0 PUSH1 0x4 DUP3 ADD MSTORE PUSH1 0x24 ADD PUSH2 0x781 JUMP JUMPDEST PUSH0 PUSH1 0x1 PUSH1 0x1 PUSH1 0xA0 SHL SUB DUP4 AND ISZERO DUP1 ISZERO SWAP1 PUSH2 0x164A JUMPI POP DUP3 PUSH1 0x1 PUSH1 0x1 PUSH1 0xA0 SHL SUB AND DUP5 PUSH1 0x1 PUSH1 0x1 PUSH1 0xA0 SHL SUB AND EQ DUP1 PUSH2 0x1F18 JUMPI POP PUSH2 0x1F18 DUP5 DUP5 PUSH2 0xD5D JUMP JUMPDEST DUP1 PUSH2 0x164A JUMPI POP POP PUSH0 SWAP1 DUP2 MSTORE PUSH1 0x4 PUSH1 0x20 MSTORE PUSH1 0x40 SWAP1 KECCAK256 SLOAD PUSH1 0x1 PUSH1 0x1 PUSH1 0xA0 SHL SUB SWAP1 DUP2 AND SWAP2 AND EQ SWAP2 SWAP1 POP JUMP JUMPDEST PUSH0 PUSH1 0x4 DUP5 PUSH2 0xFFFF AND LT ISZERO DUP1 PUSH2 0x1F5A JUMPI POP PUSH1 0x40 DUP4 PUSH2 0xFFFF AND LT ISZERO JUMPDEST ISZERO PUSH2 0x1F66 JUMPI POP DUP1 PUSH2 0x2076 JUMP JUMPDEST DUP7 DUP5 PUSH2 0xFFFF AND PUSH1 0x4 DUP2 LT PUSH2 0x1F7C JUMPI PUSH2 0x1F7C PUSH2 0x251D JUMP JUMPDEST PUSH1 0x20 MUL ADD MLOAD DUP4 PUSH2 0xFFFF AND PUSH1 0x40 DUP2 LT PUSH2 0x1F96 JUMPI PUSH2 0x1F96 PUSH2 0x251D JUMP JUMPDEST PUSH1 0x20 MUL ADD MLOAD DUP1 PUSH2 0x1FD7 JUMPI POP DUP8 DUP5 PUSH2 0xFFFF AND PUSH1 0x4 DUP2 LT PUSH2 0x1FB7 JUMPI PUSH2 0x1FB7 PUSH2 0x251D JUMP JUMPDEST PUSH1 0x20 MUL ADD MLOAD DUP4 PUSH2 0xFFFF AND PUSH1 0x40 DUP2 LT PUSH2 0x1FD1 JUMPI PUSH2 0x1FD1 PUSH2 0x251D JUMP JUMPDEST PUSH1 0x20 MUL ADD MLOAD JUMPDEST DUP1 PUSH2 0x2018 JUMPI POP DUP9 DUP5 PUSH2 0xFFFF AND PUSH1 0x4 DUP2 LT PUSH2 0x1FF3 JUMPI PUSH2 0x1FF3 PUSH2 0x251D JUMP JUMPDEST PUSH1 0x20 MUL ADD MLOAD DUP4 PUSH2 0xFFFF AND PUSH1 0x40 DUP2 LT PUSH2 0x200D JUMPI PUSH2 0x200D PUSH2 0x251D JUMP JUMPDEST PUSH1 0x20 MUL ADD MLOAD PUSH1 0xFF AND ISZERO ISZERO JUMPDEST ISZERO PUSH2 0x2024 JUMPI POP DUP1 PUSH2 0x2076 JUMP JUMPDEST DUP4 DUP7 DUP4 PUSH2 0x100 DUP2 LT PUSH2 0x2038 JUMPI PUSH2 0x2038 PUSH2 0x251D JUMP JUMPDEST PUSH2 0xFFFF SWAP1 SWAP3 AND PUSH1 0x20 SWAP3 SWAP1 SWAP3 MUL ADD MSTORE DUP3 DUP6 DUP4 PUSH2 0x100 DUP2 LT PUSH2 0x205A JUMPI PUSH2 0x205A PUSH2 0x251D JUMP JUMPDEST PUSH2 0xFFFF SWAP1 SWAP3 AND PUSH1 0x20 SWAP3 SWAP1 SWAP3 MUL ADD MSTORE PUSH2 0x2073 DUP3 PUSH1 0x1 PUSH2 0x24B9 JUMP JUMPDEST SWAP1 POP JUMPDEST SWAP9 SWAP8 POP POP POP POP POP POP POP POP JUMP JUMPDEST PUSH1 0x40 MLOAD DUP1 PUSH1 0x80 ADD PUSH1 0x40 MSTORE DUP1 PUSH1 0x4 SWAP1 JUMPDEST PUSH2 0x2099 PUSH2 0x20FC JUMP JUMPDEST DUP2 MSTORE PUSH1 0x20 ADD SWAP1 PUSH1 0x1 SWAP1 SUB SWAP1 DUP2 PUSH2 0x2091 JUMPI SWAP1 POP POP SWAP1 JUMP JUMPDEST PUSH1 0x40 MLOAD DUP1 PUSH1 0x80 ADD PUSH1 0x40 MSTORE DUP1 PUSH1 0x4 SWAP1 JUMPDEST PUSH2 0x20C6 PUSH2 0x20FC JUMP JUMPDEST DUP2 MSTORE PUSH1 0x20 ADD SWAP1 PUSH1 0x1 SWAP1 SUB SWAP1 DUP2 PUSH2 0x20BE JUMPI SWAP1 POP POP SWAP1 JUMP JUMPDEST PUSH1 0x40 MLOAD DUP1 PUSH2 0x2000 ADD PUSH1 0x40 MSTORE DUP1 PUSH2 0x100 SWAP1 PUSH1 0x20 DUP3 MUL DUP1 CALLDATASIZE DUP4 CALLDATACOPY POP SWAP2 SWAP3 SWAP2 POP POP JUMP JUMPDEST PUSH1 0x40 MLOAD DUP1 PUSH2 0x800 ADD PUSH1 0x40 MSTORE DUP1 PUSH1 0x40 SWAP1 PUSH1 0x20 DUP3 MUL DUP1 CALLDATASIZE DUP4 CALLDATACOPY POP SWAP2 SWAP3 SWAP2 POP POP JUMP JUMPDEST PUSH1 0x1 PUSH1 0x1 PUSH1 0xE0 SHL SUB NOT DUP2 AND DUP2 EQ PUSH2 0x8FC JUMPI PUSH0 DUP1 REVERT JUMPDEST PUSH0 PUSH1 0x20 DUP3 DUP5 SUB SLT ISZERO PUSH2 0x2140 JUMPI PUSH0 DUP1 REVERT JUMPDEST DUP2 CALLDATALOAD PUSH2 0xFC3 DUP2 PUSH2 0x211B JUMP JUMPDEST PUSH0 DUP2 MLOAD DUP1 DUP5 MSTORE DUP1 PUSH1 0x20 DUP5 ADD PUSH1 0x20 DUP7 ADD MCOPY PUSH0 PUSH1 0x20 DUP3 DUP7 ADD ADD MSTORE PUSH1 0x20 PUSH1 0x1F NOT PUSH1 0x1F DUP4 ADD AND DUP6 ADD ADD SWAP2 POP POP SWAP3 SWAP2 POP POP JUMP JUMPDEST PUSH1 0x20 DUP2 MSTORE PUSH0 PUSH2 0xFC3 PUSH1 0x20 DUP4 ADD DUP5 PUSH2 0x214B JUMP JUMPDEST PUSH0 PUSH1 0x20 DUP3 DUP5 SUB SLT ISZERO PUSH2 0x219B JUMPI PUSH0 DUP1 REVERT JUMPDEST POP CALLDATALOAD SWAP2 SWAP1 POP JUMP JUMPDEST DUP1 CALLDATALOAD PUSH1 0x1 PUSH1 0x1 PUSH1 0xA0 SHL SUB DUP2 AND DUP2 EQ PUSH2 0x1A15 JUMPI PUSH0 DUP1 REVERT JUMPDEST PUSH0 DUP1 PUSH1 0x40 DUP4 DUP6 SUB SLT ISZERO PUSH2 0x21C9 JUMPI PUSH0 DUP1 REVERT JUMPDEST PUSH2 0x21D2 DUP4 PUSH2 0x21A2 JUMP JUMPDEST SWAP5 PUSH1 0x20 SWAP4 SWAP1 SWAP4 ADD CALLDATALOAD SWAP4 POP POP POP JUMP JUMPDEST PUSH0 DUP1 PUSH0 PUSH1 0x60 DUP5 DUP7 SUB SLT ISZERO PUSH2 0x21F2 JUMPI PUSH0 DUP1 REVERT JUMPDEST PUSH2 0x21FB DUP5 PUSH2 0x21A2 JUMP JUMPDEST SWAP3 POP PUSH2 0x2209 PUSH1 0x20 DUP6 ADD PUSH2 0x21A2 JUMP JUMPDEST SWAP3 SWAP6 SWAP3 SWAP5 POP POP POP PUSH1 0x40 SWAP2 SWAP1 SWAP2 ADD CALLDATALOAD SWAP1 JUMP JUMPDEST PUSH0 DUP1 PUSH1 0x40 DUP4 DUP6 SUB SLT ISZERO PUSH2 0x222B JUMPI PUSH0 DUP1 REVERT JUMPDEST POP POP DUP1 CALLDATALOAD SWAP3 PUSH1 0x20 SWAP1 SWAP2 ADD CALLDATALOAD SWAP2 POP JUMP JUMPDEST PUSH0 DUP1 PUSH1 0x20 DUP4 DUP6 SUB SLT ISZERO PUSH2 0x224B JUMPI PUSH0 DUP1 REVERT JUMPDEST DUP3 CALLDATALOAD PUSH8 0xFFFFFFFFFFFFFFFF DUP2 GT ISZERO PUSH2 0x2261 JUMPI PUSH0 DUP1 REVERT JUMPDEST DUP4 ADD PUSH1 0x1F DUP2 ADD DUP6 SGT PUSH2 0x2271 JUMPI PUSH0 DUP1 REVERT JUMPDEST DUP1 CALLDATALOAD PUSH8 0xFFFFFFFFFFFFFFFF DUP2 GT ISZERO PUSH2 0x2287 JUMPI PUSH0 DUP1 REVERT JUMPDEST DUP6 PUSH1 0x20 DUP3 PUSH1 0x5 SHL DUP5 ADD ADD GT ISZERO PUSH2 0x229B JUMPI PUSH0 DUP1 REVERT JUMPDEST PUSH1 0x20 SWAP2 SWAP1 SWAP2 ADD SWAP6 SWAP1 SWAP5 POP SWAP3 POP POP POP JUMP JUMPDEST PUSH0 PUSH1 0x20 DUP3 DUP5 SUB SLT ISZERO PUSH2 0x22BB JUMPI PUSH0 DUP1 REVERT JUMPDEST PUSH2 0xFC3 DUP3 PUSH2 0x21A2 JUMP JUMPDEST PUSH0 DUP1 PUSH1 0x40 DUP4 DUP6 SUB SLT ISZERO PUSH2 0x22D5 JUMPI PUSH0 DUP1 REVERT JUMPDEST PUSH2 0x22DE DUP4 PUSH2 0x21A2 JUMP JUMPDEST SWAP2 POP PUSH1 0x20 DUP4 ADD CALLDATALOAD PUSH1 0x1 PUSH1 0x1 PUSH1 0x60 SHL SUB DUP2 AND DUP2 EQ PUSH2 0x22F9 JUMPI PUSH0 DUP1 REVERT JUMPDEST DUP1 SWAP2 POP POP SWAP3 POP SWAP3 SWAP1 POP JUMP JUMPDEST PUSH0 DUP1 PUSH1 0x40 DUP4 DUP6 SUB SLT ISZERO PUSH2 0x2315 JUMPI PUSH0 DUP1 REVERT JUMPDEST PUSH2 0x231E DUP4 PUSH2 0x21A2 JUMP JUMPDEST SWAP2 POP PUSH1 0x20 DUP4 ADD CALLDATALOAD DUP1 ISZERO ISZERO DUP2 EQ PUSH2 0x22F9 JUMPI PUSH0 DUP1 REVERT JUMPDEST PUSH4 0x4E487B71 PUSH1 0xE0 SHL PUSH0 MSTORE PUSH1 0x41 PUSH1 0x4 MSTORE PUSH1 0x24 PUSH0 REVERT JUMPDEST PUSH1 0x40 MLOAD PUSH1 0x1F DUP3 ADD PUSH1 0x1F NOT AND DUP2 ADD PUSH8 0xFFFFFFFFFFFFFFFF DUP2 GT DUP3 DUP3 LT OR ISZERO PUSH2 0x236F JUMPI PUSH2 0x236F PUSH2 0x2332 JUMP JUMPDEST PUSH1 0x40 MSTORE SWAP2 SWAP1 POP JUMP JUMPDEST PUSH0 PUSH8 0xFFFFFFFFFFFFFFFF DUP3 GT ISZERO PUSH2 0x2390 JUMPI PUSH2 0x2390 PUSH2 0x2332 JUMP JUMPDEST POP PUSH1 0x1F ADD PUSH1 0x1F NOT AND PUSH1 0x20 ADD SWAP1 JUMP JUMPDEST PUSH0 DUP1 PUSH0 DUP1 PUSH1 0x80 DUP6 DUP8 SUB SLT ISZERO PUSH2 0x23B1 JUMPI PUSH0 DUP1 REVERT JUMPDEST PUSH2 0x23BA DUP6 PUSH2 0x21A2 JUMP JUMPDEST SWAP4 POP PUSH2 0x23C8 PUSH1 0x20 DUP7 ADD PUSH2 0x21A2 JUMP JUMPDEST SWAP3 POP PUSH1 0x40 DUP6 ADD CALLDATALOAD SWAP2 POP PUSH1 0x60 DUP6 ADD CALLDATALOAD PUSH8 0xFFFFFFFFFFFFFFFF DUP2 GT ISZERO PUSH2 0x23EA JUMPI PUSH0 DUP1 REVERT JUMPDEST DUP6 ADD PUSH1 0x1F DUP2 ADD DUP8 SGT PUSH2 0x23FA JUMPI PUSH0 DUP1 REVERT JUMPDEST DUP1 CALLDATALOAD PUSH2 0x240D PUSH2 0x2408 DUP3 PUSH2 0x2377 JUMP JUMPDEST PUSH2 0x2346 JUMP JUMPDEST DUP2 DUP2 MSTORE DUP9 PUSH1 0x20 DUP4 DUP6 ADD ADD GT ISZERO PUSH2 0x2421 JUMPI PUSH0 DUP1 REVERT JUMPDEST DUP2 PUSH1 0x20 DUP5 ADD PUSH1 0x20 DUP4 ADD CALLDATACOPY PUSH0 PUSH1 0x20 DUP4 DUP4 ADD ADD MSTORE DUP1 SWAP4 POP POP POP POP SWAP3 SWAP6 SWAP2 SWAP5 POP SWAP3 POP JUMP JUMPDEST PUSH0 DUP1 PUSH1 0x40 DUP4 DUP6 SUB SLT ISZERO PUSH2 0x2453 JUMPI PUSH0 DUP1 REVERT JUMPDEST PUSH2 0x245C DUP4 PUSH2 0x21A2 JUMP JUMPDEST SWAP2 POP PUSH2 0x246A PUSH1 0x20 DUP5 ADD PUSH2 0x21A2 JUMP JUMPDEST SWAP1 POP SWAP3 POP SWAP3 SWAP1 POP JUMP JUMPDEST PUSH1 0x1 DUP2 DUP2 SHR SWAP1 DUP3 AND DUP1 PUSH2 0x2487 JUMPI PUSH1 0x7F DUP3 AND SWAP2 POP JUMPDEST PUSH1 0x20 DUP3 LT DUP2 SUB PUSH2 0x1B41 JUMPI PUSH4 0x4E487B71 PUSH1 0xE0 SHL PUSH0 MSTORE PUSH1 0x22 PUSH1 0x4 MSTORE PUSH1 0x24 PUSH0 REVERT JUMPDEST PUSH4 0x4E487B71 PUSH1 0xE0 SHL PUSH0 MSTORE PUSH1 0x11 PUSH1 0x4 MSTORE PUSH1 0x24 PUSH0 REVERT JUMPDEST DUP1 DUP3 ADD DUP1 DUP3 GT ISZERO PUSH2 0x584 JUMPI PUSH2 0x584 PUSH2 0x24A5 JUMP JUMPDEST DUP2 DUP2 SUB DUP2 DUP2 GT ISZERO PUSH2 0x584 JUMPI PUSH2 0x584 PUSH2 0x24A5 JUMP JUMPDEST DUP1 DUP3 MUL DUP2 ISZERO DUP3 DUP3 DIV DUP5 EQ OR PUSH2 0x584 JUMPI PUSH2 0x584 PUSH2 0x24A5 JUMP JUMPDEST PUSH4 0x4E487B71 PUSH1 0xE0 SHL PUSH0 MSTORE PUSH1 0x12 PUSH1 0x4 MSTORE PUSH1 0x24 PUSH0 REVERT JUMPDEST PUSH0 DUP3 PUSH2 0x2518 JUMPI PUSH2 0x2518 PUSH2 0x24F6 JUMP JUMPDEST POP DIV SWAP1 JUMP JUMPDEST PUSH4 0x4E487B71 PUSH1 0xE0 SHL PUSH0 MSTORE PUSH1 0x32 PUSH1 0x4 MSTORE PUSH1 0x24 PUSH0 REVERT JUMPDEST PUSH0 PUSH1 0x20 DUP3 DUP5 SUB SLT ISZERO PUSH2 0x2541 JUMPI PUSH0 DUP1 REVERT JUMPDEST DUP2 MLOAD PUSH8 0xFFFFFFFFFFFFFFFF DUP2 GT ISZERO PUSH2 0x2557 JUMPI PUSH0 DUP1 REVERT JUMPDEST DUP3 ADD PUSH1 0x1F DUP2 ADD DUP5 SGT PUSH2 0x2567 JUMPI PUSH0 DUP1 REVERT JUMPDEST DUP1 MLOAD PUSH2 0x2575 PUSH2 0x2408 DUP3 PUSH2 0x2377 JUMP JUMPDEST DUP2 DUP2 MSTORE DUP6 PUSH1 0x20 DUP4 DUP6 ADD ADD GT ISZERO PUSH2 0x2589 JUMPI PUSH0 DUP1 REVERT JUMPDEST DUP2 PUSH1 0x20 DUP5 ADD PUSH1 0x20 DUP4 ADD MCOPY PUSH0 SWAP2 DUP2 ADD PUSH1 0x20 ADD SWAP2 SWAP1 SWAP2 MSTORE SWAP5 SWAP4 POP POP POP POP JUMP JUMPDEST PUSH0 DUP2 MLOAD DUP1 PUSH1 0x20 DUP5 ADD DUP6 MCOPY PUSH0 SWAP4 ADD SWAP3 DUP4 MSTORE POP SWAP1 SWAP2 SWAP1 POP JUMP JUMPDEST PUSH32 0x7B202274726169745F74797065223A2242616C616E636564222C202276616C75 DUP2 MSTORE PUSH4 0x32911D11 PUSH1 0xE1 SHL PUSH1 0x20 DUP3 ADD MSTORE PUSH0 PUSH2 0x25FB PUSH1 0x24 DUP4 ADD DUP7 PUSH2 0x25A6 JUMP JUMPDEST PUSH4 0x8881F4B PUSH1 0xE2 SHL DUP2 MSTORE PUSH32 0x7B202274726169745F74797065223A225061737361676573222C202276616C75 PUSH1 0x4 DUP3 ADD MSTORE PUSH4 0x32911D11 PUSH1 0xE1 SHL PUSH1 0x24 DUP3 ADD MSTORE PUSH2 0x2645 PUSH1 0x28 DUP3 ADD DUP7 PUSH2 0x25A6 JUMP JUMPDEST PUSH4 0x8881F4B PUSH1 0xE2 SHL DUP2 MSTORE PUSH32 0x7B202274726169745F74797065223A22536F757263652068617368222C202276 PUSH1 0x4 DUP3 ADD MSTORE PUSH7 0x30B63AB2911D11 PUSH1 0xC9 SHL PUSH1 0x24 DUP3 ADD MSTORE SWAP1 POP PUSH2 0x2694 PUSH1 0x2B DUP3 ADD DUP6 PUSH2 0x25A6 JUMP JUMPDEST PUSH3 0x22207D PUSH1 0xE8 SHL DUP2 MSTORE PUSH1 0x3 ADD SWAP7 SWAP6 POP POP POP POP POP POP JUMP JUMPDEST PUSH19 0x7B226E616D65223A22486173684A696E672023 PUSH1 0x68 SHL DUP2 MSTORE PUSH0 PUSH2 0x26D1 PUSH1 0x13 DUP4 ADD DUP7 PUSH2 0x25A6 JUMP JUMPDEST PUSH2 0x88B PUSH1 0xF2 SHL DUP2 MSTORE PUSH32 0x226465736372697074696F6E223A2246756C6C79206F6E2D636861696E204861 PUSH1 0x2 DUP3 ADD MSTORE PUSH32 0x73684A696E67206D616E64616C61205C753230313420612064657465726D696E PUSH1 0x22 DUP3 ADD MSTORE PUSH32 0x697374696320676C79706820776865726520656E74726F7079206265636F6D65 PUSH1 0x42 DUP3 ADD MSTORE PUSH9 0x1CC8199BDC9B4B888B PUSH1 0xBA SHL PUSH1 0x62 DUP3 ADD MSTORE PUSH32 0x2263726561746F72223A2244617461536174747661222C000000000000000000 PUSH1 0x6B DUP3 ADD MSTORE PUSH32 0x2265787465726E616C5F75726C223A2268747470733A2F2F6769746875622E63 PUSH1 0x82 DUP3 ADD MSTORE PUSH32 0x6F6D2F446174615361747476612F686173686A696E672D6E6674222C00000000 PUSH1 0xA2 DUP3 ADD MSTORE PUSH32 0x226C6963656E7365223A2243432042592D4E4320342E30202B2048617368204A PUSH1 0xBE DUP3 ADD SWAP1 DUP2 MSTORE PUSH32 0x696E6720436F6D6D65726369616C204C6963656E73652076312E30222C22696D PUSH1 0xDE DUP4 ADD MSTORE PUSH32 0x616765223A22646174613A696D6167652F7376672B786D6C3B6261736536342C PUSH1 0xFE DUP4 ADD MSTORE SWAP1 PUSH2 0x11E ADD PUSH2 0x289A PUSH2 0x288C PUSH2 0x2886 PUSH2 0x286C PUSH2 0x285E DUP6 DUP12 PUSH2 0x25A6 JUMP JUMPDEST PUSH2 0x88B PUSH1 0xF2 SHL DUP2 MSTORE PUSH1 0x2 ADD SWAP1 JUMP JUMPDEST PUSH14 0x2261747472696275746573223A5B PUSH1 0x90 SHL DUP2 MSTORE PUSH1 0xE ADD SWAP1 JUMP JUMPDEST DUP8 PUSH2 0x25A6 JUMP JUMPDEST PUSH2 0x5D7D PUSH1 0xF0 SHL DUP2 MSTORE PUSH1 0x2 ADD SWAP1 JUMP JUMPDEST SWAP8 SWAP7 POP POP POP POP POP POP POP JUMP JUMPDEST PUSH32 0x646174613A6170706C69636174696F6E2F6A736F6E3B6261736536342C000000 DUP2 MSTORE PUSH0 PUSH2 0xFC3 PUSH1 0x1D DUP4 ADD DUP5 PUSH2 0x25A6 JUMP JUMPDEST PUSH1 0x1 PUSH1 0x1 PUSH1 0xA0 SHL SUB DUP6 DUP2 AND DUP3 MSTORE DUP5 AND PUSH1 0x20 DUP3 ADD MSTORE PUSH1 0x40 DUP2 ADD DUP4 SWAP1 MSTORE PUSH1 0x80 PUSH1 0x60 DUP3 ADD DUP2 SWAP1 MSTORE PUSH0 SWAP1 PUSH2 0x2908 SWAP1 DUP4 ADD DUP5 PUSH2 0x214B JUMP JUMPDEST SWAP7 SWAP6 POP POP POP POP POP POP JUMP JUMPDEST PUSH0 PUSH1 0x20 DUP3 DUP5 SUB SLT ISZERO PUSH2 0x2922 JUMPI PUSH0 DUP1 REVERT JUMPDEST DUP2 MLOAD PUSH2 0xFC3 DUP2 PUSH2 0x211B JUMP JUMPDEST PUSH0 PUSH1 0xFF DUP3 AND PUSH1 0xFF DUP2 SUB PUSH2 0x2942 JUMPI PUSH2 0x2942 PUSH2 0x24A5 JUMP JUMPDEST PUSH1 0x1 ADD SWAP3 SWAP2 POP POP JUMP JUMPDEST PUSH0 DUP2 PUSH2 0x2959 JUMPI PUSH2 0x2959 PUSH2 0x24A5 JUMP JUMPDEST POP PUSH0 NOT ADD SWAP1 JUMP JUMPDEST PUSH1 0xFF DUP2 DUP2 AND DUP4 DUP3 AND ADD SWAP1 DUP2 GT ISZERO PUSH2 0x584 JUMPI PUSH2 0x584 PUSH2 0x24A5 JUMP JUMPDEST PUSH1 0xFF DUP3 DUP2 AND DUP3 DUP3 AND SUB SWAP1 DUP2 GT ISZERO PUSH2 0x584 JUMPI PUSH2 0x584 PUSH2 0x24A5 JUMP JUMPDEST PUSH0 PUSH1 0x1 DUP3 ADD PUSH2 0x29A3 JUMPI PUSH2 0x29A3 PUSH2 0x24A5 JUMP JUMPDEST POP PUSH1 0x1 ADD SWAP1 JUMP JUMPDEST PUSH2 0xFFFF DUP2 DUP2 AND DUP4 DUP3 AND ADD SWAP1 DUP2 GT ISZERO PUSH2 0x584 JUMPI PUSH2 0x584 PUSH2 0x24A5 JUMP JUMPDEST PUSH2 0xFFFF DUP3 DUP2 AND DUP3 DUP3 AND SUB SWAP1 DUP2 GT ISZERO PUSH2 0x584 JUMPI PUSH2 0x584 PUSH2 0x24A5 JUMP JUMPDEST PUSH0 PUSH2 0xFFFF DUP4 AND DUP1 PUSH2 0x29F1 JUMPI PUSH2 0x29F1 PUSH2 0x24F6 JUMP JUMPDEST DUP1 PUSH2 0xFFFF DUP5 AND MOD SWAP2 POP POP SWAP3 SWAP2 POP POP JUMP INVALID COINBASE TIMESTAMP NUMBER PREVRANDAO GASLIMIT CHAINID SELFBALANCE BASEFEE BLOBHASH BLOBBASEFEE 0x4B 0x4C 0x4D 0x4E 0x4F POP MLOAD MSTORE MSTORE8 SLOAD SSTORE JUMP JUMPI PC MSIZE GAS PUSH2 0x6263 PUSH5 0x6566676869 PUSH11 0x6B6C6D6E6F707172737475 PUSH23 0x7778797A303132333435363738392B2FA2646970667358 0x22 SLT KECCAK256 DUP15 0xB5 0xB1 PC 0xF PUSH4 0xD3D71877 0xA6 0xD1 ADDMOD SWAP9 SDIV 0xBF EQ TSTORE PUSH22 0x6E6823F924CB6E671E9E772D0864736F6C634300081A STOP CALLER "
		},
		"gasEstimates": {
			"creation": {
				"codeDepositCost": "2174200",
				"executionCost": "infinite",
				"totalCost": "infinite"
			},
			"external": {
				"GENESIS_PRICE()": "261",
				"GENESIS_SUPPLY()": "283",
				"MAX_ROYALTY_BPS()": "327",
				"allowlistOnly()": "2399",
				"approve(address,uint256)": "31487",
				"balanceOf(address)": "2696",
				"disableAllowlist()": "29470",
				"enableMinting()": "29490",
				"getApproved(uint256)": "infinite",
				"isApprovedForAll(address,address)": "infinite",
				"mint()": "infinite",
				"mintingEnabled()": "2409",
				"name()": "infinite",
				"owner()": "2420",
				"ownerOf(uint256)": "infinite",
				"renderer()": "infinite",
				"renounceOwnership()": "297",
				"royaltyInfo(uint256,uint256)": "5017",
				"safeTransferFrom(address,address,uint256)": "infinite",
				"safeTransferFrom(address,address,uint256,bytes)": "infinite",
				"setAllowList(address[])": "infinite",
				"setApprovalForAll(address,bool)": "26701",
				"setRoyalty(address,uint96)": "24983",
				"supportsInterface(bytes4)": "infinite",
				"symbol()": "infinite",
				"tokenURI(uint256)": "infinite",
				"totalSupply()": "2481",
				"transferFrom(address,address,uint256)": "infinite",
				"transferOwnership(address)": "28443",
				"withdraw()": "infinite"
			},
			"internal": {
				"_bfs(uint8[64] memory[4] memory,bool[64] memory[4] memory,bool[64] memory[4] memory,uint8)": "infinite",
				"_countOnes(uint8)": "infinite",
				"_countPassages(bytes32)": "infinite",
				"_existsLocal(uint256)": "4375",
				"_generateSeed(uint256)": "infinite",
				"_isBalanced(bytes32)": "infinite",
				"_maybeEnqueue(uint8[64] memory[4] memory,bool[64] memory[4] memory,bool[64] memory[4] memory,uint16[256] memory,uint16[256] memory,uint16,uint16,uint256)": "infinite",
				"_toBitGrid(bytes32)": "infinite"
			}
		},
		"methodIdentifiers": {
			"GENESIS_PRICE()": "b85f3fb8",
			"GENESIS_SUPPLY()": "99ec6765",
			"MAX_ROYALTY_BPS()": "3dca40e6",
			"allowlistOnly()": "3d141aa3",
			"approve(address,uint256)": "095ea7b3",
			"balanceOf(address)": "70a08231",
			"disableAllowlist()": "cf8e629a",
			"enableMinting()": "e797ec1b",
			"getApproved(uint256)": "081812fc",
			"isApprovedForAll(address,address)": "e985e9c5",
			"mint()": "1249c58b",
			"mintingEnabled()": "9fd6db12",
			"name()": "06fdde03",
			"owner()": "8da5cb5b",
			"ownerOf(uint256)": "6352211e",
			"renderer()": "8ada6b0f",
			"renounceOwnership()": "715018a6",
			"royaltyInfo(uint256,uint256)": "2a55205a",
			"safeTransferFrom(address,address,uint256)": "42842e0e",
			"safeTransferFrom(address,address,uint256,bytes)": "b88d4fde",
			"setAllowList(address[])": "6447c35d",
			"setApprovalForAll(address,bool)": "a22cb465",
			"setRoyalty(address,uint96)": "8f2fc60b",
			"supportsInterface(bytes4)": "01ffc9a7",
			"symbol()": "95d89b41",
			"tokenURI(uint256)": "c87b56dd",
			"totalSupply()": "18160ddd",
			"transferFrom(address,address,uint256)": "23b872dd",
			"transferOwnership(address)": "f2fde38b",
			"withdraw()": "3ccfd60b"
		}
	},
	"abi": [
		{
			"inputs": [
				{
					"internalType": "address",
					"name": "rendererAddr",
					"type": "address"
				}
			],
			"stateMutability": "nonpayable",
			"type": "constructor"
		},
		{
			"inputs": [
				{
					"internalType": "uint256",
					"name": "numerator",
					"type": "uint256"
				},
				{
					"internalType": "uint256",
					"name": "denominator",
					"type": "uint256"
				}
			],
			"name": "ERC2981InvalidDefaultRoyalty",
			"type": "error"
		},
		{
			"inputs": [
				{
					"internalType": "address",
					"name": "receiver",
					"type": "address"
				}
			],
			"name": "ERC2981InvalidDefaultRoyaltyReceiver",
			"type": "error"
		},
		{
			"inputs": [
				{
					"internalType": "uint256",
					"name": "tokenId",
					"type": "uint256"
				},
				{
					"internalType": "uint256",
					"name": "numerator",
					"type": "uint256"
				},
				{
					"internalType": "uint256",
					"name": "denominator",
					"type": "uint256"
				}
			],
			"name": "ERC2981InvalidTokenRoyalty",
			"type": "error"
		},
		{
			"inputs": [
				{
					"internalType": "uint256",
					"name": "tokenId",
					"type": "uint256"
				},
				{
					"internalType": "address",
					"name": "receiver",
					"type": "address"
				}
			],
			"name": "ERC2981InvalidTokenRoyaltyReceiver",
			"type": "error"
		},
		{
			"inputs": [
				{
					"internalType": "address",
					"name": "sender",
					"type": "address"
				},
				{
					"internalType": "uint256",
					"name": "tokenId",
					"type": "uint256"
				},
				{
					"internalType": "address",
					"name": "owner",
					"type": "address"
				}
			],
			"name": "ERC721IncorrectOwner",
			"type": "error"
		},
		{
			"inputs": [
				{
					"internalType": "address",
					"name": "operator",
					"type": "address"
				},
				{
					"internalType": "uint256",
					"name": "tokenId",
					"type": "uint256"
				}
			],
			"name": "ERC721InsufficientApproval",
			"type": "error"
		},
		{
			"inputs": [
				{
					"internalType": "address",
					"name": "approver",
					"type": "address"
				}
			],
			"name": "ERC721InvalidApprover",
			"type": "error"
		},
		{
			"inputs": [
				{
					"internalType": "address",
					"name": "operator",
					"type": "address"
				}
			],
			"name": "ERC721InvalidOperator",
			"type": "error"
		},
		{
			"inputs": [
				{
					"internalType": "address",
					"name": "owner",
					"type": "address"
				}
			],
			"name": "ERC721InvalidOwner",
			"type": "error"
		},
		{
			"inputs": [
				{
					"internalType": "address",
					"name": "receiver",
					"type": "address"
				}
			],
			"name": "ERC721InvalidReceiver",
			"type": "error"
		},
		{
			"inputs": [
				{
					"internalType": "address",
					"name": "sender",
					"type": "address"
				}
			],
			"name": "ERC721InvalidSender",
			"type": "error"
		},
		{
			"inputs": [
				{
					"internalType": "uint256",
					"name": "tokenId",
					"type": "uint256"
				}
			],
			"name": "ERC721NonexistentToken",
			"type": "error"
		},
		{
			"inputs": [],
			"name": "MintAlreadyEnabled",
			"type": "error"
		},
		{
			"inputs": [],
			"name": "MintDisabled",
			"type": "error"
		},
		{
			"inputs": [],
			"name": "NonexistentToken",
			"type": "error"
		},
		{
			"inputs": [],
			"name": "NotWhitelisted",
			"type": "error"
		},
		{
			"inputs": [
				{
					"internalType": "address",
					"name": "owner",
					"type": "address"
				}
			],
			"name": "OwnableInvalidOwner",
			"type": "error"
		},
		{
			"inputs": [
				{
					"internalType": "address",
					"name": "account",
					"type": "address"
				}
			],
			"name": "OwnableUnauthorizedAccount",
			"type": "error"
		},
		{
			"inputs": [],
			"name": "ReentrancyGuardReentrantCall",
			"type": "error"
		},
		{
			"inputs": [],
			"name": "SoldOut",
			"type": "error"
		},
		{
			"inputs": [
				{
					"internalType": "uint256",
					"name": "value",
					"type": "uint256"
				},
				{
					"internalType": "uint256",
					"name": "length",
					"type": "uint256"
				}
			],
			"name": "StringsInsufficientHexLength",
			"type": "error"
		},
		{
			"inputs": [],
			"name": "WrongMintFee",
			"type": "error"
		},
		{
			"anonymous": false,
			"inputs": [],
			"name": "AllowlistDisabled",
			"type": "event"
		},
		{
			"anonymous": false,
			"inputs": [
				{
					"indexed": true,
					"internalType": "address",
					"name": "owner",
					"type": "address"
				},
				{
					"indexed": true,
					"internalType": "address",
					"name": "approved",
					"type": "address"
				},
				{
					"indexed": true,
					"internalType": "uint256",
					"name": "tokenId",
					"type": "uint256"
				}
			],
			"name": "Approval",
			"type": "event"
		},
		{
			"anonymous": false,
			"inputs": [
				{
					"indexed": true,
					"internalType": "address",
					"name": "owner",
					"type": "address"
				},
				{
					"indexed": true,
					"internalType": "address",
					"name": "operator",
					"type": "address"
				},
				{
					"indexed": false,
					"internalType": "bool",
					"name": "approved",
					"type": "bool"
				}
			],
			"name": "ApprovalForAll",
			"type": "event"
		},
		{
			"anonymous": false,
			"inputs": [],
			"name": "MintingEnabled",
			"type": "event"
		},
		{
			"anonymous": false,
			"inputs": [
				{
					"indexed": true,
					"internalType": "address",
					"name": "previousOwner",
					"type": "address"
				},
				{
					"indexed": true,
					"internalType": "address",
					"name": "newOwner",
					"type": "address"
				}
			],
			"name": "OwnershipTransferred",
			"type": "event"
		},
		{
			"anonymous": false,
			"inputs": [
				{
					"indexed": true,
					"internalType": "address",
					"name": "from",
					"type": "address"
				},
				{
					"indexed": true,
					"internalType": "address",
					"name": "to",
					"type": "address"
				},
				{
					"indexed": true,
					"internalType": "uint256",
					"name": "tokenId",
					"type": "uint256"
				}
			],
			"name": "Transfer",
			"type": "event"
		},
		{
			"inputs": [],
			"name": "GENESIS_PRICE",
			"outputs": [
				{
					"internalType": "uint256",
					"name": "",
					"type": "uint256"
				}
			],
			"stateMutability": "view",
			"type": "function"
		},
		{
			"inputs": [],
			"name": "GENESIS_SUPPLY",
			"outputs": [
				{
					"internalType": "uint256",
					"name": "",
					"type": "uint256"
				}
			],
			"stateMutability": "view",
			"type": "function"
		},
		{
			"inputs": [],
			"name": "MAX_ROYALTY_BPS",
			"outputs": [
				{
					"internalType": "uint96",
					"name": "",
					"type": "uint96"
				}
			],
			"stateMutability": "view",
			"type": "function"
		},
		{
			"inputs": [],
			"name": "allowlistOnly",
			"outputs": [
				{
					"internalType": "bool",
					"name": "",
					"type": "bool"
				}
			],
			"stateMutability": "view",
			"type": "function"
		},
		{
			"inputs": [
				{
					"internalType": "address",
					"name": "to",
					"type": "address"
				},
				{
					"internalType": "uint256",
					"name": "tokenId",
					"type": "uint256"
				}
			],
			"name": "approve",
			"outputs": [],
			"stateMutability": "nonpayable",
			"type": "function"
		},
		{
			"inputs": [
				{
					"internalType": "address",
					"name": "owner",
					"type": "address"
				}
			],
			"name": "balanceOf",
			"outputs": [
				{
					"internalType": "uint256",
					"name": "",
					"type": "uint256"
				}
			],
			"stateMutability": "view",
			"type": "function"
		},
		{
			"inputs": [],
			"name": "disableAllowlist",
			"outputs": [],
			"stateMutability": "nonpayable",
			"type": "function"
		},
		{
			"inputs": [],
			"name": "enableMinting",
			"outputs": [],
			"stateMutability": "nonpayable",
			"type": "function"
		},
		{
			"inputs": [
				{
					"internalType": "uint256",
					"name": "tokenId",
					"type": "uint256"
				}
			],
			"name": "getApproved",
			"outputs": [
				{
					"internalType": "address",
					"name": "",
					"type": "address"
				}
			],
			"stateMutability": "view",
			"type": "function"
		},
		{
			"inputs": [
				{
					"internalType": "address",
					"name": "owner",
					"type": "address"
				},
				{
					"internalType": "address",
					"name": "operator",
					"type": "address"
				}
			],
			"name": "isApprovedForAll",
			"outputs": [
				{
					"internalType": "bool",
					"name": "",
					"type": "bool"
				}
			],
			"stateMutability": "view",
			"type": "function"
		},
		{
			"inputs": [],
			"name": "mint",
			"outputs": [],
			"stateMutability": "payable",
			"type": "function"
		},
		{
			"inputs": [],
			"name": "mintingEnabled",
			"outputs": [
				{
					"internalType": "bool",
					"name": "",
					"type": "bool"
				}
			],
			"stateMutability": "view",
			"type": "function"
		},
		{
			"inputs": [],
			"name": "name",
			"outputs": [
				{
					"internalType": "string",
					"name": "",
					"type": "string"
				}
			],
			"stateMutability": "view",
			"type": "function"
		},
		{
			"inputs": [],
			"name": "owner",
			"outputs": [
				{
					"internalType": "address",
					"name": "",
					"type": "address"
				}
			],
			"stateMutability": "view",
			"type": "function"
		},
		{
			"inputs": [
				{
					"internalType": "uint256",
					"name": "tokenId",
					"type": "uint256"
				}
			],
			"name": "ownerOf",
			"outputs": [
				{
					"internalType": "address",
					"name": "",
					"type": "address"
				}
			],
			"stateMutability": "view",
			"type": "function"
		},
		{
			"inputs": [],
			"name": "renderer",
			"outputs": [
				{
					"internalType": "contract IMandalaRenderer",
					"name": "",
					"type": "address"
				}
			],
			"stateMutability": "view",
			"type": "function"
		},
		{
			"inputs": [],
			"name": "renounceOwnership",
			"outputs": [],
			"stateMutability": "pure",
			"type": "function"
		},
		{
			"inputs": [
				{
					"internalType": "uint256",
					"name": "tokenId",
					"type": "uint256"
				},
				{
					"internalType": "uint256",
					"name": "salePrice",
					"type": "uint256"
				}
			],
			"name": "royaltyInfo",
			"outputs": [
				{
					"internalType": "address",
					"name": "receiver",
					"type": "address"
				},
				{
					"internalType": "uint256",
					"name": "amount",
					"type": "uint256"
				}
			],
			"stateMutability": "view",
			"type": "function"
		},
		{
			"inputs": [
				{
					"internalType": "address",
					"name": "from",
					"type": "address"
				},
				{
					"internalType": "address",
					"name": "to",
					"type": "address"
				},
				{
					"internalType": "uint256",
					"name": "tokenId",
					"type": "uint256"
				}
			],
			"name": "safeTransferFrom",
			"outputs": [],
			"stateMutability": "nonpayable",
			"type": "function"
		},
		{
			"inputs": [
				{
					"internalType": "address",
					"name": "from",
					"type": "address"
				},
				{
					"internalType": "address",
					"name": "to",
					"type": "address"
				},
				{
					"internalType": "uint256",
					"name": "tokenId",
					"type": "uint256"
				},
				{
					"internalType": "bytes",
					"name": "data",
					"type": "bytes"
				}
			],
			"name": "safeTransferFrom",
			"outputs": [],
			"stateMutability": "nonpayable",
			"type": "function"
		},
		{
			"inputs": [
				{
					"internalType": "address[]",
					"name": "users",
					"type": "address[]"
				}
			],
			"name": "setAllowList",
			"outputs": [],
			"stateMutability": "nonpayable",
			"type": "function"
		},
		{
			"inputs": [
				{
					"internalType": "address",
					"name": "operator",
					"type": "address"
				},
				{
					"internalType": "bool",
					"name": "approved",
					"type": "bool"
				}
			],
			"name": "setApprovalForAll",
			"outputs": [],
			"stateMutability": "nonpayable",
			"type": "function"
		},
		{
			"inputs": [
				{
					"internalType": "address",
					"name": "receiver",
					"type": "address"
				},
				{
					"internalType": "uint96",
					"name": "feeBps",
					"type": "uint96"
				}
			],
			"name": "setRoyalty",
			"outputs": [],
			"stateMutability": "nonpayable",
			"type": "function"
		},
		{
			"inputs": [
				{
					"internalType": "bytes4",
					"name": "iid",
					"type": "bytes4"
				}
			],
			"name": "supportsInterface",
			"outputs": [
				{
					"internalType": "bool",
					"name": "",
					"type": "bool"
				}
			],
			"stateMutability": "view",
			"type": "function"
		},
		{
			"inputs": [],
			"name": "symbol",
			"outputs": [
				{
					"internalType": "string",
					"name": "",
					"type": "string"
				}
			],
			"stateMutability": "view",
			"type": "function"
		},
		{
			"inputs": [
				{
					"internalType": "uint256",
					"name": "id",
					"type": "uint256"
				}
			],
			"name": "tokenURI",
			"outputs": [
				{
					"internalType": "string",
					"name": "",
					"type": "string"
				}
			],
			"stateMutability": "view",
			"type": "function"
		},
		{
			"inputs": [],
			"name": "totalSupply",
			"outputs": [
				{
					"internalType": "uint256",
					"name": "",
					"type": "uint256"
				}
			],
			"stateMutability": "view",
			"type": "function"
		},
		{
			"inputs": [
				{
					"internalType": "address",
					"name": "from",
					"type": "address"
				},
				{
					"internalType": "address",
					"name": "to",
					"type": "address"
				},
				{
					"internalType": "uint256",
					"name": "tokenId",
					"type": "uint256"
				}
			],
			"name": "transferFrom",
			"outputs": [],
			"stateMutability": "nonpayable",
			"type": "function"
		},
		{
			"inputs": [
				{
					"internalType": "address",
					"name": "newOwner",
					"type": "address"
				}
			],
			"name": "transferOwnership",
			"outputs": [],
			"stateMutability": "nonpayable",
			"type": "function"
		},
		{
			"inputs": [],
			"name": "withdraw",
			"outputs": [],
			"stateMutability": "nonpayable",
			"type": "function"
		}
	]
}